{
  "contractName": "MyGov",
  "abi": [
    {
      "inputs": [
        {
          "internalType": "uint256",
          "name": "tokensupply",
          "type": "uint256"
        },
        {
          "internalType": "address",
          "name": "usdStableCoinAddress",
          "type": "address"
        }
      ],
      "stateMutability": "nonpayable",
      "type": "constructor"
    },
    {
      "inputs": [
        {
          "internalType": "address",
          "name": "spender",
          "type": "address"
        },
        {
          "internalType": "uint256",
          "name": "allowance",
          "type": "uint256"
        },
        {
          "internalType": "uint256",
          "name": "needed",
          "type": "uint256"
        }
      ],
      "name": "ERC20InsufficientAllowance",
      "type": "error"
    },
    {
      "inputs": [
        {
          "internalType": "address",
          "name": "sender",
          "type": "address"
        },
        {
          "internalType": "uint256",
          "name": "balance",
          "type": "uint256"
        },
        {
          "internalType": "uint256",
          "name": "needed",
          "type": "uint256"
        }
      ],
      "name": "ERC20InsufficientBalance",
      "type": "error"
    },
    {
      "inputs": [
        {
          "internalType": "address",
          "name": "approver",
          "type": "address"
        }
      ],
      "name": "ERC20InvalidApprover",
      "type": "error"
    },
    {
      "inputs": [
        {
          "internalType": "address",
          "name": "receiver",
          "type": "address"
        }
      ],
      "name": "ERC20InvalidReceiver",
      "type": "error"
    },
    {
      "inputs": [
        {
          "internalType": "address",
          "name": "sender",
          "type": "address"
        }
      ],
      "name": "ERC20InvalidSender",
      "type": "error"
    },
    {
      "inputs": [
        {
          "internalType": "address",
          "name": "spender",
          "type": "address"
        }
      ],
      "name": "ERC20InvalidSpender",
      "type": "error"
    },
    {
      "anonymous": false,
      "inputs": [
        {
          "indexed": true,
          "internalType": "address",
          "name": "owner",
          "type": "address"
        },
        {
          "indexed": true,
          "internalType": "address",
          "name": "spender",
          "type": "address"
        },
        {
          "indexed": false,
          "internalType": "uint256",
          "name": "value",
          "type": "uint256"
        }
      ],
      "name": "Approval",
      "type": "event"
    },
    {
      "anonymous": false,
      "inputs": [
        {
          "indexed": false,
          "internalType": "uint256",
          "name": "projectId",
          "type": "uint256"
        },
        {
          "indexed": false,
          "internalType": "address",
          "name": "account",
          "type": "address"
        }
      ],
      "name": "ProjectSubmitted",
      "type": "event"
    },
    {
      "anonymous": false,
      "inputs": [
        {
          "indexed": false,
          "internalType": "uint256",
          "name": "surveyId",
          "type": "uint256"
        },
        {
          "indexed": false,
          "internalType": "address",
          "name": "account",
          "type": "address"
        }
      ],
      "name": "SurveySubmitted",
      "type": "event"
    },
    {
      "anonymous": false,
      "inputs": [
        {
          "indexed": true,
          "internalType": "address",
          "name": "from",
          "type": "address"
        },
        {
          "indexed": true,
          "internalType": "address",
          "name": "to",
          "type": "address"
        },
        {
          "indexed": false,
          "internalType": "uint256",
          "name": "value",
          "type": "uint256"
        }
      ],
      "name": "Transfer",
      "type": "event"
    },
    {
      "inputs": [],
      "name": "USD_BaseCoinContract",
      "outputs": [
        {
          "internalType": "contract USD_Stable_Coin",
          "name": "",
          "type": "address"
        }
      ],
      "stateMutability": "view",
      "type": "function"
    },
    {
      "inputs": [
        {
          "internalType": "address",
          "name": "owner",
          "type": "address"
        },
        {
          "internalType": "address",
          "name": "spender",
          "type": "address"
        }
      ],
      "name": "allowance",
      "outputs": [
        {
          "internalType": "uint256",
          "name": "",
          "type": "uint256"
        }
      ],
      "stateMutability": "view",
      "type": "function"
    },
    {
      "inputs": [
        {
          "internalType": "address",
          "name": "spender",
          "type": "address"
        },
        {
          "internalType": "uint256",
          "name": "value",
          "type": "uint256"
        }
      ],
      "name": "approve",
      "outputs": [
        {
          "internalType": "bool",
          "name": "",
          "type": "bool"
        }
      ],
      "stateMutability": "nonpayable",
      "type": "function"
    },
    {
      "inputs": [
        {
          "internalType": "address",
          "name": "account",
          "type": "address"
        }
      ],
      "name": "balanceOf",
      "outputs": [
        {
          "internalType": "uint256",
          "name": "",
          "type": "uint256"
        }
      ],
      "stateMutability": "view",
      "type": "function"
    },
    {
      "inputs": [],
      "name": "decimals",
      "outputs": [
        {
          "internalType": "uint8",
          "name": "",
          "type": "uint8"
        }
      ],
      "stateMutability": "view",
      "type": "function"
    },
    {
      "inputs": [],
      "name": "name",
      "outputs": [
        {
          "internalType": "string",
          "name": "",
          "type": "string"
        }
      ],
      "stateMutability": "view",
      "type": "function"
    },
    {
      "inputs": [
        {
          "internalType": "uint256",
          "name": "",
          "type": "uint256"
        }
      ],
      "name": "projects",
      "outputs": [
        {
          "internalType": "uint256",
          "name": "id",
          "type": "uint256"
        },
        {
          "internalType": "string",
          "name": "ipfsHash",
          "type": "string"
        },
        {
          "internalType": "uint256",
          "name": "voteDeadline",
          "type": "uint256"
        },
        {
          "internalType": "uint256",
          "name": "currPaymentIndex",
          "type": "uint256"
        },
        {
          "internalType": "uint256",
          "name": "yesVoteCount",
          "type": "uint256"
        },
        {
          "internalType": "address",
          "name": "owner",
          "type": "address"
        },
        {
          "internalType": "bool",
          "name": "isReserved",
          "type": "bool"
        },
        {
          "internalType": "uint256",
          "name": "received_USD_amount",
          "type": "uint256"
        },
        {
          "internalType": "bool",
          "name": "allPaymentWithdrawn",
          "type": "bool"
        }
      ],
      "stateMutability": "view",
      "type": "function"
    },
    {
      "inputs": [
        {
          "internalType": "uint256",
          "name": "",
          "type": "uint256"
        }
      ],
      "name": "surveys",
      "outputs": [
        {
          "internalType": "uint256",
          "name": "id",
          "type": "uint256"
        },
        {
          "internalType": "string",
          "name": "ipfsHash",
          "type": "string"
        },
        {
          "internalType": "uint256",
          "name": "deadline",
          "type": "uint256"
        },
        {
          "internalType": "uint256",
          "name": "numChoices",
          "type": "uint256"
        },
        {
          "internalType": "uint256",
          "name": "atMostChoice",
          "type": "uint256"
        },
        {
          "internalType": "address",
          "name": "owner",
          "type": "address"
        },
        {
          "internalType": "uint256",
          "name": "numTaken",
          "type": "uint256"
        }
      ],
      "stateMutability": "view",
      "type": "function"
    },
    {
      "inputs": [],
      "name": "symbol",
      "outputs": [
        {
          "internalType": "string",
          "name": "",
          "type": "string"
        }
      ],
      "stateMutability": "view",
      "type": "function"
    },
    {
      "inputs": [],
      "name": "totalSupply",
      "outputs": [
        {
          "internalType": "uint256",
          "name": "",
          "type": "uint256"
        }
      ],
      "stateMutability": "view",
      "type": "function"
    },
    {
      "inputs": [
        {
          "internalType": "address",
          "name": "to",
          "type": "address"
        },
        {
          "internalType": "uint256",
          "name": "value",
          "type": "uint256"
        }
      ],
      "name": "transfer",
      "outputs": [
        {
          "internalType": "bool",
          "name": "",
          "type": "bool"
        }
      ],
      "stateMutability": "nonpayable",
      "type": "function"
    },
    {
      "inputs": [
        {
          "internalType": "address",
          "name": "from",
          "type": "address"
        },
        {
          "internalType": "address",
          "name": "to",
          "type": "address"
        },
        {
          "internalType": "uint256",
          "name": "value",
          "type": "uint256"
        }
      ],
      "name": "transferFrom",
      "outputs": [
        {
          "internalType": "bool",
          "name": "",
          "type": "bool"
        }
      ],
      "stateMutability": "nonpayable",
      "type": "function"
    },
    {
      "inputs": [
        {
          "internalType": "uint256",
          "name": "amount",
          "type": "uint256"
        }
      ],
      "name": "donateUSD",
      "outputs": [],
      "stateMutability": "nonpayable",
      "type": "function"
    },
    {
      "inputs": [
        {
          "internalType": "uint256",
          "name": "amount",
          "type": "uint256"
        }
      ],
      "name": "donateMyGovToken",
      "outputs": [],
      "stateMutability": "nonpayable",
      "type": "function"
    },
    {
      "inputs": [
        {
          "internalType": "address",
          "name": "_account",
          "type": "address"
        }
      ],
      "name": "getUSDBalanceOfAccount",
      "outputs": [
        {
          "internalType": "uint256",
          "name": "",
          "type": "uint256"
        }
      ],
      "stateMutability": "view",
      "type": "function"
    },
    {
      "inputs": [
        {
          "internalType": "address",
          "name": "_address",
          "type": "address"
        }
      ],
      "name": "isMyGovMember",
      "outputs": [
        {
          "internalType": "bool",
          "name": "",
          "type": "bool"
        }
      ],
      "stateMutability": "view",
      "type": "function"
    },
    {
      "inputs": [
        {
          "internalType": "uint256",
          "name": "survey_id",
          "type": "uint256"
        }
      ],
      "name": "surveyWithIdExists",
      "outputs": [
        {
          "internalType": "bool",
          "name": "",
          "type": "bool"
        }
      ],
      "stateMutability": "view",
      "type": "function"
    },
    {
      "inputs": [
        {
          "internalType": "uint256",
          "name": "project_id",
          "type": "uint256"
        }
      ],
      "name": "projectWithIdExists",
      "outputs": [
        {
          "internalType": "bool",
          "name": "",
          "type": "bool"
        }
      ],
      "stateMutability": "view",
      "type": "function"
    },
    {
      "inputs": [
        {
          "internalType": "uint256",
          "name": "survey_id",
          "type": "uint256"
        },
        {
          "internalType": "address",
          "name": "_account",
          "type": "address"
        }
      ],
      "name": "tookSurvey",
      "outputs": [
        {
          "internalType": "bool",
          "name": "",
          "type": "bool"
        }
      ],
      "stateMutability": "view",
      "type": "function"
    },
    {
      "inputs": [
        {
          "internalType": "string",
          "name": "ipfshash",
          "type": "string"
        },
        {
          "internalType": "uint256",
          "name": "surveydeadline",
          "type": "uint256"
        },
        {
          "internalType": "uint256",
          "name": "numchoices",
          "type": "uint256"
        },
        {
          "internalType": "uint256",
          "name": "atmostchoice",
          "type": "uint256"
        }
      ],
      "name": "submitSurvey",
      "outputs": [
        {
          "internalType": "uint256",
          "name": "surveyid",
          "type": "uint256"
        }
      ],
      "stateMutability": "nonpayable",
      "type": "function"
    },
    {
      "inputs": [
        {
          "internalType": "uint256",
          "name": "surveyid",
          "type": "uint256"
        },
        {
          "internalType": "uint256[]",
          "name": "choices",
          "type": "uint256[]"
        }
      ],
      "name": "takeSurvey",
      "outputs": [],
      "stateMutability": "nonpayable",
      "type": "function"
    },
    {
      "inputs": [
        {
          "internalType": "uint256",
          "name": "surveyid",
          "type": "uint256"
        }
      ],
      "name": "getSurveyResults",
      "outputs": [
        {
          "internalType": "uint256",
          "name": "numtaken",
          "type": "uint256"
        },
        {
          "internalType": "uint256[]",
          "name": "results",
          "type": "uint256[]"
        }
      ],
      "stateMutability": "view",
      "type": "function"
    },
    {
      "inputs": [
        {
          "internalType": "uint256",
          "name": "surveyid",
          "type": "uint256"
        }
      ],
      "name": "getSurveyInfo",
      "outputs": [
        {
          "internalType": "string",
          "name": "ipfshash",
          "type": "string"
        },
        {
          "internalType": "uint256",
          "name": "surveydeadline",
          "type": "uint256"
        },
        {
          "internalType": "uint256",
          "name": "numchoices",
          "type": "uint256"
        },
        {
          "internalType": "uint256",
          "name": "atmostchoice",
          "type": "uint256"
        }
      ],
      "stateMutability": "view",
      "type": "function"
    },
    {
      "inputs": [
        {
          "internalType": "uint256",
          "name": "surveyid",
          "type": "uint256"
        }
      ],
      "name": "getSurveyOwner",
      "outputs": [
        {
          "internalType": "address",
          "name": "surveyowner",
          "type": "address"
        }
      ],
      "stateMutability": "view",
      "type": "function"
    },
    {
      "inputs": [],
      "name": "getNoOfSurveys",
      "outputs": [
        {
          "internalType": "uint256",
          "name": "numsurveys",
          "type": "uint256"
        }
      ],
      "stateMutability": "view",
      "type": "function"
    },
    {
      "inputs": [
        {
          "internalType": "address",
          "name": "memberaddr",
          "type": "address"
        },
        {
          "internalType": "uint256",
          "name": "projectid",
          "type": "uint256"
        }
      ],
      "name": "delegateVoteTo",
      "outputs": [],
      "stateMutability": "nonpayable",
      "type": "function"
    },
    {
      "inputs": [
        {
          "internalType": "uint256",
          "name": "projectid",
          "type": "uint256"
        },
        {
          "internalType": "bool",
          "name": "choice",
          "type": "bool"
        }
      ],
      "name": "voteForProjectProposal",
      "outputs": [],
      "stateMutability": "nonpayable",
      "type": "function"
    },
    {
      "inputs": [
        {
          "internalType": "uint256",
          "name": "projectid",
          "type": "uint256"
        },
        {
          "internalType": "bool",
          "name": "choice",
          "type": "bool"
        }
      ],
      "name": "voteForProjectPayment",
      "outputs": [],
      "stateMutability": "nonpayable",
      "type": "function"
    },
    {
      "inputs": [
        {
          "internalType": "string",
          "name": "ipfshash",
          "type": "string"
        },
        {
          "internalType": "uint256",
          "name": "votedeadline",
          "type": "uint256"
        },
        {
          "internalType": "uint256[]",
          "name": "paymentamounts",
          "type": "uint256[]"
        },
        {
          "internalType": "uint256[]",
          "name": "payschedule",
          "type": "uint256[]"
        }
      ],
      "name": "submitProjectProposal",
      "outputs": [
        {
          "internalType": "uint256",
          "name": "projectid",
          "type": "uint256"
        }
      ],
      "stateMutability": "nonpayable",
      "type": "function"
    },
    {
      "inputs": [
        {
          "internalType": "uint256",
          "name": "projectid",
          "type": "uint256"
        }
      ],
      "name": "reserveProjectGrant",
      "outputs": [],
      "stateMutability": "nonpayable",
      "type": "function"
    },
    {
      "inputs": [
        {
          "internalType": "uint256",
          "name": "projectid",
          "type": "uint256"
        }
      ],
      "name": "withdrawProjectPayment",
      "outputs": [],
      "stateMutability": "nonpayable",
      "type": "function"
    },
    {
      "inputs": [
        {
          "internalType": "uint256",
          "name": "projectid",
          "type": "uint256"
        }
      ],
      "name": "getProjectNextPayment",
      "outputs": [
        {
          "internalType": "int256",
          "name": "next",
          "type": "int256"
        }
      ],
      "stateMutability": "view",
      "type": "function"
    },
    {
      "inputs": [
        {
          "internalType": "uint256",
          "name": "projectid",
          "type": "uint256"
        }
      ],
      "name": "getProjectOwner",
      "outputs": [
        {
          "internalType": "address",
          "name": "projectowner",
          "type": "address"
        }
      ],
      "stateMutability": "view",
      "type": "function"
    },
    {
      "inputs": [
        {
          "internalType": "uint256",
          "name": "activityid",
          "type": "uint256"
        }
      ],
      "name": "getProjectInfo",
      "outputs": [
        {
          "internalType": "string",
          "name": "ipfshash",
          "type": "string"
        },
        {
          "internalType": "uint256",
          "name": "votedeadline",
          "type": "uint256"
        },
        {
          "internalType": "uint256[]",
          "name": "paymentamounts",
          "type": "uint256[]"
        },
        {
          "internalType": "uint256[]",
          "name": "payschedule",
          "type": "uint256[]"
        }
      ],
      "stateMutability": "view",
      "type": "function"
    },
    {
      "inputs": [],
      "name": "getNoOfProjectProposals",
      "outputs": [
        {
          "internalType": "uint256",
          "name": "numproposals",
          "type": "uint256"
        }
      ],
      "stateMutability": "view",
      "type": "function"
    },
    {
      "inputs": [],
      "name": "getNoOfFundedProjects",
      "outputs": [
        {
          "internalType": "uint256",
          "name": "numfunded",
          "type": "uint256"
        }
      ],
      "stateMutability": "view",
      "type": "function"
    },
    {
      "inputs": [
        {
          "internalType": "uint256",
          "name": "projectid",
          "type": "uint256"
        }
      ],
      "name": "getIsProjectFunded",
      "outputs": [
        {
          "internalType": "bool",
          "name": "funded",
          "type": "bool"
        }
      ],
      "stateMutability": "view",
      "type": "function"
    },
    {
      "inputs": [
        {
          "internalType": "uint256",
          "name": "projectid",
          "type": "uint256"
        }
      ],
      "name": "getUSDReceivedByProject",
      "outputs": [
        {
          "internalType": "uint256",
          "name": "amount",
          "type": "uint256"
        }
      ],
      "stateMutability": "view",
      "type": "function"
    },
    {
      "inputs": [],
      "name": "faucet",
      "outputs": [],
      "stateMutability": "nonpayable",
      "type": "function"
    }
  ],
  "bytecode": "0x60806040525f6007555f60085534801562000018575f80fd5b5060405162004408380380620044088339810160408190526200003b91620002aa565b6040518060400160405280600581526020016426bca3b7bb60d91b815250604051806040016040528060028152602001614d4760f01b815250816003908162000085919062000386565b50600462000094828262000386565b505050816301312d0014620001075760405162461bcd60e51b815260206004820152602e60248201527f4d79476f7620746f6b656e20737570706c79206d75737420626520657175616c60448201526d103a379019181036b4b63634b7b760911b60648201526084015b60405180910390fd5b60058290556200011830836200013f565b600680546001600160a01b0319166001600160a01b03929092169190911790555062000474565b6001600160a01b0382166200016a5760405163ec442f0560e01b81525f6004820152602401620000fe565b620001775f83836200017b565b5050565b6001600160a01b038316620001a9578060025f8282546200019d91906200044e565b909155506200021b9050565b6001600160a01b0383165f9081526020819052604090205481811015620001fd5760405163391434e360e21b81526001600160a01b03851660048201526024810182905260448101839052606401620000fe565b6001600160a01b0384165f9081526020819052604090209082900390555b6001600160a01b038216620002395760028054829003905562000257565b6001600160a01b0382165f9081526020819052604090208054820190555b816001600160a01b0316836001600160a01b03167fddf252ad1be2c89b69c2b068fc378daa952ba7f163c4a11628f55a4df523b3ef836040516200029d91815260200190565b60405180910390a3505050565b5f8060408385031215620002bc575f80fd5b825160208401519092506001600160a01b0381168114620002db575f80fd5b809150509250929050565b634e487b7160e01b5f52604160045260245ffd5b600181811c908216806200030f57607f821691505b6020821081036200032e57634e487b7160e01b5f52602260045260245ffd5b50919050565b601f82111562000381575f81815260208120601f850160051c810160208610156200035c5750805b601f850160051c820191505b818110156200037d5782815560010162000368565b5050505b505050565b81516001600160401b03811115620003a257620003a2620002e6565b620003ba81620003b38454620002fa565b8462000334565b602080601f831160018114620003f0575f8415620003d85750858301515b5f19600386901b1c1916600185901b1785556200037d565b5f85815260208120601f198616915b828110156200042057888601518255948401946001909101908401620003ff565b50858210156200043e57878501515f19600388901b60f8161c191681555b5050505050600190811b01905550565b808201808211156200046e57634e487b7160e01b5f52601160045260245ffd5b92915050565b613f8680620004825f395ff3fe608060405234801561000f575f80fd5b5060043610610234575f3560e01c806386e68b9011610135578063bd6c733c116100b4578063dd62ed3e11610079578063dd62ed3e14610521578063de5f72fd14610559578063ef269ae314610561578063f22449ba14610574578063fabf596814610587575f80fd5b8063bd6c733c146104cd578063bf50556d146104e0578063c7f48df7146104e8578063cbe0135c146104fb578063d915902e1461050e575f80fd5b8063a1669b32116100fa578063a1669b321461046e578063a5e898e114610481578063a9059cbb14610494578063b3afcee4146104a7578063bd275764146104ba575f80fd5b806386e68b9014610405578063875b50761461042b57806392256aec1461043e57806395d89b4114610451578063997c9cb114610459575f80fd5b806334dcb04e116101c15780635f1a7c99116101865780635f1a7c9914610383578063702798df1461039657806370a08231146103a957806370a56c73146103d15780637c405164146103f2575f80fd5b806334dcb04e14610313578063365932481461033e57806339c94d2d1461035357806342caaeb4146103685780635d801b371461037b575f80fd5b80631d2acdfd116102075780631d2acdfd146102b357806323b872dd146102c657806323fd498b146102d95780632e8f3413146102e1578063313ce56714610304575f80fd5b806306fdde0314610238578063095ea7b314610256578063107046bd1461027957806318160ddd146102a1575b5f80fd5b6102406105aa565b60405161024d9190613760565b60405180910390f35b610269610264366004613794565b61063a565b604051901515815260200161024d565b61028c6102873660046137bc565b610653565b60405161024d999897969594939291906137d3565b6002545b60405190815260200161024d565b6102a56102c13660046137bc565b610745565b6102696102d4366004613832565b6108e9565b600b546102a5565b6102f46102ef3660046137bc565b61090c565b60405161024d949392919061386b565b6040516012815260200161024d565b600654610326906001600160a01b031681565b6040516001600160a01b03909116815260200161024d565b61026961034c3660046137bc565b600b541190565b6103666103613660046137bc565b610a5c565b005b6103666103763660046138a6565b610a8c565b600a546102a5565b6102696103913660046138d4565b610e79565b6103666103a43660046139c0565b610ee6565b6102a56103b7366004613a04565b6001600160a01b03165f9081526020819052604090205490565b6103e46103df3660046137bc565b61122b565b60405161024d929190613a56565b6102696104003660046137bc565b6112f3565b6104186104133660046137bc565b6113b8565b60405161024d9796959493929190613a76565b6103266104393660046137bc565b611495565b61032661044c3660046137bc565b6114f2565b61024061154f565b6102696104673660046137bc565b600a541190565b61036661047c366004613794565b61155e565b6102a561048f366004613b2d565b611bdb565b6102696104a2366004613794565b612050565b6102696104b5366004613a04565b61205d565b6103666104c83660046137bc565b612079565b6103666104db3660046137bc565b612475565b6102a56129ed565b6102a56104f6366004613a04565b612a2f565b6102a56105093660046137bc565b612a9b565b61036661051c3660046137bc565b612aed565b6102a561052f366004613bb9565b6001600160a01b039182165f90815260016020908152604080832093909416825291909152205490565b610366612b5f565b6102a561056f366004613be1565b612cbf565b6103666105823660046138a6565b612f58565b61059a6105953660046137bc565b6131f4565b60405161024d9493929190613c31565b6060600380546105b990613c6f565b80601f01602080910402602001604051908101604052809291908181526020018280546105e590613c6f565b80156106305780601f1061060757610100808354040283529160200191610630565b820191905f5260205f20905b81548152906001019060200180831161061357829003601f168201915b5050505050905090565b5f336106478185856133e3565b60019150505b92915050565b600b8181548110610662575f80fd5b5f9182526020909120600c9091020180546001820180549193509061068690613c6f565b80601f01602080910402602001604051908101604052809291908181526020018280546106b290613c6f565b80156106fd5780601f106106d4576101008083540402835291602001916106fd565b820191905f5260205f20905b8154815290600101906020018083116106e057829003601f168201915b505050506002830154600684015460078501546008860154600a870154600b909701549596939592945090926001600160a01b0382169260ff600160a01b9093048316921689565b5f61075182600b541190565b6107765760405162461bcd60e51b815260040161076d90613ca1565b60405180910390fd5b61077f826112f3565b6107e85760405162461bcd60e51b815260206004820152603460248201527f50726f6a6563742073686f756c642062652066756e64656420696e206f7264656044820152731c881d1bc81c9958d95a5d99481c185e5b595b9d60621b606482015260840161076d565b600b82815481106107fb576107fb613cd8565b5f9182526020909120600b600c90920201015460ff16156108845760405162461bcd60e51b815260206004820152603b60248201527f416c6c206f6620746865207061796d656e74732061726520776974686472617760448201527f6e2c207468657265206973206e6f206e657874207061796d656e740000000000606482015260840161076d565b600b828154811061089757610897613cd8565b905f5260205f2090600c0201600301600b83815481106108b9576108b9613cd8565b905f5260205f2090600c020160060154815481106108d9576108d9613cd8565b905f5260205f2001549050919050565b5f336108f68582856133f0565b61090185858561346b565b506001949350505050565b60605f805f61091c85600a541190565b6109385760405162461bcd60e51b815260040161076d90613cec565b600a858154811061094b5761094b613cd8565b905f5260205f209060090201600101600a868154811061096d5761096d613cd8565b905f5260205f20906009020160020154600a878154811061099057610990613cd8565b905f5260205f20906009020160030154600a88815481106109b3576109b3613cd8565b905f5260205f209060090201600401548380546109cf90613c6f565b80601f01602080910402602001604051908101604052809291908181526020018280546109fb90613c6f565b8015610a465780601f10610a1d57610100808354040283529160200191610a46565b820191905f5260205f20905b815481529060010190602001808311610a2957829003601f168201915b5050505050935093509350935093509193509193565b610a663082612050565b50610a703361205d565b610a895760078054905f610a8383613d37565b91905055505b50565b610a9782600b541190565b610ab35760405162461bcd60e51b815260040161076d90613ca1565b610abc3361205d565b610b1b5760405162461bcd60e51b815260206004820152603860248201525f80516020613f3183398151915260448201527f766f746520666f722070726f6a656374207061796d656e740000000000000000606482015260840161076d565b42600b8381548110610b2f57610b2f613cd8565b905f5260205f2090600c0201600401600b8481548110610b5157610b51613cd8565b905f5260205f2090600c02016006015481548110610b7157610b71613cd8565b905f5260205f20015411610b975760405162461bcd60e51b815260040161076d90613d4c565b600b8281548110610baa57610baa613cd8565b905f5260205f2090600c02016009015f336001600160a01b03166001600160a01b031681526020019081526020015f206001015f600b8481548110610bf157610bf1613cd8565b905f5260205f2090600c02016006015481526020019081526020015f205f9054906101000a900460ff1615610c385760405162461bcd60e51b815260040161076d90613d75565b600b8281548110610c4b57610c4b613cd8565b5f91825260208083203384526009600c9093020191909101905260408120600301549003610cab576001600b8381548110610c8857610c88613cd8565b5f91825260208083203384526009600c9093020191909101905260409020600301555b6001600b8381548110610cc057610cc0613cd8565b905f5260205f2090600c02016009015f336001600160a01b03166001600160a01b031681526020019081526020015f206001015f600b8581548110610d0757610d07613cd8565b905f5260205f2090600c02016006015481526020019081526020015f205f6101000a81548160ff02191690831515021790555080600b8381548110610d4e57610d4e613cd8565b905f5260205f2090600c02016009015f336001600160a01b03166001600160a01b031681526020019081526020015f206002015f600b8581548110610d9557610d95613cd8565b905f5260205f2090600c02016006015481526020019081526020015f205f6101000a81548160ff0219169083151502179055508015610e7557600b8281548110610de157610de1613cd8565b5f91825260208083203384526009600c909302019190910190526040902060030154600b805484908110610e1757610e17613cd8565b905f5260205f2090600c0201600501600b8481548110610e3957610e39613cd8565b905f5260205f2090600c02016006015481548110610e5957610e59613cd8565b905f5260205f20015f828254610e6f9190613da0565b90915550505b5050565b5f610e8583600a541190565b610ea15760405162461bcd60e51b815260040161076d90613cec565b5f600a8481548110610eb557610eb5613cd8565b5f91825260208083206001600160a01b03871684526007600990930201919091019052604090205411905092915050565b610ef182600a541190565b610f0d5760405162461bcd60e51b815260040161076d90613cec565b610f163361205d565b610f655760405162461bcd60e51b815260206004820152602d60248201525f80516020613f3183398151915260448201526c74616b6520612073757276657960981b606482015260840161076d565b610f6f8233610e79565b15610fbc5760405162461bcd60e51b815260206004820152601b60248201527f596f7520616c726561647920746f6f6b20746865207375727665790000000000604482015260640161076d565b600a8281548110610fcf57610fcf613cd8565b905f5260205f209060090201600401548151111561103e5760405162461bcd60e51b815260206004820152602660248201527f596f752073656c6563746564206d6f72652063686f69636573207468616e20616044820152651b1b1bddd95960d21b606482015260840161076d565b42600a838154811061105257611052613cd8565b905f5260205f209060090201600201541161107f5760405162461bcd60e51b815260040161076d90613d4c565b5f5b815181101561112657600a838154811061109d5761109d613cd8565b905f5260205f209060090201600301548282815181106110bf576110bf613cd8565b6020026020010151106111145760405162461bcd60e51b815260206004820152601e60248201527f496e76616c69642063686f696365206e756d62657220737570706c6965640000604482015260640161076d565b8061111e81613db3565b915050611081565b505f5b81518110156111ab57600a838154811061114557611145613cd8565b905f5260205f20906009020160050182828151811061116657611166613cd8565b60200260200101518154811061117e5761117e613cd8565b5f918252602082200180549161119383613db3565b919050555080806111a390613db3565b915050611129565b5080600a83815481106111c0576111c0613cd8565b5f91825260208083203384526007600990930201919091018152604090912082516111f193919291909101906136c0565b50600a828154811061120557611205613cd8565b5f9182526020822060086009909202010180549161122283613db3565b91905055505050565b5f606061123983600a541190565b6112555760405162461bcd60e51b815260040161076d90613cec565b600a838154811061126857611268613cd8565b905f5260205f20906009020160080154600a848154811061128b5761128b613cd8565b905f5260205f209060090201600501808054806020026020016040519081016040528092919081815260200182805480156112e357602002820191905f5260205f20905b8154815260200190600101908083116112cf575b5050505050905091509150915091565b5f6112ff82600b541190565b61131b5760405162461bcd60e51b815260040161076d90613ca1565b600b828154811061132e5761132e613cd8565b905f5260205f2090600c020160080160149054906101000a900460ff16801561064d575042600b838154811061136657611366613cd8565b905f5260205f2090600c0201600401600b848154811061138857611388613cd8565b905f5260205f2090600c020160060154815481106113a8576113a8613cd8565b905f5260205f2001541192915050565b600a81815481106113c7575f80fd5b5f91825260209091206009909102018054600182018054919350906113eb90613c6f565b80601f016020809104026020016040519081016040528092919081815260200182805461141790613c6f565b80156114625780601f1061143957610100808354040283529160200191611462565b820191905f5260205f20905b81548152906001019060200180831161144557829003601f168201915b50505050600283015460038401546004850154600686015460089096015494959294919350916001600160a01b03169087565b5f6114a182600a541190565b6114bd5760405162461bcd60e51b815260040161076d90613cec565b600a82815481106114d0576114d0613cd8565b5f9182526020909120600660099092020101546001600160a01b031692915050565b5f6114fe82600b541190565b61151a5760405162461bcd60e51b815260040161076d90613ca1565b600b828154811061152d5761152d613cd8565b5f91825260209091206008600c9092020101546001600160a01b031692915050565b6060600480546105b990613c6f565b61156981600b541190565b6115855760405162461bcd60e51b815260040161076d90613ca1565b61158e3361205d565b6115f55760405162461bcd60e51b815260206004820152603260248201527f596f752073686f756c642062652061206d656d62657220746f2062652061626c6044820152716520746f2064656c656761746520766f746560701b606482015260840161076d565b336001600160a01b0383160361164d5760405162461bcd60e51b815260206004820152601f60248201527f596f752063616e6e6f742064656c656761746520746f20796f757273656c6600604482015260640161076d565b600b818154811061166057611660613cd8565b5f9182526020808320338452600c9290920290910160090190526040902054600160a81b900460ff16156116a65760405162461bcd60e51b815260040161076d90613d75565b600b81815481106116b9576116b9613cd8565b5f91825260208083203384526009600c90930201919091019052604090205460ff16156117285760405162461bcd60e51b815260206004820152601f60248201527f596f7520616c72656164792064656c65676174656420796f757220766f746500604482015260640161076d565b6001600b828154811061173d5761173d613cd8565b5f9182526020808320338452600c92909202909101600901905260409020805460ff1916911515919091179055600b80548391908390811061178157611781613cd8565b5f91825260208083203384526009600c909302019190910190526040902080546001600160a01b039290921661010002610100600160a81b0319909216919091179055600b8054829081106117d8576117d8613cd8565b5f91825260208083203384526009600c9093020191909101905260408120600301549003611838576001600b828154811061181557611815613cd8565b5f91825260208083203384526009600c9093020191909101905260409020600301555b5f600b828154811061184c5761184c613cd8565b5f91825260208083203384526009600c90930201919091019052604090205461010090046001600160a01b031690505b5f6001600160a01b0316600b838154811061189957611899613cd8565b5f91825260208083206001600160a01b038681168552600c939093020160090190526040909120546101009004161461197357600b82815481106118df576118df613cd8565b5f91825260208083206001600160a01b0394851684526009600c90930201919091019052604090205461010090041633810361196e5760405162461bcd60e51b815260206004820152602860248201527f54686572652069732061206c6f6f7020696e207468652064656c65676174696f6044820152676e2067726170682160c01b606482015260840161076d565b61187c565b600b828154811061198657611986613cd8565b5f91825260208083206001600160a01b03851684526009600c90930201919091019052604081206003015490036119f8576001600b83815481106119cc576119cc613cd8565b5f91825260208083206001600160a01b03861684526009600c9093020191909101905260409020600301555b80600b8381548110611a0c57611a0c613cd8565b5f91825260208083203384526009600c909302019190910190526040902080546001600160a01b039290921661010002610100600160a81b0319909216919091179055600b805483908110611a6357611a63613cd8565b5f91825260208083206001600160a01b0385168452600c9290920290910160090190526040902054600160a81b900460ff1615611b5157600b8281548110611aad57611aad613cd8565b5f91825260208083206001600160a01b03851684526009600c90930201919091019052604090206004015460ff1615611b4c57600b8281548110611af357611af3613cd8565b5f91825260208083203384526009600c909302019190910190526040902060030154600b805484908110611b2957611b29613cd8565b905f5260205f2090600c02016007015f828254611b469190613da0565b90915550505b505050565b600b8281548110611b6457611b64613cd8565b5f91825260208083203384526009600c909302019190910190526040902060030154600b805484908110611b9a57611b9a613cd8565b905f5260205f2090600c02016009015f836001600160a01b03166001600160a01b031681526020019081526020015f206003015f828254611b469190613da0565b5f611be53361205d565b611c385760405162461bcd60e51b815260206004820152603160248201525f80516020613f318339815191526044820152701c1c9bdc1bdcd94818481c1c9bda9958dd607a1b606482015260840161076d565b335f9081526020819052604090205460051115611caf5760405162461bcd60e51b815260206004820152602f60248201527f4e6f742073756666696369656e74204d79476f7620746f6b656e20746f20707260448201526e1bdc1bdcd94818481c1c9bda9958dd608a1b606482015260840161076d565b6032611cba33612a2f565b1015611d245760405162461bcd60e51b815260206004820152603360248201527f4e6f742073756666696369656e742055534420537461626c6520636f696e20746044820152721bc81c1c9bdc1bdcd94818481c1c9bda9958dd606a1b606482015260840161076d565b611d2e6005610a5c565b611d386032612aed565b600b805460018181018084555f938452600c9092027f0175b7a638427703f0dbe7bb9bbf987a2551717b34e79f33b5b1008d1fa01db9019291611d7b9190613dcb565b808355600b8054919250889183908110611d9757611d97613cd8565b905f5260205f2090600c02016001019081611db29190613e2b565b5085600b8281548110611dc757611dc7613cd8565b905f5260205f2090600c02016002018190555084600b8281548110611dee57611dee613cd8565b905f5260205f2090600c02016003019080519060200190611e109291906136c0565b5083600b8281548110611e2557611e25613cd8565b905f5260205f2090600c02016004019080519060200190611e479291906136c0565b50835167ffffffffffffffff811115611e6257611e626138fe565b604051908082528060200260200182016040528015611e8b578160200160208202803683370190505b50600b8281548110611e9f57611e9f613cd8565b905f5260205f2090600c02016005019080519060200190611ec19291906136c0565b5033600b8281548110611ed657611ed6613cd8565b905f5260205f2090600c02016008015f6101000a8154816001600160a01b0302191690836001600160a01b031602179055505f600b8281548110611f1c57611f1c613cd8565b905f5260205f2090600c0201600601819055505f600b8281548110611f4357611f43613cd8565b905f5260205f2090600c0201600701819055505f600b8281548110611f6a57611f6a613cd8565b905f5260205f2090600c020160080160146101000a81548160ff0219169083151502179055505f600b8281548110611fa457611fa4613cd8565b905f5260205f2090600c0201600a01819055505f600b8281548110611fcb57611fcb613cd8565b5f9182526020909120600c90910201600b01805460ff1916911515919091179055611ff53361205d565b61200e5760078054905f61200883613d37565b91905055505b604080518281523360208201527f22eb44677349043faa70ae1c857bc016d223f2d92e34ffde97179347f18c8d5d910160405180910390a19695505050505050565b5f3361064781858561346b565b6001600160a01b03165f90815260208190526040902054151590565b61208481600b541190565b6120a05760405162461bcd60e51b815260040161076d90613ca1565b336001600160a01b0316600b82815481106120bd576120bd613cd8565b5f91825260209091206008600c9092020101546001600160a01b03161461214c5760405162461bcd60e51b815260206004820152603960248201527f596f75206e65656420746f206265207468652070726f6a656374206f776e657260448201527f20746f20726573657276652070726f6a656374206772616e7400000000000000606482015260840161076d565b600b818154811061215f5761215f613cd8565b905f5260205f2090600c020160080160149054906101000a900460ff16156122075760405162461bcd60e51b815260206004820152604f60248201527f596f7520616c7265616479207265736572766564207468652070726f6a65637460448201527f206772616e742c2070726f6a656374206772616e742063616e2062652072657360648201526e6572766564206f6e6c79206f6e636560881b608482015260a40161076d565b600754600b828154811061221d5761221d613cd8565b905f5260205f2090600c020160070154600a6122399190613ee7565b10156122ad5760405162461bcd60e51b815260206004820152603b60248201527f5468657265206973206e6f7420656e6f7567682079657320766f74657320666f60448201527f72207468652063757272656e742070726f6a656374206772616e740000000000606482015260840161076d565b42600b82815481106122c1576122c1613cd8565b905f5260205f2090600c020160020154116122ee5760405162461bcd60e51b815260040161076d90613d4c565b5f805b600b838154811061230457612304613cd8565b905f5260205f2090600c02016003018054905081101561237957600b838154811061233157612331613cd8565b905f5260205f2090600c0201600301818154811061235157612351613cd8565b905f5260205f200154826123659190613da0565b91508061237181613db3565b9150506122f1565b508060085461238730612a2f565b6123919190613dcb565b101561241e5760405162461bcd60e51b815260206004820152605060248201527f5468657265206973206e6f7420656e6f7567682055534420537461626c65204360448201527f6f696e20696e2074686520636f6e747261637420746f2072657365727665207460648201526f1a19481c1c9bda9958dd0819dc985b9d60821b608482015260a40161076d565b8060085f82825461242f9190613da0565b925050819055506001600b838154811061244b5761244b613cd8565b905f5260205f2090600c020160080160146101000a81548160ff0219169083151502179055505050565b61248081600b541190565b61249c5760405162461bcd60e51b815260040161076d90613ca1565b6124a5816112f3565b6125175760405162461bcd60e51b815260206004820152603d60248201527f50726f6a6563742073686f756c642062652066756e64656420696e206f72646560448201527f7220746f2077697468647261772070726f6a656374207061796d656e74000000606482015260840161076d565b336001600160a01b0316600b828154811061253457612534613cd8565b5f91825260209091206008600c9092020101546001600160a01b0316146125c35760405162461bcd60e51b815260206004820152603c60248201527f596f75206e65656420746f206265207468652070726f6a656374206f776e657260448201527f20746f2077697468647261772070726f6a656374207061796d656e7400000000606482015260840161076d565b600b81815481106125d6576125d6613cd8565b5f9182526020909120600b600c90920201015460ff16156126565760405162461bcd60e51b815260206004820152603460248201527f416c6c207061796d656e7473206172652077697468647261776e2c20796f752060448201527363616e6e6f74207769746864726177206d6f726560601b606482015260840161076d565b42600b828154811061266a5761266a613cd8565b905f5260205f2090600c0201600401600b838154811061268c5761268c613cd8565b905f5260205f2090600c020160060154815481106126ac576126ac613cd8565b905f5260205f200154116126d25760405162461bcd60e51b815260040161076d90613d4c565b5f600b82815481106126e6576126e6613cd8565b905f5260205f2090600c0201600501600b838154811061270857612708613cd8565b905f5260205f2090600c0201600601548154811061272857612728613cd8565b905f5260205f20015490506007548160646127439190613ee7565b10156127af5760405162461bcd60e51b815260206004820152603560248201527f5468657265206973206e6f7420656e6f7567682079657320766f74657320666f6044820152741c881d1a194818dd5c9c995b9d081c185e5b595b9d605a1b606482015260840161076d565b5f600b83815481106127c3576127c3613cd8565b905f5260205f2090600c0201600301600b84815481106127e5576127e5613cd8565b905f5260205f2090600c0201600601548154811061280557612805613cd8565b905f5260205f200154905080600854101561286d5760405162461bcd60e51b815260206004820152602260248201527f5468657265206973206e6f7420656e6f756768207265736572766520616d6f756044820152611b9d60f21b606482015260840161076d565b60065460405163a9059cbb60e01b8152336004820152602481018390526001600160a01b039091169063a9059cbb906044016020604051808303815f875af11580156128bb573d5f803e3d5ffd5b505050506040513d601f19601f820116820180604052508101906128df9190613efe565b508060085f8282546128f19190613dcb565b9250508190555080600b848154811061290c5761290c613cd8565b905f5260205f2090600c0201600a015f8282546129299190613da0565b9091555050600b80548490811061294257612942613cd8565b5f918252602082206006600c909202010180549161295f83613db3565b9190505550600b838154811061297757612977613cd8565b905f5260205f2090600c020160040180549050600b848154811061299d5761299d613cd8565b905f5260205f2090600c02016006015403611b4c576001600b84815481106129c7576129c7613cd8565b5f9182526020909120600c90910201600b01805460ff1916911515919091179055505050565b5f80805b600b54811015612a2957612a04816112f3565b15612a175781612a1381613db3565b9250505b80612a2181613db3565b9150506129f1565b50919050565b6006546040516370a0823160e01b81526001600160a01b0383811660048301525f9216906370a0823190602401602060405180830381865afa158015612a77573d5f803e3d5ffd5b505050506040513d601f19601f8201168201806040525081019061064d9190613f19565b5f612aa782600b541190565b612ac35760405162461bcd60e51b815260040161076d90613ca1565b600b8281548110612ad657612ad6613cd8565b905f5260205f2090600c0201600a01549050919050565b60065460405163171af2b560e21b8152306004820152602481018390526001600160a01b0390911690635c6bcad4906044016020604051808303815f875af1158015612b3b573d5f803e3d5ffd5b505050506040513d601f19601f82011682018060405250810190610e759190613efe565b305f9081526020819052604081205411612bbb5760405162461bcd60e51b815260206004820152601a60248201527f4e6f20746f6b656e73206c656674206f6e20636f6e7472616374000000000000604482015260640161076d565b335f9081526009602052604090205460ff1615612c2b5760405162461bcd60e51b815260206004820152602860248201527f596f7520616c726561647920726563656976656420746f6b656e2066726f6d2060448201526718dbdb9d1c9858dd60c21b606482015260840161076d565b60405163a9059cbb60e01b815233600482015260016024820152309063a9059cbb906044016020604051808303815f875af1158015612c6c573d5f803e3d5ffd5b505050506040513d601f19601f82011682018060405250810190612c909190613efe565b50335f908152600960205260408120805460ff191660011790556007805491612cb883613db3565b9190505550565b5f612cc93361205d565b612d1a5760405162461bcd60e51b815260206004820152602f60248201525f80516020613f3183398151915260448201526e7375626d697420612073757276657960881b606482015260840161076d565b335f9081526020819052604090205460021115612d8d5760405162461bcd60e51b815260206004820152602b60248201527f4e6f742073756666696369656e74204d79476f7620746f6b656e20746f20737560448201526a626d69742073757276657960a81b606482015260840161076d565b6005612d9833612a2f565b1015612dfe5760405162461bcd60e51b815260206004820152602f60248201527f4e6f742073756666696369656e742055534420537461626c6520636f696e207460448201526e6f207375626d69742073757276657960881b606482015260840161076d565b612e086002610a5c565b612e126005612aed565b600a805460018181018084555f9390935260099091027fc65a7bb8d6351c1cf70c95a316cc6a92839c986682d98bc35f958f4883f9d2a80191612e559190613dcb565b815560018101612e658782613e2b565b506002810185905560038101849055600481018390558367ffffffffffffffff811115612e9457612e946138fe565b604051908082528060200260200182016040528015612ebd578160200160208202803683370190505b508051612ed49160058401916020909101906136c0565b506006810180546001600160a01b031916339081179091555f6008830155612efb9061205d565b612f145760078054905f612f0e83613d37565b91905055505b8054604080519182523360208301527fcdad06bb3a3fa7d9ee4517f89680dddf8ef0e00d995ae8f02b3450f9d3d28eb4910160405180910390a15495945050505050565b612f6382600b541190565b612f7f5760405162461bcd60e51b815260040161076d90613ca1565b612f883361205d565b612fe75760405162461bcd60e51b815260206004820152603960248201525f80516020613f3183398151915260448201527f766f746520666f722070726f6a6563742070726f706f73616c00000000000000606482015260840161076d565b42600b8381548110612ffb57612ffb613cd8565b905f5260205f2090600c020160020154116130285760405162461bcd60e51b815260040161076d90613d4c565b600b828154811061303b5761303b613cd8565b5f9182526020808320338452600c9290920290910160090190526040902054600160a81b900460ff16156130815760405162461bcd60e51b815260040161076d90613d75565b600b828154811061309457613094613cd8565b5f91825260208083203384526009600c90930201919091019052604081206003015490036130f4576001600b83815481106130d1576130d1613cd8565b5f91825260208083203384526009600c9093020191909101905260409020600301555b6001600b838154811061310957613109613cd8565b5f91825260208083203384526009600c90930201919091019052604090208054911515600160a81b0260ff60a81b19909216919091179055600b80548291908490811061315857613158613cd8565b5f9182526020808320338452600c92909202909101600901905260409020600401805460ff19169115159190911790558015610e7557600b82815481106131a1576131a1613cd8565b5f91825260208083203384526009600c909302019190910190526040902060030154600b8054849081106131d7576131d7613cd8565b905f5260205f2090600c02016007015f828254610e6f9190613da0565b60605f60608061320585600b541190565b6132215760405162461bcd60e51b815260040161076d90613ca1565b600b858154811061323457613234613cd8565b905f5260205f2090600c0201600101600b868154811061325657613256613cd8565b905f5260205f2090600c020160020154600b878154811061327957613279613cd8565b905f5260205f2090600c0201600301600b888154811061329b5761329b613cd8565b905f5260205f2090600c02016004018380546132b690613c6f565b80601f01602080910402602001604051908101604052809291908181526020018280546132e290613c6f565b801561332d5780601f106133045761010080835404028352916020019161332d565b820191905f5260205f20905b81548152906001019060200180831161331057829003601f168201915b505050505093508180548060200260200160405190810160405280929190818152602001828054801561337d57602002820191905f5260205f20905b815481526020019060010190808311613369575b50505050509150808054806020026020016040519081016040528092919081815260200182805480156133cd57602002820191905f5260205f20905b8154815260200190600101908083116133b9575b5050505050905093509350935093509193509193565b611b4c83838360016134c8565b6001600160a01b038381165f908152600160209081526040808320938616835292905220545f198114613465578181101561345757604051637dc7a0d960e11b81526001600160a01b0384166004820152602481018290526044810183905260640161076d565b61346584848484035f6134c8565b50505050565b6001600160a01b03831661349457604051634b637e8f60e11b81525f600482015260240161076d565b6001600160a01b0382166134bd5760405163ec442f0560e01b81525f600482015260240161076d565b611b4c83838361359a565b6001600160a01b0384166134f15760405163e602df0560e01b81525f600482015260240161076d565b6001600160a01b03831661351a57604051634a1406b160e11b81525f600482015260240161076d565b6001600160a01b038085165f908152600160209081526040808320938716835292905220829055801561346557826001600160a01b0316846001600160a01b03167f8c5be1e5ebec7d5bd14f71427d1e84f3dd0314c0f7b2291e5b200ac8c7c3b9258460405161358c91815260200190565b60405180910390a350505050565b6001600160a01b0383166135c4578060025f8282546135b99190613da0565b909155506136349050565b6001600160a01b0383165f90815260208190526040902054818110156136165760405163391434e360e21b81526001600160a01b0385166004820152602481018290526044810183905260640161076d565b6001600160a01b0384165f9081526020819052604090209082900390555b6001600160a01b0382166136505760028054829003905561366e565b6001600160a01b0382165f9081526020819052604090208054820190555b816001600160a01b0316836001600160a01b03167fddf252ad1be2c89b69c2b068fc378daa952ba7f163c4a11628f55a4df523b3ef836040516136b391815260200190565b60405180910390a3505050565b828054828255905f5260205f209081019282156136f9579160200282015b828111156136f95782518255916020019190600101906136de565b50613705929150613709565b5090565b5b80821115613705575f815560010161370a565b5f81518084525f5b8181101561374157602081850181015186830182015201613725565b505f602082860101526020601f19601f83011685010191505092915050565b602081525f613772602083018461371d565b9392505050565b80356001600160a01b038116811461378f575f80fd5b919050565b5f80604083850312156137a5575f80fd5b6137ae83613779565b946020939093013593505050565b5f602082840312156137cc575f80fd5b5035919050565b5f6101208b83528060208401526137ec8184018c61371d565b604084019a909a525050606081019690965260808601949094526001600160a01b039290921660a0850152151560c084015260e083015215156101009091015292915050565b5f805f60608486031215613844575f80fd5b61384d84613779565b925061385b60208501613779565b9150604084013590509250925092565b608081525f61387d608083018761371d565b6020830195909552506040810192909252606090910152919050565b8015158114610a89575f80fd5b5f80604083850312156138b7575f80fd5b8235915060208301356138c981613899565b809150509250929050565b5f80604083850312156138e5575f80fd5b823591506138f560208401613779565b90509250929050565b634e487b7160e01b5f52604160045260245ffd5b604051601f8201601f1916810167ffffffffffffffff8111828210171561393b5761393b6138fe565b604052919050565b5f82601f830112613952575f80fd5b8135602067ffffffffffffffff82111561396e5761396e6138fe565b8160051b61397d828201613912565b9283528481018201928281019087851115613996575f80fd5b83870192505b848310156139b55782358252918301919083019061399c565b979650505050505050565b5f80604083850312156139d1575f80fd5b82359150602083013567ffffffffffffffff8111156139ee575f80fd5b6139fa85828601613943565b9150509250929050565b5f60208284031215613a14575f80fd5b61377282613779565b5f8151808452602080850194508084015f5b83811015613a4b57815187529582019590820190600101613a2f565b509495945050505050565b828152604060208201525f613a6e6040830184613a1d565b949350505050565b87815260e060208201525f613a8e60e083018961371d565b604083019790975250606081019490945260808401929092526001600160a01b031660a083015260c09091015292915050565b5f82601f830112613ad0575f80fd5b813567ffffffffffffffff811115613aea57613aea6138fe565b613afd601f8201601f1916602001613912565b818152846020838601011115613b11575f80fd5b816020850160208301375f918101602001919091529392505050565b5f805f8060808587031215613b40575f80fd5b843567ffffffffffffffff80821115613b57575f80fd5b613b6388838901613ac1565b9550602087013594506040870135915080821115613b7f575f80fd5b613b8b88838901613943565b93506060870135915080821115613ba0575f80fd5b50613bad87828801613943565b91505092959194509250565b5f8060408385031215613bca575f80fd5b613bd383613779565b91506138f560208401613779565b5f805f8060808587031215613bf4575f80fd5b843567ffffffffffffffff811115613c0a575f80fd5b613c1687828801613ac1565b97602087013597506040870135966060013595509350505050565b608081525f613c43608083018761371d565b8560208401528281036040840152613c5b8186613a1d565b905082810360608401526139b58185613a1d565b600181811c90821680613c8357607f821691505b602082108103612a2957634e487b7160e01b5f52602260045260245ffd5b6020808252601e908201527f50726f6a656374207769746820696420646f6573206e6f742065786973740000604082015260600190565b634e487b7160e01b5f52603260045260245ffd5b6020808252601d908201527f537572766579207769746820696420646f6573206e6f74206578697374000000604082015260600190565b634e487b7160e01b5f52601160045260245ffd5b5f81613d4557613d45613d23565b505f190190565b6020808252600f908201526e111958591b1a5b99481c185cdcd959608a1b604082015260600190565b602080825260119082015270165bdd48185b1c9958591e481d9bdd1959607a1b604082015260600190565b8082018082111561064d5761064d613d23565b5f60018201613dc457613dc4613d23565b5060010190565b8181038181111561064d5761064d613d23565b601f821115611b4c575f81815260208120601f850160051c81016020861015613e045750805b601f850160051c820191505b81811015613e2357828155600101613e10565b505050505050565b815167ffffffffffffffff811115613e4557613e456138fe565b613e5981613e538454613c6f565b84613dde565b602080601f831160018114613e8c575f8415613e755750858301515b5f19600386901b1c1916600185901b178555613e23565b5f85815260208120601f198616915b82811015613eba57888601518255948401946001909101908401613e9b565b5085821015613ed757878501515f19600388901b60f8161c191681555b5050505050600190811b01905550565b808202811582820484141761064d5761064d613d23565b5f60208284031215613f0e575f80fd5b815161377281613899565b5f60208284031215613f29575f80fd5b505191905056fe596f752073686f756c642062652061204d79476f76206d656d62657220746f20a26469706673582212209b04409bc770c27b8f027b972aa7792f896c48227636b0668484c81a112130e064736f6c63430008150033",
  "immutableReferences": {},
  "source": "// SPDX-License-Identifier: MIT\npragma solidity ^0.8.21;\n\n// Import OpenZeppelin ERC20 implementation\nimport \"@openzeppelin/contracts/token/ERC20/ERC20.sol\";\n// Import custom USD stable coin contract\nimport \"./USD.sol\";\n\n// MyGov smart contract inherits from ERC20\ncontract MyGov is ERC20 {\n\n    // Struct to represent a survey\n    struct Survey {\n        uint id; // id of the survey, index of the survey in the surveys array\n        string ipfsHash; // ipfs hash of the survey\n        uint deadline; // Deadline of the survey\n        uint numChoices; // Number of choices in the survey\n        uint atMostChoice; // Number of choices the user is allowed to choose at most\n        uint[] results; // Total number of choices given for specific option\n        address owner; // Owner of the survey\n        mapping(address => uint[]) choices; // Mapping of user addresses and their choices\n        uint numTaken; // How many times users took the survey\n    }\n\n    // Struct to represent a project\n    struct Project { \n        uint id; // id of the project, index of the project in the projects array\n        string ipfsHash; // ipfs hash of the project\n        uint voteDeadline; // Deadline of the voting phase\n        uint[] paymentAmounts; // Payment amounts for each payment date\n        uint[] paymentSchedule; // Payment schedule\n        uint[] yesVouteCountsOfPayments; // Number of 'Yes' votes for each payment\n        uint currPaymentIndex; // Index of the next payment\n        uint yesVoteCount; // Total 'Yes' votes for the project proposal\n        address owner; // Owner of the project\n        bool isReserved; // Flag indicating if project grant is reserved\n        mapping(address => Voter) voters; // Mapping of users (voters) and their votes\n        uint received_USD_amount; // Total USD amount received by the project\n        bool allPaymentWithdrawn; // Flag indicating if all payments are withdrawn\n    }\n\n    // Struct to represent a voter\n    struct Voter {\n        bool didDelegate; // Whether voter delegated their voting right\n        address delegatingTo; // The address the voter delegates to if exists\n        bool didVote; // Whether voter voted or not\n        mapping(uint => bool) didVotePayments; // Whether the voter has voted for a payment or not\n        mapping(uint => bool) paymentVotes; // Votes for each payment\n        uint voteMultiplier; // If someone delegates their vote right, power multiplier\n        bool choice; // 0 for 'No', 1 for 'Yes' representing the vote for project proposal.\n    }\n\n    // Constants for costs\n    uint256 constant SURVEY_SUBMISSION_MYGOV_TOKEN_COST = 2;\n    uint256 constant SURVEY_SUBMISSION_USD_STABLE_COIN_COST = 5;\n    uint256 constant PROJECT_PROPOSAL_MYGOV_TOKEN_COST = 5;\n    uint256 constant PROJECT_PROPOSAL_USD_STABLE_COIN_COST = 50;\n\n    // Variables\n    uint256 token_supply;\n    USD_Stable_Coin public USD_BaseCoinContract;\n    uint256 myGovMemberCount = 0;\n    uint256 reservedUSD_StableCoins = 0;\n\n    mapping(address => bool) usedFaucet;\n\n    // Arrays to store surveys and projects\n    Survey[] public surveys;  \n    Project[] public projects;  \n\n    // Events\n    event SurveySubmitted(uint surveyId, address account);\n    event ProjectSubmitted(uint projectId, address account);\n\n// Constructor function for initializing the MyGov contract\nconstructor(uint tokensupply, address usdStableCoinAddress) ERC20(\"MyGov\", \"MG\") {\n    require(tokensupply == 20000000, \"MyGov token supply must be equal to 20 million\");\n    token_supply = tokensupply; // Set the total token supply\n    _mint(address(this), tokensupply); // Mint tokens to the contract's address\n    USD_BaseCoinContract = USD_Stable_Coin(usdStableCoinAddress); // Initialize the USD stable coin contract\n}\n\n// Function to donate USD stable coins to the contract\nfunction donateUSD(uint amount) public {\n    USD_BaseCoinContract.transferFromOrigin(address(this), amount); // Transfer USD stable coins to the contract\n}\n\n// Function to donate MyGov tokens to the contract\nfunction donateMyGovToken(uint amount) public {\n    transfer(address(this), amount); // Transfer MyGov tokens to the contract\n    if (!isMyGovMember(msg.sender)) {\n        myGovMemberCount--; // Decrement MyGov member count if the sender is not a MyGov member\n    }\n}\n\n// Function to get the USD balance of a specific account\nfunction getUSDBalanceOfAccount(address _account) public view returns (uint256) {\n    return USD_BaseCoinContract.balanceOf(_account); // Retrieve the USD balance of the specified account\n}\n\n// Function to check if an address is a MyGov member based on their MyGov token balance\nfunction isMyGovMember(address _address) public view returns(bool) {\n    return balanceOf(_address) > 0; // Check if the specified address holds MyGov tokens\n}\n\n// Function to check if a survey with the given ID exists\nfunction surveyWithIdExists(uint survey_id) public view returns(bool) {\n    return surveys.length > survey_id; // Return true if the survey ID is within the range of existing surveys\n}\n\n// Function to check if a project with the given ID exists\nfunction projectWithIdExists(uint project_id) public view returns(bool) {\n    return projects.length > project_id; // Return true if the project ID is within the range of existing projects\n}\n\n// Function to check if an account has taken a survey with the given ID\n// Returns true if the account has taken the survey, otherwise false\nfunction tookSurvey(uint survey_id, address _account) public view returns(bool) {\n    require(surveyWithIdExists(survey_id), \"Survey with id does not exist\");\n    return surveys[survey_id].choices[_account].length > 0; // Check if the account's choices for the survey exist\n}\n\n// Function to submit a new survey\n// Returns the ID of the newly submitted survey\nfunction submitSurvey(string memory ipfshash, uint surveydeadline, uint numchoices, uint atmostchoice) public returns (uint surveyid) {\n    require(isMyGovMember(msg.sender), \"You should be a MyGov member to submit a survey\"); // Only members can submit a survey\n    require(balanceOf(msg.sender) >= SURVEY_SUBMISSION_MYGOV_TOKEN_COST, \"Not sufficient MyGov token to submit survey\"); // Check MyGov token balance\n    require(getUSDBalanceOfAccount(msg.sender) >= SURVEY_SUBMISSION_USD_STABLE_COIN_COST, \"Not sufficient USD Stable coin to submit survey\"); // Check USD balance\n\n    donateMyGovToken(SURVEY_SUBMISSION_MYGOV_TOKEN_COST); // Deduct MyGov tokens\n    donateUSD(SURVEY_SUBMISSION_USD_STABLE_COIN_COST); // Deduct USD Stable Coins\n\n    // Create a new survey and initialize its properties\n    Survey storage newSurvey = surveys.push();\n    newSurvey.id = surveys.length - 1;\n    newSurvey.ipfsHash = ipfshash;\n    newSurvey.deadline = surveydeadline;\n    newSurvey.numChoices = numchoices;\n    newSurvey.atMostChoice = atmostchoice;\n    newSurvey.results = new uint[](numchoices);\n    newSurvey.owner = msg.sender;\n    newSurvey.numTaken = 0;\n\n    // Decrement MyGov member count if the sender is not a MyGov member\n    if(!isMyGovMember(msg.sender)){\n        myGovMemberCount--;\n    }\n\n    // Emit an event to notify that a survey has been submitted\n    emit SurveySubmitted(newSurvey.id, msg.sender);\n    return newSurvey.id; // Return the ID of the newly created survey\n}\n\n// Function for a user to take a survey and record their choices\nfunction takeSurvey(uint surveyid, uint[] memory choices) public {\n    require(surveyWithIdExists(surveyid), \"Survey with id does not exist\"); // Check if the survey exists\n    require(isMyGovMember(msg.sender), \"You should be a MyGov member to take a survey\"); // Only members can take a survey\n    require(!tookSurvey(surveyid, msg.sender), \"You already took the survey\"); // Check if the user already took the survey\n    require(choices.length <= surveys[surveyid].atMostChoice, \"You selected more choices than allowed\"); // Check if the number of choices is within the allowed limit\n    require(surveys[surveyid].deadline > block.timestamp, \"Deadline passed\"); // Check if the survey deadline has not passed\n\n    // Validate each choice against the number of choices in the survey\n    for(uint i = 0; i < choices.length; i++) {\n        require(choices[i] < surveys[surveyid].numChoices, \"Invalid choice number supplied\");\n    }\n\n    // Record the choices and update survey results\n    for(uint i = 0; i < choices.length; i++) {\n        surveys[surveyid].results[choices[i]]++;\n    }\n    surveys[surveyid].choices[msg.sender] = choices;\n    surveys[surveyid].numTaken++;\n}\n\n// Function to get the results of a survey, including the number of participants and their choices\nfunction getSurveyResults(uint surveyid) public view returns(uint numtaken, uint [] memory results) {\n    require(surveyWithIdExists(surveyid), \"Survey with id does not exist\"); // Check if the survey exists\n    return (surveys[surveyid].numTaken, surveys[surveyid].results); // Return the number of participants and their choices\n}\n\n// Function to get information about a survey, including its IPFS hash, deadline, number of choices, and the maximum choices allowed\nfunction getSurveyInfo(uint surveyid) public view returns(string memory ipfshash, uint surveydeadline, uint numchoices, uint atmostchoice) {\n    require(surveyWithIdExists(surveyid), \"Survey with id does not exist\"); // Check if the survey exists\n    return (\n        surveys[surveyid].ipfsHash,\n        surveys[surveyid].deadline,\n        surveys[surveyid].numChoices,\n        surveys[surveyid].atMostChoice\n    ); // Return survey information\n}\n\n// Function to get the owner of a survey\nfunction getSurveyOwner(uint surveyid) public view returns(address surveyowner) {\n    require(surveyWithIdExists(surveyid), \"Survey with id does not exist\"); // Check if the survey exists\n    return surveys[surveyid].owner; // Return the owner of the survey\n}\n\n// Function to get the total number of surveys\nfunction getNoOfSurveys() public view returns(uint numsurveys) {\n    return surveys.length; // Return the total number of surveys\n}\n\n\n    // Function to delegate voting power to another member for a specific project\nfunction delegateVoteTo(address memberaddr, uint projectid) public {\n    require(projectWithIdExists(projectid), \"Project with id does not exist\"); // Check if the project exists\n    require(isMyGovMember(msg.sender), \"You should be a member to be able to delegate vote\"); // Check if the sender is a MyGov member\n    require(memberaddr != msg.sender, \"You cannot delegate to yourself\"); // Ensure the delegation is not to the sender itself\n    require(!projects[projectid].voters[msg.sender].didVote, \"You already voted\"); // Ensure the sender has not already voted\n    require(!projects[projectid].voters[msg.sender].didDelegate, \"You already delegated your vote\"); // Ensure the sender has not already delegated their vote\n\n    // Update sender's delegation information\n    projects[projectid].voters[msg.sender].didDelegate = true;\n    projects[projectid].voters[msg.sender].delegatingTo = memberaddr;\n    \n    // Set initial vote multiplier for the sender if not already set\n    if(projects[projectid].voters[msg.sender].voteMultiplier == 0 ) {\n        projects[projectid].voters[msg.sender].voteMultiplier = 1;\n    }\n\n    // Traverse the delegation graph to ensure there is no loop\n    address ptr = projects[projectid].voters[msg.sender].delegatingTo;\n    while(projects[projectid].voters[ptr].delegatingTo != address(0)) {\n        ptr = projects[projectid].voters[ptr].delegatingTo;\n        require(ptr != msg.sender, \"There is a loop in the delegation graph!\");\n    }\n\n    // Set initial vote multiplier for the delegate if not already set\n    if(projects[projectid].voters[ptr].voteMultiplier == 0 ) {\n        projects[projectid].voters[ptr].voteMultiplier = 1;\n    }\n\n    // Update the sender's delegation to the final delegate address\n    projects[projectid].voters[msg.sender].delegatingTo = ptr;\n    \n    // Update the yesVoteCount based on the delegate's previous votes\n    if(projects[projectid].voters[ptr].didVote) {\n        if(projects[projectid].voters[ptr].choice) {\n            projects[projectid].yesVoteCount += projects[projectid].voters[msg.sender].voteMultiplier;\n        }\n    } else {\n        // If the delegate has not voted yet, update their voteMultiplier\n        projects[projectid].voters[ptr].voteMultiplier += projects[projectid].voters[msg.sender].voteMultiplier;\n    }\n}\n\n\n// Function to vote for or against a project proposal\nfunction voteForProjectProposal(uint projectid, bool choice) public {\n    require(projectWithIdExists(projectid), \"Project with id does not exist\"); // Check if the project exists\n    require(isMyGovMember(msg.sender), \"You should be a MyGov member to vote for project proposal\"); // Check if the sender is a MyGov member\n    require(projects[projectid].voteDeadline > block.timestamp, \"Deadline passed\"); // Check if the voting deadline for the project proposal has not passed\n    require(!projects[projectid].voters[msg.sender].didVote, \"You already voted\"); // Ensure the sender has not already voted\n\n    // Set initial vote multiplier for the sender if not already set\n    if(projects[projectid].voters[msg.sender].voteMultiplier == 0) {\n        projects[projectid].voters[msg.sender].voteMultiplier = 1;\n    }\n\n    // Update sender's vote information for the project proposal\n    projects[projectid].voters[msg.sender].didVote = true;\n    projects[projectid].voters[msg.sender].choice = choice; // true --> YES, false --> NO \n\n    // Update yesVoteCount based on the sender's vote choice\n    if(choice) {\n        projects[projectid].yesVoteCount += projects[projectid].voters[msg.sender].voteMultiplier;\n    }\n}\n\n// Function to vote for or against a specific payment of a funded project\nfunction voteForProjectPayment(uint projectid, bool choice) public {\n    require(projectWithIdExists(projectid), \"Project with id does not exist\"); // Check if the project exists\n    require(isMyGovMember(msg.sender), \"You should be a MyGov member to vote for project payment\"); // Check if the sender is a MyGov member\n    require(projects[projectid].paymentSchedule[projects[projectid].currPaymentIndex] > block.timestamp, \"Deadline passed\"); // Check if the payment deadline has not passed\n    require(!projects[projectid].voters[msg.sender].didVotePayments[projects[projectid].currPaymentIndex], \"You already voted\"); // Ensure the sender has not already voted for this payment\n\n    // Set initial vote multiplier for the sender if not already set\n    if(projects[projectid].voters[msg.sender].voteMultiplier == 0) {\n        projects[projectid].voters[msg.sender].voteMultiplier = 1;\n    }\n\n    // Update sender's vote information for the specific payment\n    projects[projectid].voters[msg.sender].didVotePayments[projects[projectid].currPaymentIndex] = true;\n    projects[projectid].voters[msg.sender].paymentVotes[projects[projectid].currPaymentIndex] = choice;\n\n    // Update yesVouteCountsOfPayments based on the sender's vote choice\n    if(choice) {\n        projects[projectid].yesVouteCountsOfPayments[projects[projectid].currPaymentIndex] += projects[projectid].voters[msg.sender].voteMultiplier;\n    }\n}\n\n    // Function to submit a project proposal\nfunction submitProjectProposal(string memory ipfshash, uint votedeadline, uint [] memory paymentamounts, uint [] memory payschedule) public returns (uint projectid) {\n    require(isMyGovMember(msg.sender), \"You should be a MyGov member to propose a project\"); // Only members can propose a project\n    require(balanceOf(msg.sender) >= PROJECT_PROPOSAL_MYGOV_TOKEN_COST, \"Not sufficient MyGov token to propose a project\" ); // Check if the sender has enough MyGov tokens\n    require(getUSDBalanceOfAccount(msg.sender) >= PROJECT_PROPOSAL_USD_STABLE_COIN_COST, \"Not sufficient USD Stable coin to propose a project\" ); // Check if the sender has enough USD Stable Coins\n\n    donateMyGovToken(PROJECT_PROPOSAL_MYGOV_TOKEN_COST); // Deduct the MyGov tokens for the proposal\n    donateUSD(PROJECT_PROPOSAL_USD_STABLE_COIN_COST); // Deduct the USD Stable Coins for the proposal\n\n    Project storage newProject = projects.push(); // Create a new project and get its reference\n    uint new_project_id = projects.length - 1; // Get the new project's ID\n    newProject.id = new_project_id;\n    projects[new_project_id].ipfsHash = ipfshash;\n    projects[new_project_id].voteDeadline = votedeadline;\n    projects[new_project_id].paymentAmounts = paymentamounts;\n    projects[new_project_id].paymentSchedule = payschedule;\n    projects[new_project_id].yesVouteCountsOfPayments = new uint[](payschedule.length);\n    projects[new_project_id].owner = msg.sender;\n    projects[new_project_id].currPaymentIndex = 0;\n    projects[new_project_id].yesVoteCount = 0;\n    projects[new_project_id].isReserved = false;\n    projects[new_project_id].received_USD_amount = 0;\n    projects[new_project_id].allPaymentWithdrawn = false;\n\n    if(!isMyGovMember(msg.sender)){\n        myGovMemberCount--; // Decrease the member count if the sender is not already a MyGov member\n    }\n\n    emit ProjectSubmitted(new_project_id, msg.sender); // Emit an event for the submitted project\n    return new_project_id; // Return the ID of the submitted project\n}\n\n// Function to reserve a project grant\nfunction reserveProjectGrant(uint projectid) public {\n    require(projectWithIdExists(projectid), \"Project with id does not exist\"); // Check if the project exists\n    require(projects[projectid].owner == msg.sender, \"You need to be the project owner to reserve project grant\"); // Check if the sender is the owner of the project\n    require(!projects[projectid].isReserved, \"You already reserved the project grant, project grant can be reserved only once\"); // Check if the project grant is not already reserved\n    require(projects[projectid].yesVoteCount * 10 >= myGovMemberCount, \"There is not enough yes votes for the current project grant\"); // Check if there are enough yes votes for the project grant\n    require(projects[projectid].voteDeadline > block.timestamp, \"Deadline passed\"); // Check if the vote deadline has not passed\n\n    uint total_payment = 0;\n    for(uint i = 0; i < projects[projectid].paymentAmounts.length; i++){\n        total_payment += projects[projectid].paymentAmounts[i]; // Calculate the total payment amount for the project\n    }\n    require(getUSDBalanceOfAccount(address(this)) - reservedUSD_StableCoins >= total_payment, \"There is not enough USD Stable Coin in the contract to reserve the project grant\"); // Check if there is enough reserve amount for the payment\n\n    reservedUSD_StableCoins += total_payment; // Reserve the project grant amount in USD Stable Coins\n    projects[projectid].isReserved = true; // Mark the project grant as reserved\n}\n\n\n// Function to withdraw the payment for the current project\nfunction withdrawProjectPayment(uint projectid) public {\n    require(projectWithIdExists(projectid), \"Project with id does not exist\"); // Check if the project exists\n    require(getIsProjectFunded(projectid), \"Project should be funded in order to withdraw project payment\"); // Check if the project is funded\n    require(projects[projectid].owner == msg.sender, \"You need to be the project owner to withdraw project payment\"); // Check if the sender is the owner of the project\n    require(!projects[projectid].allPaymentWithdrawn, \"All payments are withdrawn, you cannot withdraw more\"); // Check if all payments are not already withdrawn\n    require(projects[projectid].paymentSchedule[projects[projectid].currPaymentIndex] > block.timestamp, \"Deadline passed\"); // Check if the payment deadline has not passed\n\n    uint yesVotesCountOfTheCurrPayment = projects[projectid].yesVouteCountsOfPayments[projects[projectid].currPaymentIndex];\n    require(yesVotesCountOfTheCurrPayment * 100 >= myGovMemberCount, \"There is not enough yes votes for the current payment\"); // Check if there are enough yes votes for the current payment\n    uint currPaymentAmount = projects[projectid].paymentAmounts[projects[projectid].currPaymentIndex];\n    require(reservedUSD_StableCoins >= currPaymentAmount, \"There is not enough reserve amount\"); // Check if there is enough reserve amount for the payment\n\n    // Transfer the payment amount in USD Stable Coins to the project owner\n    USD_BaseCoinContract.transfer(msg.sender, currPaymentAmount);\n    reservedUSD_StableCoins -= currPaymentAmount; // Reduce the reserved amount\n    projects[projectid].received_USD_amount += currPaymentAmount; // Update the received amount for the project\n    projects[projectid].currPaymentIndex++; // Move to the next payment index\n    if(projects[projectid].currPaymentIndex == projects[projectid].paymentSchedule.length) {\n        projects[projectid].allPaymentWithdrawn = true; // Mark all payments as withdrawn if the last payment is reached\n    }\n}\n\n// Function to get the amount of the next payment for the project\nfunction getProjectNextPayment(uint projectid) public view returns(int next) {\n    require(projectWithIdExists(projectid), \"Project with id does not exist\"); // Check if the project exists\n    require(getIsProjectFunded(projectid), \"Project should be funded in order to receive payment\"); // Check if the project is funded\n    require(!projects[projectid].allPaymentWithdrawn, \"All of the payments are withdrawn, there is no next payment\"); // Check if all payments are not already withdrawn\n\n    return int(projects[projectid].paymentAmounts[projects[projectid].currPaymentIndex]); // Return the amount of the next payment\n}\n\n// Function to get the owner of a project\nfunction getProjectOwner(uint projectid) public view returns(address projectowner) {\n    require(projectWithIdExists(projectid), \"Project with id does not exist\"); // Check if the project exists\n    return projects[projectid].owner; // Return the owner of the project\n}\n\n// Function to get information about a project, including its IPFS hash, vote deadline, payment amounts, and payment schedule\nfunction getProjectInfo(uint activityid) public view returns(string memory ipfshash, uint votedeadline, uint [] memory paymentamounts, uint [] memory payschedule) {\n    require(projectWithIdExists(activityid), \"Project with id does not exist\"); // Check if the project exists\n    return (\n        projects[activityid].ipfsHash,\n        projects[activityid].voteDeadline,\n        projects[activityid].paymentAmounts,\n        projects[activityid].paymentSchedule\n    ); // Return project information\n}\n\n// Function to get the total number of project proposals\nfunction getNoOfProjectProposals() public view returns(uint numproposals) {\n    return projects.length; // Return the total number of project proposals\n}\n\n// Function to get the total number of funded projects\nfunction getNoOfFundedProjects () public view returns(uint numfunded) {\n    uint result = 0;\n    for(uint p = 0; p < projects.length; p++) {\n        if(getIsProjectFunded(p)) {\n            result++;\n        }\n    }\n    return result; // Return the total number of funded projects\n}\n\n// Function to check if a project is funded based on reservation status and payment schedule\nfunction getIsProjectFunded (uint projectid) public view returns(bool funded) {\n    require(projectWithIdExists(projectid), \"Project with id does not exist\"); // Check if the project exists\n    return (projects[projectid].isReserved) && (projects[projectid].paymentSchedule[projects[projectid].currPaymentIndex] > block.timestamp);\n}\n\n// Function to get the total amount of USD received by a project\nfunction getUSDReceivedByProject (uint projectid) public view returns(uint amount) {\n    require(projectWithIdExists(projectid), \"Project with id does not exist\"); // Check if the project exists\n    return projects[projectid].received_USD_amount; // Return the total amount of USD received by the project\n}\n\n// Faucet function to distribute MyGov tokens to users\nfunction faucet() public {\n    require(balanceOf(address(this)) > 0, \"No tokens left on contract\"); // Check if there are remaining tokens in the contract\n    require(!usedFaucet[msg.sender], \"You already received token from contract\"); // Check if the user has already received tokens\n    this.transfer(msg.sender, 1); // Transfer 1 MyGov token to the user\n    usedFaucet[msg.sender] = true; // Mark the user as having received tokens\n    myGovMemberCount++; // Increment the MyGov member count\n}\n\n\n}\n",
  "sourcePath": "/Users/alptuna/Documents/DEV/Blockchain/Cmpe483/Project1/contracts/MyGov.sol",
  "compiler": {
    "name": "solc",
    "version": "0.8.21+commit.d9974bed.Emscripten.clang"
  },
  "schemaVersion": "3.4.16",
  "updatedAt": "2023-12-26T20:40:42.499Z",
  "devdoc": {
    "errors": {
      "ERC20InsufficientAllowance(address,uint256,uint256)": [
        {
          "details": "Indicates a failure with the `spender`s `allowance`. Used in transfers.",
          "params": {
            "allowance": "Amount of tokens a `spender` is allowed to operate with.",
            "needed": "Minimum amount required to perform a transfer.",
            "spender": "Address that may be allowed to operate on tokens without being their owner."
          }
        }
      ],
      "ERC20InsufficientBalance(address,uint256,uint256)": [
        {
          "details": "Indicates an error related to the current `balance` of a `sender`. Used in transfers.",
          "params": {
            "balance": "Current balance for the interacting account.",
            "needed": "Minimum amount required to perform a transfer.",
            "sender": "Address whose tokens are being transferred."
          }
        }
      ],
      "ERC20InvalidApprover(address)": [
        {
          "details": "Indicates a failure with the `approver` of a token to be approved. Used in approvals.",
          "params": {
            "approver": "Address initiating an approval operation."
          }
        }
      ],
      "ERC20InvalidReceiver(address)": [
        {
          "details": "Indicates a failure with the token `receiver`. Used in transfers.",
          "params": {
            "receiver": "Address to which tokens are being transferred."
          }
        }
      ],
      "ERC20InvalidSender(address)": [
        {
          "details": "Indicates a failure with the token `sender`. Used in transfers.",
          "params": {
            "sender": "Address whose tokens are being transferred."
          }
        }
      ],
      "ERC20InvalidSpender(address)": [
        {
          "details": "Indicates a failure with the `spender` to be approved. Used in approvals.",
          "params": {
            "spender": "Address that may be allowed to operate on tokens without being their owner."
          }
        }
      ]
    },
    "events": {
      "Approval(address,address,uint256)": {
        "details": "Emitted when the allowance of a `spender` for an `owner` is set by a call to {approve}. `value` is the new allowance."
      },
      "Transfer(address,address,uint256)": {
        "details": "Emitted when `value` tokens are moved from one account (`from`) to another (`to`). Note that `value` may be zero."
      }
    },
    "kind": "dev",
    "methods": {
      "allowance(address,address)": {
        "details": "See {IERC20-allowance}."
      },
      "approve(address,uint256)": {
        "details": "See {IERC20-approve}. NOTE: If `value` is the maximum `uint256`, the allowance is not updated on `transferFrom`. This is semantically equivalent to an infinite approval. Requirements: - `spender` cannot be the zero address."
      },
      "balanceOf(address)": {
        "details": "See {IERC20-balanceOf}."
      },
      "decimals()": {
        "details": "Returns the number of decimals used to get its user representation. For example, if `decimals` equals `2`, a balance of `505` tokens should be displayed to a user as `5.05` (`505 / 10 ** 2`). Tokens usually opt for a value of 18, imitating the relationship between Ether and Wei. This is the default value returned by this function, unless it's overridden. NOTE: This information is only used for _display_ purposes: it in no way affects any of the arithmetic of the contract, including {IERC20-balanceOf} and {IERC20-transfer}."
      },
      "name()": {
        "details": "Returns the name of the token."
      },
      "symbol()": {
        "details": "Returns the symbol of the token, usually a shorter version of the name."
      },
      "totalSupply()": {
        "details": "See {IERC20-totalSupply}."
      },
      "transfer(address,uint256)": {
        "details": "See {IERC20-transfer}. Requirements: - `to` cannot be the zero address. - the caller must have a balance of at least `value`."
      },
      "transferFrom(address,address,uint256)": {
        "details": "See {IERC20-transferFrom}. Emits an {Approval} event indicating the updated allowance. This is not required by the EIP. See the note at the beginning of {ERC20}. NOTE: Does not update the allowance if the current allowance is the maximum `uint256`. Requirements: - `from` and `to` cannot be the zero address. - `from` must have a balance of at least `value`. - the caller must have allowance for ``from``'s tokens of at least `value`."
      }
    },
    "version": 1
  },
  "userdoc": {
    "kind": "user",
    "methods": {},
    "version": 1
  }
}