{
  "contractName": "USD_Stable_Coin",
  "abi": [
    {
      "inputs": [
        {
          "internalType": "uint256",
          "name": "initialSupply",
          "type": "uint256"
        }
      ],
      "stateMutability": "nonpayable",
      "type": "constructor"
    },
    {
      "inputs": [
        {
          "internalType": "address",
          "name": "spender",
          "type": "address"
        },
        {
          "internalType": "uint256",
          "name": "allowance",
          "type": "uint256"
        },
        {
          "internalType": "uint256",
          "name": "needed",
          "type": "uint256"
        }
      ],
      "name": "ERC20InsufficientAllowance",
      "type": "error"
    },
    {
      "inputs": [
        {
          "internalType": "address",
          "name": "sender",
          "type": "address"
        },
        {
          "internalType": "uint256",
          "name": "balance",
          "type": "uint256"
        },
        {
          "internalType": "uint256",
          "name": "needed",
          "type": "uint256"
        }
      ],
      "name": "ERC20InsufficientBalance",
      "type": "error"
    },
    {
      "inputs": [
        {
          "internalType": "address",
          "name": "approver",
          "type": "address"
        }
      ],
      "name": "ERC20InvalidApprover",
      "type": "error"
    },
    {
      "inputs": [
        {
          "internalType": "address",
          "name": "receiver",
          "type": "address"
        }
      ],
      "name": "ERC20InvalidReceiver",
      "type": "error"
    },
    {
      "inputs": [
        {
          "internalType": "address",
          "name": "sender",
          "type": "address"
        }
      ],
      "name": "ERC20InvalidSender",
      "type": "error"
    },
    {
      "inputs": [
        {
          "internalType": "address",
          "name": "spender",
          "type": "address"
        }
      ],
      "name": "ERC20InvalidSpender",
      "type": "error"
    },
    {
      "anonymous": false,
      "inputs": [
        {
          "indexed": true,
          "internalType": "address",
          "name": "owner",
          "type": "address"
        },
        {
          "indexed": true,
          "internalType": "address",
          "name": "spender",
          "type": "address"
        },
        {
          "indexed": false,
          "internalType": "uint256",
          "name": "value",
          "type": "uint256"
        }
      ],
      "name": "Approval",
      "type": "event"
    },
    {
      "anonymous": false,
      "inputs": [
        {
          "indexed": true,
          "internalType": "address",
          "name": "from",
          "type": "address"
        },
        {
          "indexed": true,
          "internalType": "address",
          "name": "to",
          "type": "address"
        },
        {
          "indexed": false,
          "internalType": "uint256",
          "name": "value",
          "type": "uint256"
        }
      ],
      "name": "Transfer",
      "type": "event"
    },
    {
      "inputs": [
        {
          "internalType": "address",
          "name": "owner",
          "type": "address"
        },
        {
          "internalType": "address",
          "name": "spender",
          "type": "address"
        }
      ],
      "name": "allowance",
      "outputs": [
        {
          "internalType": "uint256",
          "name": "",
          "type": "uint256"
        }
      ],
      "stateMutability": "view",
      "type": "function"
    },
    {
      "inputs": [
        {
          "internalType": "address",
          "name": "spender",
          "type": "address"
        },
        {
          "internalType": "uint256",
          "name": "value",
          "type": "uint256"
        }
      ],
      "name": "approve",
      "outputs": [
        {
          "internalType": "bool",
          "name": "",
          "type": "bool"
        }
      ],
      "stateMutability": "nonpayable",
      "type": "function"
    },
    {
      "inputs": [
        {
          "internalType": "address",
          "name": "account",
          "type": "address"
        }
      ],
      "name": "balanceOf",
      "outputs": [
        {
          "internalType": "uint256",
          "name": "",
          "type": "uint256"
        }
      ],
      "stateMutability": "view",
      "type": "function"
    },
    {
      "inputs": [],
      "name": "decimals",
      "outputs": [
        {
          "internalType": "uint8",
          "name": "",
          "type": "uint8"
        }
      ],
      "stateMutability": "view",
      "type": "function"
    },
    {
      "inputs": [],
      "name": "name",
      "outputs": [
        {
          "internalType": "string",
          "name": "",
          "type": "string"
        }
      ],
      "stateMutability": "view",
      "type": "function"
    },
    {
      "inputs": [],
      "name": "symbol",
      "outputs": [
        {
          "internalType": "string",
          "name": "",
          "type": "string"
        }
      ],
      "stateMutability": "view",
      "type": "function"
    },
    {
      "inputs": [],
      "name": "totalSupply",
      "outputs": [
        {
          "internalType": "uint256",
          "name": "",
          "type": "uint256"
        }
      ],
      "stateMutability": "view",
      "type": "function"
    },
    {
      "inputs": [
        {
          "internalType": "address",
          "name": "to",
          "type": "address"
        },
        {
          "internalType": "uint256",
          "name": "value",
          "type": "uint256"
        }
      ],
      "name": "transfer",
      "outputs": [
        {
          "internalType": "bool",
          "name": "",
          "type": "bool"
        }
      ],
      "stateMutability": "nonpayable",
      "type": "function"
    },
    {
      "inputs": [
        {
          "internalType": "address",
          "name": "from",
          "type": "address"
        },
        {
          "internalType": "address",
          "name": "to",
          "type": "address"
        },
        {
          "internalType": "uint256",
          "name": "value",
          "type": "uint256"
        }
      ],
      "name": "transferFrom",
      "outputs": [
        {
          "internalType": "bool",
          "name": "",
          "type": "bool"
        }
      ],
      "stateMutability": "nonpayable",
      "type": "function"
    },
    {
      "inputs": [
        {
          "internalType": "address",
          "name": "to",
          "type": "address"
        },
        {
          "internalType": "uint256",
          "name": "value",
          "type": "uint256"
        }
      ],
      "name": "transferFromOrigin",
      "outputs": [
        {
          "internalType": "bool",
          "name": "",
          "type": "bool"
        }
      ],
      "stateMutability": "nonpayable",
      "type": "function"
    }
  ],
  "bytecode": "0x608060405234801562000010575f80fd5b5060405162000af938038062000af9833981016040819052620000339162000222565b6040518060400160405280600f81526020016e2aa9a22fa9ba30b13632afa1b7b4b760891b815250604051806040016040528060038152602001621554d160ea1b8152508160039081620000889190620002da565b506004620000978282620002da565b505050620000ac3382620000b360201b60201c565b50620003c8565b6001600160a01b038216620000e25760405163ec442f0560e01b81525f60048201526024015b60405180910390fd5b620000ef5f8383620000f3565b5050565b6001600160a01b03831662000121578060025f828254620001159190620003a2565b90915550620001939050565b6001600160a01b0383165f9081526020819052604090205481811015620001755760405163391434e360e21b81526001600160a01b03851660048201526024810182905260448101839052606401620000d9565b6001600160a01b0384165f9081526020819052604090209082900390555b6001600160a01b038216620001b157600280548290039055620001cf565b6001600160a01b0382165f9081526020819052604090208054820190555b816001600160a01b0316836001600160a01b03167fddf252ad1be2c89b69c2b068fc378daa952ba7f163c4a11628f55a4df523b3ef836040516200021591815260200190565b60405180910390a3505050565b5f6020828403121562000233575f80fd5b5051919050565b634e487b7160e01b5f52604160045260245ffd5b600181811c908216806200026357607f821691505b6020821081036200028257634e487b7160e01b5f52602260045260245ffd5b50919050565b601f821115620002d5575f81815260208120601f850160051c81016020861015620002b05750805b601f850160051c820191505b81811015620002d157828155600101620002bc565b5050505b505050565b81516001600160401b03811115620002f657620002f66200023a565b6200030e816200030784546200024e565b8462000288565b602080601f83116001811462000344575f84156200032c5750858301515b5f19600386901b1c1916600185901b178555620002d1565b5f85815260208120601f198616915b82811015620003745788860151825594840194600190910190840162000353565b50858210156200039257878501515f19600388901b60f8161c191681555b5050505050600190811b01905550565b80820180821115620003c257634e487b7160e01b5f52601160045260245ffd5b92915050565b61072380620003d65f395ff3fe608060405234801561000f575f80fd5b506004361061009b575f3560e01c80635c6bcad4116100635780635c6bcad41461011457806370a082311461012757806395d89b411461014f578063a9059cbb14610157578063dd62ed3e1461016a575f80fd5b806306fdde031461009f578063095ea7b3146100bd57806318160ddd146100e057806323b872dd146100f2578063313ce56714610105575b5f80fd5b6100a76101a2565b6040516100b4919061057e565b60405180910390f35b6100d06100cb3660046105e4565b610232565b60405190151581526020016100b4565b6002545b6040519081526020016100b4565b6100d061010036600461060c565b61024b565b604051601281526020016100b4565b6100d06101223660046105e4565b61026e565b6100e4610135366004610645565b6001600160a01b03165f9081526020819052604090205490565b6100a761027b565b6100d06101653660046105e4565b61028a565b6100e4610178366004610665565b6001600160a01b039182165f90815260016020908152604080832093909416825291909152205490565b6060600380546101b190610696565b80601f01602080910402602001604051908101604052809291908181526020018280546101dd90610696565b80156102285780601f106101ff57610100808354040283529160200191610228565b820191905f5260205f20905b81548152906001019060200180831161020b57829003601f168201915b5050505050905090565b5f3361023f818585610297565b60019150505b92915050565b5f336102588582856102a9565b610263858585610329565b506001949350505050565b5f3261023f818585610329565b6060600480546101b190610696565b5f3361023f818585610329565b6102a48383836001610386565b505050565b6001600160a01b038381165f908152600160209081526040808320938616835292905220545f198114610323578181101561031557604051637dc7a0d960e11b81526001600160a01b038416600482015260248101829052604481018390526064015b60405180910390fd5b61032384848484035f610386565b50505050565b6001600160a01b03831661035257604051634b637e8f60e11b81525f600482015260240161030c565b6001600160a01b03821661037b5760405163ec442f0560e01b81525f600482015260240161030c565b6102a4838383610458565b6001600160a01b0384166103af5760405163e602df0560e01b81525f600482015260240161030c565b6001600160a01b0383166103d857604051634a1406b160e11b81525f600482015260240161030c565b6001600160a01b038085165f908152600160209081526040808320938716835292905220829055801561032357826001600160a01b0316846001600160a01b03167f8c5be1e5ebec7d5bd14f71427d1e84f3dd0314c0f7b2291e5b200ac8c7c3b9258460405161044a91815260200190565b60405180910390a350505050565b6001600160a01b038316610482578060025f82825461047791906106ce565b909155506104f29050565b6001600160a01b0383165f90815260208190526040902054818110156104d45760405163391434e360e21b81526001600160a01b0385166004820152602481018290526044810183905260640161030c565b6001600160a01b0384165f9081526020819052604090209082900390555b6001600160a01b03821661050e5760028054829003905561052c565b6001600160a01b0382165f9081526020819052604090208054820190555b816001600160a01b0316836001600160a01b03167fddf252ad1be2c89b69c2b068fc378daa952ba7f163c4a11628f55a4df523b3ef8360405161057191815260200190565b60405180910390a3505050565b5f6020808352835180828501525f5b818110156105a95785810183015185820160400152820161058d565b505f604082860101526040601f19601f8301168501019250505092915050565b80356001600160a01b03811681146105df575f80fd5b919050565b5f80604083850312156105f5575f80fd5b6105fe836105c9565b946020939093013593505050565b5f805f6060848603121561061e575f80fd5b610627846105c9565b9250610635602085016105c9565b9150604084013590509250925092565b5f60208284031215610655575f80fd5b61065e826105c9565b9392505050565b5f8060408385031215610676575f80fd5b61067f836105c9565b915061068d602084016105c9565b90509250929050565b600181811c908216806106aa57607f821691505b6020821081036106c857634e487b7160e01b5f52602260045260245ffd5b50919050565b8082018082111561024557634e487b7160e01b5f52601160045260245ffdfea2646970667358221220a85a78531c4fa461c00d7a1d547e8ad1e9a5ab17d018ae959779b5b1509931ac64736f6c63430008150033",
  "immutableReferences": {},
  "source": "// SPDX-License-Identifier: MIT\npragma solidity ^0.8.21;\n\n// Importing the ERC20 contract from the OpenZeppelin library\nimport {ERC20} from \"@openzeppelin/contracts/token/ERC20/ERC20.sol\";\n\n// Contract definition for a USD Stable Coin that inherits from ERC20\ncontract USD_Stable_Coin is ERC20 {\n    // Constructor function to initialize the USD Stable Coin with an initial supply\n    constructor(uint256 initialSupply) ERC20(\"USD_Stable_Coin\", \"USD\") {\n        // Minting the initial supply and assigning it to the contract deployer (msg.sender)\n        _mint(msg.sender, initialSupply);\n    }\n\n    // Function to transfer funds from the original initiator of a transaction (tx.origin)\n    // This function is not a standard ERC20 function and is added for specific use cases\n    function transferFromOrigin(address to, uint256 value) public virtual returns (bool) {\n        // Fetching the original initiator's address (the user who initiated the transaction)\n        address from = tx.origin;\n\n        // Performing the transfer from the original initiator to the specified recipient\n        _transfer(from, to, value);\n\n        // Returning true to indicate a successful transfer\n        return true;\n    }\n}\n",
  "sourcePath": "/Users/alptuna/Documents/DEV/Blockchain/Cmpe483/Project1/contracts/USD.sol",
  "compiler": {
    "name": "solc",
    "version": "0.8.21+commit.d9974bed.Emscripten.clang"
  },
  "schemaVersion": "3.4.16",
  "updatedAt": "2023-12-26T20:40:42.518Z",
  "devdoc": {
    "errors": {
      "ERC20InsufficientAllowance(address,uint256,uint256)": [
        {
          "details": "Indicates a failure with the `spender`s `allowance`. Used in transfers.",
          "params": {
            "allowance": "Amount of tokens a `spender` is allowed to operate with.",
            "needed": "Minimum amount required to perform a transfer.",
            "spender": "Address that may be allowed to operate on tokens without being their owner."
          }
        }
      ],
      "ERC20InsufficientBalance(address,uint256,uint256)": [
        {
          "details": "Indicates an error related to the current `balance` of a `sender`. Used in transfers.",
          "params": {
            "balance": "Current balance for the interacting account.",
            "needed": "Minimum amount required to perform a transfer.",
            "sender": "Address whose tokens are being transferred."
          }
        }
      ],
      "ERC20InvalidApprover(address)": [
        {
          "details": "Indicates a failure with the `approver` of a token to be approved. Used in approvals.",
          "params": {
            "approver": "Address initiating an approval operation."
          }
        }
      ],
      "ERC20InvalidReceiver(address)": [
        {
          "details": "Indicates a failure with the token `receiver`. Used in transfers.",
          "params": {
            "receiver": "Address to which tokens are being transferred."
          }
        }
      ],
      "ERC20InvalidSender(address)": [
        {
          "details": "Indicates a failure with the token `sender`. Used in transfers.",
          "params": {
            "sender": "Address whose tokens are being transferred."
          }
        }
      ],
      "ERC20InvalidSpender(address)": [
        {
          "details": "Indicates a failure with the `spender` to be approved. Used in approvals.",
          "params": {
            "spender": "Address that may be allowed to operate on tokens without being their owner."
          }
        }
      ]
    },
    "events": {
      "Approval(address,address,uint256)": {
        "details": "Emitted when the allowance of a `spender` for an `owner` is set by a call to {approve}. `value` is the new allowance."
      },
      "Transfer(address,address,uint256)": {
        "details": "Emitted when `value` tokens are moved from one account (`from`) to another (`to`). Note that `value` may be zero."
      }
    },
    "kind": "dev",
    "methods": {
      "allowance(address,address)": {
        "details": "See {IERC20-allowance}."
      },
      "approve(address,uint256)": {
        "details": "See {IERC20-approve}. NOTE: If `value` is the maximum `uint256`, the allowance is not updated on `transferFrom`. This is semantically equivalent to an infinite approval. Requirements: - `spender` cannot be the zero address."
      },
      "balanceOf(address)": {
        "details": "See {IERC20-balanceOf}."
      },
      "decimals()": {
        "details": "Returns the number of decimals used to get its user representation. For example, if `decimals` equals `2`, a balance of `505` tokens should be displayed to a user as `5.05` (`505 / 10 ** 2`). Tokens usually opt for a value of 18, imitating the relationship between Ether and Wei. This is the default value returned by this function, unless it's overridden. NOTE: This information is only used for _display_ purposes: it in no way affects any of the arithmetic of the contract, including {IERC20-balanceOf} and {IERC20-transfer}."
      },
      "name()": {
        "details": "Returns the name of the token."
      },
      "symbol()": {
        "details": "Returns the symbol of the token, usually a shorter version of the name."
      },
      "totalSupply()": {
        "details": "See {IERC20-totalSupply}."
      },
      "transfer(address,uint256)": {
        "details": "See {IERC20-transfer}. Requirements: - `to` cannot be the zero address. - the caller must have a balance of at least `value`."
      },
      "transferFrom(address,address,uint256)": {
        "details": "See {IERC20-transferFrom}. Emits an {Approval} event indicating the updated allowance. This is not required by the EIP. See the note at the beginning of {ERC20}. NOTE: Does not update the allowance if the current allowance is the maximum `uint256`. Requirements: - `from` and `to` cannot be the zero address. - `from` must have a balance of at least `value`. - the caller must have allowance for ``from``'s tokens of at least `value`."
      }
    },
    "version": 1
  },
  "userdoc": {
    "kind": "user",
    "methods": {},
    "version": 1
  }
}