{
	"Users/lynn/Documents/Uni/Bogazici/Blockchain/Cmpe483/contracts/MyGov.sol": {
		"MyGov": {
			"abi": [
				{
					"inputs": [
						{
							"internalType": "uint256",
							"name": "tokensupply",
							"type": "uint256"
						},
						{
							"internalType": "address",
							"name": "usdStableCoinAddress",
							"type": "address"
						},
						{
							"internalType": "bool",
							"name": "test",
							"type": "bool"
						}
					],
					"stateMutability": "nonpayable",
					"type": "constructor"
				},
				{
					"inputs": [
						{
							"internalType": "address",
							"name": "spender",
							"type": "address"
						},
						{
							"internalType": "uint256",
							"name": "allowance",
							"type": "uint256"
						},
						{
							"internalType": "uint256",
							"name": "needed",
							"type": "uint256"
						}
					],
					"name": "ERC20InsufficientAllowance",
					"type": "error"
				},
				{
					"inputs": [
						{
							"internalType": "address",
							"name": "sender",
							"type": "address"
						},
						{
							"internalType": "uint256",
							"name": "balance",
							"type": "uint256"
						},
						{
							"internalType": "uint256",
							"name": "needed",
							"type": "uint256"
						}
					],
					"name": "ERC20InsufficientBalance",
					"type": "error"
				},
				{
					"inputs": [
						{
							"internalType": "address",
							"name": "approver",
							"type": "address"
						}
					],
					"name": "ERC20InvalidApprover",
					"type": "error"
				},
				{
					"inputs": [
						{
							"internalType": "address",
							"name": "receiver",
							"type": "address"
						}
					],
					"name": "ERC20InvalidReceiver",
					"type": "error"
				},
				{
					"inputs": [
						{
							"internalType": "address",
							"name": "sender",
							"type": "address"
						}
					],
					"name": "ERC20InvalidSender",
					"type": "error"
				},
				{
					"inputs": [
						{
							"internalType": "address",
							"name": "spender",
							"type": "address"
						}
					],
					"name": "ERC20InvalidSpender",
					"type": "error"
				},
				{
					"anonymous": false,
					"inputs": [
						{
							"indexed": true,
							"internalType": "address",
							"name": "owner",
							"type": "address"
						},
						{
							"indexed": true,
							"internalType": "address",
							"name": "spender",
							"type": "address"
						},
						{
							"indexed": false,
							"internalType": "uint256",
							"name": "value",
							"type": "uint256"
						}
					],
					"name": "Approval",
					"type": "event"
				},
				{
					"anonymous": false,
					"inputs": [
						{
							"indexed": true,
							"internalType": "address",
							"name": "from",
							"type": "address"
						},
						{
							"indexed": true,
							"internalType": "address",
							"name": "to",
							"type": "address"
						},
						{
							"indexed": false,
							"internalType": "uint256",
							"name": "value",
							"type": "uint256"
						}
					],
					"name": "Transfer",
					"type": "event"
				},
				{
					"inputs": [],
					"name": "USD_BaseCoinContract",
					"outputs": [
						{
							"internalType": "contract ERC20",
							"name": "",
							"type": "address"
						}
					],
					"stateMutability": "view",
					"type": "function"
				},
				{
					"inputs": [
						{
							"internalType": "address",
							"name": "owner",
							"type": "address"
						},
						{
							"internalType": "address",
							"name": "spender",
							"type": "address"
						}
					],
					"name": "allowance",
					"outputs": [
						{
							"internalType": "uint256",
							"name": "",
							"type": "uint256"
						}
					],
					"stateMutability": "view",
					"type": "function"
				},
				{
					"inputs": [
						{
							"internalType": "address",
							"name": "spender",
							"type": "address"
						},
						{
							"internalType": "uint256",
							"name": "value",
							"type": "uint256"
						}
					],
					"name": "approve",
					"outputs": [
						{
							"internalType": "bool",
							"name": "",
							"type": "bool"
						}
					],
					"stateMutability": "nonpayable",
					"type": "function"
				},
				{
					"inputs": [
						{
							"internalType": "address",
							"name": "account",
							"type": "address"
						}
					],
					"name": "balanceOf",
					"outputs": [
						{
							"internalType": "uint256",
							"name": "",
							"type": "uint256"
						}
					],
					"stateMutability": "view",
					"type": "function"
				},
				{
					"inputs": [],
					"name": "decimals",
					"outputs": [
						{
							"internalType": "uint8",
							"name": "",
							"type": "uint8"
						}
					],
					"stateMutability": "view",
					"type": "function"
				},
				{
					"inputs": [
						{
							"internalType": "uint256",
							"name": "amount",
							"type": "uint256"
						}
					],
					"name": "donateMyGovToken",
					"outputs": [],
					"stateMutability": "nonpayable",
					"type": "function"
				},
				{
					"inputs": [
						{
							"internalType": "uint256",
							"name": "amount",
							"type": "uint256"
						}
					],
					"name": "donateUSD",
					"outputs": [],
					"stateMutability": "nonpayable",
					"type": "function"
				},
				{
					"inputs": [],
					"name": "emptyTokenSupply",
					"outputs": [],
					"stateMutability": "nonpayable",
					"type": "function"
				},
				{
					"inputs": [],
					"name": "faucet",
					"outputs": [],
					"stateMutability": "nonpayable",
					"type": "function"
				},
				{
					"inputs": [
						{
							"internalType": "address",
							"name": "_account",
							"type": "address"
						}
					],
					"name": "getUSDBalanceOfAccount",
					"outputs": [
						{
							"internalType": "uint256",
							"name": "",
							"type": "uint256"
						}
					],
					"stateMutability": "view",
					"type": "function"
				},
				{
					"inputs": [
						{
							"internalType": "address",
							"name": "_address",
							"type": "address"
						}
					],
					"name": "isMyGovMember",
					"outputs": [
						{
							"internalType": "bool",
							"name": "",
							"type": "bool"
						}
					],
					"stateMutability": "view",
					"type": "function"
				},
				{
					"inputs": [],
					"name": "name",
					"outputs": [
						{
							"internalType": "string",
							"name": "",
							"type": "string"
						}
					],
					"stateMutability": "view",
					"type": "function"
				},
				{
					"inputs": [],
					"name": "symbol",
					"outputs": [
						{
							"internalType": "string",
							"name": "",
							"type": "string"
						}
					],
					"stateMutability": "view",
					"type": "function"
				},
				{
					"inputs": [],
					"name": "totalSupply",
					"outputs": [
						{
							"internalType": "uint256",
							"name": "",
							"type": "uint256"
						}
					],
					"stateMutability": "view",
					"type": "function"
				},
				{
					"inputs": [
						{
							"internalType": "address",
							"name": "to",
							"type": "address"
						},
						{
							"internalType": "uint256",
							"name": "value",
							"type": "uint256"
						}
					],
					"name": "transfer",
					"outputs": [
						{
							"internalType": "bool",
							"name": "",
							"type": "bool"
						}
					],
					"stateMutability": "nonpayable",
					"type": "function"
				},
				{
					"inputs": [
						{
							"internalType": "address",
							"name": "from",
							"type": "address"
						},
						{
							"internalType": "address",
							"name": "to",
							"type": "address"
						},
						{
							"internalType": "uint256",
							"name": "value",
							"type": "uint256"
						}
					],
					"name": "transferFrom",
					"outputs": [
						{
							"internalType": "bool",
							"name": "",
							"type": "bool"
						}
					],
					"stateMutability": "nonpayable",
					"type": "function"
				}
			],
			"devdoc": {
				"errors": {
					"ERC20InsufficientAllowance(address,uint256,uint256)": [
						{
							"details": "Indicates a failure with the `spender`’s `allowance`. Used in transfers.",
							"params": {
								"allowance": "Amount of tokens a `spender` is allowed to operate with.",
								"needed": "Minimum amount required to perform a transfer.",
								"spender": "Address that may be allowed to operate on tokens without being their owner."
							}
						}
					],
					"ERC20InsufficientBalance(address,uint256,uint256)": [
						{
							"details": "Indicates an error related to the current `balance` of a `sender`. Used in transfers.",
							"params": {
								"balance": "Current balance for the interacting account.",
								"needed": "Minimum amount required to perform a transfer.",
								"sender": "Address whose tokens are being transferred."
							}
						}
					],
					"ERC20InvalidApprover(address)": [
						{
							"details": "Indicates a failure with the `approver` of a token to be approved. Used in approvals.",
							"params": {
								"approver": "Address initiating an approval operation."
							}
						}
					],
					"ERC20InvalidReceiver(address)": [
						{
							"details": "Indicates a failure with the token `receiver`. Used in transfers.",
							"params": {
								"receiver": "Address to which tokens are being transferred."
							}
						}
					],
					"ERC20InvalidSender(address)": [
						{
							"details": "Indicates a failure with the token `sender`. Used in transfers.",
							"params": {
								"sender": "Address whose tokens are being transferred."
							}
						}
					],
					"ERC20InvalidSpender(address)": [
						{
							"details": "Indicates a failure with the `spender` to be approved. Used in approvals.",
							"params": {
								"spender": "Address that may be allowed to operate on tokens without being their owner."
							}
						}
					]
				},
				"events": {
					"Approval(address,address,uint256)": {
						"details": "Emitted when the allowance of a `spender` for an `owner` is set by a call to {approve}. `value` is the new allowance."
					},
					"Transfer(address,address,uint256)": {
						"details": "Emitted when `value` tokens are moved from one account (`from`) to another (`to`). Note that `value` may be zero."
					}
				},
				"kind": "dev",
				"methods": {
					"allowance(address,address)": {
						"details": "See {IERC20-allowance}."
					},
					"approve(address,uint256)": {
						"details": "See {IERC20-approve}. NOTE: If `value` is the maximum `uint256`, the allowance is not updated on `transferFrom`. This is semantically equivalent to an infinite approval. Requirements: - `spender` cannot be the zero address."
					},
					"balanceOf(address)": {
						"details": "See {IERC20-balanceOf}."
					},
					"decimals()": {
						"details": "Returns the number of decimals used to get its user representation. For example, if `decimals` equals `2`, a balance of `505` tokens should be displayed to a user as `5.05` (`505 / 10 ** 2`). Tokens usually opt for a value of 18, imitating the relationship between Ether and Wei. This is the default value returned by this function, unless it's overridden. NOTE: This information is only used for _display_ purposes: it in no way affects any of the arithmetic of the contract, including {IERC20-balanceOf} and {IERC20-transfer}."
					},
					"name()": {
						"details": "Returns the name of the token."
					},
					"symbol()": {
						"details": "Returns the symbol of the token, usually a shorter version of the name."
					},
					"totalSupply()": {
						"details": "See {IERC20-totalSupply}."
					},
					"transfer(address,uint256)": {
						"details": "See {IERC20-transfer}. Requirements: - `to` cannot be the zero address. - the caller must have a balance of at least `value`."
					},
					"transferFrom(address,address,uint256)": {
						"details": "See {IERC20-transferFrom}. Emits an {Approval} event indicating the updated allowance. This is not required by the EIP. See the note at the beginning of {ERC20}. NOTE: Does not update the allowance if the current allowance is the maximum `uint256`. Requirements: - `from` and `to` cannot be the zero address. - `from` must have a balance of at least `value`. - the caller must have allowance for ``from``'s tokens of at least `value`."
					}
				},
				"version": 1
			},
			"evm": {
				"assembly": "    /* \"Users/lynn/Documents/Uni/Bogazici/Blockchain/Cmpe483/contracts/MyGov.sol\":115:1566  contract MyGov is ERC20 {... */\n  mstore(0x40, 0x80)\n    /* \"Users/lynn/Documents/Uni/Bogazici/Blockchain/Cmpe483/contracts/MyGov.sol\":274:624  constructor(uint tokensupply, address usdStableCoinAddress, bool test) ERC20(\"MyGov\", \"MG\") {... */\n  callvalue\n  dup1\n  iszero\n  tag_1\n  jumpi\n  0x00\n  dup1\n  revert\ntag_1:\n  pop\n  mload(0x40)\n  sub(codesize, bytecodeSize)\n  dup1\n  bytecodeSize\n  dup4\n  codecopy\n  dup2\n  dup2\n  add\n  0x40\n  mstore\n  dup2\n  add\n  swap1\n  tag_2\n  swap2\n  swap1\n  tag_3\n  jump\t// in\ntag_2:\n    /* \"@openzeppelin/contracts/token/ERC20/ERC20.sol\":1896:2009  constructor(string memory name_, string memory symbol_) {... */\n  mload(0x40)\n  dup1\n  0x40\n  add\n  0x40\n  mstore\n  dup1\n  0x05\n  dup2\n  mstore\n  0x20\n  add\n  0x4d79476f76000000000000000000000000000000000000000000000000000000\n  dup2\n  mstore\n  pop\n  mload(0x40)\n  dup1\n  0x40\n  add\n  0x40\n  mstore\n  dup1\n  0x02\n  dup2\n  mstore\n  0x20\n  add\n  0x4d47000000000000000000000000000000000000000000000000000000000000\n  dup2\n  mstore\n  pop\n    /* \"@openzeppelin/contracts/token/ERC20/ERC20.sol\":1970:1975  name_ */\n  dup2\n    /* \"@openzeppelin/contracts/token/ERC20/ERC20.sol\":1962:1967  _name */\n  0x03\n    /* \"@openzeppelin/contracts/token/ERC20/ERC20.sol\":1962:1975  _name = name_ */\n  swap1\n  dup2\n  tag_7\n  swap2\n  swap1\n  tag_8\n  jump\t// in\ntag_7:\n  pop\n    /* \"@openzeppelin/contracts/token/ERC20/ERC20.sol\":1995:2002  symbol_ */\n  dup1\n    /* \"@openzeppelin/contracts/token/ERC20/ERC20.sol\":1985:1992  _symbol */\n  0x04\n    /* \"@openzeppelin/contracts/token/ERC20/ERC20.sol\":1985:2002  _symbol = symbol_ */\n  swap1\n  dup2\n  tag_9\n  swap2\n  swap1\n  tag_8\n  jump\t// in\ntag_9:\n  pop\n    /* \"@openzeppelin/contracts/token/ERC20/ERC20.sol\":1896:2009  constructor(string memory name_, string memory symbol_) {... */\n  pop\n  pop\n    /* \"Users/lynn/Documents/Uni/Bogazici/Blockchain/Cmpe483/contracts/MyGov.sol\":393:401  20000000 */\n  0x01312d00\n    /* \"Users/lynn/Documents/Uni/Bogazici/Blockchain/Cmpe483/contracts/MyGov.sol\":378:389  tokensupply */\n  dup4\n    /* \"Users/lynn/Documents/Uni/Bogazici/Blockchain/Cmpe483/contracts/MyGov.sol\":378:401  tokensupply == 20000000 */\n  eq\n    /* \"Users/lynn/Documents/Uni/Bogazici/Blockchain/Cmpe483/contracts/MyGov.sol\":370:452  require(tokensupply == 20000000, \"MyGov token supply must be equal to 20 million\") */\n  tag_11\n  jumpi\n  mload(0x40)\n  0x08c379a000000000000000000000000000000000000000000000000000000000\n  dup2\n  mstore\n  0x04\n  add\n  tag_12\n  swap1\n  tag_13\n  jump\t// in\ntag_12:\n  mload(0x40)\n  dup1\n  swap2\n  sub\n  swap1\n  revert\ntag_11:\n    /* \"Users/lynn/Documents/Uni/Bogazici/Blockchain/Cmpe483/contracts/MyGov.sol\":477:488  tokensupply */\n  dup3\n    /* \"Users/lynn/Documents/Uni/Bogazici/Blockchain/Cmpe483/contracts/MyGov.sol\":462:474  token_supply */\n  0x05\n    /* \"Users/lynn/Documents/Uni/Bogazici/Blockchain/Cmpe483/contracts/MyGov.sol\":462:488  token_supply = tokensupply */\n  dup2\n  swap1\n  sstore\n  pop\n    /* \"Users/lynn/Documents/Uni/Bogazici/Blockchain/Cmpe483/contracts/MyGov.sol\":510:514  test */\n  dup1\n    /* \"Users/lynn/Documents/Uni/Bogazici/Blockchain/Cmpe483/contracts/MyGov.sol\":498:507  isTesting */\n  0x08\n  0x00\n    /* \"Users/lynn/Documents/Uni/Bogazici/Blockchain/Cmpe483/contracts/MyGov.sol\":498:514  isTesting = test */\n  0x0100\n  exp\n  dup2\n  sload\n  dup2\n  0xff\n  mul\n  not\n  and\n  swap1\n  dup4\n  iszero\n  iszero\n  mul\n  or\n  swap1\n  sstore\n  pop\n    /* \"Users/lynn/Documents/Uni/Bogazici/Blockchain/Cmpe483/contracts/MyGov.sol\":524:557  _mint(address(this), tokensupply) */\n  tag_14\n    /* \"Users/lynn/Documents/Uni/Bogazici/Blockchain/Cmpe483/contracts/MyGov.sol\":538:542  this */\n  address\n    /* \"Users/lynn/Documents/Uni/Bogazici/Blockchain/Cmpe483/contracts/MyGov.sol\":545:556  tokensupply */\n  dup5\n    /* \"Users/lynn/Documents/Uni/Bogazici/Blockchain/Cmpe483/contracts/MyGov.sol\":524:529  _mint */\n  shl(0x20, tag_15)\n    /* \"Users/lynn/Documents/Uni/Bogazici/Blockchain/Cmpe483/contracts/MyGov.sol\":524:557  _mint(address(this), tokensupply) */\n  0x20\n  shr\n  jump\t// in\ntag_14:\n    /* \"Users/lynn/Documents/Uni/Bogazici/Blockchain/Cmpe483/contracts/MyGov.sol\":596:616  usdStableCoinAddress */\n  dup2\n    /* \"Users/lynn/Documents/Uni/Bogazici/Blockchain/Cmpe483/contracts/MyGov.sol\":567:587  USD_BaseCoinContract */\n  0x06\n  0x00\n    /* \"Users/lynn/Documents/Uni/Bogazici/Blockchain/Cmpe483/contracts/MyGov.sol\":567:617  USD_BaseCoinContract = ERC20(usdStableCoinAddress) */\n  0x0100\n  exp\n  dup2\n  sload\n  dup2\n  0xffffffffffffffffffffffffffffffffffffffff\n  mul\n  not\n  and\n  swap1\n  dup4\n  0xffffffffffffffffffffffffffffffffffffffff\n  and\n  mul\n  or\n  swap1\n  sstore\n  pop\n    /* \"Users/lynn/Documents/Uni/Bogazici/Blockchain/Cmpe483/contracts/MyGov.sol\":274:624  constructor(uint tokensupply, address usdStableCoinAddress, bool test) ERC20(\"MyGov\", \"MG\") {... */\n  pop\n  pop\n  pop\n    /* \"Users/lynn/Documents/Uni/Bogazici/Blockchain/Cmpe483/contracts/MyGov.sol\":115:1566  contract MyGov is ERC20 {... */\n  jump(tag_16)\n    /* \"@openzeppelin/contracts/token/ERC20/ERC20.sol\":7721:7929  function _mint(address account, uint256 value) internal {... */\ntag_15:\n    /* \"@openzeppelin/contracts/token/ERC20/ERC20.sol\":7810:7811  0 */\n  0x00\n    /* \"@openzeppelin/contracts/token/ERC20/ERC20.sol\":7791:7812  account == address(0) */\n  0xffffffffffffffffffffffffffffffffffffffff\n  and\n    /* \"@openzeppelin/contracts/token/ERC20/ERC20.sol\":7791:7798  account */\n  dup3\n    /* \"@openzeppelin/contracts/token/ERC20/ERC20.sol\":7791:7812  account == address(0) */\n  0xffffffffffffffffffffffffffffffffffffffff\n  and\n  sub\n    /* \"@openzeppelin/contracts/token/ERC20/ERC20.sol\":7787:7878  if (account == address(0)) {... */\n  tag_18\n  jumpi\n    /* \"@openzeppelin/contracts/token/ERC20/ERC20.sol\":7864:7865  0 */\n  0x00\n    /* \"@openzeppelin/contracts/token/ERC20/ERC20.sol\":7835:7867  ERC20InvalidReceiver(address(0)) */\n  mload(0x40)\n  0xec442f0500000000000000000000000000000000000000000000000000000000\n  dup2\n  mstore\n  0x04\n  add\n  tag_19\n  swap2\n  swap1\n  tag_20\n  jump\t// in\ntag_19:\n  mload(0x40)\n  dup1\n  swap2\n  sub\n  swap1\n  revert\n    /* \"@openzeppelin/contracts/token/ERC20/ERC20.sol\":7787:7878  if (account == address(0)) {... */\ntag_18:\n    /* \"@openzeppelin/contracts/token/ERC20/ERC20.sol\":7887:7922  _update(address(0), account, value) */\n  tag_21\n    /* \"@openzeppelin/contracts/token/ERC20/ERC20.sol\":7903:7904  0 */\n  0x00\n    /* \"@openzeppelin/contracts/token/ERC20/ERC20.sol\":7907:7914  account */\n  dup4\n    /* \"@openzeppelin/contracts/token/ERC20/ERC20.sol\":7916:7921  value */\n  dup4\n    /* \"@openzeppelin/contracts/token/ERC20/ERC20.sol\":7887:7894  _update */\n  shl(0x20, tag_22)\n    /* \"@openzeppelin/contracts/token/ERC20/ERC20.sol\":7887:7922  _update(address(0), account, value) */\n  0x20\n  shr\n  jump\t// in\ntag_21:\n    /* \"@openzeppelin/contracts/token/ERC20/ERC20.sol\":7721:7929  function _mint(address account, uint256 value) internal {... */\n  pop\n  pop\n  jump\t// out\n    /* \"@openzeppelin/contracts/token/ERC20/ERC20.sol\":6271:7378  function _update(address from, address to, uint256 value) internal virtual {... */\ntag_22:\n    /* \"@openzeppelin/contracts/token/ERC20/ERC20.sol\":6376:6377  0 */\n  0x00\n    /* \"@openzeppelin/contracts/token/ERC20/ERC20.sol\":6360:6378  from == address(0) */\n  0xffffffffffffffffffffffffffffffffffffffff\n  and\n    /* \"@openzeppelin/contracts/token/ERC20/ERC20.sol\":6360:6364  from */\n  dup4\n    /* \"@openzeppelin/contracts/token/ERC20/ERC20.sol\":6360:6378  from == address(0) */\n  0xffffffffffffffffffffffffffffffffffffffff\n  and\n  sub\n    /* \"@openzeppelin/contracts/token/ERC20/ERC20.sol\":6356:6896  if (from == address(0)) {... */\n  tag_24\n  jumpi\n    /* \"@openzeppelin/contracts/token/ERC20/ERC20.sol\":6512:6517  value */\n  dup1\n    /* \"@openzeppelin/contracts/token/ERC20/ERC20.sol\":6496:6508  _totalSupply */\n  0x02\n  0x00\n    /* \"@openzeppelin/contracts/token/ERC20/ERC20.sol\":6496:6517  _totalSupply += value */\n  dup3\n  dup3\n  sload\n  tag_25\n  swap2\n  swap1\n  tag_26\n  jump\t// in\ntag_25:\n  swap3\n  pop\n  pop\n  dup2\n  swap1\n  sstore\n  pop\n    /* \"@openzeppelin/contracts/token/ERC20/ERC20.sol\":6356:6896  if (from == address(0)) {... */\n  jump(tag_27)\ntag_24:\n    /* \"@openzeppelin/contracts/token/ERC20/ERC20.sol\":6548:6567  uint256 fromBalance */\n  0x00\n    /* \"@openzeppelin/contracts/token/ERC20/ERC20.sol\":6570:6579  _balances */\n  dup1\n    /* \"@openzeppelin/contracts/token/ERC20/ERC20.sol\":6570:6585  _balances[from] */\n  0x00\n    /* \"@openzeppelin/contracts/token/ERC20/ERC20.sol\":6580:6584  from */\n  dup6\n    /* \"@openzeppelin/contracts/token/ERC20/ERC20.sol\":6570:6585  _balances[from] */\n  0xffffffffffffffffffffffffffffffffffffffff\n  and\n  0xffffffffffffffffffffffffffffffffffffffff\n  and\n  dup2\n  mstore\n  0x20\n  add\n  swap1\n  dup2\n  mstore\n  0x20\n  add\n  0x00\n  keccak256\n  sload\n    /* \"@openzeppelin/contracts/token/ERC20/ERC20.sol\":6548:6585  uint256 fromBalance = _balances[from] */\n  swap1\n  pop\n    /* \"@openzeppelin/contracts/token/ERC20/ERC20.sol\":6617:6622  value */\n  dup2\n    /* \"@openzeppelin/contracts/token/ERC20/ERC20.sol\":6603:6614  fromBalance */\n  dup2\n    /* \"@openzeppelin/contracts/token/ERC20/ERC20.sol\":6603:6622  fromBalance < value */\n  lt\n    /* \"@openzeppelin/contracts/token/ERC20/ERC20.sol\":6599:6714  if (fromBalance < value) {... */\n  iszero\n  tag_28\n  jumpi\n    /* \"@openzeppelin/contracts/token/ERC20/ERC20.sol\":6674:6678  from */\n  dup4\n    /* \"@openzeppelin/contracts/token/ERC20/ERC20.sol\":6680:6691  fromBalance */\n  dup2\n    /* \"@openzeppelin/contracts/token/ERC20/ERC20.sol\":6693:6698  value */\n  dup4\n    /* \"@openzeppelin/contracts/token/ERC20/ERC20.sol\":6649:6699  ERC20InsufficientBalance(from, fromBalance, value) */\n  mload(0x40)\n  0xe450d38c00000000000000000000000000000000000000000000000000000000\n  dup2\n  mstore\n  0x04\n  add\n  tag_29\n  swap4\n  swap3\n  swap2\n  swap1\n  tag_30\n  jump\t// in\ntag_29:\n  mload(0x40)\n  dup1\n  swap2\n  sub\n  swap1\n  revert\n    /* \"@openzeppelin/contracts/token/ERC20/ERC20.sol\":6599:6714  if (fromBalance < value) {... */\ntag_28:\n    /* \"@openzeppelin/contracts/token/ERC20/ERC20.sol\":6866:6871  value */\n  dup2\n    /* \"@openzeppelin/contracts/token/ERC20/ERC20.sol\":6852:6863  fromBalance */\n  dup2\n    /* \"@openzeppelin/contracts/token/ERC20/ERC20.sol\":6852:6871  fromBalance - value */\n  sub\n    /* \"@openzeppelin/contracts/token/ERC20/ERC20.sol\":6834:6843  _balances */\n  0x00\n    /* \"@openzeppelin/contracts/token/ERC20/ERC20.sol\":6834:6849  _balances[from] */\n  dup1\n    /* \"@openzeppelin/contracts/token/ERC20/ERC20.sol\":6844:6848  from */\n  dup7\n    /* \"@openzeppelin/contracts/token/ERC20/ERC20.sol\":6834:6849  _balances[from] */\n  0xffffffffffffffffffffffffffffffffffffffff\n  and\n  0xffffffffffffffffffffffffffffffffffffffff\n  and\n  dup2\n  mstore\n  0x20\n  add\n  swap1\n  dup2\n  mstore\n  0x20\n  add\n  0x00\n  keccak256\n    /* \"@openzeppelin/contracts/token/ERC20/ERC20.sol\":6834:6871  _balances[from] = fromBalance - value */\n  dup2\n  swap1\n  sstore\n  pop\n    /* \"@openzeppelin/contracts/token/ERC20/ERC20.sol\":6534:6896  {... */\n  pop\n    /* \"@openzeppelin/contracts/token/ERC20/ERC20.sol\":6356:6896  if (from == address(0)) {... */\ntag_27:\n    /* \"@openzeppelin/contracts/token/ERC20/ERC20.sol\":6924:6925  0 */\n  0x00\n    /* \"@openzeppelin/contracts/token/ERC20/ERC20.sol\":6910:6926  to == address(0) */\n  0xffffffffffffffffffffffffffffffffffffffff\n  and\n    /* \"@openzeppelin/contracts/token/ERC20/ERC20.sol\":6910:6912  to */\n  dup3\n    /* \"@openzeppelin/contracts/token/ERC20/ERC20.sol\":6910:6926  to == address(0) */\n  0xffffffffffffffffffffffffffffffffffffffff\n  and\n  sub\n    /* \"@openzeppelin/contracts/token/ERC20/ERC20.sol\":6906:7331  if (to == address(0)) {... */\n  tag_31\n  jumpi\n    /* \"@openzeppelin/contracts/token/ERC20/ERC20.sol\":7089:7094  value */\n  dup1\n    /* \"@openzeppelin/contracts/token/ERC20/ERC20.sol\":7073:7085  _totalSupply */\n  0x02\n  0x00\n    /* \"@openzeppelin/contracts/token/ERC20/ERC20.sol\":7073:7094  _totalSupply -= value */\n  dup3\n  dup3\n  sload\n  sub\n  swap3\n  pop\n  pop\n  dup2\n  swap1\n  sstore\n  pop\n    /* \"@openzeppelin/contracts/token/ERC20/ERC20.sol\":6906:7331  if (to == address(0)) {... */\n  jump(tag_32)\ntag_31:\n    /* \"@openzeppelin/contracts/token/ERC20/ERC20.sol\":7301:7306  value */\n  dup1\n    /* \"@openzeppelin/contracts/token/ERC20/ERC20.sol\":7284:7293  _balances */\n  0x00\n    /* \"@openzeppelin/contracts/token/ERC20/ERC20.sol\":7284:7297  _balances[to] */\n  dup1\n    /* \"@openzeppelin/contracts/token/ERC20/ERC20.sol\":7294:7296  to */\n  dup5\n    /* \"@openzeppelin/contracts/token/ERC20/ERC20.sol\":7284:7297  _balances[to] */\n  0xffffffffffffffffffffffffffffffffffffffff\n  and\n  0xffffffffffffffffffffffffffffffffffffffff\n  and\n  dup2\n  mstore\n  0x20\n  add\n  swap1\n  dup2\n  mstore\n  0x20\n  add\n  0x00\n  keccak256\n  0x00\n    /* \"@openzeppelin/contracts/token/ERC20/ERC20.sol\":7284:7306  _balances[to] += value */\n  dup3\n  dup3\n  sload\n  add\n  swap3\n  pop\n  pop\n  dup2\n  swap1\n  sstore\n  pop\n    /* \"@openzeppelin/contracts/token/ERC20/ERC20.sol\":6906:7331  if (to == address(0)) {... */\ntag_32:\n    /* \"@openzeppelin/contracts/token/ERC20/ERC20.sol\":7361:7363  to */\n  dup2\n    /* \"@openzeppelin/contracts/token/ERC20/ERC20.sol\":7346:7371  Transfer(from, to, value) */\n  0xffffffffffffffffffffffffffffffffffffffff\n  and\n    /* \"@openzeppelin/contracts/token/ERC20/ERC20.sol\":7355:7359  from */\n  dup4\n    /* \"@openzeppelin/contracts/token/ERC20/ERC20.sol\":7346:7371  Transfer(from, to, value) */\n  0xffffffffffffffffffffffffffffffffffffffff\n  and\n  0xddf252ad1be2c89b69c2b068fc378daa952ba7f163c4a11628f55a4df523b3ef\n    /* \"@openzeppelin/contracts/token/ERC20/ERC20.sol\":7365:7370  value */\n  dup4\n    /* \"@openzeppelin/contracts/token/ERC20/ERC20.sol\":7346:7371  Transfer(from, to, value) */\n  mload(0x40)\n  tag_33\n  swap2\n  swap1\n  tag_34\n  jump\t// in\ntag_33:\n  mload(0x40)\n  dup1\n  swap2\n  sub\n  swap1\n  log3\n    /* \"@openzeppelin/contracts/token/ERC20/ERC20.sol\":6271:7378  function _update(address from, address to, uint256 value) internal virtual {... */\n  pop\n  pop\n  pop\n  jump\t// out\n    /* \"#utility.yul\":88:205   */\ntag_36:\n    /* \"#utility.yul\":197:198   */\n  0x00\n    /* \"#utility.yul\":194:195   */\n  dup1\n    /* \"#utility.yul\":187:199   */\n  revert\n    /* \"#utility.yul\":334:411   */\ntag_38:\n    /* \"#utility.yul\":371:378   */\n  0x00\n    /* \"#utility.yul\":400:405   */\n  dup2\n    /* \"#utility.yul\":389:405   */\n  swap1\n  pop\n    /* \"#utility.yul\":334:411   */\n  swap2\n  swap1\n  pop\n  jump\t// out\n    /* \"#utility.yul\":417:539   */\ntag_39:\n    /* \"#utility.yul\":490:514   */\n  tag_79\n    /* \"#utility.yul\":508:513   */\n  dup2\n    /* \"#utility.yul\":490:514   */\n  tag_38\n  jump\t// in\ntag_79:\n    /* \"#utility.yul\":483:488   */\n  dup2\n    /* \"#utility.yul\":480:515   */\n  eq\n    /* \"#utility.yul\":470:533   */\n  tag_80\n  jumpi\n    /* \"#utility.yul\":529:530   */\n  0x00\n    /* \"#utility.yul\":526:527   */\n  dup1\n    /* \"#utility.yul\":519:531   */\n  revert\n    /* \"#utility.yul\":470:533   */\ntag_80:\n    /* \"#utility.yul\":417:539   */\n  pop\n  jump\t// out\n    /* \"#utility.yul\":545:688   */\ntag_40:\n    /* \"#utility.yul\":602:607   */\n  0x00\n    /* \"#utility.yul\":633:639   */\n  dup2\n    /* \"#utility.yul\":627:640   */\n  mload\n    /* \"#utility.yul\":618:640   */\n  swap1\n  pop\n    /* \"#utility.yul\":649:682   */\n  tag_82\n    /* \"#utility.yul\":676:681   */\n  dup2\n    /* \"#utility.yul\":649:682   */\n  tag_39\n  jump\t// in\ntag_82:\n    /* \"#utility.yul\":545:688   */\n  swap3\n  swap2\n  pop\n  pop\n  jump\t// out\n    /* \"#utility.yul\":694:820   */\ntag_41:\n    /* \"#utility.yul\":731:738   */\n  0x00\n    /* \"#utility.yul\":771:813   */\n  0xffffffffffffffffffffffffffffffffffffffff\n    /* \"#utility.yul\":764:769   */\n  dup3\n    /* \"#utility.yul\":760:814   */\n  and\n    /* \"#utility.yul\":749:814   */\n  swap1\n  pop\n    /* \"#utility.yul\":694:820   */\n  swap2\n  swap1\n  pop\n  jump\t// out\n    /* \"#utility.yul\":826:922   */\ntag_42:\n    /* \"#utility.yul\":863:870   */\n  0x00\n    /* \"#utility.yul\":892:916   */\n  tag_85\n    /* \"#utility.yul\":910:915   */\n  dup3\n    /* \"#utility.yul\":892:916   */\n  tag_41\n  jump\t// in\ntag_85:\n    /* \"#utility.yul\":881:916   */\n  swap1\n  pop\n    /* \"#utility.yul\":826:922   */\n  swap2\n  swap1\n  pop\n  jump\t// out\n    /* \"#utility.yul\":928:1050   */\ntag_43:\n    /* \"#utility.yul\":1001:1025   */\n  tag_87\n    /* \"#utility.yul\":1019:1024   */\n  dup2\n    /* \"#utility.yul\":1001:1025   */\n  tag_42\n  jump\t// in\ntag_87:\n    /* \"#utility.yul\":994:999   */\n  dup2\n    /* \"#utility.yul\":991:1026   */\n  eq\n    /* \"#utility.yul\":981:1044   */\n  tag_88\n  jumpi\n    /* \"#utility.yul\":1040:1041   */\n  0x00\n    /* \"#utility.yul\":1037:1038   */\n  dup1\n    /* \"#utility.yul\":1030:1042   */\n  revert\n    /* \"#utility.yul\":981:1044   */\ntag_88:\n    /* \"#utility.yul\":928:1050   */\n  pop\n  jump\t// out\n    /* \"#utility.yul\":1056:1199   */\ntag_44:\n    /* \"#utility.yul\":1113:1118   */\n  0x00\n    /* \"#utility.yul\":1144:1150   */\n  dup2\n    /* \"#utility.yul\":1138:1151   */\n  mload\n    /* \"#utility.yul\":1129:1151   */\n  swap1\n  pop\n    /* \"#utility.yul\":1160:1193   */\n  tag_90\n    /* \"#utility.yul\":1187:1192   */\n  dup2\n    /* \"#utility.yul\":1160:1193   */\n  tag_43\n  jump\t// in\ntag_90:\n    /* \"#utility.yul\":1056:1199   */\n  swap3\n  swap2\n  pop\n  pop\n  jump\t// out\n    /* \"#utility.yul\":1205:1295   */\ntag_45:\n    /* \"#utility.yul\":1239:1246   */\n  0x00\n    /* \"#utility.yul\":1282:1287   */\n  dup2\n    /* \"#utility.yul\":1275:1288   */\n  iszero\n    /* \"#utility.yul\":1268:1289   */\n  iszero\n    /* \"#utility.yul\":1257:1289   */\n  swap1\n  pop\n    /* \"#utility.yul\":1205:1295   */\n  swap2\n  swap1\n  pop\n  jump\t// out\n    /* \"#utility.yul\":1301:1417   */\ntag_46:\n    /* \"#utility.yul\":1371:1392   */\n  tag_93\n    /* \"#utility.yul\":1386:1391   */\n  dup2\n    /* \"#utility.yul\":1371:1392   */\n  tag_45\n  jump\t// in\ntag_93:\n    /* \"#utility.yul\":1364:1369   */\n  dup2\n    /* \"#utility.yul\":1361:1393   */\n  eq\n    /* \"#utility.yul\":1351:1411   */\n  tag_94\n  jumpi\n    /* \"#utility.yul\":1407:1408   */\n  0x00\n    /* \"#utility.yul\":1404:1405   */\n  dup1\n    /* \"#utility.yul\":1397:1409   */\n  revert\n    /* \"#utility.yul\":1351:1411   */\ntag_94:\n    /* \"#utility.yul\":1301:1417   */\n  pop\n  jump\t// out\n    /* \"#utility.yul\":1423:1560   */\ntag_47:\n    /* \"#utility.yul\":1477:1482   */\n  0x00\n    /* \"#utility.yul\":1508:1514   */\n  dup2\n    /* \"#utility.yul\":1502:1515   */\n  mload\n    /* \"#utility.yul\":1493:1515   */\n  swap1\n  pop\n    /* \"#utility.yul\":1524:1554   */\n  tag_96\n    /* \"#utility.yul\":1548:1553   */\n  dup2\n    /* \"#utility.yul\":1524:1554   */\n  tag_46\n  jump\t// in\ntag_96:\n    /* \"#utility.yul\":1423:1560   */\n  swap3\n  swap2\n  pop\n  pop\n  jump\t// out\n    /* \"#utility.yul\":1566:2223   */\ntag_3:\n    /* \"#utility.yul\":1651:1657   */\n  0x00\n    /* \"#utility.yul\":1659:1665   */\n  dup1\n    /* \"#utility.yul\":1667:1673   */\n  0x00\n    /* \"#utility.yul\":1716:1718   */\n  0x60\n    /* \"#utility.yul\":1704:1713   */\n  dup5\n    /* \"#utility.yul\":1695:1702   */\n  dup7\n    /* \"#utility.yul\":1691:1714   */\n  sub\n    /* \"#utility.yul\":1687:1719   */\n  slt\n    /* \"#utility.yul\":1684:1803   */\n  iszero\n  tag_98\n  jumpi\n    /* \"#utility.yul\":1722:1801   */\n  tag_99\n  tag_36\n  jump\t// in\ntag_99:\n    /* \"#utility.yul\":1684:1803   */\ntag_98:\n    /* \"#utility.yul\":1842:1843   */\n  0x00\n    /* \"#utility.yul\":1867:1931   */\n  tag_100\n    /* \"#utility.yul\":1923:1930   */\n  dup7\n    /* \"#utility.yul\":1914:1920   */\n  dup3\n    /* \"#utility.yul\":1903:1912   */\n  dup8\n    /* \"#utility.yul\":1899:1921   */\n  add\n    /* \"#utility.yul\":1867:1931   */\n  tag_40\n  jump\t// in\ntag_100:\n    /* \"#utility.yul\":1857:1931   */\n  swap4\n  pop\n    /* \"#utility.yul\":1813:1941   */\n  pop\n    /* \"#utility.yul\":1980:1982   */\n  0x20\n    /* \"#utility.yul\":2006:2070   */\n  tag_101\n    /* \"#utility.yul\":2062:2069   */\n  dup7\n    /* \"#utility.yul\":2053:2059   */\n  dup3\n    /* \"#utility.yul\":2042:2051   */\n  dup8\n    /* \"#utility.yul\":2038:2060   */\n  add\n    /* \"#utility.yul\":2006:2070   */\n  tag_44\n  jump\t// in\ntag_101:\n    /* \"#utility.yul\":1996:2070   */\n  swap3\n  pop\n    /* \"#utility.yul\":1951:2080   */\n  pop\n    /* \"#utility.yul\":2119:2121   */\n  0x40\n    /* \"#utility.yul\":2145:2206   */\n  tag_102\n    /* \"#utility.yul\":2198:2205   */\n  dup7\n    /* \"#utility.yul\":2189:2195   */\n  dup3\n    /* \"#utility.yul\":2178:2187   */\n  dup8\n    /* \"#utility.yul\":2174:2196   */\n  add\n    /* \"#utility.yul\":2145:2206   */\n  tag_47\n  jump\t// in\ntag_102:\n    /* \"#utility.yul\":2135:2206   */\n  swap2\n  pop\n    /* \"#utility.yul\":2090:2216   */\n  pop\n    /* \"#utility.yul\":1566:2223   */\n  swap3\n  pop\n  swap3\n  pop\n  swap3\n  jump\t// out\n    /* \"#utility.yul\":2229:2328   */\ntag_48:\n    /* \"#utility.yul\":2281:2287   */\n  0x00\n    /* \"#utility.yul\":2315:2320   */\n  dup2\n    /* \"#utility.yul\":2309:2321   */\n  mload\n    /* \"#utility.yul\":2299:2321   */\n  swap1\n  pop\n    /* \"#utility.yul\":2229:2328   */\n  swap2\n  swap1\n  pop\n  jump\t// out\n    /* \"#utility.yul\":2334:2514   */\ntag_49:\n    /* \"#utility.yul\":2382:2459   */\n  0x4e487b7100000000000000000000000000000000000000000000000000000000\n    /* \"#utility.yul\":2379:2380   */\n  0x00\n    /* \"#utility.yul\":2372:2460   */\n  mstore\n    /* \"#utility.yul\":2479:2483   */\n  0x41\n    /* \"#utility.yul\":2476:2477   */\n  0x04\n    /* \"#utility.yul\":2469:2484   */\n  mstore\n    /* \"#utility.yul\":2503:2507   */\n  0x24\n    /* \"#utility.yul\":2500:2501   */\n  0x00\n    /* \"#utility.yul\":2493:2508   */\n  revert\n    /* \"#utility.yul\":2520:2700   */\ntag_50:\n    /* \"#utility.yul\":2568:2645   */\n  0x4e487b7100000000000000000000000000000000000000000000000000000000\n    /* \"#utility.yul\":2565:2566   */\n  0x00\n    /* \"#utility.yul\":2558:2646   */\n  mstore\n    /* \"#utility.yul\":2665:2669   */\n  0x22\n    /* \"#utility.yul\":2662:2663   */\n  0x04\n    /* \"#utility.yul\":2655:2670   */\n  mstore\n    /* \"#utility.yul\":2689:2693   */\n  0x24\n    /* \"#utility.yul\":2686:2687   */\n  0x00\n    /* \"#utility.yul\":2679:2694   */\n  revert\n    /* \"#utility.yul\":2706:3026   */\ntag_51:\n    /* \"#utility.yul\":2750:2756   */\n  0x00\n    /* \"#utility.yul\":2787:2788   */\n  0x02\n    /* \"#utility.yul\":2781:2785   */\n  dup3\n    /* \"#utility.yul\":2777:2789   */\n  div\n    /* \"#utility.yul\":2767:2789   */\n  swap1\n  pop\n    /* \"#utility.yul\":2834:2835   */\n  0x01\n    /* \"#utility.yul\":2828:2832   */\n  dup3\n    /* \"#utility.yul\":2824:2836   */\n  and\n    /* \"#utility.yul\":2855:2873   */\n  dup1\n    /* \"#utility.yul\":2845:2926   */\n  tag_107\n  jumpi\n    /* \"#utility.yul\":2911:2915   */\n  0x7f\n    /* \"#utility.yul\":2903:2909   */\n  dup3\n    /* \"#utility.yul\":2899:2916   */\n  and\n    /* \"#utility.yul\":2889:2916   */\n  swap2\n  pop\n    /* \"#utility.yul\":2845:2926   */\ntag_107:\n    /* \"#utility.yul\":2973:2975   */\n  0x20\n    /* \"#utility.yul\":2965:2971   */\n  dup3\n    /* \"#utility.yul\":2962:2976   */\n  lt\n    /* \"#utility.yul\":2942:2960   */\n  dup2\n    /* \"#utility.yul\":2939:2977   */\n  sub\n    /* \"#utility.yul\":2936:3020   */\n  tag_108\n  jumpi\n    /* \"#utility.yul\":2992:3010   */\n  tag_109\n  tag_50\n  jump\t// in\ntag_109:\n    /* \"#utility.yul\":2936:3020   */\ntag_108:\n    /* \"#utility.yul\":2757:3026   */\n  pop\n    /* \"#utility.yul\":2706:3026   */\n  swap2\n  swap1\n  pop\n  jump\t// out\n    /* \"#utility.yul\":3032:3173   */\ntag_52:\n    /* \"#utility.yul\":3081:3085   */\n  0x00\n    /* \"#utility.yul\":3104:3107   */\n  dup2\n    /* \"#utility.yul\":3096:3107   */\n  swap1\n  pop\n    /* \"#utility.yul\":3127:3130   */\n  dup2\n    /* \"#utility.yul\":3124:3125   */\n  0x00\n    /* \"#utility.yul\":3117:3131   */\n  mstore\n    /* \"#utility.yul\":3161:3165   */\n  0x20\n    /* \"#utility.yul\":3158:3159   */\n  0x00\n    /* \"#utility.yul\":3148:3166   */\n  keccak256\n    /* \"#utility.yul\":3140:3166   */\n  swap1\n  pop\n    /* \"#utility.yul\":3032:3173   */\n  swap2\n  swap1\n  pop\n  jump\t// out\n    /* \"#utility.yul\":3179:3272   */\ntag_53:\n    /* \"#utility.yul\":3216:3222   */\n  0x00\n    /* \"#utility.yul\":3263:3265   */\n  0x20\n    /* \"#utility.yul\":3258:3260   */\n  0x1f\n    /* \"#utility.yul\":3251:3256   */\n  dup4\n    /* \"#utility.yul\":3247:3261   */\n  add\n    /* \"#utility.yul\":3243:3266   */\n  div\n    /* \"#utility.yul\":3233:3266   */\n  swap1\n  pop\n    /* \"#utility.yul\":3179:3272   */\n  swap2\n  swap1\n  pop\n  jump\t// out\n    /* \"#utility.yul\":3278:3385   */\ntag_54:\n    /* \"#utility.yul\":3322:3330   */\n  0x00\n    /* \"#utility.yul\":3372:3377   */\n  dup3\n    /* \"#utility.yul\":3366:3370   */\n  dup3\n    /* \"#utility.yul\":3362:3378   */\n  shl\n    /* \"#utility.yul\":3341:3378   */\n  swap1\n  pop\n    /* \"#utility.yul\":3278:3385   */\n  swap3\n  swap2\n  pop\n  pop\n  jump\t// out\n    /* \"#utility.yul\":3391:3784   */\ntag_55:\n    /* \"#utility.yul\":3460:3466   */\n  0x00\n    /* \"#utility.yul\":3510:3511   */\n  0x08\n    /* \"#utility.yul\":3498:3508   */\n  dup4\n    /* \"#utility.yul\":3494:3512   */\n  mul\n    /* \"#utility.yul\":3533:3630   */\n  tag_114\n    /* \"#utility.yul\":3563:3629   */\n  0xffffffffffffffffffffffffffffffffffffffffffffffffffffffffffffffff\n    /* \"#utility.yul\":3552:3561   */\n  dup3\n    /* \"#utility.yul\":3533:3630   */\n  tag_54\n  jump\t// in\ntag_114:\n    /* \"#utility.yul\":3651:3690   */\n  tag_115\n    /* \"#utility.yul\":3681:3689   */\n  dup7\n    /* \"#utility.yul\":3670:3679   */\n  dup4\n    /* \"#utility.yul\":3651:3690   */\n  tag_54\n  jump\t// in\ntag_115:\n    /* \"#utility.yul\":3639:3690   */\n  swap6\n  pop\n    /* \"#utility.yul\":3723:3727   */\n  dup1\n    /* \"#utility.yul\":3719:3728   */\n  not\n    /* \"#utility.yul\":3712:3717   */\n  dup5\n    /* \"#utility.yul\":3708:3729   */\n  and\n    /* \"#utility.yul\":3699:3729   */\n  swap4\n  pop\n    /* \"#utility.yul\":3772:3776   */\n  dup1\n    /* \"#utility.yul\":3762:3770   */\n  dup7\n    /* \"#utility.yul\":3758:3777   */\n  and\n    /* \"#utility.yul\":3751:3756   */\n  dup5\n    /* \"#utility.yul\":3748:3778   */\n  or\n    /* \"#utility.yul\":3738:3778   */\n  swap3\n  pop\n    /* \"#utility.yul\":3467:3784   */\n  pop\n  pop\n    /* \"#utility.yul\":3391:3784   */\n  swap4\n  swap3\n  pop\n  pop\n  pop\n  jump\t// out\n    /* \"#utility.yul\":3790:3850   */\ntag_56:\n    /* \"#utility.yul\":3818:3821   */\n  0x00\n    /* \"#utility.yul\":3839:3844   */\n  dup2\n    /* \"#utility.yul\":3832:3844   */\n  swap1\n  pop\n    /* \"#utility.yul\":3790:3850   */\n  swap2\n  swap1\n  pop\n  jump\t// out\n    /* \"#utility.yul\":3856:3998   */\ntag_57:\n    /* \"#utility.yul\":3906:3915   */\n  0x00\n    /* \"#utility.yul\":3939:3992   */\n  tag_118\n    /* \"#utility.yul\":3957:3991   */\n  tag_119\n    /* \"#utility.yul\":3966:3990   */\n  tag_120\n    /* \"#utility.yul\":3984:3989   */\n  dup5\n    /* \"#utility.yul\":3966:3990   */\n  tag_38\n  jump\t// in\ntag_120:\n    /* \"#utility.yul\":3957:3991   */\n  tag_56\n  jump\t// in\ntag_119:\n    /* \"#utility.yul\":3939:3992   */\n  tag_38\n  jump\t// in\ntag_118:\n    /* \"#utility.yul\":3926:3992   */\n  swap1\n  pop\n    /* \"#utility.yul\":3856:3998   */\n  swap2\n  swap1\n  pop\n  jump\t// out\n    /* \"#utility.yul\":4004:4079   */\ntag_58:\n    /* \"#utility.yul\":4047:4050   */\n  0x00\n    /* \"#utility.yul\":4068:4073   */\n  dup2\n    /* \"#utility.yul\":4061:4073   */\n  swap1\n  pop\n    /* \"#utility.yul\":4004:4079   */\n  swap2\n  swap1\n  pop\n  jump\t// out\n    /* \"#utility.yul\":4085:4354   */\ntag_59:\n    /* \"#utility.yul\":4195:4234   */\n  tag_123\n    /* \"#utility.yul\":4226:4233   */\n  dup4\n    /* \"#utility.yul\":4195:4234   */\n  tag_57\n  jump\t// in\ntag_123:\n    /* \"#utility.yul\":4256:4347   */\n  tag_124\n    /* \"#utility.yul\":4305:4346   */\n  tag_125\n    /* \"#utility.yul\":4329:4345   */\n  dup3\n    /* \"#utility.yul\":4305:4346   */\n  tag_58\n  jump\t// in\ntag_125:\n    /* \"#utility.yul\":4297:4303   */\n  dup5\n    /* \"#utility.yul\":4290:4294   */\n  dup5\n    /* \"#utility.yul\":4284:4295   */\n  sload\n    /* \"#utility.yul\":4256:4347   */\n  tag_55\n  jump\t// in\ntag_124:\n    /* \"#utility.yul\":4250:4254   */\n  dup3\n    /* \"#utility.yul\":4243:4348   */\n  sstore\n    /* \"#utility.yul\":4161:4354   */\n  pop\n    /* \"#utility.yul\":4085:4354   */\n  pop\n  pop\n  pop\n  jump\t// out\n    /* \"#utility.yul\":4360:4433   */\ntag_60:\n    /* \"#utility.yul\":4405:4408   */\n  0x00\n    /* \"#utility.yul\":4360:4433   */\n  swap1\n  jump\t// out\n    /* \"#utility.yul\":4439:4628   */\ntag_61:\n    /* \"#utility.yul\":4516:4548   */\n  tag_128\n  tag_60\n  jump\t// in\ntag_128:\n    /* \"#utility.yul\":4557:4622   */\n  tag_129\n    /* \"#utility.yul\":4615:4621   */\n  dup2\n    /* \"#utility.yul\":4607:4613   */\n  dup5\n    /* \"#utility.yul\":4601:4605   */\n  dup5\n    /* \"#utility.yul\":4557:4622   */\n  tag_59\n  jump\t// in\ntag_129:\n    /* \"#utility.yul\":4492:4628   */\n  pop\n    /* \"#utility.yul\":4439:4628   */\n  pop\n  pop\n  jump\t// out\n    /* \"#utility.yul\":4634:4820   */\ntag_62:\n    /* \"#utility.yul\":4694:4814   */\ntag_131:\n    /* \"#utility.yul\":4711:4714   */\n  dup2\n    /* \"#utility.yul\":4704:4709   */\n  dup2\n    /* \"#utility.yul\":4701:4715   */\n  lt\n    /* \"#utility.yul\":4694:4814   */\n  iszero\n  tag_133\n  jumpi\n    /* \"#utility.yul\":4765:4804   */\n  tag_134\n    /* \"#utility.yul\":4802:4803   */\n  0x00\n    /* \"#utility.yul\":4795:4800   */\n  dup3\n    /* \"#utility.yul\":4765:4804   */\n  tag_61\n  jump\t// in\ntag_134:\n    /* \"#utility.yul\":4738:4739   */\n  0x01\n    /* \"#utility.yul\":4731:4736   */\n  dup2\n    /* \"#utility.yul\":4727:4740   */\n  add\n    /* \"#utility.yul\":4718:4740   */\n  swap1\n  pop\n    /* \"#utility.yul\":4694:4814   */\n  jump(tag_131)\ntag_133:\n    /* \"#utility.yul\":4634:4820   */\n  pop\n  pop\n  jump\t// out\n    /* \"#utility.yul\":4826:5369   */\ntag_63:\n    /* \"#utility.yul\":4927:4929   */\n  0x1f\n    /* \"#utility.yul\":4922:4925   */\n  dup3\n    /* \"#utility.yul\":4919:4930   */\n  gt\n    /* \"#utility.yul\":4916:5362   */\n  iszero\n  tag_136\n  jumpi\n    /* \"#utility.yul\":4961:4999   */\n  tag_137\n    /* \"#utility.yul\":4993:4998   */\n  dup2\n    /* \"#utility.yul\":4961:4999   */\n  tag_52\n  jump\t// in\ntag_137:\n    /* \"#utility.yul\":5045:5074   */\n  tag_138\n    /* \"#utility.yul\":5063:5073   */\n  dup5\n    /* \"#utility.yul\":5045:5074   */\n  tag_53\n  jump\t// in\ntag_138:\n    /* \"#utility.yul\":5035:5043   */\n  dup2\n    /* \"#utility.yul\":5031:5075   */\n  add\n    /* \"#utility.yul\":5228:5230   */\n  0x20\n    /* \"#utility.yul\":5216:5226   */\n  dup6\n    /* \"#utility.yul\":5213:5231   */\n  lt\n    /* \"#utility.yul\":5210:5259   */\n  iszero\n  tag_139\n  jumpi\n    /* \"#utility.yul\":5249:5257   */\n  dup2\n    /* \"#utility.yul\":5234:5257   */\n  swap1\n  pop\n    /* \"#utility.yul\":5210:5259   */\ntag_139:\n    /* \"#utility.yul\":5272:5352   */\n  tag_140\n    /* \"#utility.yul\":5328:5350   */\n  tag_141\n    /* \"#utility.yul\":5346:5349   */\n  dup6\n    /* \"#utility.yul\":5328:5350   */\n  tag_53\n  jump\t// in\ntag_141:\n    /* \"#utility.yul\":5318:5326   */\n  dup4\n    /* \"#utility.yul\":5314:5351   */\n  add\n    /* \"#utility.yul\":5301:5312   */\n  dup3\n    /* \"#utility.yul\":5272:5352   */\n  tag_62\n  jump\t// in\ntag_140:\n    /* \"#utility.yul\":4931:5362   */\n  pop\n  pop\n    /* \"#utility.yul\":4916:5362   */\ntag_136:\n    /* \"#utility.yul\":4826:5369   */\n  pop\n  pop\n  pop\n  jump\t// out\n    /* \"#utility.yul\":5375:5492   */\ntag_64:\n    /* \"#utility.yul\":5429:5437   */\n  0x00\n    /* \"#utility.yul\":5479:5484   */\n  dup3\n    /* \"#utility.yul\":5473:5477   */\n  dup3\n    /* \"#utility.yul\":5469:5485   */\n  shr\n    /* \"#utility.yul\":5448:5485   */\n  swap1\n  pop\n    /* \"#utility.yul\":5375:5492   */\n  swap3\n  swap2\n  pop\n  pop\n  jump\t// out\n    /* \"#utility.yul\":5498:5667   */\ntag_65:\n    /* \"#utility.yul\":5542:5548   */\n  0x00\n    /* \"#utility.yul\":5575:5626   */\n  tag_144\n    /* \"#utility.yul\":5623:5624   */\n  0x00\n    /* \"#utility.yul\":5619:5625   */\n  not\n    /* \"#utility.yul\":5611:5616   */\n  dup5\n    /* \"#utility.yul\":5608:5609   */\n  0x08\n    /* \"#utility.yul\":5604:5617   */\n  mul\n    /* \"#utility.yul\":5575:5626   */\n  tag_64\n  jump\t// in\ntag_144:\n    /* \"#utility.yul\":5571:5627   */\n  not\n    /* \"#utility.yul\":5656:5660   */\n  dup1\n    /* \"#utility.yul\":5650:5654   */\n  dup4\n    /* \"#utility.yul\":5646:5661   */\n  and\n    /* \"#utility.yul\":5636:5661   */\n  swap2\n  pop\n    /* \"#utility.yul\":5549:5667   */\n  pop\n    /* \"#utility.yul\":5498:5667   */\n  swap3\n  swap2\n  pop\n  pop\n  jump\t// out\n    /* \"#utility.yul\":5672:5967   */\ntag_66:\n    /* \"#utility.yul\":5748:5752   */\n  0x00\n    /* \"#utility.yul\":5894:5923   */\n  tag_146\n    /* \"#utility.yul\":5919:5922   */\n  dup4\n    /* \"#utility.yul\":5913:5917   */\n  dup4\n    /* \"#utility.yul\":5894:5923   */\n  tag_65\n  jump\t// in\ntag_146:\n    /* \"#utility.yul\":5886:5923   */\n  swap2\n  pop\n    /* \"#utility.yul\":5956:5959   */\n  dup3\n    /* \"#utility.yul\":5953:5954   */\n  0x02\n    /* \"#utility.yul\":5949:5960   */\n  mul\n    /* \"#utility.yul\":5943:5947   */\n  dup3\n    /* \"#utility.yul\":5940:5961   */\n  or\n    /* \"#utility.yul\":5932:5961   */\n  swap1\n  pop\n    /* \"#utility.yul\":5672:5967   */\n  swap3\n  swap2\n  pop\n  pop\n  jump\t// out\n    /* \"#utility.yul\":5972:7367   */\ntag_8:\n    /* \"#utility.yul\":6089:6126   */\n  tag_148\n    /* \"#utility.yul\":6122:6125   */\n  dup3\n    /* \"#utility.yul\":6089:6126   */\n  tag_48\n  jump\t// in\ntag_148:\n    /* \"#utility.yul\":6191:6209   */\n  0xffffffffffffffff\n    /* \"#utility.yul\":6183:6189   */\n  dup2\n    /* \"#utility.yul\":6180:6210   */\n  gt\n    /* \"#utility.yul\":6177:6233   */\n  iszero\n  tag_149\n  jumpi\n    /* \"#utility.yul\":6213:6231   */\n  tag_150\n  tag_49\n  jump\t// in\ntag_150:\n    /* \"#utility.yul\":6177:6233   */\ntag_149:\n    /* \"#utility.yul\":6257:6295   */\n  tag_151\n    /* \"#utility.yul\":6289:6293   */\n  dup3\n    /* \"#utility.yul\":6283:6294   */\n  sload\n    /* \"#utility.yul\":6257:6295   */\n  tag_51\n  jump\t// in\ntag_151:\n    /* \"#utility.yul\":6342:6409   */\n  tag_152\n    /* \"#utility.yul\":6402:6408   */\n  dup3\n    /* \"#utility.yul\":6394:6400   */\n  dup3\n    /* \"#utility.yul\":6388:6392   */\n  dup6\n    /* \"#utility.yul\":6342:6409   */\n  tag_63\n  jump\t// in\ntag_152:\n    /* \"#utility.yul\":6436:6437   */\n  0x00\n    /* \"#utility.yul\":6460:6464   */\n  0x20\n    /* \"#utility.yul\":6447:6464   */\n  swap1\n  pop\n    /* \"#utility.yul\":6492:6494   */\n  0x1f\n    /* \"#utility.yul\":6484:6490   */\n  dup4\n    /* \"#utility.yul\":6481:6495   */\n  gt\n    /* \"#utility.yul\":6509:6510   */\n  0x01\n    /* \"#utility.yul\":6504:7122   */\n  dup2\n  eq\n  tag_154\n  jumpi\n    /* \"#utility.yul\":7166:7167   */\n  0x00\n    /* \"#utility.yul\":7183:7189   */\n  dup5\n    /* \"#utility.yul\":7180:7257   */\n  iszero\n  tag_155\n  jumpi\n    /* \"#utility.yul\":7232:7241   */\n  dup3\n    /* \"#utility.yul\":7227:7230   */\n  dup8\n    /* \"#utility.yul\":7223:7242   */\n  add\n    /* \"#utility.yul\":7217:7243   */\n  mload\n    /* \"#utility.yul\":7208:7243   */\n  swap1\n  pop\n    /* \"#utility.yul\":7180:7257   */\ntag_155:\n    /* \"#utility.yul\":7283:7350   */\n  tag_156\n    /* \"#utility.yul\":7343:7349   */\n  dup6\n    /* \"#utility.yul\":7336:7341   */\n  dup3\n    /* \"#utility.yul\":7283:7350   */\n  tag_66\n  jump\t// in\ntag_156:\n    /* \"#utility.yul\":7277:7281   */\n  dup7\n    /* \"#utility.yul\":7270:7351   */\n  sstore\n    /* \"#utility.yul\":7139:7361   */\n  pop\n    /* \"#utility.yul\":6474:7361   */\n  jump(tag_153)\n    /* \"#utility.yul\":6504:7122   */\ntag_154:\n    /* \"#utility.yul\":6556:6560   */\n  0x1f\n    /* \"#utility.yul\":6552:6561   */\n  not\n    /* \"#utility.yul\":6544:6550   */\n  dup5\n    /* \"#utility.yul\":6540:6562   */\n  and\n    /* \"#utility.yul\":6590:6627   */\n  tag_157\n    /* \"#utility.yul\":6622:6626   */\n  dup7\n    /* \"#utility.yul\":6590:6627   */\n  tag_52\n  jump\t// in\ntag_157:\n    /* \"#utility.yul\":6649:6650   */\n  0x00\n    /* \"#utility.yul\":6663:6871   */\ntag_158:\n    /* \"#utility.yul\":6677:6684   */\n  dup3\n    /* \"#utility.yul\":6674:6675   */\n  dup2\n    /* \"#utility.yul\":6671:6685   */\n  lt\n    /* \"#utility.yul\":6663:6871   */\n  iszero\n  tag_160\n  jumpi\n    /* \"#utility.yul\":6756:6765   */\n  dup5\n    /* \"#utility.yul\":6751:6754   */\n  dup10\n    /* \"#utility.yul\":6747:6766   */\n  add\n    /* \"#utility.yul\":6741:6767   */\n  mload\n    /* \"#utility.yul\":6733:6739   */\n  dup3\n    /* \"#utility.yul\":6726:6768   */\n  sstore\n    /* \"#utility.yul\":6807:6808   */\n  0x01\n    /* \"#utility.yul\":6799:6805   */\n  dup3\n    /* \"#utility.yul\":6795:6809   */\n  add\n    /* \"#utility.yul\":6785:6809   */\n  swap2\n  pop\n    /* \"#utility.yul\":6854:6856   */\n  0x20\n    /* \"#utility.yul\":6843:6852   */\n  dup6\n    /* \"#utility.yul\":6839:6857   */\n  add\n    /* \"#utility.yul\":6826:6857   */\n  swap5\n  pop\n    /* \"#utility.yul\":6700:6704   */\n  0x20\n    /* \"#utility.yul\":6697:6698   */\n  dup2\n    /* \"#utility.yul\":6693:6705   */\n  add\n    /* \"#utility.yul\":6688:6705   */\n  swap1\n  pop\n    /* \"#utility.yul\":6663:6871   */\n  jump(tag_158)\ntag_160:\n    /* \"#utility.yul\":6899:6905   */\n  dup7\n    /* \"#utility.yul\":6890:6897   */\n  dup4\n    /* \"#utility.yul\":6887:6906   */\n  lt\n    /* \"#utility.yul\":6884:7063   */\n  iszero\n  tag_161\n  jumpi\n    /* \"#utility.yul\":6957:6966   */\n  dup5\n    /* \"#utility.yul\":6952:6955   */\n  dup10\n    /* \"#utility.yul\":6948:6967   */\n  add\n    /* \"#utility.yul\":6942:6968   */\n  mload\n    /* \"#utility.yul\":7000:7048   */\n  tag_162\n    /* \"#utility.yul\":7042:7046   */\n  0x1f\n    /* \"#utility.yul\":7034:7040   */\n  dup10\n    /* \"#utility.yul\":7030:7047   */\n  and\n    /* \"#utility.yul\":7019:7028   */\n  dup3\n    /* \"#utility.yul\":7000:7048   */\n  tag_65\n  jump\t// in\ntag_162:\n    /* \"#utility.yul\":6992:6998   */\n  dup4\n    /* \"#utility.yul\":6985:7049   */\n  sstore\n    /* \"#utility.yul\":6907:7063   */\n  pop\n    /* \"#utility.yul\":6884:7063   */\ntag_161:\n    /* \"#utility.yul\":7109:7110   */\n  0x01\n    /* \"#utility.yul\":7105:7106   */\n  0x02\n    /* \"#utility.yul\":7097:7103   */\n  dup9\n    /* \"#utility.yul\":7093:7107   */\n  mul\n    /* \"#utility.yul\":7089:7111   */\n  add\n    /* \"#utility.yul\":7083:7087   */\n  dup9\n    /* \"#utility.yul\":7076:7112   */\n  sstore\n    /* \"#utility.yul\":6511:7122   */\n  pop\n  pop\n  pop\n    /* \"#utility.yul\":6474:7361   */\ntag_153:\n  pop\n    /* \"#utility.yul\":6064:7367   */\n  pop\n  pop\n  pop\n    /* \"#utility.yul\":5972:7367   */\n  pop\n  pop\n  jump\t// out\n    /* \"#utility.yul\":7373:7542   */\ntag_67:\n    /* \"#utility.yul\":7457:7468   */\n  0x00\n    /* \"#utility.yul\":7491:7497   */\n  dup3\n    /* \"#utility.yul\":7486:7489   */\n  dup3\n    /* \"#utility.yul\":7479:7498   */\n  mstore\n    /* \"#utility.yul\":7531:7535   */\n  0x20\n    /* \"#utility.yul\":7526:7529   */\n  dup3\n    /* \"#utility.yul\":7522:7536   */\n  add\n    /* \"#utility.yul\":7507:7536   */\n  swap1\n  pop\n    /* \"#utility.yul\":7373:7542   */\n  swap3\n  swap2\n  pop\n  pop\n  jump\t// out\n    /* \"#utility.yul\":7548:7781   */\ntag_68:\n    /* \"#utility.yul\":7688:7722   */\n  0x4d79476f7620746f6b656e20737570706c79206d75737420626520657175616c\n    /* \"#utility.yul\":7684:7685   */\n  0x00\n    /* \"#utility.yul\":7676:7682   */\n  dup3\n    /* \"#utility.yul\":7672:7686   */\n  add\n    /* \"#utility.yul\":7665:7723   */\n  mstore\n    /* \"#utility.yul\":7757:7773   */\n  0x20746f203230206d696c6c696f6e000000000000000000000000000000000000\n    /* \"#utility.yul\":7752:7754   */\n  0x20\n    /* \"#utility.yul\":7744:7750   */\n  dup3\n    /* \"#utility.yul\":7740:7755   */\n  add\n    /* \"#utility.yul\":7733:7774   */\n  mstore\n    /* \"#utility.yul\":7548:7781   */\n  pop\n  jump\t// out\n    /* \"#utility.yul\":7787:8153   */\ntag_69:\n    /* \"#utility.yul\":7929:7932   */\n  0x00\n    /* \"#utility.yul\":7950:8017   */\n  tag_166\n    /* \"#utility.yul\":8014:8016   */\n  0x2e\n    /* \"#utility.yul\":8009:8012   */\n  dup4\n    /* \"#utility.yul\":7950:8017   */\n  tag_67\n  jump\t// in\ntag_166:\n    /* \"#utility.yul\":7943:8017   */\n  swap2\n  pop\n    /* \"#utility.yul\":8026:8119   */\n  tag_167\n    /* \"#utility.yul\":8115:8118   */\n  dup3\n    /* \"#utility.yul\":8026:8119   */\n  tag_68\n  jump\t// in\ntag_167:\n    /* \"#utility.yul\":8144:8146   */\n  0x40\n    /* \"#utility.yul\":8139:8142   */\n  dup3\n    /* \"#utility.yul\":8135:8147   */\n  add\n    /* \"#utility.yul\":8128:8147   */\n  swap1\n  pop\n    /* \"#utility.yul\":7787:8153   */\n  swap2\n  swap1\n  pop\n  jump\t// out\n    /* \"#utility.yul\":8159:8578   */\ntag_13:\n    /* \"#utility.yul\":8325:8329   */\n  0x00\n    /* \"#utility.yul\":8363:8365   */\n  0x20\n    /* \"#utility.yul\":8352:8361   */\n  dup3\n    /* \"#utility.yul\":8348:8366   */\n  add\n    /* \"#utility.yul\":8340:8366   */\n  swap1\n  pop\n    /* \"#utility.yul\":8412:8421   */\n  dup2\n    /* \"#utility.yul\":8406:8410   */\n  dup2\n    /* \"#utility.yul\":8402:8422   */\n  sub\n    /* \"#utility.yul\":8398:8399   */\n  0x00\n    /* \"#utility.yul\":8387:8396   */\n  dup4\n    /* \"#utility.yul\":8383:8400   */\n  add\n    /* \"#utility.yul\":8376:8423   */\n  mstore\n    /* \"#utility.yul\":8440:8571   */\n  tag_169\n    /* \"#utility.yul\":8566:8570   */\n  dup2\n    /* \"#utility.yul\":8440:8571   */\n  tag_69\n  jump\t// in\ntag_169:\n    /* \"#utility.yul\":8432:8571   */\n  swap1\n  pop\n    /* \"#utility.yul\":8159:8578   */\n  swap2\n  swap1\n  pop\n  jump\t// out\n    /* \"#utility.yul\":8584:8702   */\ntag_70:\n    /* \"#utility.yul\":8671:8695   */\n  tag_171\n    /* \"#utility.yul\":8689:8694   */\n  dup2\n    /* \"#utility.yul\":8671:8695   */\n  tag_42\n  jump\t// in\ntag_171:\n    /* \"#utility.yul\":8666:8669   */\n  dup3\n    /* \"#utility.yul\":8659:8696   */\n  mstore\n    /* \"#utility.yul\":8584:8702   */\n  pop\n  pop\n  jump\t// out\n    /* \"#utility.yul\":8708:8930   */\ntag_20:\n    /* \"#utility.yul\":8801:8805   */\n  0x00\n    /* \"#utility.yul\":8839:8841   */\n  0x20\n    /* \"#utility.yul\":8828:8837   */\n  dup3\n    /* \"#utility.yul\":8824:8842   */\n  add\n    /* \"#utility.yul\":8816:8842   */\n  swap1\n  pop\n    /* \"#utility.yul\":8852:8923   */\n  tag_173\n    /* \"#utility.yul\":8920:8921   */\n  0x00\n    /* \"#utility.yul\":8909:8918   */\n  dup4\n    /* \"#utility.yul\":8905:8922   */\n  add\n    /* \"#utility.yul\":8896:8902   */\n  dup5\n    /* \"#utility.yul\":8852:8923   */\n  tag_70\n  jump\t// in\ntag_173:\n    /* \"#utility.yul\":8708:8930   */\n  swap3\n  swap2\n  pop\n  pop\n  jump\t// out\n    /* \"#utility.yul\":8936:9116   */\ntag_71:\n    /* \"#utility.yul\":8984:9061   */\n  0x4e487b7100000000000000000000000000000000000000000000000000000000\n    /* \"#utility.yul\":8981:8982   */\n  0x00\n    /* \"#utility.yul\":8974:9062   */\n  mstore\n    /* \"#utility.yul\":9081:9085   */\n  0x11\n    /* \"#utility.yul\":9078:9079   */\n  0x04\n    /* \"#utility.yul\":9071:9086   */\n  mstore\n    /* \"#utility.yul\":9105:9109   */\n  0x24\n    /* \"#utility.yul\":9102:9103   */\n  0x00\n    /* \"#utility.yul\":9095:9110   */\n  revert\n    /* \"#utility.yul\":9122:9313   */\ntag_26:\n    /* \"#utility.yul\":9162:9165   */\n  0x00\n    /* \"#utility.yul\":9181:9201   */\n  tag_176\n    /* \"#utility.yul\":9199:9200   */\n  dup3\n    /* \"#utility.yul\":9181:9201   */\n  tag_38\n  jump\t// in\ntag_176:\n    /* \"#utility.yul\":9176:9201   */\n  swap2\n  pop\n    /* \"#utility.yul\":9215:9235   */\n  tag_177\n    /* \"#utility.yul\":9233:9234   */\n  dup4\n    /* \"#utility.yul\":9215:9235   */\n  tag_38\n  jump\t// in\ntag_177:\n    /* \"#utility.yul\":9210:9235   */\n  swap3\n  pop\n    /* \"#utility.yul\":9258:9259   */\n  dup3\n    /* \"#utility.yul\":9255:9256   */\n  dup3\n    /* \"#utility.yul\":9251:9260   */\n  add\n    /* \"#utility.yul\":9244:9260   */\n  swap1\n  pop\n    /* \"#utility.yul\":9279:9282   */\n  dup1\n    /* \"#utility.yul\":9276:9277   */\n  dup3\n    /* \"#utility.yul\":9273:9283   */\n  gt\n    /* \"#utility.yul\":9270:9306   */\n  iszero\n  tag_178\n  jumpi\n    /* \"#utility.yul\":9286:9304   */\n  tag_179\n  tag_71\n  jump\t// in\ntag_179:\n    /* \"#utility.yul\":9270:9306   */\ntag_178:\n    /* \"#utility.yul\":9122:9313   */\n  swap3\n  swap2\n  pop\n  pop\n  jump\t// out\n    /* \"#utility.yul\":9319:9437   */\ntag_72:\n    /* \"#utility.yul\":9406:9430   */\n  tag_181\n    /* \"#utility.yul\":9424:9429   */\n  dup2\n    /* \"#utility.yul\":9406:9430   */\n  tag_38\n  jump\t// in\ntag_181:\n    /* \"#utility.yul\":9401:9404   */\n  dup3\n    /* \"#utility.yul\":9394:9431   */\n  mstore\n    /* \"#utility.yul\":9319:9437   */\n  pop\n  pop\n  jump\t// out\n    /* \"#utility.yul\":9443:9885   */\ntag_30:\n    /* \"#utility.yul\":9592:9596   */\n  0x00\n    /* \"#utility.yul\":9630:9632   */\n  0x60\n    /* \"#utility.yul\":9619:9628   */\n  dup3\n    /* \"#utility.yul\":9615:9633   */\n  add\n    /* \"#utility.yul\":9607:9633   */\n  swap1\n  pop\n    /* \"#utility.yul\":9643:9714   */\n  tag_183\n    /* \"#utility.yul\":9711:9712   */\n  0x00\n    /* \"#utility.yul\":9700:9709   */\n  dup4\n    /* \"#utility.yul\":9696:9713   */\n  add\n    /* \"#utility.yul\":9687:9693   */\n  dup7\n    /* \"#utility.yul\":9643:9714   */\n  tag_70\n  jump\t// in\ntag_183:\n    /* \"#utility.yul\":9724:9796   */\n  tag_184\n    /* \"#utility.yul\":9792:9794   */\n  0x20\n    /* \"#utility.yul\":9781:9790   */\n  dup4\n    /* \"#utility.yul\":9777:9795   */\n  add\n    /* \"#utility.yul\":9768:9774   */\n  dup6\n    /* \"#utility.yul\":9724:9796   */\n  tag_72\n  jump\t// in\ntag_184:\n    /* \"#utility.yul\":9806:9878   */\n  tag_185\n    /* \"#utility.yul\":9874:9876   */\n  0x40\n    /* \"#utility.yul\":9863:9872   */\n  dup4\n    /* \"#utility.yul\":9859:9877   */\n  add\n    /* \"#utility.yul\":9850:9856   */\n  dup5\n    /* \"#utility.yul\":9806:9878   */\n  tag_72\n  jump\t// in\ntag_185:\n    /* \"#utility.yul\":9443:9885   */\n  swap5\n  swap4\n  pop\n  pop\n  pop\n  pop\n  jump\t// out\n    /* \"#utility.yul\":9891:10113   */\ntag_34:\n    /* \"#utility.yul\":9984:9988   */\n  0x00\n    /* \"#utility.yul\":10022:10024   */\n  0x20\n    /* \"#utility.yul\":10011:10020   */\n  dup3\n    /* \"#utility.yul\":10007:10025   */\n  add\n    /* \"#utility.yul\":9999:10025   */\n  swap1\n  pop\n    /* \"#utility.yul\":10035:10106   */\n  tag_187\n    /* \"#utility.yul\":10103:10104   */\n  0x00\n    /* \"#utility.yul\":10092:10101   */\n  dup4\n    /* \"#utility.yul\":10088:10105   */\n  add\n    /* \"#utility.yul\":10079:10085   */\n  dup5\n    /* \"#utility.yul\":10035:10106   */\n  tag_72\n  jump\t// in\ntag_187:\n    /* \"#utility.yul\":9891:10113   */\n  swap3\n  swap2\n  pop\n  pop\n  jump\t// out\n    /* \"Users/lynn/Documents/Uni/Bogazici/Blockchain/Cmpe483/contracts/MyGov.sol\":115:1566  contract MyGov is ERC20 {... */\ntag_16:\n  dataSize(sub_0)\n  dup1\n  dataOffset(sub_0)\n  0x00\n  codecopy\n  0x00\n  return\nstop\n\nsub_0: assembly {\n        /* \"Users/lynn/Documents/Uni/Bogazici/Blockchain/Cmpe483/contracts/MyGov.sol\":115:1566  contract MyGov is ERC20 {... */\n      mstore(0x40, 0x80)\n      callvalue\n      dup1\n      iszero\n      tag_1\n      jumpi\n      0x00\n      dup1\n      revert\n    tag_1:\n      pop\n      jumpi(tag_2, lt(calldatasize, 0x04))\n      shr(0xe0, calldataload(0x00))\n      dup1\n      0x95d89b41\n      gt\n      tag_19\n      jumpi\n      dup1\n      0xd915902e\n      gt\n      tag_20\n      jumpi\n      dup1\n      0xd915902e\n      eq\n      tag_15\n      jumpi\n      dup1\n      0xdd62ed3e\n      eq\n      tag_16\n      jumpi\n      dup1\n      0xde5f72fd\n      eq\n      tag_17\n      jumpi\n      dup1\n      0xe6664928\n      eq\n      tag_18\n      jumpi\n      jump(tag_2)\n    tag_20:\n      dup1\n      0x95d89b41\n      eq\n      tag_11\n      jumpi\n      dup1\n      0xa9059cbb\n      eq\n      tag_12\n      jumpi\n      dup1\n      0xb3afcee4\n      eq\n      tag_13\n      jumpi\n      dup1\n      0xc7f48df7\n      eq\n      tag_14\n      jumpi\n      jump(tag_2)\n    tag_19:\n      dup1\n      0x313ce567\n      gt\n      tag_21\n      jumpi\n      dup1\n      0x313ce567\n      eq\n      tag_7\n      jumpi\n      dup1\n      0x34dcb04e\n      eq\n      tag_8\n      jumpi\n      dup1\n      0x39c94d2d\n      eq\n      tag_9\n      jumpi\n      dup1\n      0x70a08231\n      eq\n      tag_10\n      jumpi\n      jump(tag_2)\n    tag_21:\n      dup1\n      0x06fdde03\n      eq\n      tag_3\n      jumpi\n      dup1\n      0x095ea7b3\n      eq\n      tag_4\n      jumpi\n      dup1\n      0x18160ddd\n      eq\n      tag_5\n      jumpi\n      dup1\n      0x23b872dd\n      eq\n      tag_6\n      jumpi\n    tag_2:\n      0x00\n      dup1\n      revert\n        /* \"@openzeppelin/contracts/token/ERC20/ERC20.sol\":2074:2163  function name() public view virtual returns (string memory) {... */\n    tag_3:\n      tag_22\n      tag_23\n      jump\t// in\n    tag_22:\n      mload(0x40)\n      tag_24\n      swap2\n      swap1\n      tag_25\n      jump\t// in\n    tag_24:\n      mload(0x40)\n      dup1\n      swap2\n      sub\n      swap1\n      return\n        /* \"@openzeppelin/contracts/token/ERC20/ERC20.sol\":4293:4479  function approve(address spender, uint256 value) public virtual returns (bool) {... */\n    tag_4:\n      tag_26\n      0x04\n      dup1\n      calldatasize\n      sub\n      dup2\n      add\n      swap1\n      tag_27\n      swap2\n      swap1\n      tag_28\n      jump\t// in\n    tag_27:\n      tag_29\n      jump\t// in\n    tag_26:\n      mload(0x40)\n      tag_30\n      swap2\n      swap1\n      tag_31\n      jump\t// in\n    tag_30:\n      mload(0x40)\n      dup1\n      swap2\n      sub\n      swap1\n      return\n        /* \"@openzeppelin/contracts/token/ERC20/ERC20.sol\":3144:3241  function totalSupply() public view virtual returns (uint256) {... */\n    tag_5:\n      tag_32\n      tag_33\n      jump\t// in\n    tag_32:\n      mload(0x40)\n      tag_34\n      swap2\n      swap1\n      tag_35\n      jump\t// in\n    tag_34:\n      mload(0x40)\n      dup1\n      swap2\n      sub\n      swap1\n      return\n        /* \"@openzeppelin/contracts/token/ERC20/ERC20.sol\":5039:5283  function transferFrom(address from, address to, uint256 value) public virtual returns (bool) {... */\n    tag_6:\n      tag_36\n      0x04\n      dup1\n      calldatasize\n      sub\n      dup2\n      add\n      swap1\n      tag_37\n      swap2\n      swap1\n      tag_38\n      jump\t// in\n    tag_37:\n      tag_39\n      jump\t// in\n    tag_36:\n      mload(0x40)\n      tag_40\n      swap2\n      swap1\n      tag_31\n      jump\t// in\n    tag_40:\n      mload(0x40)\n      dup1\n      swap2\n      sub\n      swap1\n      return\n        /* \"@openzeppelin/contracts/token/ERC20/ERC20.sol\":3002:3084  function decimals() public view virtual returns (uint8) {... */\n    tag_7:\n      tag_41\n      tag_42\n      jump\t// in\n    tag_41:\n      mload(0x40)\n      tag_43\n      swap2\n      swap1\n      tag_44\n      jump\t// in\n    tag_43:\n      mload(0x40)\n      dup1\n      swap2\n      sub\n      swap1\n      return\n        /* \"Users/lynn/Documents/Uni/Bogazici/Blockchain/Cmpe483/contracts/MyGov.sol\":171:204  ERC20 public USD_BaseCoinContract */\n    tag_8:\n      tag_45\n      tag_46\n      jump\t// in\n    tag_45:\n      mload(0x40)\n      tag_47\n      swap2\n      swap1\n      tag_48\n      jump\t// in\n    tag_47:\n      mload(0x40)\n      dup1\n      swap2\n      sub\n      swap1\n      return\n        /* \"Users/lynn/Documents/Uni/Bogazici/Blockchain/Cmpe483/contracts/MyGov.sol\":890:984  function donateMyGovToken(uint amount) public {... */\n    tag_9:\n      tag_49\n      0x04\n      dup1\n      calldatasize\n      sub\n      dup2\n      add\n      swap1\n      tag_50\n      swap2\n      swap1\n      tag_51\n      jump\t// in\n    tag_50:\n      tag_52\n      jump\t// in\n    tag_49:\n      stop\n        /* \"@openzeppelin/contracts/token/ERC20/ERC20.sol\":3299:3415  function balanceOf(address account) public view virtual returns (uint256) {... */\n    tag_10:\n      tag_53\n      0x04\n      dup1\n      calldatasize\n      sub\n      dup2\n      add\n      swap1\n      tag_54\n      swap2\n      swap1\n      tag_55\n      jump\t// in\n    tag_54:\n      tag_56\n      jump\t// in\n    tag_53:\n      mload(0x40)\n      tag_57\n      swap2\n      swap1\n      tag_35\n      jump\t// in\n    tag_57:\n      mload(0x40)\n      dup1\n      swap2\n      sub\n      swap1\n      return\n        /* \"@openzeppelin/contracts/token/ERC20/ERC20.sol\":2276:2369  function symbol() public view virtual returns (string memory) {... */\n    tag_11:\n      tag_58\n      tag_59\n      jump\t// in\n    tag_58:\n      mload(0x40)\n      tag_60\n      swap2\n      swap1\n      tag_25\n      jump\t// in\n    tag_60:\n      mload(0x40)\n      dup1\n      swap2\n      sub\n      swap1\n      return\n        /* \"@openzeppelin/contracts/token/ERC20/ERC20.sol\":3610:3788  function transfer(address to, uint256 value) public virtual returns (bool) {... */\n    tag_12:\n      tag_61\n      0x04\n      dup1\n      calldatasize\n      sub\n      dup2\n      add\n      swap1\n      tag_62\n      swap2\n      swap1\n      tag_28\n      jump\t// in\n    tag_62:\n      tag_63\n      jump\t// in\n    tag_61:\n      mload(0x40)\n      tag_64\n      swap2\n      swap1\n      tag_31\n      jump\t// in\n    tag_64:\n      mload(0x40)\n      dup1\n      swap2\n      sub\n      swap1\n      return\n        /* \"Users/lynn/Documents/Uni/Bogazici/Blockchain/Cmpe483/contracts/MyGov.sol\":1140:1253  function isMyGovMember(address _address) public view returns(bool){... */\n    tag_13:\n      tag_65\n      0x04\n      dup1\n      calldatasize\n      sub\n      dup2\n      add\n      swap1\n      tag_66\n      swap2\n      swap1\n      tag_55\n      jump\t// in\n    tag_66:\n      tag_67\n      jump\t// in\n    tag_65:\n      mload(0x40)\n      tag_68\n      swap2\n      swap1\n      tag_31\n      jump\t// in\n    tag_68:\n      mload(0x40)\n      dup1\n      swap2\n      sub\n      swap1\n      return\n        /* \"Users/lynn/Documents/Uni/Bogazici/Blockchain/Cmpe483/contracts/MyGov.sol\":990:1134  function getUSDBalanceOfAccount(address _account) public view returns (uint256) {... */\n    tag_14:\n      tag_69\n      0x04\n      dup1\n      calldatasize\n      sub\n      dup2\n      add\n      swap1\n      tag_70\n      swap2\n      swap1\n      tag_55\n      jump\t// in\n    tag_70:\n      tag_71\n      jump\t// in\n    tag_69:\n      mload(0x40)\n      tag_72\n      swap2\n      swap1\n      tag_35\n      jump\t// in\n    tag_72:\n      mload(0x40)\n      dup1\n      swap2\n      sub\n      swap1\n      return\n        /* \"Users/lynn/Documents/Uni/Bogazici/Blockchain/Cmpe483/contracts/MyGov.sol\":776:884  function donateUSD(uint amount) public {... */\n    tag_15:\n      tag_73\n      0x04\n      dup1\n      calldatasize\n      sub\n      dup2\n      add\n      swap1\n      tag_74\n      swap2\n      swap1\n      tag_51\n      jump\t// in\n    tag_74:\n      tag_75\n      jump\t// in\n    tag_73:\n      stop\n        /* \"@openzeppelin/contracts/token/ERC20/ERC20.sol\":3846:3986  function allowance(address owner, address spender) public view virtual returns (uint256) {... */\n    tag_16:\n      tag_76\n      0x04\n      dup1\n      calldatasize\n      sub\n      dup2\n      add\n      swap1\n      tag_77\n      swap2\n      swap1\n      tag_78\n      jump\t// in\n    tag_77:\n      tag_79\n      jump\t// in\n    tag_76:\n      mload(0x40)\n      tag_80\n      swap2\n      swap1\n      tag_35\n      jump\t// in\n    tag_80:\n      mload(0x40)\n      dup1\n      swap2\n      sub\n      swap1\n      return\n        /* \"Users/lynn/Documents/Uni/Bogazici/Blockchain/Cmpe483/contracts/MyGov.sol\":1256:1563  function faucet() public {... */\n    tag_17:\n      tag_81\n      tag_82\n      jump\t// in\n    tag_81:\n      stop\n        /* \"Users/lynn/Documents/Uni/Bogazici/Blockchain/Cmpe483/contracts/MyGov.sol\":630:770  function emptyTokenSupply() public {... */\n    tag_18:\n      tag_83\n      tag_84\n      jump\t// in\n    tag_83:\n      stop\n        /* \"@openzeppelin/contracts/token/ERC20/ERC20.sol\":2074:2163  function name() public view virtual returns (string memory) {... */\n    tag_23:\n        /* \"@openzeppelin/contracts/token/ERC20/ERC20.sol\":2119:2132  string memory */\n      0x60\n        /* \"@openzeppelin/contracts/token/ERC20/ERC20.sol\":2151:2156  _name */\n      0x03\n        /* \"@openzeppelin/contracts/token/ERC20/ERC20.sol\":2144:2156  return _name */\n      dup1\n      sload\n      tag_86\n      swap1\n      tag_87\n      jump\t// in\n    tag_86:\n      dup1\n      0x1f\n      add\n      0x20\n      dup1\n      swap2\n      div\n      mul\n      0x20\n      add\n      mload(0x40)\n      swap1\n      dup2\n      add\n      0x40\n      mstore\n      dup1\n      swap3\n      swap2\n      swap1\n      dup2\n      dup2\n      mstore\n      0x20\n      add\n      dup3\n      dup1\n      sload\n      tag_88\n      swap1\n      tag_87\n      jump\t// in\n    tag_88:\n      dup1\n      iszero\n      tag_89\n      jumpi\n      dup1\n      0x1f\n      lt\n      tag_90\n      jumpi\n      0x0100\n      dup1\n      dup4\n      sload\n      div\n      mul\n      dup4\n      mstore\n      swap2\n      0x20\n      add\n      swap2\n      jump(tag_89)\n    tag_90:\n      dup3\n      add\n      swap2\n      swap1\n      0x00\n      mstore\n      keccak256(0x00, 0x20)\n      swap1\n    tag_91:\n      dup2\n      sload\n      dup2\n      mstore\n      swap1\n      0x01\n      add\n      swap1\n      0x20\n      add\n      dup1\n      dup4\n      gt\n      tag_91\n      jumpi\n      dup3\n      swap1\n      sub\n      0x1f\n      and\n      dup3\n      add\n      swap2\n    tag_89:\n      pop\n      pop\n      pop\n      pop\n      pop\n      swap1\n      pop\n        /* \"@openzeppelin/contracts/token/ERC20/ERC20.sol\":2074:2163  function name() public view virtual returns (string memory) {... */\n      swap1\n      jump\t// out\n        /* \"@openzeppelin/contracts/token/ERC20/ERC20.sol\":4293:4479  function approve(address spender, uint256 value) public virtual returns (bool) {... */\n    tag_29:\n        /* \"@openzeppelin/contracts/token/ERC20/ERC20.sol\":4366:4370  bool */\n      0x00\n        /* \"@openzeppelin/contracts/token/ERC20/ERC20.sol\":4382:4395  address owner */\n      dup1\n        /* \"@openzeppelin/contracts/token/ERC20/ERC20.sol\":4398:4410  _msgSender() */\n      tag_93\n        /* \"@openzeppelin/contracts/token/ERC20/ERC20.sol\":4398:4408  _msgSender */\n      tag_94\n        /* \"@openzeppelin/contracts/token/ERC20/ERC20.sol\":4398:4410  _msgSender() */\n      jump\t// in\n    tag_93:\n        /* \"@openzeppelin/contracts/token/ERC20/ERC20.sol\":4382:4410  address owner = _msgSender() */\n      swap1\n      pop\n        /* \"@openzeppelin/contracts/token/ERC20/ERC20.sol\":4420:4451  _approve(owner, spender, value) */\n      tag_95\n        /* \"@openzeppelin/contracts/token/ERC20/ERC20.sol\":4429:4434  owner */\n      dup2\n        /* \"@openzeppelin/contracts/token/ERC20/ERC20.sol\":4436:4443  spender */\n      dup6\n        /* \"@openzeppelin/contracts/token/ERC20/ERC20.sol\":4445:4450  value */\n      dup6\n        /* \"@openzeppelin/contracts/token/ERC20/ERC20.sol\":4420:4428  _approve */\n      tag_96\n        /* \"@openzeppelin/contracts/token/ERC20/ERC20.sol\":4420:4451  _approve(owner, spender, value) */\n      jump\t// in\n    tag_95:\n        /* \"@openzeppelin/contracts/token/ERC20/ERC20.sol\":4468:4472  true */\n      0x01\n        /* \"@openzeppelin/contracts/token/ERC20/ERC20.sol\":4461:4472  return true */\n      swap2\n      pop\n      pop\n        /* \"@openzeppelin/contracts/token/ERC20/ERC20.sol\":4293:4479  function approve(address spender, uint256 value) public virtual returns (bool) {... */\n      swap3\n      swap2\n      pop\n      pop\n      jump\t// out\n        /* \"@openzeppelin/contracts/token/ERC20/ERC20.sol\":3144:3241  function totalSupply() public view virtual returns (uint256) {... */\n    tag_33:\n        /* \"@openzeppelin/contracts/token/ERC20/ERC20.sol\":3196:3203  uint256 */\n      0x00\n        /* \"@openzeppelin/contracts/token/ERC20/ERC20.sol\":3222:3234  _totalSupply */\n      sload(0x02)\n        /* \"@openzeppelin/contracts/token/ERC20/ERC20.sol\":3215:3234  return _totalSupply */\n      swap1\n      pop\n        /* \"@openzeppelin/contracts/token/ERC20/ERC20.sol\":3144:3241  function totalSupply() public view virtual returns (uint256) {... */\n      swap1\n      jump\t// out\n        /* \"@openzeppelin/contracts/token/ERC20/ERC20.sol\":5039:5283  function transferFrom(address from, address to, uint256 value) public virtual returns (bool) {... */\n    tag_39:\n        /* \"@openzeppelin/contracts/token/ERC20/ERC20.sol\":5126:5130  bool */\n      0x00\n        /* \"@openzeppelin/contracts/token/ERC20/ERC20.sol\":5142:5157  address spender */\n      dup1\n        /* \"@openzeppelin/contracts/token/ERC20/ERC20.sol\":5160:5172  _msgSender() */\n      tag_99\n        /* \"@openzeppelin/contracts/token/ERC20/ERC20.sol\":5160:5170  _msgSender */\n      tag_94\n        /* \"@openzeppelin/contracts/token/ERC20/ERC20.sol\":5160:5172  _msgSender() */\n      jump\t// in\n    tag_99:\n        /* \"@openzeppelin/contracts/token/ERC20/ERC20.sol\":5142:5172  address spender = _msgSender() */\n      swap1\n      pop\n        /* \"@openzeppelin/contracts/token/ERC20/ERC20.sol\":5182:5219  _spendAllowance(from, spender, value) */\n      tag_100\n        /* \"@openzeppelin/contracts/token/ERC20/ERC20.sol\":5198:5202  from */\n      dup6\n        /* \"@openzeppelin/contracts/token/ERC20/ERC20.sol\":5204:5211  spender */\n      dup3\n        /* \"@openzeppelin/contracts/token/ERC20/ERC20.sol\":5213:5218  value */\n      dup6\n        /* \"@openzeppelin/contracts/token/ERC20/ERC20.sol\":5182:5197  _spendAllowance */\n      tag_101\n        /* \"@openzeppelin/contracts/token/ERC20/ERC20.sol\":5182:5219  _spendAllowance(from, spender, value) */\n      jump\t// in\n    tag_100:\n        /* \"@openzeppelin/contracts/token/ERC20/ERC20.sol\":5229:5255  _transfer(from, to, value) */\n      tag_102\n        /* \"@openzeppelin/contracts/token/ERC20/ERC20.sol\":5239:5243  from */\n      dup6\n        /* \"@openzeppelin/contracts/token/ERC20/ERC20.sol\":5245:5247  to */\n      dup6\n        /* \"@openzeppelin/contracts/token/ERC20/ERC20.sol\":5249:5254  value */\n      dup6\n        /* \"@openzeppelin/contracts/token/ERC20/ERC20.sol\":5229:5238  _transfer */\n      tag_103\n        /* \"@openzeppelin/contracts/token/ERC20/ERC20.sol\":5229:5255  _transfer(from, to, value) */\n      jump\t// in\n    tag_102:\n        /* \"@openzeppelin/contracts/token/ERC20/ERC20.sol\":5272:5276  true */\n      0x01\n        /* \"@openzeppelin/contracts/token/ERC20/ERC20.sol\":5265:5276  return true */\n      swap2\n      pop\n      pop\n        /* \"@openzeppelin/contracts/token/ERC20/ERC20.sol\":5039:5283  function transferFrom(address from, address to, uint256 value) public virtual returns (bool) {... */\n      swap4\n      swap3\n      pop\n      pop\n      pop\n      jump\t// out\n        /* \"@openzeppelin/contracts/token/ERC20/ERC20.sol\":3002:3084  function decimals() public view virtual returns (uint8) {... */\n    tag_42:\n        /* \"@openzeppelin/contracts/token/ERC20/ERC20.sol\":3051:3056  uint8 */\n      0x00\n        /* \"@openzeppelin/contracts/token/ERC20/ERC20.sol\":3075:3077  18 */\n      0x12\n        /* \"@openzeppelin/contracts/token/ERC20/ERC20.sol\":3068:3077  return 18 */\n      swap1\n      pop\n        /* \"@openzeppelin/contracts/token/ERC20/ERC20.sol\":3002:3084  function decimals() public view virtual returns (uint8) {... */\n      swap1\n      jump\t// out\n        /* \"Users/lynn/Documents/Uni/Bogazici/Blockchain/Cmpe483/contracts/MyGov.sol\":171:204  ERC20 public USD_BaseCoinContract */\n    tag_46:\n      0x06\n      0x00\n      swap1\n      sload\n      swap1\n      0x0100\n      exp\n      swap1\n      div\n      0xffffffffffffffffffffffffffffffffffffffff\n      and\n      dup2\n      jump\t// out\n        /* \"Users/lynn/Documents/Uni/Bogazici/Blockchain/Cmpe483/contracts/MyGov.sol\":890:984  function donateMyGovToken(uint amount) public {... */\n    tag_52:\n        /* \"Users/lynn/Documents/Uni/Bogazici/Blockchain/Cmpe483/contracts/MyGov.sol\":946:977  transfer(address(this), amount) */\n      tag_106\n        /* \"Users/lynn/Documents/Uni/Bogazici/Blockchain/Cmpe483/contracts/MyGov.sol\":963:967  this */\n      address\n        /* \"Users/lynn/Documents/Uni/Bogazici/Blockchain/Cmpe483/contracts/MyGov.sol\":970:976  amount */\n      dup3\n        /* \"Users/lynn/Documents/Uni/Bogazici/Blockchain/Cmpe483/contracts/MyGov.sol\":946:954  transfer */\n      tag_63\n        /* \"Users/lynn/Documents/Uni/Bogazici/Blockchain/Cmpe483/contracts/MyGov.sol\":946:977  transfer(address(this), amount) */\n      jump\t// in\n    tag_106:\n      pop\n        /* \"Users/lynn/Documents/Uni/Bogazici/Blockchain/Cmpe483/contracts/MyGov.sol\":890:984  function donateMyGovToken(uint amount) public {... */\n      pop\n      jump\t// out\n        /* \"@openzeppelin/contracts/token/ERC20/ERC20.sol\":3299:3415  function balanceOf(address account) public view virtual returns (uint256) {... */\n    tag_56:\n        /* \"@openzeppelin/contracts/token/ERC20/ERC20.sol\":3364:3371  uint256 */\n      0x00\n        /* \"@openzeppelin/contracts/token/ERC20/ERC20.sol\":3390:3399  _balances */\n      dup1\n        /* \"@openzeppelin/contracts/token/ERC20/ERC20.sol\":3390:3408  _balances[account] */\n      0x00\n        /* \"@openzeppelin/contracts/token/ERC20/ERC20.sol\":3400:3407  account */\n      dup4\n        /* \"@openzeppelin/contracts/token/ERC20/ERC20.sol\":3390:3408  _balances[account] */\n      0xffffffffffffffffffffffffffffffffffffffff\n      and\n      0xffffffffffffffffffffffffffffffffffffffff\n      and\n      dup2\n      mstore\n      0x20\n      add\n      swap1\n      dup2\n      mstore\n      0x20\n      add\n      0x00\n      keccak256\n      sload\n        /* \"@openzeppelin/contracts/token/ERC20/ERC20.sol\":3383:3408  return _balances[account] */\n      swap1\n      pop\n        /* \"@openzeppelin/contracts/token/ERC20/ERC20.sol\":3299:3415  function balanceOf(address account) public view virtual returns (uint256) {... */\n      swap2\n      swap1\n      pop\n      jump\t// out\n        /* \"@openzeppelin/contracts/token/ERC20/ERC20.sol\":2276:2369  function symbol() public view virtual returns (string memory) {... */\n    tag_59:\n        /* \"@openzeppelin/contracts/token/ERC20/ERC20.sol\":2323:2336  string memory */\n      0x60\n        /* \"@openzeppelin/contracts/token/ERC20/ERC20.sol\":2355:2362  _symbol */\n      0x04\n        /* \"@openzeppelin/contracts/token/ERC20/ERC20.sol\":2348:2362  return _symbol */\n      dup1\n      sload\n      tag_109\n      swap1\n      tag_87\n      jump\t// in\n    tag_109:\n      dup1\n      0x1f\n      add\n      0x20\n      dup1\n      swap2\n      div\n      mul\n      0x20\n      add\n      mload(0x40)\n      swap1\n      dup2\n      add\n      0x40\n      mstore\n      dup1\n      swap3\n      swap2\n      swap1\n      dup2\n      dup2\n      mstore\n      0x20\n      add\n      dup3\n      dup1\n      sload\n      tag_110\n      swap1\n      tag_87\n      jump\t// in\n    tag_110:\n      dup1\n      iszero\n      tag_111\n      jumpi\n      dup1\n      0x1f\n      lt\n      tag_112\n      jumpi\n      0x0100\n      dup1\n      dup4\n      sload\n      div\n      mul\n      dup4\n      mstore\n      swap2\n      0x20\n      add\n      swap2\n      jump(tag_111)\n    tag_112:\n      dup3\n      add\n      swap2\n      swap1\n      0x00\n      mstore\n      keccak256(0x00, 0x20)\n      swap1\n    tag_113:\n      dup2\n      sload\n      dup2\n      mstore\n      swap1\n      0x01\n      add\n      swap1\n      0x20\n      add\n      dup1\n      dup4\n      gt\n      tag_113\n      jumpi\n      dup3\n      swap1\n      sub\n      0x1f\n      and\n      dup3\n      add\n      swap2\n    tag_111:\n      pop\n      pop\n      pop\n      pop\n      pop\n      swap1\n      pop\n        /* \"@openzeppelin/contracts/token/ERC20/ERC20.sol\":2276:2369  function symbol() public view virtual returns (string memory) {... */\n      swap1\n      jump\t// out\n        /* \"@openzeppelin/contracts/token/ERC20/ERC20.sol\":3610:3788  function transfer(address to, uint256 value) public virtual returns (bool) {... */\n    tag_63:\n        /* \"@openzeppelin/contracts/token/ERC20/ERC20.sol\":3679:3683  bool */\n      0x00\n        /* \"@openzeppelin/contracts/token/ERC20/ERC20.sol\":3695:3708  address owner */\n      dup1\n        /* \"@openzeppelin/contracts/token/ERC20/ERC20.sol\":3711:3723  _msgSender() */\n      tag_115\n        /* \"@openzeppelin/contracts/token/ERC20/ERC20.sol\":3711:3721  _msgSender */\n      tag_94\n        /* \"@openzeppelin/contracts/token/ERC20/ERC20.sol\":3711:3723  _msgSender() */\n      jump\t// in\n    tag_115:\n        /* \"@openzeppelin/contracts/token/ERC20/ERC20.sol\":3695:3723  address owner = _msgSender() */\n      swap1\n      pop\n        /* \"@openzeppelin/contracts/token/ERC20/ERC20.sol\":3733:3760  _transfer(owner, to, value) */\n      tag_116\n        /* \"@openzeppelin/contracts/token/ERC20/ERC20.sol\":3743:3748  owner */\n      dup2\n        /* \"@openzeppelin/contracts/token/ERC20/ERC20.sol\":3750:3752  to */\n      dup6\n        /* \"@openzeppelin/contracts/token/ERC20/ERC20.sol\":3754:3759  value */\n      dup6\n        /* \"@openzeppelin/contracts/token/ERC20/ERC20.sol\":3733:3742  _transfer */\n      tag_103\n        /* \"@openzeppelin/contracts/token/ERC20/ERC20.sol\":3733:3760  _transfer(owner, to, value) */\n      jump\t// in\n    tag_116:\n        /* \"@openzeppelin/contracts/token/ERC20/ERC20.sol\":3777:3781  true */\n      0x01\n        /* \"@openzeppelin/contracts/token/ERC20/ERC20.sol\":3770:3781  return true */\n      swap2\n      pop\n      pop\n        /* \"@openzeppelin/contracts/token/ERC20/ERC20.sol\":3610:3788  function transfer(address to, uint256 value) public virtual returns (bool) {... */\n      swap3\n      swap2\n      pop\n      pop\n      jump\t// out\n        /* \"Users/lynn/Documents/Uni/Bogazici/Blockchain/Cmpe483/contracts/MyGov.sol\":1140:1253  function isMyGovMember(address _address) public view returns(bool){... */\n    tag_67:\n        /* \"Users/lynn/Documents/Uni/Bogazici/Blockchain/Cmpe483/contracts/MyGov.sol\":1201:1205  bool */\n      0x00\n        /* \"Users/lynn/Documents/Uni/Bogazici/Blockchain/Cmpe483/contracts/MyGov.sol\":1245:1246  0 */\n      dup1\n        /* \"Users/lynn/Documents/Uni/Bogazici/Blockchain/Cmpe483/contracts/MyGov.sol\":1223:1242  balanceOf(_address) */\n      tag_118\n        /* \"Users/lynn/Documents/Uni/Bogazici/Blockchain/Cmpe483/contracts/MyGov.sol\":1233:1241  _address */\n      dup4\n        /* \"Users/lynn/Documents/Uni/Bogazici/Blockchain/Cmpe483/contracts/MyGov.sol\":1223:1232  balanceOf */\n      tag_56\n        /* \"Users/lynn/Documents/Uni/Bogazici/Blockchain/Cmpe483/contracts/MyGov.sol\":1223:1242  balanceOf(_address) */\n      jump\t// in\n    tag_118:\n        /* \"Users/lynn/Documents/Uni/Bogazici/Blockchain/Cmpe483/contracts/MyGov.sol\":1223:1246  balanceOf(_address) > 0 */\n      gt\n        /* \"Users/lynn/Documents/Uni/Bogazici/Blockchain/Cmpe483/contracts/MyGov.sol\":1216:1246  return balanceOf(_address) > 0 */\n      swap1\n      pop\n        /* \"Users/lynn/Documents/Uni/Bogazici/Blockchain/Cmpe483/contracts/MyGov.sol\":1140:1253  function isMyGovMember(address _address) public view returns(bool){... */\n      swap2\n      swap1\n      pop\n      jump\t// out\n        /* \"Users/lynn/Documents/Uni/Bogazici/Blockchain/Cmpe483/contracts/MyGov.sol\":990:1134  function getUSDBalanceOfAccount(address _account) public view returns (uint256) {... */\n    tag_71:\n        /* \"Users/lynn/Documents/Uni/Bogazici/Blockchain/Cmpe483/contracts/MyGov.sol\":1061:1068  uint256 */\n      0x00\n        /* \"Users/lynn/Documents/Uni/Bogazici/Blockchain/Cmpe483/contracts/MyGov.sol\":1087:1107  USD_BaseCoinContract */\n      0x06\n      0x00\n      swap1\n      sload\n      swap1\n      0x0100\n      exp\n      swap1\n      div\n      0xffffffffffffffffffffffffffffffffffffffff\n      and\n        /* \"Users/lynn/Documents/Uni/Bogazici/Blockchain/Cmpe483/contracts/MyGov.sol\":1087:1117  USD_BaseCoinContract.balanceOf */\n      0xffffffffffffffffffffffffffffffffffffffff\n      and\n      0x70a08231\n        /* \"Users/lynn/Documents/Uni/Bogazici/Blockchain/Cmpe483/contracts/MyGov.sol\":1118:1126  _account */\n      dup4\n        /* \"Users/lynn/Documents/Uni/Bogazici/Blockchain/Cmpe483/contracts/MyGov.sol\":1087:1127  USD_BaseCoinContract.balanceOf(_account) */\n      mload(0x40)\n      dup3\n      0xffffffff\n      and\n      0xe0\n      shl\n      dup2\n      mstore\n      0x04\n      add\n      tag_120\n      swap2\n      swap1\n      tag_121\n      jump\t// in\n    tag_120:\n      0x20\n      mload(0x40)\n      dup1\n      dup4\n      sub\n      dup2\n      dup7\n      gas\n      staticcall\n      iszero\n      dup1\n      iszero\n      tag_123\n      jumpi\n      returndatasize\n      0x00\n      dup1\n      returndatacopy\n      revert(0x00, returndatasize)\n    tag_123:\n      pop\n      pop\n      pop\n      pop\n      mload(0x40)\n      returndatasize\n      not(0x1f)\n      0x1f\n      dup3\n      add\n      and\n      dup3\n      add\n      dup1\n      0x40\n      mstore\n      pop\n      dup2\n      add\n      swap1\n      tag_124\n      swap2\n      swap1\n      tag_125\n      jump\t// in\n    tag_124:\n        /* \"Users/lynn/Documents/Uni/Bogazici/Blockchain/Cmpe483/contracts/MyGov.sol\":1080:1127  return USD_BaseCoinContract.balanceOf(_account) */\n      swap1\n      pop\n        /* \"Users/lynn/Documents/Uni/Bogazici/Blockchain/Cmpe483/contracts/MyGov.sol\":990:1134  function getUSDBalanceOfAccount(address _account) public view returns (uint256) {... */\n      swap2\n      swap1\n      pop\n      jump\t// out\n        /* \"Users/lynn/Documents/Uni/Bogazici/Blockchain/Cmpe483/contracts/MyGov.sol\":776:884  function donateUSD(uint amount) public {... */\n    tag_75:\n        /* \"Users/lynn/Documents/Uni/Bogazici/Blockchain/Cmpe483/contracts/MyGov.sol\":825:845  USD_BaseCoinContract */\n      0x06\n      0x00\n      swap1\n      sload\n      swap1\n      0x0100\n      exp\n      swap1\n      div\n      0xffffffffffffffffffffffffffffffffffffffff\n      and\n        /* \"Users/lynn/Documents/Uni/Bogazici/Blockchain/Cmpe483/contracts/MyGov.sol\":825:854  USD_BaseCoinContract.transfer */\n      0xffffffffffffffffffffffffffffffffffffffff\n      and\n      0xa9059cbb\n        /* \"Users/lynn/Documents/Uni/Bogazici/Blockchain/Cmpe483/contracts/MyGov.sol\":863:867  this */\n      address\n        /* \"Users/lynn/Documents/Uni/Bogazici/Blockchain/Cmpe483/contracts/MyGov.sol\":870:876  amount */\n      dup4\n        /* \"Users/lynn/Documents/Uni/Bogazici/Blockchain/Cmpe483/contracts/MyGov.sol\":825:877  USD_BaseCoinContract.transfer(address(this), amount) */\n      mload(0x40)\n      dup4\n      0xffffffff\n      and\n      0xe0\n      shl\n      dup2\n      mstore\n      0x04\n      add\n      tag_127\n      swap3\n      swap2\n      swap1\n      tag_128\n      jump\t// in\n    tag_127:\n      0x20\n      mload(0x40)\n      dup1\n      dup4\n      sub\n      dup2\n      0x00\n      dup8\n      gas\n      call\n      iszero\n      dup1\n      iszero\n      tag_130\n      jumpi\n      returndatasize\n      0x00\n      dup1\n      returndatacopy\n      revert(0x00, returndatasize)\n    tag_130:\n      pop\n      pop\n      pop\n      pop\n      mload(0x40)\n      returndatasize\n      not(0x1f)\n      0x1f\n      dup3\n      add\n      and\n      dup3\n      add\n      dup1\n      0x40\n      mstore\n      pop\n      dup2\n      add\n      swap1\n      tag_131\n      swap2\n      swap1\n      tag_132\n      jump\t// in\n    tag_131:\n      pop\n        /* \"Users/lynn/Documents/Uni/Bogazici/Blockchain/Cmpe483/contracts/MyGov.sol\":776:884  function donateUSD(uint amount) public {... */\n      pop\n      jump\t// out\n        /* \"@openzeppelin/contracts/token/ERC20/ERC20.sol\":3846:3986  function allowance(address owner, address spender) public view virtual returns (uint256) {... */\n    tag_79:\n        /* \"@openzeppelin/contracts/token/ERC20/ERC20.sol\":3926:3933  uint256 */\n      0x00\n        /* \"@openzeppelin/contracts/token/ERC20/ERC20.sol\":3952:3963  _allowances */\n      0x01\n        /* \"@openzeppelin/contracts/token/ERC20/ERC20.sol\":3952:3970  _allowances[owner] */\n      0x00\n        /* \"@openzeppelin/contracts/token/ERC20/ERC20.sol\":3964:3969  owner */\n      dup5\n        /* \"@openzeppelin/contracts/token/ERC20/ERC20.sol\":3952:3970  _allowances[owner] */\n      0xffffffffffffffffffffffffffffffffffffffff\n      and\n      0xffffffffffffffffffffffffffffffffffffffff\n      and\n      dup2\n      mstore\n      0x20\n      add\n      swap1\n      dup2\n      mstore\n      0x20\n      add\n      0x00\n      keccak256\n        /* \"@openzeppelin/contracts/token/ERC20/ERC20.sol\":3952:3979  _allowances[owner][spender] */\n      0x00\n        /* \"@openzeppelin/contracts/token/ERC20/ERC20.sol\":3971:3978  spender */\n      dup4\n        /* \"@openzeppelin/contracts/token/ERC20/ERC20.sol\":3952:3979  _allowances[owner][spender] */\n      0xffffffffffffffffffffffffffffffffffffffff\n      and\n      0xffffffffffffffffffffffffffffffffffffffff\n      and\n      dup2\n      mstore\n      0x20\n      add\n      swap1\n      dup2\n      mstore\n      0x20\n      add\n      0x00\n      keccak256\n      sload\n        /* \"@openzeppelin/contracts/token/ERC20/ERC20.sol\":3945:3979  return _allowances[owner][spender] */\n      swap1\n      pop\n        /* \"@openzeppelin/contracts/token/ERC20/ERC20.sol\":3846:3986  function allowance(address owner, address spender) public view virtual returns (uint256) {... */\n      swap3\n      swap2\n      pop\n      pop\n      jump\t// out\n        /* \"Users/lynn/Documents/Uni/Bogazici/Blockchain/Cmpe483/contracts/MyGov.sol\":1256:1563  function faucet() public {... */\n    tag_82:\n        /* \"Users/lynn/Documents/Uni/Bogazici/Blockchain/Cmpe483/contracts/MyGov.sol\":1321:1322  0 */\n      0x00\n        /* \"Users/lynn/Documents/Uni/Bogazici/Blockchain/Cmpe483/contracts/MyGov.sol\":1294:1318  balanceOf(address(this)) */\n      tag_135\n        /* \"Users/lynn/Documents/Uni/Bogazici/Blockchain/Cmpe483/contracts/MyGov.sol\":1312:1316  this */\n      address\n        /* \"Users/lynn/Documents/Uni/Bogazici/Blockchain/Cmpe483/contracts/MyGov.sol\":1294:1303  balanceOf */\n      tag_56\n        /* \"Users/lynn/Documents/Uni/Bogazici/Blockchain/Cmpe483/contracts/MyGov.sol\":1294:1318  balanceOf(address(this)) */\n      jump\t// in\n    tag_135:\n        /* \"Users/lynn/Documents/Uni/Bogazici/Blockchain/Cmpe483/contracts/MyGov.sol\":1294:1322  balanceOf(address(this)) > 0 */\n      gt\n        /* \"Users/lynn/Documents/Uni/Bogazici/Blockchain/Cmpe483/contracts/MyGov.sol\":1286:1353  require(balanceOf(address(this)) > 0, \"No tokens left on contract\") */\n      tag_136\n      jumpi\n      mload(0x40)\n      0x08c379a000000000000000000000000000000000000000000000000000000000\n      dup2\n      mstore\n      0x04\n      add\n      tag_137\n      swap1\n      tag_138\n      jump\t// in\n    tag_137:\n      mload(0x40)\n      dup1\n      swap2\n      sub\n      swap1\n      revert\n    tag_136:\n        /* \"Users/lynn/Documents/Uni/Bogazici/Blockchain/Cmpe483/contracts/MyGov.sol\":1366:1376  usedFaucet */\n      0x07\n        /* \"Users/lynn/Documents/Uni/Bogazici/Blockchain/Cmpe483/contracts/MyGov.sol\":1366:1388  usedFaucet[msg.sender] */\n      0x00\n        /* \"Users/lynn/Documents/Uni/Bogazici/Blockchain/Cmpe483/contracts/MyGov.sol\":1377:1387  msg.sender */\n      caller\n        /* \"Users/lynn/Documents/Uni/Bogazici/Blockchain/Cmpe483/contracts/MyGov.sol\":1366:1388  usedFaucet[msg.sender] */\n      0xffffffffffffffffffffffffffffffffffffffff\n      and\n      0xffffffffffffffffffffffffffffffffffffffff\n      and\n      dup2\n      mstore\n      0x20\n      add\n      swap1\n      dup2\n      mstore\n      0x20\n      add\n      0x00\n      keccak256\n      0x00\n      swap1\n      sload\n      swap1\n      0x0100\n      exp\n      swap1\n      div\n      0xff\n      and\n        /* \"Users/lynn/Documents/Uni/Bogazici/Blockchain/Cmpe483/contracts/MyGov.sol\":1365:1388  !usedFaucet[msg.sender] */\n      iszero\n        /* \"Users/lynn/Documents/Uni/Bogazici/Blockchain/Cmpe483/contracts/MyGov.sol\":1357:1433  require(!usedFaucet[msg.sender], \"You already received token from contract\") */\n      tag_139\n      jumpi\n      mload(0x40)\n      0x08c379a000000000000000000000000000000000000000000000000000000000\n      dup2\n      mstore\n      0x04\n      add\n      tag_140\n      swap1\n      tag_141\n      jump\t// in\n    tag_140:\n      mload(0x40)\n      dup1\n      swap2\n      sub\n      swap1\n      revert\n    tag_139:\n        /* \"Users/lynn/Documents/Uni/Bogazici/Blockchain/Cmpe483/contracts/MyGov.sol\":1448:1452  this */\n      address\n        /* \"Users/lynn/Documents/Uni/Bogazici/Blockchain/Cmpe483/contracts/MyGov.sol\":1448:1461  this.transfer */\n      0xffffffffffffffffffffffffffffffffffffffff\n      and\n      0xa9059cbb\n        /* \"Users/lynn/Documents/Uni/Bogazici/Blockchain/Cmpe483/contracts/MyGov.sol\":1462:1472  msg.sender */\n      caller\n        /* \"Users/lynn/Documents/Uni/Bogazici/Blockchain/Cmpe483/contracts/MyGov.sol\":1474:1476  10 */\n      0x0a\n        /* \"Users/lynn/Documents/Uni/Bogazici/Blockchain/Cmpe483/contracts/MyGov.sol\":1448:1477  this.transfer(msg.sender, 10) */\n      mload(0x40)\n      dup4\n      0xffffffff\n      and\n      0xe0\n      shl\n      dup2\n      mstore\n      0x04\n      add\n      tag_142\n      swap3\n      swap2\n      swap1\n      tag_143\n      jump\t// in\n    tag_142:\n      0x20\n      mload(0x40)\n      dup1\n      dup4\n      sub\n      dup2\n      0x00\n      dup8\n      gas\n      call\n      iszero\n      dup1\n      iszero\n      tag_145\n      jumpi\n      returndatasize\n      0x00\n      dup1\n      returndatacopy\n      revert(0x00, returndatasize)\n    tag_145:\n      pop\n      pop\n      pop\n      pop\n      mload(0x40)\n      returndatasize\n      not(0x1f)\n      0x1f\n      dup3\n      add\n      and\n      dup3\n      add\n      dup1\n      0x40\n      mstore\n      pop\n      dup2\n      add\n      swap1\n      tag_146\n      swap2\n      swap1\n      tag_132\n      jump\t// in\n    tag_146:\n      pop\n        /* \"Users/lynn/Documents/Uni/Bogazici/Blockchain/Cmpe483/contracts/MyGov.sol\":1545:1549  true */\n      0x01\n        /* \"Users/lynn/Documents/Uni/Bogazici/Blockchain/Cmpe483/contracts/MyGov.sol\":1520:1530  usedFaucet */\n      0x07\n        /* \"Users/lynn/Documents/Uni/Bogazici/Blockchain/Cmpe483/contracts/MyGov.sol\":1520:1542  usedFaucet[msg.sender] */\n      0x00\n        /* \"Users/lynn/Documents/Uni/Bogazici/Blockchain/Cmpe483/contracts/MyGov.sol\":1531:1541  msg.sender */\n      caller\n        /* \"Users/lynn/Documents/Uni/Bogazici/Blockchain/Cmpe483/contracts/MyGov.sol\":1520:1542  usedFaucet[msg.sender] */\n      0xffffffffffffffffffffffffffffffffffffffff\n      and\n      0xffffffffffffffffffffffffffffffffffffffff\n      and\n      dup2\n      mstore\n      0x20\n      add\n      swap1\n      dup2\n      mstore\n      0x20\n      add\n      0x00\n      keccak256\n      0x00\n        /* \"Users/lynn/Documents/Uni/Bogazici/Blockchain/Cmpe483/contracts/MyGov.sol\":1520:1549  usedFaucet[msg.sender] = true */\n      0x0100\n      exp\n      dup2\n      sload\n      dup2\n      0xff\n      mul\n      not\n      and\n      swap1\n      dup4\n      iszero\n      iszero\n      mul\n      or\n      swap1\n      sstore\n      pop\n        /* \"Users/lynn/Documents/Uni/Bogazici/Blockchain/Cmpe483/contracts/MyGov.sol\":1256:1563  function faucet() public {... */\n      jump\t// out\n        /* \"Users/lynn/Documents/Uni/Bogazici/Blockchain/Cmpe483/contracts/MyGov.sol\":630:770  function emptyTokenSupply() public {... */\n    tag_84:\n        /* \"Users/lynn/Documents/Uni/Bogazici/Blockchain/Cmpe483/contracts/MyGov.sol\":683:692  isTesting */\n      0x08\n      0x00\n      swap1\n      sload\n      swap1\n      0x0100\n      exp\n      swap1\n      div\n      0xff\n      and\n        /* \"Users/lynn/Documents/Uni/Bogazici/Blockchain/Cmpe483/contracts/MyGov.sol\":675:737  require(isTesting, \"Function can only be called in test mode\") */\n      tag_148\n      jumpi\n      mload(0x40)\n      0x08c379a000000000000000000000000000000000000000000000000000000000\n      dup2\n      mstore\n      0x04\n      add\n      tag_149\n      swap1\n      tag_150\n      jump\t// in\n    tag_149:\n      mload(0x40)\n      dup1\n      swap2\n      sub\n      swap1\n      revert\n    tag_148:\n        /* \"Users/lynn/Documents/Uni/Bogazici/Blockchain/Cmpe483/contracts/MyGov.sol\":762:763  0 */\n      0x00\n        /* \"Users/lynn/Documents/Uni/Bogazici/Blockchain/Cmpe483/contracts/MyGov.sol\":747:759  token_supply */\n      0x05\n        /* \"Users/lynn/Documents/Uni/Bogazici/Blockchain/Cmpe483/contracts/MyGov.sol\":747:763  token_supply = 0 */\n      dup2\n      swap1\n      sstore\n      pop\n        /* \"Users/lynn/Documents/Uni/Bogazici/Blockchain/Cmpe483/contracts/MyGov.sol\":630:770  function emptyTokenSupply() public {... */\n      jump\t// out\n        /* \"@openzeppelin/contracts/utils/Context.sol\":656:752  function _msgSender() internal view virtual returns (address) {... */\n    tag_94:\n        /* \"@openzeppelin/contracts/utils/Context.sol\":709:716  address */\n      0x00\n        /* \"@openzeppelin/contracts/utils/Context.sol\":735:745  msg.sender */\n      caller\n        /* \"@openzeppelin/contracts/utils/Context.sol\":728:745  return msg.sender */\n      swap1\n      pop\n        /* \"@openzeppelin/contracts/utils/Context.sol\":656:752  function _msgSender() internal view virtual returns (address) {... */\n      swap1\n      jump\t// out\n        /* \"@openzeppelin/contracts/token/ERC20/ERC20.sol\":8989:9117  function _approve(address owner, address spender, uint256 value) internal {... */\n    tag_96:\n        /* \"@openzeppelin/contracts/token/ERC20/ERC20.sol\":9073:9110  _approve(owner, spender, value, true) */\n      tag_153\n        /* \"@openzeppelin/contracts/token/ERC20/ERC20.sol\":9082:9087  owner */\n      dup4\n        /* \"@openzeppelin/contracts/token/ERC20/ERC20.sol\":9089:9096  spender */\n      dup4\n        /* \"@openzeppelin/contracts/token/ERC20/ERC20.sol\":9098:9103  value */\n      dup4\n        /* \"@openzeppelin/contracts/token/ERC20/ERC20.sol\":9105:9109  true */\n      0x01\n        /* \"@openzeppelin/contracts/token/ERC20/ERC20.sol\":9073:9081  _approve */\n      tag_154\n        /* \"@openzeppelin/contracts/token/ERC20/ERC20.sol\":9073:9110  _approve(owner, spender, value, true) */\n      jump\t// in\n    tag_153:\n        /* \"@openzeppelin/contracts/token/ERC20/ERC20.sol\":8989:9117  function _approve(address owner, address spender, uint256 value) internal {... */\n      pop\n      pop\n      pop\n      jump\t// out\n        /* \"@openzeppelin/contracts/token/ERC20/ERC20.sol\":10663:11140  function _spendAllowance(address owner, address spender, uint256 value) internal virtual {... */\n    tag_101:\n        /* \"@openzeppelin/contracts/token/ERC20/ERC20.sol\":10762:10786  uint256 currentAllowance */\n      0x00\n        /* \"@openzeppelin/contracts/token/ERC20/ERC20.sol\":10789:10814  allowance(owner, spender) */\n      tag_156\n        /* \"@openzeppelin/contracts/token/ERC20/ERC20.sol\":10799:10804  owner */\n      dup5\n        /* \"@openzeppelin/contracts/token/ERC20/ERC20.sol\":10806:10813  spender */\n      dup5\n        /* \"@openzeppelin/contracts/token/ERC20/ERC20.sol\":10789:10798  allowance */\n      tag_79\n        /* \"@openzeppelin/contracts/token/ERC20/ERC20.sol\":10789:10814  allowance(owner, spender) */\n      jump\t// in\n    tag_156:\n        /* \"@openzeppelin/contracts/token/ERC20/ERC20.sol\":10762:10814  uint256 currentAllowance = allowance(owner, spender) */\n      swap1\n      pop\n        /* \"@openzeppelin/contracts/token/ERC20/ERC20.sol\":10848:10865  type(uint256).max */\n      0xffffffffffffffffffffffffffffffffffffffffffffffffffffffffffffffff\n        /* \"@openzeppelin/contracts/token/ERC20/ERC20.sol\":10828:10844  currentAllowance */\n      dup2\n        /* \"@openzeppelin/contracts/token/ERC20/ERC20.sol\":10828:10865  currentAllowance != type(uint256).max */\n      eq\n        /* \"@openzeppelin/contracts/token/ERC20/ERC20.sol\":10824:11134  if (currentAllowance != type(uint256).max) {... */\n      tag_157\n      jumpi\n        /* \"@openzeppelin/contracts/token/ERC20/ERC20.sol\":10904:10909  value */\n      dup2\n        /* \"@openzeppelin/contracts/token/ERC20/ERC20.sol\":10885:10901  currentAllowance */\n      dup2\n        /* \"@openzeppelin/contracts/token/ERC20/ERC20.sol\":10885:10909  currentAllowance < value */\n      lt\n        /* \"@openzeppelin/contracts/token/ERC20/ERC20.sol\":10881:11011  if (currentAllowance < value) {... */\n      iszero\n      tag_158\n      jumpi\n        /* \"@openzeppelin/contracts/token/ERC20/ERC20.sol\":10963:10970  spender */\n      dup3\n        /* \"@openzeppelin/contracts/token/ERC20/ERC20.sol\":10972:10988  currentAllowance */\n      dup2\n        /* \"@openzeppelin/contracts/token/ERC20/ERC20.sol\":10990:10995  value */\n      dup4\n        /* \"@openzeppelin/contracts/token/ERC20/ERC20.sol\":10936:10996  ERC20InsufficientAllowance(spender, currentAllowance, value) */\n      mload(0x40)\n      0xfb8f41b200000000000000000000000000000000000000000000000000000000\n      dup2\n      mstore\n      0x04\n      add\n      tag_159\n      swap4\n      swap3\n      swap2\n      swap1\n      tag_160\n      jump\t// in\n    tag_159:\n      mload(0x40)\n      dup1\n      swap2\n      sub\n      swap1\n      revert\n        /* \"@openzeppelin/contracts/token/ERC20/ERC20.sol\":10881:11011  if (currentAllowance < value) {... */\n    tag_158:\n        /* \"@openzeppelin/contracts/token/ERC20/ERC20.sol\":11052:11109  _approve(owner, spender, currentAllowance - value, false) */\n      tag_161\n        /* \"@openzeppelin/contracts/token/ERC20/ERC20.sol\":11061:11066  owner */\n      dup5\n        /* \"@openzeppelin/contracts/token/ERC20/ERC20.sol\":11068:11075  spender */\n      dup5\n        /* \"@openzeppelin/contracts/token/ERC20/ERC20.sol\":11096:11101  value */\n      dup5\n        /* \"@openzeppelin/contracts/token/ERC20/ERC20.sol\":11077:11093  currentAllowance */\n      dup5\n        /* \"@openzeppelin/contracts/token/ERC20/ERC20.sol\":11077:11101  currentAllowance - value */\n      sub\n        /* \"@openzeppelin/contracts/token/ERC20/ERC20.sol\":11103:11108  false */\n      0x00\n        /* \"@openzeppelin/contracts/token/ERC20/ERC20.sol\":11052:11060  _approve */\n      tag_154\n        /* \"@openzeppelin/contracts/token/ERC20/ERC20.sol\":11052:11109  _approve(owner, spender, currentAllowance - value, false) */\n      jump\t// in\n    tag_161:\n        /* \"@openzeppelin/contracts/token/ERC20/ERC20.sol\":10824:11134  if (currentAllowance != type(uint256).max) {... */\n    tag_157:\n        /* \"@openzeppelin/contracts/token/ERC20/ERC20.sol\":10752:11140  {... */\n      pop\n        /* \"@openzeppelin/contracts/token/ERC20/ERC20.sol\":10663:11140  function _spendAllowance(address owner, address spender, uint256 value) internal virtual {... */\n      pop\n      pop\n      pop\n      jump\t// out\n        /* \"@openzeppelin/contracts/token/ERC20/ERC20.sol\":5656:5956  function _transfer(address from, address to, uint256 value) internal {... */\n    tag_103:\n        /* \"@openzeppelin/contracts/token/ERC20/ERC20.sol\":5755:5756  0 */\n      0x00\n        /* \"@openzeppelin/contracts/token/ERC20/ERC20.sol\":5739:5757  from == address(0) */\n      0xffffffffffffffffffffffffffffffffffffffff\n      and\n        /* \"@openzeppelin/contracts/token/ERC20/ERC20.sol\":5739:5743  from */\n      dup4\n        /* \"@openzeppelin/contracts/token/ERC20/ERC20.sol\":5739:5757  from == address(0) */\n      0xffffffffffffffffffffffffffffffffffffffff\n      and\n      sub\n        /* \"@openzeppelin/contracts/token/ERC20/ERC20.sol\":5735:5821  if (from == address(0)) {... */\n      tag_163\n      jumpi\n        /* \"@openzeppelin/contracts/token/ERC20/ERC20.sol\":5807:5808  0 */\n      0x00\n        /* \"@openzeppelin/contracts/token/ERC20/ERC20.sol\":5780:5810  ERC20InvalidSender(address(0)) */\n      mload(0x40)\n      0x96c6fd1e00000000000000000000000000000000000000000000000000000000\n      dup2\n      mstore\n      0x04\n      add\n      tag_164\n      swap2\n      swap1\n      tag_121\n      jump\t// in\n    tag_164:\n      mload(0x40)\n      dup1\n      swap2\n      sub\n      swap1\n      revert\n        /* \"@openzeppelin/contracts/token/ERC20/ERC20.sol\":5735:5821  if (from == address(0)) {... */\n    tag_163:\n        /* \"@openzeppelin/contracts/token/ERC20/ERC20.sol\":5848:5849  0 */\n      0x00\n        /* \"@openzeppelin/contracts/token/ERC20/ERC20.sol\":5834:5850  to == address(0) */\n      0xffffffffffffffffffffffffffffffffffffffff\n      and\n        /* \"@openzeppelin/contracts/token/ERC20/ERC20.sol\":5834:5836  to */\n      dup3\n        /* \"@openzeppelin/contracts/token/ERC20/ERC20.sol\":5834:5850  to == address(0) */\n      0xffffffffffffffffffffffffffffffffffffffff\n      and\n      sub\n        /* \"@openzeppelin/contracts/token/ERC20/ERC20.sol\":5830:5916  if (to == address(0)) {... */\n      tag_165\n      jumpi\n        /* \"@openzeppelin/contracts/token/ERC20/ERC20.sol\":5902:5903  0 */\n      0x00\n        /* \"@openzeppelin/contracts/token/ERC20/ERC20.sol\":5873:5905  ERC20InvalidReceiver(address(0)) */\n      mload(0x40)\n      0xec442f0500000000000000000000000000000000000000000000000000000000\n      dup2\n      mstore\n      0x04\n      add\n      tag_166\n      swap2\n      swap1\n      tag_121\n      jump\t// in\n    tag_166:\n      mload(0x40)\n      dup1\n      swap2\n      sub\n      swap1\n      revert\n        /* \"@openzeppelin/contracts/token/ERC20/ERC20.sol\":5830:5916  if (to == address(0)) {... */\n    tag_165:\n        /* \"@openzeppelin/contracts/token/ERC20/ERC20.sol\":5925:5949  _update(from, to, value) */\n      tag_167\n        /* \"@openzeppelin/contracts/token/ERC20/ERC20.sol\":5933:5937  from */\n      dup4\n        /* \"@openzeppelin/contracts/token/ERC20/ERC20.sol\":5939:5941  to */\n      dup4\n        /* \"@openzeppelin/contracts/token/ERC20/ERC20.sol\":5943:5948  value */\n      dup4\n        /* \"@openzeppelin/contracts/token/ERC20/ERC20.sol\":5925:5932  _update */\n      tag_168\n        /* \"@openzeppelin/contracts/token/ERC20/ERC20.sol\":5925:5949  _update(from, to, value) */\n      jump\t// in\n    tag_167:\n        /* \"@openzeppelin/contracts/token/ERC20/ERC20.sol\":5656:5956  function _transfer(address from, address to, uint256 value) internal {... */\n      pop\n      pop\n      pop\n      jump\t// out\n        /* \"@openzeppelin/contracts/token/ERC20/ERC20.sol\":9949:10381  function _approve(address owner, address spender, uint256 value, bool emitEvent) internal virtual {... */\n    tag_154:\n        /* \"@openzeppelin/contracts/token/ERC20/ERC20.sol\":10078:10079  0 */\n      0x00\n        /* \"@openzeppelin/contracts/token/ERC20/ERC20.sol\":10061:10080  owner == address(0) */\n      0xffffffffffffffffffffffffffffffffffffffff\n      and\n        /* \"@openzeppelin/contracts/token/ERC20/ERC20.sol\":10061:10066  owner */\n      dup5\n        /* \"@openzeppelin/contracts/token/ERC20/ERC20.sol\":10061:10080  owner == address(0) */\n      0xffffffffffffffffffffffffffffffffffffffff\n      and\n      sub\n        /* \"@openzeppelin/contracts/token/ERC20/ERC20.sol\":10057:10146  if (owner == address(0)) {... */\n      tag_170\n      jumpi\n        /* \"@openzeppelin/contracts/token/ERC20/ERC20.sol\":10132:10133  0 */\n      0x00\n        /* \"@openzeppelin/contracts/token/ERC20/ERC20.sol\":10103:10135  ERC20InvalidApprover(address(0)) */\n      mload(0x40)\n      0xe602df0500000000000000000000000000000000000000000000000000000000\n      dup2\n      mstore\n      0x04\n      add\n      tag_171\n      swap2\n      swap1\n      tag_121\n      jump\t// in\n    tag_171:\n      mload(0x40)\n      dup1\n      swap2\n      sub\n      swap1\n      revert\n        /* \"@openzeppelin/contracts/token/ERC20/ERC20.sol\":10057:10146  if (owner == address(0)) {... */\n    tag_170:\n        /* \"@openzeppelin/contracts/token/ERC20/ERC20.sol\":10178:10179  0 */\n      0x00\n        /* \"@openzeppelin/contracts/token/ERC20/ERC20.sol\":10159:10180  spender == address(0) */\n      0xffffffffffffffffffffffffffffffffffffffff\n      and\n        /* \"@openzeppelin/contracts/token/ERC20/ERC20.sol\":10159:10166  spender */\n      dup4\n        /* \"@openzeppelin/contracts/token/ERC20/ERC20.sol\":10159:10180  spender == address(0) */\n      0xffffffffffffffffffffffffffffffffffffffff\n      and\n      sub\n        /* \"@openzeppelin/contracts/token/ERC20/ERC20.sol\":10155:10245  if (spender == address(0)) {... */\n      tag_172\n      jumpi\n        /* \"@openzeppelin/contracts/token/ERC20/ERC20.sol\":10231:10232  0 */\n      0x00\n        /* \"@openzeppelin/contracts/token/ERC20/ERC20.sol\":10203:10234  ERC20InvalidSpender(address(0)) */\n      mload(0x40)\n      0x94280d6200000000000000000000000000000000000000000000000000000000\n      dup2\n      mstore\n      0x04\n      add\n      tag_173\n      swap2\n      swap1\n      tag_121\n      jump\t// in\n    tag_173:\n      mload(0x40)\n      dup1\n      swap2\n      sub\n      swap1\n      revert\n        /* \"@openzeppelin/contracts/token/ERC20/ERC20.sol\":10155:10245  if (spender == address(0)) {... */\n    tag_172:\n        /* \"@openzeppelin/contracts/token/ERC20/ERC20.sol\":10284:10289  value */\n      dup2\n        /* \"@openzeppelin/contracts/token/ERC20/ERC20.sol\":10254:10265  _allowances */\n      0x01\n        /* \"@openzeppelin/contracts/token/ERC20/ERC20.sol\":10254:10272  _allowances[owner] */\n      0x00\n        /* \"@openzeppelin/contracts/token/ERC20/ERC20.sol\":10266:10271  owner */\n      dup7\n        /* \"@openzeppelin/contracts/token/ERC20/ERC20.sol\":10254:10272  _allowances[owner] */\n      0xffffffffffffffffffffffffffffffffffffffff\n      and\n      0xffffffffffffffffffffffffffffffffffffffff\n      and\n      dup2\n      mstore\n      0x20\n      add\n      swap1\n      dup2\n      mstore\n      0x20\n      add\n      0x00\n      keccak256\n        /* \"@openzeppelin/contracts/token/ERC20/ERC20.sol\":10254:10281  _allowances[owner][spender] */\n      0x00\n        /* \"@openzeppelin/contracts/token/ERC20/ERC20.sol\":10273:10280  spender */\n      dup6\n        /* \"@openzeppelin/contracts/token/ERC20/ERC20.sol\":10254:10281  _allowances[owner][spender] */\n      0xffffffffffffffffffffffffffffffffffffffff\n      and\n      0xffffffffffffffffffffffffffffffffffffffff\n      and\n      dup2\n      mstore\n      0x20\n      add\n      swap1\n      dup2\n      mstore\n      0x20\n      add\n      0x00\n      keccak256\n        /* \"@openzeppelin/contracts/token/ERC20/ERC20.sol\":10254:10289  _allowances[owner][spender] = value */\n      dup2\n      swap1\n      sstore\n      pop\n        /* \"@openzeppelin/contracts/token/ERC20/ERC20.sol\":10303:10312  emitEvent */\n      dup1\n        /* \"@openzeppelin/contracts/token/ERC20/ERC20.sol\":10299:10375  if (emitEvent) {... */\n      iszero\n      tag_174\n      jumpi\n        /* \"@openzeppelin/contracts/token/ERC20/ERC20.sol\":10349:10356  spender */\n      dup3\n        /* \"@openzeppelin/contracts/token/ERC20/ERC20.sol\":10333:10364  Approval(owner, spender, value) */\n      0xffffffffffffffffffffffffffffffffffffffff\n      and\n        /* \"@openzeppelin/contracts/token/ERC20/ERC20.sol\":10342:10347  owner */\n      dup5\n        /* \"@openzeppelin/contracts/token/ERC20/ERC20.sol\":10333:10364  Approval(owner, spender, value) */\n      0xffffffffffffffffffffffffffffffffffffffff\n      and\n      0x8c5be1e5ebec7d5bd14f71427d1e84f3dd0314c0f7b2291e5b200ac8c7c3b925\n        /* \"@openzeppelin/contracts/token/ERC20/ERC20.sol\":10358:10363  value */\n      dup5\n        /* \"@openzeppelin/contracts/token/ERC20/ERC20.sol\":10333:10364  Approval(owner, spender, value) */\n      mload(0x40)\n      tag_175\n      swap2\n      swap1\n      tag_35\n      jump\t// in\n    tag_175:\n      mload(0x40)\n      dup1\n      swap2\n      sub\n      swap1\n      log3\n        /* \"@openzeppelin/contracts/token/ERC20/ERC20.sol\":10299:10375  if (emitEvent) {... */\n    tag_174:\n        /* \"@openzeppelin/contracts/token/ERC20/ERC20.sol\":9949:10381  function _approve(address owner, address spender, uint256 value, bool emitEvent) internal virtual {... */\n      pop\n      pop\n      pop\n      pop\n      jump\t// out\n        /* \"@openzeppelin/contracts/token/ERC20/ERC20.sol\":6271:7378  function _update(address from, address to, uint256 value) internal virtual {... */\n    tag_168:\n        /* \"@openzeppelin/contracts/token/ERC20/ERC20.sol\":6376:6377  0 */\n      0x00\n        /* \"@openzeppelin/contracts/token/ERC20/ERC20.sol\":6360:6378  from == address(0) */\n      0xffffffffffffffffffffffffffffffffffffffff\n      and\n        /* \"@openzeppelin/contracts/token/ERC20/ERC20.sol\":6360:6364  from */\n      dup4\n        /* \"@openzeppelin/contracts/token/ERC20/ERC20.sol\":6360:6378  from == address(0) */\n      0xffffffffffffffffffffffffffffffffffffffff\n      and\n      sub\n        /* \"@openzeppelin/contracts/token/ERC20/ERC20.sol\":6356:6896  if (from == address(0)) {... */\n      tag_177\n      jumpi\n        /* \"@openzeppelin/contracts/token/ERC20/ERC20.sol\":6512:6517  value */\n      dup1\n        /* \"@openzeppelin/contracts/token/ERC20/ERC20.sol\":6496:6508  _totalSupply */\n      0x02\n      0x00\n        /* \"@openzeppelin/contracts/token/ERC20/ERC20.sol\":6496:6517  _totalSupply += value */\n      dup3\n      dup3\n      sload\n      tag_178\n      swap2\n      swap1\n      tag_179\n      jump\t// in\n    tag_178:\n      swap3\n      pop\n      pop\n      dup2\n      swap1\n      sstore\n      pop\n        /* \"@openzeppelin/contracts/token/ERC20/ERC20.sol\":6356:6896  if (from == address(0)) {... */\n      jump(tag_180)\n    tag_177:\n        /* \"@openzeppelin/contracts/token/ERC20/ERC20.sol\":6548:6567  uint256 fromBalance */\n      0x00\n        /* \"@openzeppelin/contracts/token/ERC20/ERC20.sol\":6570:6579  _balances */\n      dup1\n        /* \"@openzeppelin/contracts/token/ERC20/ERC20.sol\":6570:6585  _balances[from] */\n      0x00\n        /* \"@openzeppelin/contracts/token/ERC20/ERC20.sol\":6580:6584  from */\n      dup6\n        /* \"@openzeppelin/contracts/token/ERC20/ERC20.sol\":6570:6585  _balances[from] */\n      0xffffffffffffffffffffffffffffffffffffffff\n      and\n      0xffffffffffffffffffffffffffffffffffffffff\n      and\n      dup2\n      mstore\n      0x20\n      add\n      swap1\n      dup2\n      mstore\n      0x20\n      add\n      0x00\n      keccak256\n      sload\n        /* \"@openzeppelin/contracts/token/ERC20/ERC20.sol\":6548:6585  uint256 fromBalance = _balances[from] */\n      swap1\n      pop\n        /* \"@openzeppelin/contracts/token/ERC20/ERC20.sol\":6617:6622  value */\n      dup2\n        /* \"@openzeppelin/contracts/token/ERC20/ERC20.sol\":6603:6614  fromBalance */\n      dup2\n        /* \"@openzeppelin/contracts/token/ERC20/ERC20.sol\":6603:6622  fromBalance < value */\n      lt\n        /* \"@openzeppelin/contracts/token/ERC20/ERC20.sol\":6599:6714  if (fromBalance < value) {... */\n      iszero\n      tag_181\n      jumpi\n        /* \"@openzeppelin/contracts/token/ERC20/ERC20.sol\":6674:6678  from */\n      dup4\n        /* \"@openzeppelin/contracts/token/ERC20/ERC20.sol\":6680:6691  fromBalance */\n      dup2\n        /* \"@openzeppelin/contracts/token/ERC20/ERC20.sol\":6693:6698  value */\n      dup4\n        /* \"@openzeppelin/contracts/token/ERC20/ERC20.sol\":6649:6699  ERC20InsufficientBalance(from, fromBalance, value) */\n      mload(0x40)\n      0xe450d38c00000000000000000000000000000000000000000000000000000000\n      dup2\n      mstore\n      0x04\n      add\n      tag_182\n      swap4\n      swap3\n      swap2\n      swap1\n      tag_160\n      jump\t// in\n    tag_182:\n      mload(0x40)\n      dup1\n      swap2\n      sub\n      swap1\n      revert\n        /* \"@openzeppelin/contracts/token/ERC20/ERC20.sol\":6599:6714  if (fromBalance < value) {... */\n    tag_181:\n        /* \"@openzeppelin/contracts/token/ERC20/ERC20.sol\":6866:6871  value */\n      dup2\n        /* \"@openzeppelin/contracts/token/ERC20/ERC20.sol\":6852:6863  fromBalance */\n      dup2\n        /* \"@openzeppelin/contracts/token/ERC20/ERC20.sol\":6852:6871  fromBalance - value */\n      sub\n        /* \"@openzeppelin/contracts/token/ERC20/ERC20.sol\":6834:6843  _balances */\n      0x00\n        /* \"@openzeppelin/contracts/token/ERC20/ERC20.sol\":6834:6849  _balances[from] */\n      dup1\n        /* \"@openzeppelin/contracts/token/ERC20/ERC20.sol\":6844:6848  from */\n      dup7\n        /* \"@openzeppelin/contracts/token/ERC20/ERC20.sol\":6834:6849  _balances[from] */\n      0xffffffffffffffffffffffffffffffffffffffff\n      and\n      0xffffffffffffffffffffffffffffffffffffffff\n      and\n      dup2\n      mstore\n      0x20\n      add\n      swap1\n      dup2\n      mstore\n      0x20\n      add\n      0x00\n      keccak256\n        /* \"@openzeppelin/contracts/token/ERC20/ERC20.sol\":6834:6871  _balances[from] = fromBalance - value */\n      dup2\n      swap1\n      sstore\n      pop\n        /* \"@openzeppelin/contracts/token/ERC20/ERC20.sol\":6534:6896  {... */\n      pop\n        /* \"@openzeppelin/contracts/token/ERC20/ERC20.sol\":6356:6896  if (from == address(0)) {... */\n    tag_180:\n        /* \"@openzeppelin/contracts/token/ERC20/ERC20.sol\":6924:6925  0 */\n      0x00\n        /* \"@openzeppelin/contracts/token/ERC20/ERC20.sol\":6910:6926  to == address(0) */\n      0xffffffffffffffffffffffffffffffffffffffff\n      and\n        /* \"@openzeppelin/contracts/token/ERC20/ERC20.sol\":6910:6912  to */\n      dup3\n        /* \"@openzeppelin/contracts/token/ERC20/ERC20.sol\":6910:6926  to == address(0) */\n      0xffffffffffffffffffffffffffffffffffffffff\n      and\n      sub\n        /* \"@openzeppelin/contracts/token/ERC20/ERC20.sol\":6906:7331  if (to == address(0)) {... */\n      tag_183\n      jumpi\n        /* \"@openzeppelin/contracts/token/ERC20/ERC20.sol\":7089:7094  value */\n      dup1\n        /* \"@openzeppelin/contracts/token/ERC20/ERC20.sol\":7073:7085  _totalSupply */\n      0x02\n      0x00\n        /* \"@openzeppelin/contracts/token/ERC20/ERC20.sol\":7073:7094  _totalSupply -= value */\n      dup3\n      dup3\n      sload\n      sub\n      swap3\n      pop\n      pop\n      dup2\n      swap1\n      sstore\n      pop\n        /* \"@openzeppelin/contracts/token/ERC20/ERC20.sol\":6906:7331  if (to == address(0)) {... */\n      jump(tag_184)\n    tag_183:\n        /* \"@openzeppelin/contracts/token/ERC20/ERC20.sol\":7301:7306  value */\n      dup1\n        /* \"@openzeppelin/contracts/token/ERC20/ERC20.sol\":7284:7293  _balances */\n      0x00\n        /* \"@openzeppelin/contracts/token/ERC20/ERC20.sol\":7284:7297  _balances[to] */\n      dup1\n        /* \"@openzeppelin/contracts/token/ERC20/ERC20.sol\":7294:7296  to */\n      dup5\n        /* \"@openzeppelin/contracts/token/ERC20/ERC20.sol\":7284:7297  _balances[to] */\n      0xffffffffffffffffffffffffffffffffffffffff\n      and\n      0xffffffffffffffffffffffffffffffffffffffff\n      and\n      dup2\n      mstore\n      0x20\n      add\n      swap1\n      dup2\n      mstore\n      0x20\n      add\n      0x00\n      keccak256\n      0x00\n        /* \"@openzeppelin/contracts/token/ERC20/ERC20.sol\":7284:7306  _balances[to] += value */\n      dup3\n      dup3\n      sload\n      add\n      swap3\n      pop\n      pop\n      dup2\n      swap1\n      sstore\n      pop\n        /* \"@openzeppelin/contracts/token/ERC20/ERC20.sol\":6906:7331  if (to == address(0)) {... */\n    tag_184:\n        /* \"@openzeppelin/contracts/token/ERC20/ERC20.sol\":7361:7363  to */\n      dup2\n        /* \"@openzeppelin/contracts/token/ERC20/ERC20.sol\":7346:7371  Transfer(from, to, value) */\n      0xffffffffffffffffffffffffffffffffffffffff\n      and\n        /* \"@openzeppelin/contracts/token/ERC20/ERC20.sol\":7355:7359  from */\n      dup4\n        /* \"@openzeppelin/contracts/token/ERC20/ERC20.sol\":7346:7371  Transfer(from, to, value) */\n      0xffffffffffffffffffffffffffffffffffffffff\n      and\n      0xddf252ad1be2c89b69c2b068fc378daa952ba7f163c4a11628f55a4df523b3ef\n        /* \"@openzeppelin/contracts/token/ERC20/ERC20.sol\":7365:7370  value */\n      dup4\n        /* \"@openzeppelin/contracts/token/ERC20/ERC20.sol\":7346:7371  Transfer(from, to, value) */\n      mload(0x40)\n      tag_185\n      swap2\n      swap1\n      tag_35\n      jump\t// in\n    tag_185:\n      mload(0x40)\n      dup1\n      swap2\n      sub\n      swap1\n      log3\n        /* \"@openzeppelin/contracts/token/ERC20/ERC20.sol\":6271:7378  function _update(address from, address to, uint256 value) internal virtual {... */\n      pop\n      pop\n      pop\n      jump\t// out\n        /* \"#utility.yul\":7:106   */\n    tag_186:\n        /* \"#utility.yul\":59:65   */\n      0x00\n        /* \"#utility.yul\":93:98   */\n      dup2\n        /* \"#utility.yul\":87:99   */\n      mload\n        /* \"#utility.yul\":77:99   */\n      swap1\n      pop\n        /* \"#utility.yul\":7:106   */\n      swap2\n      swap1\n      pop\n      jump\t// out\n        /* \"#utility.yul\":112:281   */\n    tag_187:\n        /* \"#utility.yul\":196:207   */\n      0x00\n        /* \"#utility.yul\":230:236   */\n      dup3\n        /* \"#utility.yul\":225:228   */\n      dup3\n        /* \"#utility.yul\":218:237   */\n      mstore\n        /* \"#utility.yul\":270:274   */\n      0x20\n        /* \"#utility.yul\":265:268   */\n      dup3\n        /* \"#utility.yul\":261:275   */\n      add\n        /* \"#utility.yul\":246:275   */\n      swap1\n      pop\n        /* \"#utility.yul\":112:281   */\n      swap3\n      swap2\n      pop\n      pop\n      jump\t// out\n        /* \"#utility.yul\":287:533   */\n    tag_188:\n        /* \"#utility.yul\":368:369   */\n      0x00\n        /* \"#utility.yul\":378:491   */\n    tag_230:\n        /* \"#utility.yul\":392:398   */\n      dup4\n        /* \"#utility.yul\":389:390   */\n      dup2\n        /* \"#utility.yul\":386:399   */\n      lt\n        /* \"#utility.yul\":378:491   */\n      iszero\n      tag_232\n      jumpi\n        /* \"#utility.yul\":477:478   */\n      dup1\n        /* \"#utility.yul\":472:475   */\n      dup3\n        /* \"#utility.yul\":468:479   */\n      add\n        /* \"#utility.yul\":462:480   */\n      mload\n        /* \"#utility.yul\":458:459   */\n      dup2\n        /* \"#utility.yul\":453:456   */\n      dup5\n        /* \"#utility.yul\":449:460   */\n      add\n        /* \"#utility.yul\":442:481   */\n      mstore\n        /* \"#utility.yul\":414:416   */\n      0x20\n        /* \"#utility.yul\":411:412   */\n      dup2\n        /* \"#utility.yul\":407:417   */\n      add\n        /* \"#utility.yul\":402:417   */\n      swap1\n      pop\n        /* \"#utility.yul\":378:491   */\n      jump(tag_230)\n    tag_232:\n        /* \"#utility.yul\":525:526   */\n      0x00\n        /* \"#utility.yul\":516:522   */\n      dup5\n        /* \"#utility.yul\":511:514   */\n      dup5\n        /* \"#utility.yul\":507:523   */\n      add\n        /* \"#utility.yul\":500:527   */\n      mstore\n        /* \"#utility.yul\":349:533   */\n      pop\n        /* \"#utility.yul\":287:533   */\n      pop\n      pop\n      pop\n      jump\t// out\n        /* \"#utility.yul\":539:641   */\n    tag_189:\n        /* \"#utility.yul\":580:586   */\n      0x00\n        /* \"#utility.yul\":631:633   */\n      0x1f\n        /* \"#utility.yul\":627:634   */\n      not\n        /* \"#utility.yul\":622:624   */\n      0x1f\n        /* \"#utility.yul\":615:620   */\n      dup4\n        /* \"#utility.yul\":611:625   */\n      add\n        /* \"#utility.yul\":607:635   */\n      and\n        /* \"#utility.yul\":597:635   */\n      swap1\n      pop\n        /* \"#utility.yul\":539:641   */\n      swap2\n      swap1\n      pop\n      jump\t// out\n        /* \"#utility.yul\":647:1024   */\n    tag_190:\n        /* \"#utility.yul\":735:738   */\n      0x00\n        /* \"#utility.yul\":763:802   */\n      tag_235\n        /* \"#utility.yul\":796:801   */\n      dup3\n        /* \"#utility.yul\":763:802   */\n      tag_186\n      jump\t// in\n    tag_235:\n        /* \"#utility.yul\":818:889   */\n      tag_236\n        /* \"#utility.yul\":882:888   */\n      dup2\n        /* \"#utility.yul\":877:880   */\n      dup6\n        /* \"#utility.yul\":818:889   */\n      tag_187\n      jump\t// in\n    tag_236:\n        /* \"#utility.yul\":811:889   */\n      swap4\n      pop\n        /* \"#utility.yul\":898:963   */\n      tag_237\n        /* \"#utility.yul\":956:962   */\n      dup2\n        /* \"#utility.yul\":951:954   */\n      dup6\n        /* \"#utility.yul\":944:948   */\n      0x20\n        /* \"#utility.yul\":937:942   */\n      dup7\n        /* \"#utility.yul\":933:949   */\n      add\n        /* \"#utility.yul\":898:963   */\n      tag_188\n      jump\t// in\n    tag_237:\n        /* \"#utility.yul\":988:1017   */\n      tag_238\n        /* \"#utility.yul\":1010:1016   */\n      dup2\n        /* \"#utility.yul\":988:1017   */\n      tag_189\n      jump\t// in\n    tag_238:\n        /* \"#utility.yul\":983:986   */\n      dup5\n        /* \"#utility.yul\":979:1018   */\n      add\n        /* \"#utility.yul\":972:1018   */\n      swap2\n      pop\n        /* \"#utility.yul\":739:1024   */\n      pop\n        /* \"#utility.yul\":647:1024   */\n      swap3\n      swap2\n      pop\n      pop\n      jump\t// out\n        /* \"#utility.yul\":1030:1343   */\n    tag_25:\n        /* \"#utility.yul\":1143:1147   */\n      0x00\n        /* \"#utility.yul\":1181:1183   */\n      0x20\n        /* \"#utility.yul\":1170:1179   */\n      dup3\n        /* \"#utility.yul\":1166:1184   */\n      add\n        /* \"#utility.yul\":1158:1184   */\n      swap1\n      pop\n        /* \"#utility.yul\":1230:1239   */\n      dup2\n        /* \"#utility.yul\":1224:1228   */\n      dup2\n        /* \"#utility.yul\":1220:1240   */\n      sub\n        /* \"#utility.yul\":1216:1217   */\n      0x00\n        /* \"#utility.yul\":1205:1214   */\n      dup4\n        /* \"#utility.yul\":1201:1218   */\n      add\n        /* \"#utility.yul\":1194:1241   */\n      mstore\n        /* \"#utility.yul\":1258:1336   */\n      tag_240\n        /* \"#utility.yul\":1331:1335   */\n      dup2\n        /* \"#utility.yul\":1322:1328   */\n      dup5\n        /* \"#utility.yul\":1258:1336   */\n      tag_190\n      jump\t// in\n    tag_240:\n        /* \"#utility.yul\":1250:1336   */\n      swap1\n      pop\n        /* \"#utility.yul\":1030:1343   */\n      swap3\n      swap2\n      pop\n      pop\n      jump\t// out\n        /* \"#utility.yul\":1430:1547   */\n    tag_192:\n        /* \"#utility.yul\":1539:1540   */\n      0x00\n        /* \"#utility.yul\":1536:1537   */\n      dup1\n        /* \"#utility.yul\":1529:1541   */\n      revert\n        /* \"#utility.yul\":1676:1802   */\n    tag_194:\n        /* \"#utility.yul\":1713:1720   */\n      0x00\n        /* \"#utility.yul\":1753:1795   */\n      0xffffffffffffffffffffffffffffffffffffffff\n        /* \"#utility.yul\":1746:1751   */\n      dup3\n        /* \"#utility.yul\":1742:1796   */\n      and\n        /* \"#utility.yul\":1731:1796   */\n      swap1\n      pop\n        /* \"#utility.yul\":1676:1802   */\n      swap2\n      swap1\n      pop\n      jump\t// out\n        /* \"#utility.yul\":1808:1904   */\n    tag_195:\n        /* \"#utility.yul\":1845:1852   */\n      0x00\n        /* \"#utility.yul\":1874:1898   */\n      tag_246\n        /* \"#utility.yul\":1892:1897   */\n      dup3\n        /* \"#utility.yul\":1874:1898   */\n      tag_194\n      jump\t// in\n    tag_246:\n        /* \"#utility.yul\":1863:1898   */\n      swap1\n      pop\n        /* \"#utility.yul\":1808:1904   */\n      swap2\n      swap1\n      pop\n      jump\t// out\n        /* \"#utility.yul\":1910:2032   */\n    tag_196:\n        /* \"#utility.yul\":1983:2007   */\n      tag_248\n        /* \"#utility.yul\":2001:2006   */\n      dup2\n        /* \"#utility.yul\":1983:2007   */\n      tag_195\n      jump\t// in\n    tag_248:\n        /* \"#utility.yul\":1976:1981   */\n      dup2\n        /* \"#utility.yul\":1973:2008   */\n      eq\n        /* \"#utility.yul\":1963:2026   */\n      tag_249\n      jumpi\n        /* \"#utility.yul\":2022:2023   */\n      0x00\n        /* \"#utility.yul\":2019:2020   */\n      dup1\n        /* \"#utility.yul\":2012:2024   */\n      revert\n        /* \"#utility.yul\":1963:2026   */\n    tag_249:\n        /* \"#utility.yul\":1910:2032   */\n      pop\n      jump\t// out\n        /* \"#utility.yul\":2038:2177   */\n    tag_197:\n        /* \"#utility.yul\":2084:2089   */\n      0x00\n        /* \"#utility.yul\":2122:2128   */\n      dup2\n        /* \"#utility.yul\":2109:2129   */\n      calldataload\n        /* \"#utility.yul\":2100:2129   */\n      swap1\n      pop\n        /* \"#utility.yul\":2138:2171   */\n      tag_251\n        /* \"#utility.yul\":2165:2170   */\n      dup2\n        /* \"#utility.yul\":2138:2171   */\n      tag_196\n      jump\t// in\n    tag_251:\n        /* \"#utility.yul\":2038:2177   */\n      swap3\n      swap2\n      pop\n      pop\n      jump\t// out\n        /* \"#utility.yul\":2183:2260   */\n    tag_198:\n        /* \"#utility.yul\":2220:2227   */\n      0x00\n        /* \"#utility.yul\":2249:2254   */\n      dup2\n        /* \"#utility.yul\":2238:2254   */\n      swap1\n      pop\n        /* \"#utility.yul\":2183:2260   */\n      swap2\n      swap1\n      pop\n      jump\t// out\n        /* \"#utility.yul\":2266:2388   */\n    tag_199:\n        /* \"#utility.yul\":2339:2363   */\n      tag_254\n        /* \"#utility.yul\":2357:2362   */\n      dup2\n        /* \"#utility.yul\":2339:2363   */\n      tag_198\n      jump\t// in\n    tag_254:\n        /* \"#utility.yul\":2332:2337   */\n      dup2\n        /* \"#utility.yul\":2329:2364   */\n      eq\n        /* \"#utility.yul\":2319:2382   */\n      tag_255\n      jumpi\n        /* \"#utility.yul\":2378:2379   */\n      0x00\n        /* \"#utility.yul\":2375:2376   */\n      dup1\n        /* \"#utility.yul\":2368:2380   */\n      revert\n        /* \"#utility.yul\":2319:2382   */\n    tag_255:\n        /* \"#utility.yul\":2266:2388   */\n      pop\n      jump\t// out\n        /* \"#utility.yul\":2394:2533   */\n    tag_200:\n        /* \"#utility.yul\":2440:2445   */\n      0x00\n        /* \"#utility.yul\":2478:2484   */\n      dup2\n        /* \"#utility.yul\":2465:2485   */\n      calldataload\n        /* \"#utility.yul\":2456:2485   */\n      swap1\n      pop\n        /* \"#utility.yul\":2494:2527   */\n      tag_257\n        /* \"#utility.yul\":2521:2526   */\n      dup2\n        /* \"#utility.yul\":2494:2527   */\n      tag_199\n      jump\t// in\n    tag_257:\n        /* \"#utility.yul\":2394:2533   */\n      swap3\n      swap2\n      pop\n      pop\n      jump\t// out\n        /* \"#utility.yul\":2539:3013   */\n    tag_28:\n        /* \"#utility.yul\":2607:2613   */\n      0x00\n        /* \"#utility.yul\":2615:2621   */\n      dup1\n        /* \"#utility.yul\":2664:2666   */\n      0x40\n        /* \"#utility.yul\":2652:2661   */\n      dup4\n        /* \"#utility.yul\":2643:2650   */\n      dup6\n        /* \"#utility.yul\":2639:2662   */\n      sub\n        /* \"#utility.yul\":2635:2667   */\n      slt\n        /* \"#utility.yul\":2632:2751   */\n      iszero\n      tag_259\n      jumpi\n        /* \"#utility.yul\":2670:2749   */\n      tag_260\n      tag_192\n      jump\t// in\n    tag_260:\n        /* \"#utility.yul\":2632:2751   */\n    tag_259:\n        /* \"#utility.yul\":2790:2791   */\n      0x00\n        /* \"#utility.yul\":2815:2868   */\n      tag_261\n        /* \"#utility.yul\":2860:2867   */\n      dup6\n        /* \"#utility.yul\":2851:2857   */\n      dup3\n        /* \"#utility.yul\":2840:2849   */\n      dup7\n        /* \"#utility.yul\":2836:2858   */\n      add\n        /* \"#utility.yul\":2815:2868   */\n      tag_197\n      jump\t// in\n    tag_261:\n        /* \"#utility.yul\":2805:2868   */\n      swap3\n      pop\n        /* \"#utility.yul\":2761:2878   */\n      pop\n        /* \"#utility.yul\":2917:2919   */\n      0x20\n        /* \"#utility.yul\":2943:2996   */\n      tag_262\n        /* \"#utility.yul\":2988:2995   */\n      dup6\n        /* \"#utility.yul\":2979:2985   */\n      dup3\n        /* \"#utility.yul\":2968:2977   */\n      dup7\n        /* \"#utility.yul\":2964:2986   */\n      add\n        /* \"#utility.yul\":2943:2996   */\n      tag_200\n      jump\t// in\n    tag_262:\n        /* \"#utility.yul\":2933:2996   */\n      swap2\n      pop\n        /* \"#utility.yul\":2888:3006   */\n      pop\n        /* \"#utility.yul\":2539:3013   */\n      swap3\n      pop\n      swap3\n      swap1\n      pop\n      jump\t// out\n        /* \"#utility.yul\":3019:3109   */\n    tag_201:\n        /* \"#utility.yul\":3053:3060   */\n      0x00\n        /* \"#utility.yul\":3096:3101   */\n      dup2\n        /* \"#utility.yul\":3089:3102   */\n      iszero\n        /* \"#utility.yul\":3082:3103   */\n      iszero\n        /* \"#utility.yul\":3071:3103   */\n      swap1\n      pop\n        /* \"#utility.yul\":3019:3109   */\n      swap2\n      swap1\n      pop\n      jump\t// out\n        /* \"#utility.yul\":3115:3224   */\n    tag_202:\n        /* \"#utility.yul\":3196:3217   */\n      tag_265\n        /* \"#utility.yul\":3211:3216   */\n      dup2\n        /* \"#utility.yul\":3196:3217   */\n      tag_201\n      jump\t// in\n    tag_265:\n        /* \"#utility.yul\":3191:3194   */\n      dup3\n        /* \"#utility.yul\":3184:3218   */\n      mstore\n        /* \"#utility.yul\":3115:3224   */\n      pop\n      pop\n      jump\t// out\n        /* \"#utility.yul\":3230:3440   */\n    tag_31:\n        /* \"#utility.yul\":3317:3321   */\n      0x00\n        /* \"#utility.yul\":3355:3357   */\n      0x20\n        /* \"#utility.yul\":3344:3353   */\n      dup3\n        /* \"#utility.yul\":3340:3358   */\n      add\n        /* \"#utility.yul\":3332:3358   */\n      swap1\n      pop\n        /* \"#utility.yul\":3368:3433   */\n      tag_267\n        /* \"#utility.yul\":3430:3431   */\n      0x00\n        /* \"#utility.yul\":3419:3428   */\n      dup4\n        /* \"#utility.yul\":3415:3432   */\n      add\n        /* \"#utility.yul\":3406:3412   */\n      dup5\n        /* \"#utility.yul\":3368:3433   */\n      tag_202\n      jump\t// in\n    tag_267:\n        /* \"#utility.yul\":3230:3440   */\n      swap3\n      swap2\n      pop\n      pop\n      jump\t// out\n        /* \"#utility.yul\":3446:3564   */\n    tag_203:\n        /* \"#utility.yul\":3533:3557   */\n      tag_269\n        /* \"#utility.yul\":3551:3556   */\n      dup2\n        /* \"#utility.yul\":3533:3557   */\n      tag_198\n      jump\t// in\n    tag_269:\n        /* \"#utility.yul\":3528:3531   */\n      dup3\n        /* \"#utility.yul\":3521:3558   */\n      mstore\n        /* \"#utility.yul\":3446:3564   */\n      pop\n      pop\n      jump\t// out\n        /* \"#utility.yul\":3570:3792   */\n    tag_35:\n        /* \"#utility.yul\":3663:3667   */\n      0x00\n        /* \"#utility.yul\":3701:3703   */\n      0x20\n        /* \"#utility.yul\":3690:3699   */\n      dup3\n        /* \"#utility.yul\":3686:3704   */\n      add\n        /* \"#utility.yul\":3678:3704   */\n      swap1\n      pop\n        /* \"#utility.yul\":3714:3785   */\n      tag_271\n        /* \"#utility.yul\":3782:3783   */\n      0x00\n        /* \"#utility.yul\":3771:3780   */\n      dup4\n        /* \"#utility.yul\":3767:3784   */\n      add\n        /* \"#utility.yul\":3758:3764   */\n      dup5\n        /* \"#utility.yul\":3714:3785   */\n      tag_203\n      jump\t// in\n    tag_271:\n        /* \"#utility.yul\":3570:3792   */\n      swap3\n      swap2\n      pop\n      pop\n      jump\t// out\n        /* \"#utility.yul\":3798:4417   */\n    tag_38:\n        /* \"#utility.yul\":3875:3881   */\n      0x00\n        /* \"#utility.yul\":3883:3889   */\n      dup1\n        /* \"#utility.yul\":3891:3897   */\n      0x00\n        /* \"#utility.yul\":3940:3942   */\n      0x60\n        /* \"#utility.yul\":3928:3937   */\n      dup5\n        /* \"#utility.yul\":3919:3926   */\n      dup7\n        /* \"#utility.yul\":3915:3938   */\n      sub\n        /* \"#utility.yul\":3911:3943   */\n      slt\n        /* \"#utility.yul\":3908:4027   */\n      iszero\n      tag_273\n      jumpi\n        /* \"#utility.yul\":3946:4025   */\n      tag_274\n      tag_192\n      jump\t// in\n    tag_274:\n        /* \"#utility.yul\":3908:4027   */\n    tag_273:\n        /* \"#utility.yul\":4066:4067   */\n      0x00\n        /* \"#utility.yul\":4091:4144   */\n      tag_275\n        /* \"#utility.yul\":4136:4143   */\n      dup7\n        /* \"#utility.yul\":4127:4133   */\n      dup3\n        /* \"#utility.yul\":4116:4125   */\n      dup8\n        /* \"#utility.yul\":4112:4134   */\n      add\n        /* \"#utility.yul\":4091:4144   */\n      tag_197\n      jump\t// in\n    tag_275:\n        /* \"#utility.yul\":4081:4144   */\n      swap4\n      pop\n        /* \"#utility.yul\":4037:4154   */\n      pop\n        /* \"#utility.yul\":4193:4195   */\n      0x20\n        /* \"#utility.yul\":4219:4272   */\n      tag_276\n        /* \"#utility.yul\":4264:4271   */\n      dup7\n        /* \"#utility.yul\":4255:4261   */\n      dup3\n        /* \"#utility.yul\":4244:4253   */\n      dup8\n        /* \"#utility.yul\":4240:4262   */\n      add\n        /* \"#utility.yul\":4219:4272   */\n      tag_197\n      jump\t// in\n    tag_276:\n        /* \"#utility.yul\":4209:4272   */\n      swap3\n      pop\n        /* \"#utility.yul\":4164:4282   */\n      pop\n        /* \"#utility.yul\":4321:4323   */\n      0x40\n        /* \"#utility.yul\":4347:4400   */\n      tag_277\n        /* \"#utility.yul\":4392:4399   */\n      dup7\n        /* \"#utility.yul\":4383:4389   */\n      dup3\n        /* \"#utility.yul\":4372:4381   */\n      dup8\n        /* \"#utility.yul\":4368:4390   */\n      add\n        /* \"#utility.yul\":4347:4400   */\n      tag_200\n      jump\t// in\n    tag_277:\n        /* \"#utility.yul\":4337:4400   */\n      swap2\n      pop\n        /* \"#utility.yul\":4292:4410   */\n      pop\n        /* \"#utility.yul\":3798:4417   */\n      swap3\n      pop\n      swap3\n      pop\n      swap3\n      jump\t// out\n        /* \"#utility.yul\":4423:4509   */\n    tag_204:\n        /* \"#utility.yul\":4458:4465   */\n      0x00\n        /* \"#utility.yul\":4498:4502   */\n      0xff\n        /* \"#utility.yul\":4491:4496   */\n      dup3\n        /* \"#utility.yul\":4487:4503   */\n      and\n        /* \"#utility.yul\":4476:4503   */\n      swap1\n      pop\n        /* \"#utility.yul\":4423:4509   */\n      swap2\n      swap1\n      pop\n      jump\t// out\n        /* \"#utility.yul\":4515:4627   */\n    tag_205:\n        /* \"#utility.yul\":4598:4620   */\n      tag_280\n        /* \"#utility.yul\":4614:4619   */\n      dup2\n        /* \"#utility.yul\":4598:4620   */\n      tag_204\n      jump\t// in\n    tag_280:\n        /* \"#utility.yul\":4593:4596   */\n      dup3\n        /* \"#utility.yul\":4586:4621   */\n      mstore\n        /* \"#utility.yul\":4515:4627   */\n      pop\n      pop\n      jump\t// out\n        /* \"#utility.yul\":4633:4847   */\n    tag_44:\n        /* \"#utility.yul\":4722:4726   */\n      0x00\n        /* \"#utility.yul\":4760:4762   */\n      0x20\n        /* \"#utility.yul\":4749:4758   */\n      dup3\n        /* \"#utility.yul\":4745:4763   */\n      add\n        /* \"#utility.yul\":4737:4763   */\n      swap1\n      pop\n        /* \"#utility.yul\":4773:4840   */\n      tag_282\n        /* \"#utility.yul\":4837:4838   */\n      0x00\n        /* \"#utility.yul\":4826:4835   */\n      dup4\n        /* \"#utility.yul\":4822:4839   */\n      add\n        /* \"#utility.yul\":4813:4819   */\n      dup5\n        /* \"#utility.yul\":4773:4840   */\n      tag_205\n      jump\t// in\n    tag_282:\n        /* \"#utility.yul\":4633:4847   */\n      swap3\n      swap2\n      pop\n      pop\n      jump\t// out\n        /* \"#utility.yul\":4853:4913   */\n    tag_206:\n        /* \"#utility.yul\":4881:4884   */\n      0x00\n        /* \"#utility.yul\":4902:4907   */\n      dup2\n        /* \"#utility.yul\":4895:4907   */\n      swap1\n      pop\n        /* \"#utility.yul\":4853:4913   */\n      swap2\n      swap1\n      pop\n      jump\t// out\n        /* \"#utility.yul\":4919:5061   */\n    tag_207:\n        /* \"#utility.yul\":4969:4978   */\n      0x00\n        /* \"#utility.yul\":5002:5055   */\n      tag_285\n        /* \"#utility.yul\":5020:5054   */\n      tag_286\n        /* \"#utility.yul\":5029:5053   */\n      tag_287\n        /* \"#utility.yul\":5047:5052   */\n      dup5\n        /* \"#utility.yul\":5029:5053   */\n      tag_194\n      jump\t// in\n    tag_287:\n        /* \"#utility.yul\":5020:5054   */\n      tag_206\n      jump\t// in\n    tag_286:\n        /* \"#utility.yul\":5002:5055   */\n      tag_194\n      jump\t// in\n    tag_285:\n        /* \"#utility.yul\":4989:5055   */\n      swap1\n      pop\n        /* \"#utility.yul\":4919:5061   */\n      swap2\n      swap1\n      pop\n      jump\t// out\n        /* \"#utility.yul\":5067:5193   */\n    tag_208:\n        /* \"#utility.yul\":5117:5126   */\n      0x00\n        /* \"#utility.yul\":5150:5187   */\n      tag_289\n        /* \"#utility.yul\":5181:5186   */\n      dup3\n        /* \"#utility.yul\":5150:5187   */\n      tag_207\n      jump\t// in\n    tag_289:\n        /* \"#utility.yul\":5137:5187   */\n      swap1\n      pop\n        /* \"#utility.yul\":5067:5193   */\n      swap2\n      swap1\n      pop\n      jump\t// out\n        /* \"#utility.yul\":5199:5338   */\n    tag_209:\n        /* \"#utility.yul\":5262:5271   */\n      0x00\n        /* \"#utility.yul\":5295:5332   */\n      tag_291\n        /* \"#utility.yul\":5326:5331   */\n      dup3\n        /* \"#utility.yul\":5295:5332   */\n      tag_208\n      jump\t// in\n    tag_291:\n        /* \"#utility.yul\":5282:5332   */\n      swap1\n      pop\n        /* \"#utility.yul\":5199:5338   */\n      swap2\n      swap1\n      pop\n      jump\t// out\n        /* \"#utility.yul\":5344:5501   */\n    tag_210:\n        /* \"#utility.yul\":5444:5494   */\n      tag_293\n        /* \"#utility.yul\":5488:5493   */\n      dup2\n        /* \"#utility.yul\":5444:5494   */\n      tag_209\n      jump\t// in\n    tag_293:\n        /* \"#utility.yul\":5439:5442   */\n      dup3\n        /* \"#utility.yul\":5432:5495   */\n      mstore\n        /* \"#utility.yul\":5344:5501   */\n      pop\n      pop\n      jump\t// out\n        /* \"#utility.yul\":5507:5755   */\n    tag_48:\n        /* \"#utility.yul\":5613:5617   */\n      0x00\n        /* \"#utility.yul\":5651:5653   */\n      0x20\n        /* \"#utility.yul\":5640:5649   */\n      dup3\n        /* \"#utility.yul\":5636:5654   */\n      add\n        /* \"#utility.yul\":5628:5654   */\n      swap1\n      pop\n        /* \"#utility.yul\":5664:5748   */\n      tag_295\n        /* \"#utility.yul\":5745:5746   */\n      0x00\n        /* \"#utility.yul\":5734:5743   */\n      dup4\n        /* \"#utility.yul\":5730:5747   */\n      add\n        /* \"#utility.yul\":5721:5727   */\n      dup5\n        /* \"#utility.yul\":5664:5748   */\n      tag_210\n      jump\t// in\n    tag_295:\n        /* \"#utility.yul\":5507:5755   */\n      swap3\n      swap2\n      pop\n      pop\n      jump\t// out\n        /* \"#utility.yul\":5761:6090   */\n    tag_51:\n        /* \"#utility.yul\":5820:5826   */\n      0x00\n        /* \"#utility.yul\":5869:5871   */\n      0x20\n        /* \"#utility.yul\":5857:5866   */\n      dup3\n        /* \"#utility.yul\":5848:5855   */\n      dup5\n        /* \"#utility.yul\":5844:5867   */\n      sub\n        /* \"#utility.yul\":5840:5872   */\n      slt\n        /* \"#utility.yul\":5837:5956   */\n      iszero\n      tag_297\n      jumpi\n        /* \"#utility.yul\":5875:5954   */\n      tag_298\n      tag_192\n      jump\t// in\n    tag_298:\n        /* \"#utility.yul\":5837:5956   */\n    tag_297:\n        /* \"#utility.yul\":5995:5996   */\n      0x00\n        /* \"#utility.yul\":6020:6073   */\n      tag_299\n        /* \"#utility.yul\":6065:6072   */\n      dup5\n        /* \"#utility.yul\":6056:6062   */\n      dup3\n        /* \"#utility.yul\":6045:6054   */\n      dup6\n        /* \"#utility.yul\":6041:6063   */\n      add\n        /* \"#utility.yul\":6020:6073   */\n      tag_200\n      jump\t// in\n    tag_299:\n        /* \"#utility.yul\":6010:6073   */\n      swap2\n      pop\n        /* \"#utility.yul\":5966:6083   */\n      pop\n        /* \"#utility.yul\":5761:6090   */\n      swap3\n      swap2\n      pop\n      pop\n      jump\t// out\n        /* \"#utility.yul\":6096:6425   */\n    tag_55:\n        /* \"#utility.yul\":6155:6161   */\n      0x00\n        /* \"#utility.yul\":6204:6206   */\n      0x20\n        /* \"#utility.yul\":6192:6201   */\n      dup3\n        /* \"#utility.yul\":6183:6190   */\n      dup5\n        /* \"#utility.yul\":6179:6202   */\n      sub\n        /* \"#utility.yul\":6175:6207   */\n      slt\n        /* \"#utility.yul\":6172:6291   */\n      iszero\n      tag_301\n      jumpi\n        /* \"#utility.yul\":6210:6289   */\n      tag_302\n      tag_192\n      jump\t// in\n    tag_302:\n        /* \"#utility.yul\":6172:6291   */\n    tag_301:\n        /* \"#utility.yul\":6330:6331   */\n      0x00\n        /* \"#utility.yul\":6355:6408   */\n      tag_303\n        /* \"#utility.yul\":6400:6407   */\n      dup5\n        /* \"#utility.yul\":6391:6397   */\n      dup3\n        /* \"#utility.yul\":6380:6389   */\n      dup6\n        /* \"#utility.yul\":6376:6398   */\n      add\n        /* \"#utility.yul\":6355:6408   */\n      tag_197\n      jump\t// in\n    tag_303:\n        /* \"#utility.yul\":6345:6408   */\n      swap2\n      pop\n        /* \"#utility.yul\":6301:6418   */\n      pop\n        /* \"#utility.yul\":6096:6425   */\n      swap3\n      swap2\n      pop\n      pop\n      jump\t// out\n        /* \"#utility.yul\":6431:6905   */\n    tag_78:\n        /* \"#utility.yul\":6499:6505   */\n      0x00\n        /* \"#utility.yul\":6507:6513   */\n      dup1\n        /* \"#utility.yul\":6556:6558   */\n      0x40\n        /* \"#utility.yul\":6544:6553   */\n      dup4\n        /* \"#utility.yul\":6535:6542   */\n      dup6\n        /* \"#utility.yul\":6531:6554   */\n      sub\n        /* \"#utility.yul\":6527:6559   */\n      slt\n        /* \"#utility.yul\":6524:6643   */\n      iszero\n      tag_305\n      jumpi\n        /* \"#utility.yul\":6562:6641   */\n      tag_306\n      tag_192\n      jump\t// in\n    tag_306:\n        /* \"#utility.yul\":6524:6643   */\n    tag_305:\n        /* \"#utility.yul\":6682:6683   */\n      0x00\n        /* \"#utility.yul\":6707:6760   */\n      tag_307\n        /* \"#utility.yul\":6752:6759   */\n      dup6\n        /* \"#utility.yul\":6743:6749   */\n      dup3\n        /* \"#utility.yul\":6732:6741   */\n      dup7\n        /* \"#utility.yul\":6728:6750   */\n      add\n        /* \"#utility.yul\":6707:6760   */\n      tag_197\n      jump\t// in\n    tag_307:\n        /* \"#utility.yul\":6697:6760   */\n      swap3\n      pop\n        /* \"#utility.yul\":6653:6770   */\n      pop\n        /* \"#utility.yul\":6809:6811   */\n      0x20\n        /* \"#utility.yul\":6835:6888   */\n      tag_308\n        /* \"#utility.yul\":6880:6887   */\n      dup6\n        /* \"#utility.yul\":6871:6877   */\n      dup3\n        /* \"#utility.yul\":6860:6869   */\n      dup7\n        /* \"#utility.yul\":6856:6878   */\n      add\n        /* \"#utility.yul\":6835:6888   */\n      tag_197\n      jump\t// in\n    tag_308:\n        /* \"#utility.yul\":6825:6888   */\n      swap2\n      pop\n        /* \"#utility.yul\":6780:6898   */\n      pop\n        /* \"#utility.yul\":6431:6905   */\n      swap3\n      pop\n      swap3\n      swap1\n      pop\n      jump\t// out\n        /* \"#utility.yul\":6911:7091   */\n    tag_211:\n        /* \"#utility.yul\":6959:7036   */\n      0x4e487b7100000000000000000000000000000000000000000000000000000000\n        /* \"#utility.yul\":6956:6957   */\n      0x00\n        /* \"#utility.yul\":6949:7037   */\n      mstore\n        /* \"#utility.yul\":7056:7060   */\n      0x22\n        /* \"#utility.yul\":7053:7054   */\n      0x04\n        /* \"#utility.yul\":7046:7061   */\n      mstore\n        /* \"#utility.yul\":7080:7084   */\n      0x24\n        /* \"#utility.yul\":7077:7078   */\n      0x00\n        /* \"#utility.yul\":7070:7085   */\n      revert\n        /* \"#utility.yul\":7097:7417   */\n    tag_87:\n        /* \"#utility.yul\":7141:7147   */\n      0x00\n        /* \"#utility.yul\":7178:7179   */\n      0x02\n        /* \"#utility.yul\":7172:7176   */\n      dup3\n        /* \"#utility.yul\":7168:7180   */\n      div\n        /* \"#utility.yul\":7158:7180   */\n      swap1\n      pop\n        /* \"#utility.yul\":7225:7226   */\n      0x01\n        /* \"#utility.yul\":7219:7223   */\n      dup3\n        /* \"#utility.yul\":7215:7227   */\n      and\n        /* \"#utility.yul\":7246:7264   */\n      dup1\n        /* \"#utility.yul\":7236:7317   */\n      tag_311\n      jumpi\n        /* \"#utility.yul\":7302:7306   */\n      0x7f\n        /* \"#utility.yul\":7294:7300   */\n      dup3\n        /* \"#utility.yul\":7290:7307   */\n      and\n        /* \"#utility.yul\":7280:7307   */\n      swap2\n      pop\n        /* \"#utility.yul\":7236:7317   */\n    tag_311:\n        /* \"#utility.yul\":7364:7366   */\n      0x20\n        /* \"#utility.yul\":7356:7362   */\n      dup3\n        /* \"#utility.yul\":7353:7367   */\n      lt\n        /* \"#utility.yul\":7333:7351   */\n      dup2\n        /* \"#utility.yul\":7330:7368   */\n      sub\n        /* \"#utility.yul\":7327:7411   */\n      tag_312\n      jumpi\n        /* \"#utility.yul\":7383:7401   */\n      tag_313\n      tag_211\n      jump\t// in\n    tag_313:\n        /* \"#utility.yul\":7327:7411   */\n    tag_312:\n        /* \"#utility.yul\":7148:7417   */\n      pop\n        /* \"#utility.yul\":7097:7417   */\n      swap2\n      swap1\n      pop\n      jump\t// out\n        /* \"#utility.yul\":7423:7541   */\n    tag_212:\n        /* \"#utility.yul\":7510:7534   */\n      tag_315\n        /* \"#utility.yul\":7528:7533   */\n      dup2\n        /* \"#utility.yul\":7510:7534   */\n      tag_195\n      jump\t// in\n    tag_315:\n        /* \"#utility.yul\":7505:7508   */\n      dup3\n        /* \"#utility.yul\":7498:7535   */\n      mstore\n        /* \"#utility.yul\":7423:7541   */\n      pop\n      pop\n      jump\t// out\n        /* \"#utility.yul\":7547:7769   */\n    tag_121:\n        /* \"#utility.yul\":7640:7644   */\n      0x00\n        /* \"#utility.yul\":7678:7680   */\n      0x20\n        /* \"#utility.yul\":7667:7676   */\n      dup3\n        /* \"#utility.yul\":7663:7681   */\n      add\n        /* \"#utility.yul\":7655:7681   */\n      swap1\n      pop\n        /* \"#utility.yul\":7691:7762   */\n      tag_317\n        /* \"#utility.yul\":7759:7760   */\n      0x00\n        /* \"#utility.yul\":7748:7757   */\n      dup4\n        /* \"#utility.yul\":7744:7761   */\n      add\n        /* \"#utility.yul\":7735:7741   */\n      dup5\n        /* \"#utility.yul\":7691:7762   */\n      tag_212\n      jump\t// in\n    tag_317:\n        /* \"#utility.yul\":7547:7769   */\n      swap3\n      swap2\n      pop\n      pop\n      jump\t// out\n        /* \"#utility.yul\":7775:7918   */\n    tag_213:\n        /* \"#utility.yul\":7832:7837   */\n      0x00\n        /* \"#utility.yul\":7863:7869   */\n      dup2\n        /* \"#utility.yul\":7857:7870   */\n      mload\n        /* \"#utility.yul\":7848:7870   */\n      swap1\n      pop\n        /* \"#utility.yul\":7879:7912   */\n      tag_319\n        /* \"#utility.yul\":7906:7911   */\n      dup2\n        /* \"#utility.yul\":7879:7912   */\n      tag_199\n      jump\t// in\n    tag_319:\n        /* \"#utility.yul\":7775:7918   */\n      swap3\n      swap2\n      pop\n      pop\n      jump\t// out\n        /* \"#utility.yul\":7924:8275   */\n    tag_125:\n        /* \"#utility.yul\":7994:8000   */\n      0x00\n        /* \"#utility.yul\":8043:8045   */\n      0x20\n        /* \"#utility.yul\":8031:8040   */\n      dup3\n        /* \"#utility.yul\":8022:8029   */\n      dup5\n        /* \"#utility.yul\":8018:8041   */\n      sub\n        /* \"#utility.yul\":8014:8046   */\n      slt\n        /* \"#utility.yul\":8011:8130   */\n      iszero\n      tag_321\n      jumpi\n        /* \"#utility.yul\":8049:8128   */\n      tag_322\n      tag_192\n      jump\t// in\n    tag_322:\n        /* \"#utility.yul\":8011:8130   */\n    tag_321:\n        /* \"#utility.yul\":8169:8170   */\n      0x00\n        /* \"#utility.yul\":8194:8258   */\n      tag_323\n        /* \"#utility.yul\":8250:8257   */\n      dup5\n        /* \"#utility.yul\":8241:8247   */\n      dup3\n        /* \"#utility.yul\":8230:8239   */\n      dup6\n        /* \"#utility.yul\":8226:8248   */\n      add\n        /* \"#utility.yul\":8194:8258   */\n      tag_213\n      jump\t// in\n    tag_323:\n        /* \"#utility.yul\":8184:8258   */\n      swap2\n      pop\n        /* \"#utility.yul\":8140:8268   */\n      pop\n        /* \"#utility.yul\":7924:8275   */\n      swap3\n      swap2\n      pop\n      pop\n      jump\t// out\n        /* \"#utility.yul\":8281:8613   */\n    tag_128:\n        /* \"#utility.yul\":8402:8406   */\n      0x00\n        /* \"#utility.yul\":8440:8442   */\n      0x40\n        /* \"#utility.yul\":8429:8438   */\n      dup3\n        /* \"#utility.yul\":8425:8443   */\n      add\n        /* \"#utility.yul\":8417:8443   */\n      swap1\n      pop\n        /* \"#utility.yul\":8453:8524   */\n      tag_325\n        /* \"#utility.yul\":8521:8522   */\n      0x00\n        /* \"#utility.yul\":8510:8519   */\n      dup4\n        /* \"#utility.yul\":8506:8523   */\n      add\n        /* \"#utility.yul\":8497:8503   */\n      dup6\n        /* \"#utility.yul\":8453:8524   */\n      tag_212\n      jump\t// in\n    tag_325:\n        /* \"#utility.yul\":8534:8606   */\n      tag_326\n        /* \"#utility.yul\":8602:8604   */\n      0x20\n        /* \"#utility.yul\":8591:8600   */\n      dup4\n        /* \"#utility.yul\":8587:8605   */\n      add\n        /* \"#utility.yul\":8578:8584   */\n      dup5\n        /* \"#utility.yul\":8534:8606   */\n      tag_203\n      jump\t// in\n    tag_326:\n        /* \"#utility.yul\":8281:8613   */\n      swap4\n      swap3\n      pop\n      pop\n      pop\n      jump\t// out\n        /* \"#utility.yul\":8619:8735   */\n    tag_214:\n        /* \"#utility.yul\":8689:8710   */\n      tag_328\n        /* \"#utility.yul\":8704:8709   */\n      dup2\n        /* \"#utility.yul\":8689:8710   */\n      tag_201\n      jump\t// in\n    tag_328:\n        /* \"#utility.yul\":8682:8687   */\n      dup2\n        /* \"#utility.yul\":8679:8711   */\n      eq\n        /* \"#utility.yul\":8669:8729   */\n      tag_329\n      jumpi\n        /* \"#utility.yul\":8725:8726   */\n      0x00\n        /* \"#utility.yul\":8722:8723   */\n      dup1\n        /* \"#utility.yul\":8715:8727   */\n      revert\n        /* \"#utility.yul\":8669:8729   */\n    tag_329:\n        /* \"#utility.yul\":8619:8735   */\n      pop\n      jump\t// out\n        /* \"#utility.yul\":8741:8878   */\n    tag_215:\n        /* \"#utility.yul\":8795:8800   */\n      0x00\n        /* \"#utility.yul\":8826:8832   */\n      dup2\n        /* \"#utility.yul\":8820:8833   */\n      mload\n        /* \"#utility.yul\":8811:8833   */\n      swap1\n      pop\n        /* \"#utility.yul\":8842:8872   */\n      tag_331\n        /* \"#utility.yul\":8866:8871   */\n      dup2\n        /* \"#utility.yul\":8842:8872   */\n      tag_214\n      jump\t// in\n    tag_331:\n        /* \"#utility.yul\":8741:8878   */\n      swap3\n      swap2\n      pop\n      pop\n      jump\t// out\n        /* \"#utility.yul\":8884:9229   */\n    tag_132:\n        /* \"#utility.yul\":8951:8957   */\n      0x00\n        /* \"#utility.yul\":9000:9002   */\n      0x20\n        /* \"#utility.yul\":8988:8997   */\n      dup3\n        /* \"#utility.yul\":8979:8986   */\n      dup5\n        /* \"#utility.yul\":8975:8998   */\n      sub\n        /* \"#utility.yul\":8971:9003   */\n      slt\n        /* \"#utility.yul\":8968:9087   */\n      iszero\n      tag_333\n      jumpi\n        /* \"#utility.yul\":9006:9085   */\n      tag_334\n      tag_192\n      jump\t// in\n    tag_334:\n        /* \"#utility.yul\":8968:9087   */\n    tag_333:\n        /* \"#utility.yul\":9126:9127   */\n      0x00\n        /* \"#utility.yul\":9151:9212   */\n      tag_335\n        /* \"#utility.yul\":9204:9211   */\n      dup5\n        /* \"#utility.yul\":9195:9201   */\n      dup3\n        /* \"#utility.yul\":9184:9193   */\n      dup6\n        /* \"#utility.yul\":9180:9202   */\n      add\n        /* \"#utility.yul\":9151:9212   */\n      tag_215\n      jump\t// in\n    tag_335:\n        /* \"#utility.yul\":9141:9212   */\n      swap2\n      pop\n        /* \"#utility.yul\":9097:9222   */\n      pop\n        /* \"#utility.yul\":8884:9229   */\n      swap3\n      swap2\n      pop\n      pop\n      jump\t// out\n        /* \"#utility.yul\":9235:9411   */\n    tag_216:\n        /* \"#utility.yul\":9375:9403   */\n      0x4e6f20746f6b656e73206c656674206f6e20636f6e7472616374000000000000\n        /* \"#utility.yul\":9371:9372   */\n      0x00\n        /* \"#utility.yul\":9363:9369   */\n      dup3\n        /* \"#utility.yul\":9359:9373   */\n      add\n        /* \"#utility.yul\":9352:9404   */\n      mstore\n        /* \"#utility.yul\":9235:9411   */\n      pop\n      jump\t// out\n        /* \"#utility.yul\":9417:9783   */\n    tag_217:\n        /* \"#utility.yul\":9559:9562   */\n      0x00\n        /* \"#utility.yul\":9580:9647   */\n      tag_338\n        /* \"#utility.yul\":9644:9646   */\n      0x1a\n        /* \"#utility.yul\":9639:9642   */\n      dup4\n        /* \"#utility.yul\":9580:9647   */\n      tag_187\n      jump\t// in\n    tag_338:\n        /* \"#utility.yul\":9573:9647   */\n      swap2\n      pop\n        /* \"#utility.yul\":9656:9749   */\n      tag_339\n        /* \"#utility.yul\":9745:9748   */\n      dup3\n        /* \"#utility.yul\":9656:9749   */\n      tag_216\n      jump\t// in\n    tag_339:\n        /* \"#utility.yul\":9774:9776   */\n      0x20\n        /* \"#utility.yul\":9769:9772   */\n      dup3\n        /* \"#utility.yul\":9765:9777   */\n      add\n        /* \"#utility.yul\":9758:9777   */\n      swap1\n      pop\n        /* \"#utility.yul\":9417:9783   */\n      swap2\n      swap1\n      pop\n      jump\t// out\n        /* \"#utility.yul\":9789:10208   */\n    tag_138:\n        /* \"#utility.yul\":9955:9959   */\n      0x00\n        /* \"#utility.yul\":9993:9995   */\n      0x20\n        /* \"#utility.yul\":9982:9991   */\n      dup3\n        /* \"#utility.yul\":9978:9996   */\n      add\n        /* \"#utility.yul\":9970:9996   */\n      swap1\n      pop\n        /* \"#utility.yul\":10042:10051   */\n      dup2\n        /* \"#utility.yul\":10036:10040   */\n      dup2\n        /* \"#utility.yul\":10032:10052   */\n      sub\n        /* \"#utility.yul\":10028:10029   */\n      0x00\n        /* \"#utility.yul\":10017:10026   */\n      dup4\n        /* \"#utility.yul\":10013:10030   */\n      add\n        /* \"#utility.yul\":10006:10053   */\n      mstore\n        /* \"#utility.yul\":10070:10201   */\n      tag_341\n        /* \"#utility.yul\":10196:10200   */\n      dup2\n        /* \"#utility.yul\":10070:10201   */\n      tag_217\n      jump\t// in\n    tag_341:\n        /* \"#utility.yul\":10062:10201   */\n      swap1\n      pop\n        /* \"#utility.yul\":9789:10208   */\n      swap2\n      swap1\n      pop\n      jump\t// out\n        /* \"#utility.yul\":10214:10441   */\n    tag_218:\n        /* \"#utility.yul\":10354:10388   */\n      0x596f7520616c726561647920726563656976656420746f6b656e2066726f6d20\n        /* \"#utility.yul\":10350:10351   */\n      0x00\n        /* \"#utility.yul\":10342:10348   */\n      dup3\n        /* \"#utility.yul\":10338:10352   */\n      add\n        /* \"#utility.yul\":10331:10389   */\n      mstore\n        /* \"#utility.yul\":10423:10433   */\n      0x636f6e7472616374000000000000000000000000000000000000000000000000\n        /* \"#utility.yul\":10418:10420   */\n      0x20\n        /* \"#utility.yul\":10410:10416   */\n      dup3\n        /* \"#utility.yul\":10406:10421   */\n      add\n        /* \"#utility.yul\":10399:10434   */\n      mstore\n        /* \"#utility.yul\":10214:10441   */\n      pop\n      jump\t// out\n        /* \"#utility.yul\":10447:10813   */\n    tag_219:\n        /* \"#utility.yul\":10589:10592   */\n      0x00\n        /* \"#utility.yul\":10610:10677   */\n      tag_344\n        /* \"#utility.yul\":10674:10676   */\n      0x28\n        /* \"#utility.yul\":10669:10672   */\n      dup4\n        /* \"#utility.yul\":10610:10677   */\n      tag_187\n      jump\t// in\n    tag_344:\n        /* \"#utility.yul\":10603:10677   */\n      swap2\n      pop\n        /* \"#utility.yul\":10686:10779   */\n      tag_345\n        /* \"#utility.yul\":10775:10778   */\n      dup3\n        /* \"#utility.yul\":10686:10779   */\n      tag_218\n      jump\t// in\n    tag_345:\n        /* \"#utility.yul\":10804:10806   */\n      0x40\n        /* \"#utility.yul\":10799:10802   */\n      dup3\n        /* \"#utility.yul\":10795:10807   */\n      add\n        /* \"#utility.yul\":10788:10807   */\n      swap1\n      pop\n        /* \"#utility.yul\":10447:10813   */\n      swap2\n      swap1\n      pop\n      jump\t// out\n        /* \"#utility.yul\":10819:11238   */\n    tag_141:\n        /* \"#utility.yul\":10985:10989   */\n      0x00\n        /* \"#utility.yul\":11023:11025   */\n      0x20\n        /* \"#utility.yul\":11012:11021   */\n      dup3\n        /* \"#utility.yul\":11008:11026   */\n      add\n        /* \"#utility.yul\":11000:11026   */\n      swap1\n      pop\n        /* \"#utility.yul\":11072:11081   */\n      dup2\n        /* \"#utility.yul\":11066:11070   */\n      dup2\n        /* \"#utility.yul\":11062:11082   */\n      sub\n        /* \"#utility.yul\":11058:11059   */\n      0x00\n        /* \"#utility.yul\":11047:11056   */\n      dup4\n        /* \"#utility.yul\":11043:11060   */\n      add\n        /* \"#utility.yul\":11036:11083   */\n      mstore\n        /* \"#utility.yul\":11100:11231   */\n      tag_347\n        /* \"#utility.yul\":11226:11230   */\n      dup2\n        /* \"#utility.yul\":11100:11231   */\n      tag_219\n      jump\t// in\n    tag_347:\n        /* \"#utility.yul\":11092:11231   */\n      swap1\n      pop\n        /* \"#utility.yul\":10819:11238   */\n      swap2\n      swap1\n      pop\n      jump\t// out\n        /* \"#utility.yul\":11244:11330   */\n    tag_220:\n        /* \"#utility.yul\":11290:11297   */\n      0x00\n        /* \"#utility.yul\":11319:11324   */\n      dup2\n        /* \"#utility.yul\":11308:11324   */\n      swap1\n      pop\n        /* \"#utility.yul\":11244:11330   */\n      swap2\n      swap1\n      pop\n      jump\t// out\n        /* \"#utility.yul\":11336:11496   */\n    tag_221:\n        /* \"#utility.yul\":11395:11404   */\n      0x00\n        /* \"#utility.yul\":11428:11490   */\n      tag_350\n        /* \"#utility.yul\":11446:11489   */\n      tag_351\n        /* \"#utility.yul\":11455:11488   */\n      tag_352\n        /* \"#utility.yul\":11482:11487   */\n      dup5\n        /* \"#utility.yul\":11455:11488   */\n      tag_220\n      jump\t// in\n    tag_352:\n        /* \"#utility.yul\":11446:11489   */\n      tag_206\n      jump\t// in\n    tag_351:\n        /* \"#utility.yul\":11428:11490   */\n      tag_198\n      jump\t// in\n    tag_350:\n        /* \"#utility.yul\":11415:11490   */\n      swap1\n      pop\n        /* \"#utility.yul\":11336:11496   */\n      swap2\n      swap1\n      pop\n      jump\t// out\n        /* \"#utility.yul\":11502:11651   */\n    tag_222:\n        /* \"#utility.yul\":11598:11644   */\n      tag_354\n        /* \"#utility.yul\":11638:11643   */\n      dup2\n        /* \"#utility.yul\":11598:11644   */\n      tag_221\n      jump\t// in\n    tag_354:\n        /* \"#utility.yul\":11593:11596   */\n      dup3\n        /* \"#utility.yul\":11586:11645   */\n      mstore\n        /* \"#utility.yul\":11502:11651   */\n      pop\n      pop\n      jump\t// out\n        /* \"#utility.yul\":11657:12007   */\n    tag_143:\n        /* \"#utility.yul\":11787:11791   */\n      0x00\n        /* \"#utility.yul\":11825:11827   */\n      0x40\n        /* \"#utility.yul\":11814:11823   */\n      dup3\n        /* \"#utility.yul\":11810:11828   */\n      add\n        /* \"#utility.yul\":11802:11828   */\n      swap1\n      pop\n        /* \"#utility.yul\":11838:11909   */\n      tag_356\n        /* \"#utility.yul\":11906:11907   */\n      0x00\n        /* \"#utility.yul\":11895:11904   */\n      dup4\n        /* \"#utility.yul\":11891:11908   */\n      add\n        /* \"#utility.yul\":11882:11888   */\n      dup6\n        /* \"#utility.yul\":11838:11909   */\n      tag_212\n      jump\t// in\n    tag_356:\n        /* \"#utility.yul\":11919:12000   */\n      tag_357\n        /* \"#utility.yul\":11996:11998   */\n      0x20\n        /* \"#utility.yul\":11985:11994   */\n      dup4\n        /* \"#utility.yul\":11981:11999   */\n      add\n        /* \"#utility.yul\":11972:11978   */\n      dup5\n        /* \"#utility.yul\":11919:12000   */\n      tag_222\n      jump\t// in\n    tag_357:\n        /* \"#utility.yul\":11657:12007   */\n      swap4\n      swap3\n      pop\n      pop\n      pop\n      jump\t// out\n        /* \"#utility.yul\":12013:12240   */\n    tag_223:\n        /* \"#utility.yul\":12153:12187   */\n      0x46756e6374696f6e2063616e206f6e6c792062652063616c6c656420696e2074\n        /* \"#utility.yul\":12149:12150   */\n      0x00\n        /* \"#utility.yul\":12141:12147   */\n      dup3\n        /* \"#utility.yul\":12137:12151   */\n      add\n        /* \"#utility.yul\":12130:12188   */\n      mstore\n        /* \"#utility.yul\":12222:12232   */\n      0x657374206d6f6465000000000000000000000000000000000000000000000000\n        /* \"#utility.yul\":12217:12219   */\n      0x20\n        /* \"#utility.yul\":12209:12215   */\n      dup3\n        /* \"#utility.yul\":12205:12220   */\n      add\n        /* \"#utility.yul\":12198:12233   */\n      mstore\n        /* \"#utility.yul\":12013:12240   */\n      pop\n      jump\t// out\n        /* \"#utility.yul\":12246:12612   */\n    tag_224:\n        /* \"#utility.yul\":12388:12391   */\n      0x00\n        /* \"#utility.yul\":12409:12476   */\n      tag_360\n        /* \"#utility.yul\":12473:12475   */\n      0x28\n        /* \"#utility.yul\":12468:12471   */\n      dup4\n        /* \"#utility.yul\":12409:12476   */\n      tag_187\n      jump\t// in\n    tag_360:\n        /* \"#utility.yul\":12402:12476   */\n      swap2\n      pop\n        /* \"#utility.yul\":12485:12578   */\n      tag_361\n        /* \"#utility.yul\":12574:12577   */\n      dup3\n        /* \"#utility.yul\":12485:12578   */\n      tag_223\n      jump\t// in\n    tag_361:\n        /* \"#utility.yul\":12603:12605   */\n      0x40\n        /* \"#utility.yul\":12598:12601   */\n      dup3\n        /* \"#utility.yul\":12594:12606   */\n      add\n        /* \"#utility.yul\":12587:12606   */\n      swap1\n      pop\n        /* \"#utility.yul\":12246:12612   */\n      swap2\n      swap1\n      pop\n      jump\t// out\n        /* \"#utility.yul\":12618:13037   */\n    tag_150:\n        /* \"#utility.yul\":12784:12788   */\n      0x00\n        /* \"#utility.yul\":12822:12824   */\n      0x20\n        /* \"#utility.yul\":12811:12820   */\n      dup3\n        /* \"#utility.yul\":12807:12825   */\n      add\n        /* \"#utility.yul\":12799:12825   */\n      swap1\n      pop\n        /* \"#utility.yul\":12871:12880   */\n      dup2\n        /* \"#utility.yul\":12865:12869   */\n      dup2\n        /* \"#utility.yul\":12861:12881   */\n      sub\n        /* \"#utility.yul\":12857:12858   */\n      0x00\n        /* \"#utility.yul\":12846:12855   */\n      dup4\n        /* \"#utility.yul\":12842:12859   */\n      add\n        /* \"#utility.yul\":12835:12882   */\n      mstore\n        /* \"#utility.yul\":12899:13030   */\n      tag_363\n        /* \"#utility.yul\":13025:13029   */\n      dup2\n        /* \"#utility.yul\":12899:13030   */\n      tag_224\n      jump\t// in\n    tag_363:\n        /* \"#utility.yul\":12891:13030   */\n      swap1\n      pop\n        /* \"#utility.yul\":12618:13037   */\n      swap2\n      swap1\n      pop\n      jump\t// out\n        /* \"#utility.yul\":13043:13485   */\n    tag_160:\n        /* \"#utility.yul\":13192:13196   */\n      0x00\n        /* \"#utility.yul\":13230:13232   */\n      0x60\n        /* \"#utility.yul\":13219:13228   */\n      dup3\n        /* \"#utility.yul\":13215:13233   */\n      add\n        /* \"#utility.yul\":13207:13233   */\n      swap1\n      pop\n        /* \"#utility.yul\":13243:13314   */\n      tag_365\n        /* \"#utility.yul\":13311:13312   */\n      0x00\n        /* \"#utility.yul\":13300:13309   */\n      dup4\n        /* \"#utility.yul\":13296:13313   */\n      add\n        /* \"#utility.yul\":13287:13293   */\n      dup7\n        /* \"#utility.yul\":13243:13314   */\n      tag_212\n      jump\t// in\n    tag_365:\n        /* \"#utility.yul\":13324:13396   */\n      tag_366\n        /* \"#utility.yul\":13392:13394   */\n      0x20\n        /* \"#utility.yul\":13381:13390   */\n      dup4\n        /* \"#utility.yul\":13377:13395   */\n      add\n        /* \"#utility.yul\":13368:13374   */\n      dup6\n        /* \"#utility.yul\":13324:13396   */\n      tag_203\n      jump\t// in\n    tag_366:\n        /* \"#utility.yul\":13406:13478   */\n      tag_367\n        /* \"#utility.yul\":13474:13476   */\n      0x40\n        /* \"#utility.yul\":13463:13472   */\n      dup4\n        /* \"#utility.yul\":13459:13477   */\n      add\n        /* \"#utility.yul\":13450:13456   */\n      dup5\n        /* \"#utility.yul\":13406:13478   */\n      tag_203\n      jump\t// in\n    tag_367:\n        /* \"#utility.yul\":13043:13485   */\n      swap5\n      swap4\n      pop\n      pop\n      pop\n      pop\n      jump\t// out\n        /* \"#utility.yul\":13491:13671   */\n    tag_225:\n        /* \"#utility.yul\":13539:13616   */\n      0x4e487b7100000000000000000000000000000000000000000000000000000000\n        /* \"#utility.yul\":13536:13537   */\n      0x00\n        /* \"#utility.yul\":13529:13617   */\n      mstore\n        /* \"#utility.yul\":13636:13640   */\n      0x11\n        /* \"#utility.yul\":13633:13634   */\n      0x04\n        /* \"#utility.yul\":13626:13641   */\n      mstore\n        /* \"#utility.yul\":13660:13664   */\n      0x24\n        /* \"#utility.yul\":13657:13658   */\n      0x00\n        /* \"#utility.yul\":13650:13665   */\n      revert\n        /* \"#utility.yul\":13677:13868   */\n    tag_179:\n        /* \"#utility.yul\":13717:13720   */\n      0x00\n        /* \"#utility.yul\":13736:13756   */\n      tag_370\n        /* \"#utility.yul\":13754:13755   */\n      dup3\n        /* \"#utility.yul\":13736:13756   */\n      tag_198\n      jump\t// in\n    tag_370:\n        /* \"#utility.yul\":13731:13756   */\n      swap2\n      pop\n        /* \"#utility.yul\":13770:13790   */\n      tag_371\n        /* \"#utility.yul\":13788:13789   */\n      dup4\n        /* \"#utility.yul\":13770:13790   */\n      tag_198\n      jump\t// in\n    tag_371:\n        /* \"#utility.yul\":13765:13790   */\n      swap3\n      pop\n        /* \"#utility.yul\":13813:13814   */\n      dup3\n        /* \"#utility.yul\":13810:13811   */\n      dup3\n        /* \"#utility.yul\":13806:13815   */\n      add\n        /* \"#utility.yul\":13799:13815   */\n      swap1\n      pop\n        /* \"#utility.yul\":13834:13837   */\n      dup1\n        /* \"#utility.yul\":13831:13832   */\n      dup3\n        /* \"#utility.yul\":13828:13838   */\n      gt\n        /* \"#utility.yul\":13825:13861   */\n      iszero\n      tag_372\n      jumpi\n        /* \"#utility.yul\":13841:13859   */\n      tag_373\n      tag_225\n      jump\t// in\n    tag_373:\n        /* \"#utility.yul\":13825:13861   */\n    tag_372:\n        /* \"#utility.yul\":13677:13868   */\n      swap3\n      swap2\n      pop\n      pop\n      jump\t// out\n\n    auxdata: 0xa26469706673582212206da1b7c8e5ea8864f12351c36e7b45a17f37b17f16865eaed0dd21ec1961520c64736f6c63430008160033\n}\n",
				"bytecode": {
					"linkReferences": {},
					"object": "608060405234801562000010575f80fd5b506040516200204b3803806200204b833981810160405281019062000036919062000511565b6040518060400160405280600581526020017f4d79476f760000000000000000000000000000000000000000000000000000008152506040518060400160405280600281526020017f4d470000000000000000000000000000000000000000000000000000000000008152508160039081620000b39190620007c5565b508060049081620000c59190620007c5565b5050506301312d00831462000111576040517f08c379a000000000000000000000000000000000000000000000000000000000815260040162000108906200092d565b60405180910390fd5b826005819055508060085f6101000a81548160ff0219169083151502179055506200014330846200018c60201b60201c565b8160065f6101000a81548173ffffffffffffffffffffffffffffffffffffffff021916908373ffffffffffffffffffffffffffffffffffffffff16021790555050505062000a47565b5f73ffffffffffffffffffffffffffffffffffffffff168273ffffffffffffffffffffffffffffffffffffffff1603620001ff575f6040517fec442f05000000000000000000000000000000000000000000000000000000008152600401620001f691906200095e565b60405180910390fd5b620002125f83836200021660201b60201c565b5050565b5f73ffffffffffffffffffffffffffffffffffffffff168373ffffffffffffffffffffffffffffffffffffffff16036200026a578060025f8282546200025d9190620009a6565b925050819055506200033b565b5f805f8573ffffffffffffffffffffffffffffffffffffffff1673ffffffffffffffffffffffffffffffffffffffff1681526020019081526020015f2054905081811015620002f6578381836040517fe450d38c000000000000000000000000000000000000000000000000000000008152600401620002ed93929190620009f1565b60405180910390fd5b8181035f808673ffffffffffffffffffffffffffffffffffffffff1673ffffffffffffffffffffffffffffffffffffffff1681526020019081526020015f2081905550505b5f73ffffffffffffffffffffffffffffffffffffffff168273ffffffffffffffffffffffffffffffffffffffff160362000384578060025f8282540392505081905550620003ce565b805f808473ffffffffffffffffffffffffffffffffffffffff1673ffffffffffffffffffffffffffffffffffffffff1681526020019081526020015f205f82825401925050819055505b8173ffffffffffffffffffffffffffffffffffffffff168373ffffffffffffffffffffffffffffffffffffffff167fddf252ad1be2c89b69c2b068fc378daa952ba7f163c4a11628f55a4df523b3ef836040516200042d919062000a2c565b60405180910390a3505050565b5f80fd5b5f819050919050565b62000452816200043e565b81146200045d575f80fd5b50565b5f81519050620004708162000447565b92915050565b5f73ffffffffffffffffffffffffffffffffffffffff82169050919050565b5f620004a18262000476565b9050919050565b620004b38162000495565b8114620004be575f80fd5b50565b5f81519050620004d181620004a8565b92915050565b5f8115159050919050565b620004ed81620004d7565b8114620004f8575f80fd5b50565b5f815190506200050b81620004e2565b92915050565b5f805f606084860312156200052b576200052a6200043a565b5b5f6200053a8682870162000460565b93505060206200054d86828701620004c1565b92505060406200056086828701620004fb565b9150509250925092565b5f81519050919050565b7f4e487b71000000000000000000000000000000000000000000000000000000005f52604160045260245ffd5b7f4e487b71000000000000000000000000000000000000000000000000000000005f52602260045260245ffd5b5f6002820490506001821680620005e657607f821691505b602082108103620005fc57620005fb620005a1565b5b50919050565b5f819050815f5260205f209050919050565b5f6020601f8301049050919050565b5f82821b905092915050565b5f60088302620006607fffffffffffffffffffffffffffffffffffffffffffffffffffffffffffffffff8262000623565b6200066c868362000623565b95508019841693508086168417925050509392505050565b5f819050919050565b5f620006ad620006a7620006a1846200043e565b62000684565b6200043e565b9050919050565b5f819050919050565b620006c8836200068d565b620006e0620006d782620006b4565b8484546200062f565b825550505050565b5f90565b620006f6620006e8565b62000703818484620006bd565b505050565b5b818110156200072a576200071e5f82620006ec565b60018101905062000709565b5050565b601f8211156200077957620007438162000602565b6200074e8462000614565b810160208510156200075e578190505b620007766200076d8562000614565b83018262000708565b50505b505050565b5f82821c905092915050565b5f6200079b5f19846008026200077e565b1980831691505092915050565b5f620007b583836200078a565b9150826002028217905092915050565b620007d0826200056a565b67ffffffffffffffff811115620007ec57620007eb62000574565b5b620007f88254620005ce565b620008058282856200072e565b5f60209050601f8311600181146200083b575f841562000826578287015190505b620008328582620007a8565b865550620008a1565b601f1984166200084b8662000602565b5f5b8281101562000874578489015182556001820191506020850194506020810190506200084d565b8683101562000894578489015162000890601f8916826200078a565b8355505b6001600288020188555050505b505050505050565b5f82825260208201905092915050565b7f4d79476f7620746f6b656e20737570706c79206d75737420626520657175616c5f8201527f20746f203230206d696c6c696f6e000000000000000000000000000000000000602082015250565b5f62000915602e83620008a9565b91506200092282620008b9565b604082019050919050565b5f6020820190508181035f830152620009468162000907565b9050919050565b620009588162000495565b82525050565b5f602082019050620009735f8301846200094d565b92915050565b7f4e487b71000000000000000000000000000000000000000000000000000000005f52601160045260245ffd5b5f620009b2826200043e565b9150620009bf836200043e565b9250828201905080821115620009da57620009d962000979565b5b92915050565b620009eb816200043e565b82525050565b5f60608201905062000a065f8301866200094d565b62000a156020830185620009e0565b62000a246040830184620009e0565b949350505050565b5f60208201905062000a415f830184620009e0565b92915050565b6115f68062000a555f395ff3fe608060405234801561000f575f80fd5b50600436106100fe575f3560e01c806395d89b4111610095578063d915902e11610064578063d915902e146102d4578063dd62ed3e146102f0578063de5f72fd14610320578063e66649281461032a576100fe565b806395d89b4114610226578063a9059cbb14610244578063b3afcee414610274578063c7f48df7146102a4576100fe565b8063313ce567116100d1578063313ce5671461019e57806334dcb04e146101bc57806339c94d2d146101da57806370a08231146101f6576100fe565b806306fdde0314610102578063095ea7b31461012057806318160ddd1461015057806323b872dd1461016e575b5f80fd5b61010a610334565b6040516101179190610f31565b60405180910390f35b61013a60048036038101906101359190610fe2565b6103c4565b604051610147919061103a565b60405180910390f35b6101586103e6565b6040516101659190611062565b60405180910390f35b6101886004803603810190610183919061107b565b6103ef565b604051610195919061103a565b60405180910390f35b6101a661041d565b6040516101b391906110e6565b60405180910390f35b6101c4610425565b6040516101d1919061115a565b60405180910390f35b6101f460048036038101906101ef9190611173565b61044a565b005b610210600480360381019061020b919061119e565b610458565b60405161021d9190611062565b60405180910390f35b61022e61049d565b60405161023b9190610f31565b60405180910390f35b61025e60048036038101906102599190610fe2565b61052d565b60405161026b919061103a565b60405180910390f35b61028e6004803603810190610289919061119e565b61054f565b60405161029b919061103a565b60405180910390f35b6102be60048036038101906102b9919061119e565b610562565b6040516102cb9190611062565b60405180910390f35b6102ee60048036038101906102e99190611173565b610603565b005b61030a600480360381019061030591906111c9565b6106a3565b6040516103179190611062565b60405180910390f35b610328610725565b005b6103326108cd565b005b60606003805461034390611234565b80601f016020809104026020016040519081016040528092919081815260200182805461036f90611234565b80156103ba5780601f10610391576101008083540402835291602001916103ba565b820191905f5260205f20905b81548152906001019060200180831161039d57829003601f168201915b5050505050905090565b5f806103ce610924565b90506103db81858561092b565b600191505092915050565b5f600254905090565b5f806103f9610924565b905061040685828561093d565b6104118585856109cf565b60019150509392505050565b5f6012905090565b60065f9054906101000a900473ffffffffffffffffffffffffffffffffffffffff1681565b610454308261052d565b5050565b5f805f8373ffffffffffffffffffffffffffffffffffffffff1673ffffffffffffffffffffffffffffffffffffffff1681526020019081526020015f20549050919050565b6060600480546104ac90611234565b80601f01602080910402602001604051908101604052809291908181526020018280546104d890611234565b80156105235780601f106104fa57610100808354040283529160200191610523565b820191905f5260205f20905b81548152906001019060200180831161050657829003601f168201915b5050505050905090565b5f80610537610924565b90506105448185856109cf565b600191505092915050565b5f8061055a83610458565b119050919050565b5f60065f9054906101000a900473ffffffffffffffffffffffffffffffffffffffff1673ffffffffffffffffffffffffffffffffffffffff166370a08231836040518263ffffffff1660e01b81526004016105bd9190611273565b602060405180830381865afa1580156105d8573d5f803e3d5ffd5b505050506040513d601f19601f820116820180604052508101906105fc91906112a0565b9050919050565b60065f9054906101000a900473ffffffffffffffffffffffffffffffffffffffff1673ffffffffffffffffffffffffffffffffffffffff1663a9059cbb30836040518363ffffffff1660e01b815260040161065f9291906112cb565b6020604051808303815f875af115801561067b573d5f803e3d5ffd5b505050506040513d601f19601f8201168201806040525081019061069f919061131c565b5050565b5f60015f8473ffffffffffffffffffffffffffffffffffffffff1673ffffffffffffffffffffffffffffffffffffffff1681526020019081526020015f205f8373ffffffffffffffffffffffffffffffffffffffff1673ffffffffffffffffffffffffffffffffffffffff1681526020019081526020015f2054905092915050565b5f61072f30610458565b1161076f576040517f08c379a000000000000000000000000000000000000000000000000000000000815260040161076690611391565b60405180910390fd5b60075f3373ffffffffffffffffffffffffffffffffffffffff1673ffffffffffffffffffffffffffffffffffffffff1681526020019081526020015f205f9054906101000a900460ff16156107f9576040517f08c379a00000000000000000000000000000000000000000000000000000000081526004016107f09061141f565b60405180910390fd5b3073ffffffffffffffffffffffffffffffffffffffff1663a9059cbb33600a6040518363ffffffff1660e01b8152600401610835929190611476565b6020604051808303815f875af1158015610851573d5f803e3d5ffd5b505050506040513d601f19601f82011682018060405250810190610875919061131c565b50600160075f3373ffffffffffffffffffffffffffffffffffffffff1673ffffffffffffffffffffffffffffffffffffffff1681526020019081526020015f205f6101000a81548160ff021916908315150217905550565b60085f9054906101000a900460ff1661091b576040517f08c379a00000000000000000000000000000000000000000000000000000000081526004016109129061150d565b60405180910390fd5b5f600581905550565b5f33905090565b6109388383836001610abf565b505050565b5f61094884846106a3565b90507fffffffffffffffffffffffffffffffffffffffffffffffffffffffffffffffff81146109c957818110156109ba578281836040517ffb8f41b20000000000000000000000000000000000000000000000000000000081526004016109b19392919061152b565b60405180910390fd5b6109c884848484035f610abf565b5b50505050565b5f73ffffffffffffffffffffffffffffffffffffffff168373ffffffffffffffffffffffffffffffffffffffff1603610a3f575f6040517f96c6fd1e000000000000000000000000000000000000000000000000000000008152600401610a369190611273565b60405180910390fd5b5f73ffffffffffffffffffffffffffffffffffffffff168273ffffffffffffffffffffffffffffffffffffffff1603610aaf575f6040517fec442f05000000000000000000000000000000000000000000000000000000008152600401610aa69190611273565b60405180910390fd5b610aba838383610c8e565b505050565b5f73ffffffffffffffffffffffffffffffffffffffff168473ffffffffffffffffffffffffffffffffffffffff1603610b2f575f6040517fe602df05000000000000000000000000000000000000000000000000000000008152600401610b269190611273565b60405180910390fd5b5f73ffffffffffffffffffffffffffffffffffffffff168373ffffffffffffffffffffffffffffffffffffffff1603610b9f575f6040517f94280d62000000000000000000000000000000000000000000000000000000008152600401610b969190611273565b60405180910390fd5b8160015f8673ffffffffffffffffffffffffffffffffffffffff1673ffffffffffffffffffffffffffffffffffffffff1681526020019081526020015f205f8573ffffffffffffffffffffffffffffffffffffffff1673ffffffffffffffffffffffffffffffffffffffff1681526020019081526020015f20819055508015610c88578273ffffffffffffffffffffffffffffffffffffffff168473ffffffffffffffffffffffffffffffffffffffff167f8c5be1e5ebec7d5bd14f71427d1e84f3dd0314c0f7b2291e5b200ac8c7c3b92584604051610c7f9190611062565b60405180910390a35b50505050565b5f73ffffffffffffffffffffffffffffffffffffffff168373ffffffffffffffffffffffffffffffffffffffff1603610cde578060025f828254610cd2919061158d565b92505081905550610dac565b5f805f8573ffffffffffffffffffffffffffffffffffffffff1673ffffffffffffffffffffffffffffffffffffffff1681526020019081526020015f2054905081811015610d67578381836040517fe450d38c000000000000000000000000000000000000000000000000000000008152600401610d5e9392919061152b565b60405180910390fd5b8181035f808673ffffffffffffffffffffffffffffffffffffffff1673ffffffffffffffffffffffffffffffffffffffff1681526020019081526020015f2081905550505b5f73ffffffffffffffffffffffffffffffffffffffff168273ffffffffffffffffffffffffffffffffffffffff1603610df3578060025f8282540392505081905550610e3d565b805f808473ffffffffffffffffffffffffffffffffffffffff1673ffffffffffffffffffffffffffffffffffffffff1681526020019081526020015f205f82825401925050819055505b8173ffffffffffffffffffffffffffffffffffffffff168373ffffffffffffffffffffffffffffffffffffffff167fddf252ad1be2c89b69c2b068fc378daa952ba7f163c4a11628f55a4df523b3ef83604051610e9a9190611062565b60405180910390a3505050565b5f81519050919050565b5f82825260208201905092915050565b5f5b83811015610ede578082015181840152602081019050610ec3565b5f8484015250505050565b5f601f19601f8301169050919050565b5f610f0382610ea7565b610f0d8185610eb1565b9350610f1d818560208601610ec1565b610f2681610ee9565b840191505092915050565b5f6020820190508181035f830152610f498184610ef9565b905092915050565b5f80fd5b5f73ffffffffffffffffffffffffffffffffffffffff82169050919050565b5f610f7e82610f55565b9050919050565b610f8e81610f74565b8114610f98575f80fd5b50565b5f81359050610fa981610f85565b92915050565b5f819050919050565b610fc181610faf565b8114610fcb575f80fd5b50565b5f81359050610fdc81610fb8565b92915050565b5f8060408385031215610ff857610ff7610f51565b5b5f61100585828601610f9b565b925050602061101685828601610fce565b9150509250929050565b5f8115159050919050565b61103481611020565b82525050565b5f60208201905061104d5f83018461102b565b92915050565b61105c81610faf565b82525050565b5f6020820190506110755f830184611053565b92915050565b5f805f6060848603121561109257611091610f51565b5b5f61109f86828701610f9b565b93505060206110b086828701610f9b565b92505060406110c186828701610fce565b9150509250925092565b5f60ff82169050919050565b6110e0816110cb565b82525050565b5f6020820190506110f95f8301846110d7565b92915050565b5f819050919050565b5f61112261111d61111884610f55565b6110ff565b610f55565b9050919050565b5f61113382611108565b9050919050565b5f61114482611129565b9050919050565b6111548161113a565b82525050565b5f60208201905061116d5f83018461114b565b92915050565b5f6020828403121561118857611187610f51565b5b5f61119584828501610fce565b91505092915050565b5f602082840312156111b3576111b2610f51565b5b5f6111c084828501610f9b565b91505092915050565b5f80604083850312156111df576111de610f51565b5b5f6111ec85828601610f9b565b92505060206111fd85828601610f9b565b9150509250929050565b7f4e487b71000000000000000000000000000000000000000000000000000000005f52602260045260245ffd5b5f600282049050600182168061124b57607f821691505b60208210810361125e5761125d611207565b5b50919050565b61126d81610f74565b82525050565b5f6020820190506112865f830184611264565b92915050565b5f8151905061129a81610fb8565b92915050565b5f602082840312156112b5576112b4610f51565b5b5f6112c28482850161128c565b91505092915050565b5f6040820190506112de5f830185611264565b6112eb6020830184611053565b9392505050565b6112fb81611020565b8114611305575f80fd5b50565b5f81519050611316816112f2565b92915050565b5f6020828403121561133157611330610f51565b5b5f61133e84828501611308565b91505092915050565b7f4e6f20746f6b656e73206c656674206f6e20636f6e74726163740000000000005f82015250565b5f61137b601a83610eb1565b915061138682611347565b602082019050919050565b5f6020820190508181035f8301526113a88161136f565b9050919050565b7f596f7520616c726561647920726563656976656420746f6b656e2066726f6d205f8201527f636f6e7472616374000000000000000000000000000000000000000000000000602082015250565b5f611409602883610eb1565b9150611414826113af565b604082019050919050565b5f6020820190508181035f830152611436816113fd565b9050919050565b5f819050919050565b5f61146061145b6114568461143d565b6110ff565b610faf565b9050919050565b61147081611446565b82525050565b5f6040820190506114895f830185611264565b6114966020830184611467565b9392505050565b7f46756e6374696f6e2063616e206f6e6c792062652063616c6c656420696e20745f8201527f657374206d6f6465000000000000000000000000000000000000000000000000602082015250565b5f6114f7602883610eb1565b91506115028261149d565b604082019050919050565b5f6020820190508181035f830152611524816114eb565b9050919050565b5f60608201905061153e5f830186611264565b61154b6020830185611053565b6115586040830184611053565b949350505050565b7f4e487b71000000000000000000000000000000000000000000000000000000005f52601160045260245ffd5b5f61159782610faf565b91506115a283610faf565b92508282019050808211156115ba576115b9611560565b5b9291505056fea26469706673582212206da1b7c8e5ea8864f12351c36e7b45a17f37b17f16865eaed0dd21ec1961520c64736f6c63430008160033",
					"opcodes": "PUSH1 0x80 PUSH1 0x40 MSTORE CALLVALUE DUP1 ISZERO PUSH3 0x10 JUMPI PUSH0 DUP1 REVERT JUMPDEST POP PUSH1 0x40 MLOAD PUSH3 0x204B CODESIZE SUB DUP1 PUSH3 0x204B DUP4 CODECOPY DUP2 DUP2 ADD PUSH1 0x40 MSTORE DUP2 ADD SWAP1 PUSH3 0x36 SWAP2 SWAP1 PUSH3 0x511 JUMP JUMPDEST PUSH1 0x40 MLOAD DUP1 PUSH1 0x40 ADD PUSH1 0x40 MSTORE DUP1 PUSH1 0x5 DUP2 MSTORE PUSH1 0x20 ADD PUSH32 0x4D79476F76000000000000000000000000000000000000000000000000000000 DUP2 MSTORE POP PUSH1 0x40 MLOAD DUP1 PUSH1 0x40 ADD PUSH1 0x40 MSTORE DUP1 PUSH1 0x2 DUP2 MSTORE PUSH1 0x20 ADD PUSH32 0x4D47000000000000000000000000000000000000000000000000000000000000 DUP2 MSTORE POP DUP2 PUSH1 0x3 SWAP1 DUP2 PUSH3 0xB3 SWAP2 SWAP1 PUSH3 0x7C5 JUMP JUMPDEST POP DUP1 PUSH1 0x4 SWAP1 DUP2 PUSH3 0xC5 SWAP2 SWAP1 PUSH3 0x7C5 JUMP JUMPDEST POP POP POP PUSH4 0x1312D00 DUP4 EQ PUSH3 0x111 JUMPI PUSH1 0x40 MLOAD PUSH32 0x8C379A000000000000000000000000000000000000000000000000000000000 DUP2 MSTORE PUSH1 0x4 ADD PUSH3 0x108 SWAP1 PUSH3 0x92D JUMP JUMPDEST PUSH1 0x40 MLOAD DUP1 SWAP2 SUB SWAP1 REVERT JUMPDEST DUP3 PUSH1 0x5 DUP2 SWAP1 SSTORE POP DUP1 PUSH1 0x8 PUSH0 PUSH2 0x100 EXP DUP2 SLOAD DUP2 PUSH1 0xFF MUL NOT AND SWAP1 DUP4 ISZERO ISZERO MUL OR SWAP1 SSTORE POP PUSH3 0x143 ADDRESS DUP5 PUSH3 0x18C PUSH1 0x20 SHL PUSH1 0x20 SHR JUMP JUMPDEST DUP2 PUSH1 0x6 PUSH0 PUSH2 0x100 EXP DUP2 SLOAD DUP2 PUSH20 0xFFFFFFFFFFFFFFFFFFFFFFFFFFFFFFFFFFFFFFFF MUL NOT AND SWAP1 DUP4 PUSH20 0xFFFFFFFFFFFFFFFFFFFFFFFFFFFFFFFFFFFFFFFF AND MUL OR SWAP1 SSTORE POP POP POP POP PUSH3 0xA47 JUMP JUMPDEST PUSH0 PUSH20 0xFFFFFFFFFFFFFFFFFFFFFFFFFFFFFFFFFFFFFFFF AND DUP3 PUSH20 0xFFFFFFFFFFFFFFFFFFFFFFFFFFFFFFFFFFFFFFFF AND SUB PUSH3 0x1FF JUMPI PUSH0 PUSH1 0x40 MLOAD PUSH32 0xEC442F0500000000000000000000000000000000000000000000000000000000 DUP2 MSTORE PUSH1 0x4 ADD PUSH3 0x1F6 SWAP2 SWAP1 PUSH3 0x95E JUMP JUMPDEST PUSH1 0x40 MLOAD DUP1 SWAP2 SUB SWAP1 REVERT JUMPDEST PUSH3 0x212 PUSH0 DUP4 DUP4 PUSH3 0x216 PUSH1 0x20 SHL PUSH1 0x20 SHR JUMP JUMPDEST POP POP JUMP JUMPDEST PUSH0 PUSH20 0xFFFFFFFFFFFFFFFFFFFFFFFFFFFFFFFFFFFFFFFF AND DUP4 PUSH20 0xFFFFFFFFFFFFFFFFFFFFFFFFFFFFFFFFFFFFFFFF AND SUB PUSH3 0x26A JUMPI DUP1 PUSH1 0x2 PUSH0 DUP3 DUP3 SLOAD PUSH3 0x25D SWAP2 SWAP1 PUSH3 0x9A6 JUMP JUMPDEST SWAP3 POP POP DUP2 SWAP1 SSTORE POP PUSH3 0x33B JUMP JUMPDEST PUSH0 DUP1 PUSH0 DUP6 PUSH20 0xFFFFFFFFFFFFFFFFFFFFFFFFFFFFFFFFFFFFFFFF AND PUSH20 0xFFFFFFFFFFFFFFFFFFFFFFFFFFFFFFFFFFFFFFFF AND DUP2 MSTORE PUSH1 0x20 ADD SWAP1 DUP2 MSTORE PUSH1 0x20 ADD PUSH0 KECCAK256 SLOAD SWAP1 POP DUP2 DUP2 LT ISZERO PUSH3 0x2F6 JUMPI DUP4 DUP2 DUP4 PUSH1 0x40 MLOAD PUSH32 0xE450D38C00000000000000000000000000000000000000000000000000000000 DUP2 MSTORE PUSH1 0x4 ADD PUSH3 0x2ED SWAP4 SWAP3 SWAP2 SWAP1 PUSH3 0x9F1 JUMP JUMPDEST PUSH1 0x40 MLOAD DUP1 SWAP2 SUB SWAP1 REVERT JUMPDEST DUP2 DUP2 SUB PUSH0 DUP1 DUP7 PUSH20 0xFFFFFFFFFFFFFFFFFFFFFFFFFFFFFFFFFFFFFFFF AND PUSH20 0xFFFFFFFFFFFFFFFFFFFFFFFFFFFFFFFFFFFFFFFF AND DUP2 MSTORE PUSH1 0x20 ADD SWAP1 DUP2 MSTORE PUSH1 0x20 ADD PUSH0 KECCAK256 DUP2 SWAP1 SSTORE POP POP JUMPDEST PUSH0 PUSH20 0xFFFFFFFFFFFFFFFFFFFFFFFFFFFFFFFFFFFFFFFF AND DUP3 PUSH20 0xFFFFFFFFFFFFFFFFFFFFFFFFFFFFFFFFFFFFFFFF AND SUB PUSH3 0x384 JUMPI DUP1 PUSH1 0x2 PUSH0 DUP3 DUP3 SLOAD SUB SWAP3 POP POP DUP2 SWAP1 SSTORE POP PUSH3 0x3CE JUMP JUMPDEST DUP1 PUSH0 DUP1 DUP5 PUSH20 0xFFFFFFFFFFFFFFFFFFFFFFFFFFFFFFFFFFFFFFFF AND PUSH20 0xFFFFFFFFFFFFFFFFFFFFFFFFFFFFFFFFFFFFFFFF AND DUP2 MSTORE PUSH1 0x20 ADD SWAP1 DUP2 MSTORE PUSH1 0x20 ADD PUSH0 KECCAK256 PUSH0 DUP3 DUP3 SLOAD ADD SWAP3 POP POP DUP2 SWAP1 SSTORE POP JUMPDEST DUP2 PUSH20 0xFFFFFFFFFFFFFFFFFFFFFFFFFFFFFFFFFFFFFFFF AND DUP4 PUSH20 0xFFFFFFFFFFFFFFFFFFFFFFFFFFFFFFFFFFFFFFFF AND PUSH32 0xDDF252AD1BE2C89B69C2B068FC378DAA952BA7F163C4A11628F55A4DF523B3EF DUP4 PUSH1 0x40 MLOAD PUSH3 0x42D SWAP2 SWAP1 PUSH3 0xA2C JUMP JUMPDEST PUSH1 0x40 MLOAD DUP1 SWAP2 SUB SWAP1 LOG3 POP POP POP JUMP JUMPDEST PUSH0 DUP1 REVERT JUMPDEST PUSH0 DUP2 SWAP1 POP SWAP2 SWAP1 POP JUMP JUMPDEST PUSH3 0x452 DUP2 PUSH3 0x43E JUMP JUMPDEST DUP2 EQ PUSH3 0x45D JUMPI PUSH0 DUP1 REVERT JUMPDEST POP JUMP JUMPDEST PUSH0 DUP2 MLOAD SWAP1 POP PUSH3 0x470 DUP2 PUSH3 0x447 JUMP JUMPDEST SWAP3 SWAP2 POP POP JUMP JUMPDEST PUSH0 PUSH20 0xFFFFFFFFFFFFFFFFFFFFFFFFFFFFFFFFFFFFFFFF DUP3 AND SWAP1 POP SWAP2 SWAP1 POP JUMP JUMPDEST PUSH0 PUSH3 0x4A1 DUP3 PUSH3 0x476 JUMP JUMPDEST SWAP1 POP SWAP2 SWAP1 POP JUMP JUMPDEST PUSH3 0x4B3 DUP2 PUSH3 0x495 JUMP JUMPDEST DUP2 EQ PUSH3 0x4BE JUMPI PUSH0 DUP1 REVERT JUMPDEST POP JUMP JUMPDEST PUSH0 DUP2 MLOAD SWAP1 POP PUSH3 0x4D1 DUP2 PUSH3 0x4A8 JUMP JUMPDEST SWAP3 SWAP2 POP POP JUMP JUMPDEST PUSH0 DUP2 ISZERO ISZERO SWAP1 POP SWAP2 SWAP1 POP JUMP JUMPDEST PUSH3 0x4ED DUP2 PUSH3 0x4D7 JUMP JUMPDEST DUP2 EQ PUSH3 0x4F8 JUMPI PUSH0 DUP1 REVERT JUMPDEST POP JUMP JUMPDEST PUSH0 DUP2 MLOAD SWAP1 POP PUSH3 0x50B DUP2 PUSH3 0x4E2 JUMP JUMPDEST SWAP3 SWAP2 POP POP JUMP JUMPDEST PUSH0 DUP1 PUSH0 PUSH1 0x60 DUP5 DUP7 SUB SLT ISZERO PUSH3 0x52B JUMPI PUSH3 0x52A PUSH3 0x43A JUMP JUMPDEST JUMPDEST PUSH0 PUSH3 0x53A DUP7 DUP3 DUP8 ADD PUSH3 0x460 JUMP JUMPDEST SWAP4 POP POP PUSH1 0x20 PUSH3 0x54D DUP7 DUP3 DUP8 ADD PUSH3 0x4C1 JUMP JUMPDEST SWAP3 POP POP PUSH1 0x40 PUSH3 0x560 DUP7 DUP3 DUP8 ADD PUSH3 0x4FB JUMP JUMPDEST SWAP2 POP POP SWAP3 POP SWAP3 POP SWAP3 JUMP JUMPDEST PUSH0 DUP2 MLOAD SWAP1 POP SWAP2 SWAP1 POP JUMP JUMPDEST PUSH32 0x4E487B7100000000000000000000000000000000000000000000000000000000 PUSH0 MSTORE PUSH1 0x41 PUSH1 0x4 MSTORE PUSH1 0x24 PUSH0 REVERT JUMPDEST PUSH32 0x4E487B7100000000000000000000000000000000000000000000000000000000 PUSH0 MSTORE PUSH1 0x22 PUSH1 0x4 MSTORE PUSH1 0x24 PUSH0 REVERT JUMPDEST PUSH0 PUSH1 0x2 DUP3 DIV SWAP1 POP PUSH1 0x1 DUP3 AND DUP1 PUSH3 0x5E6 JUMPI PUSH1 0x7F DUP3 AND SWAP2 POP JUMPDEST PUSH1 0x20 DUP3 LT DUP2 SUB PUSH3 0x5FC JUMPI PUSH3 0x5FB PUSH3 0x5A1 JUMP JUMPDEST JUMPDEST POP SWAP2 SWAP1 POP JUMP JUMPDEST PUSH0 DUP2 SWAP1 POP DUP2 PUSH0 MSTORE PUSH1 0x20 PUSH0 KECCAK256 SWAP1 POP SWAP2 SWAP1 POP JUMP JUMPDEST PUSH0 PUSH1 0x20 PUSH1 0x1F DUP4 ADD DIV SWAP1 POP SWAP2 SWAP1 POP JUMP JUMPDEST PUSH0 DUP3 DUP3 SHL SWAP1 POP SWAP3 SWAP2 POP POP JUMP JUMPDEST PUSH0 PUSH1 0x8 DUP4 MUL PUSH3 0x660 PUSH32 0xFFFFFFFFFFFFFFFFFFFFFFFFFFFFFFFFFFFFFFFFFFFFFFFFFFFFFFFFFFFFFFFF DUP3 PUSH3 0x623 JUMP JUMPDEST PUSH3 0x66C DUP7 DUP4 PUSH3 0x623 JUMP JUMPDEST SWAP6 POP DUP1 NOT DUP5 AND SWAP4 POP DUP1 DUP7 AND DUP5 OR SWAP3 POP POP POP SWAP4 SWAP3 POP POP POP JUMP JUMPDEST PUSH0 DUP2 SWAP1 POP SWAP2 SWAP1 POP JUMP JUMPDEST PUSH0 PUSH3 0x6AD PUSH3 0x6A7 PUSH3 0x6A1 DUP5 PUSH3 0x43E JUMP JUMPDEST PUSH3 0x684 JUMP JUMPDEST PUSH3 0x43E JUMP JUMPDEST SWAP1 POP SWAP2 SWAP1 POP JUMP JUMPDEST PUSH0 DUP2 SWAP1 POP SWAP2 SWAP1 POP JUMP JUMPDEST PUSH3 0x6C8 DUP4 PUSH3 0x68D JUMP JUMPDEST PUSH3 0x6E0 PUSH3 0x6D7 DUP3 PUSH3 0x6B4 JUMP JUMPDEST DUP5 DUP5 SLOAD PUSH3 0x62F JUMP JUMPDEST DUP3 SSTORE POP POP POP POP JUMP JUMPDEST PUSH0 SWAP1 JUMP JUMPDEST PUSH3 0x6F6 PUSH3 0x6E8 JUMP JUMPDEST PUSH3 0x703 DUP2 DUP5 DUP5 PUSH3 0x6BD JUMP JUMPDEST POP POP POP JUMP JUMPDEST JUMPDEST DUP2 DUP2 LT ISZERO PUSH3 0x72A JUMPI PUSH3 0x71E PUSH0 DUP3 PUSH3 0x6EC JUMP JUMPDEST PUSH1 0x1 DUP2 ADD SWAP1 POP PUSH3 0x709 JUMP JUMPDEST POP POP JUMP JUMPDEST PUSH1 0x1F DUP3 GT ISZERO PUSH3 0x779 JUMPI PUSH3 0x743 DUP2 PUSH3 0x602 JUMP JUMPDEST PUSH3 0x74E DUP5 PUSH3 0x614 JUMP JUMPDEST DUP2 ADD PUSH1 0x20 DUP6 LT ISZERO PUSH3 0x75E JUMPI DUP2 SWAP1 POP JUMPDEST PUSH3 0x776 PUSH3 0x76D DUP6 PUSH3 0x614 JUMP JUMPDEST DUP4 ADD DUP3 PUSH3 0x708 JUMP JUMPDEST POP POP JUMPDEST POP POP POP JUMP JUMPDEST PUSH0 DUP3 DUP3 SHR SWAP1 POP SWAP3 SWAP2 POP POP JUMP JUMPDEST PUSH0 PUSH3 0x79B PUSH0 NOT DUP5 PUSH1 0x8 MUL PUSH3 0x77E JUMP JUMPDEST NOT DUP1 DUP4 AND SWAP2 POP POP SWAP3 SWAP2 POP POP JUMP JUMPDEST PUSH0 PUSH3 0x7B5 DUP4 DUP4 PUSH3 0x78A JUMP JUMPDEST SWAP2 POP DUP3 PUSH1 0x2 MUL DUP3 OR SWAP1 POP SWAP3 SWAP2 POP POP JUMP JUMPDEST PUSH3 0x7D0 DUP3 PUSH3 0x56A JUMP JUMPDEST PUSH8 0xFFFFFFFFFFFFFFFF DUP2 GT ISZERO PUSH3 0x7EC JUMPI PUSH3 0x7EB PUSH3 0x574 JUMP JUMPDEST JUMPDEST PUSH3 0x7F8 DUP3 SLOAD PUSH3 0x5CE JUMP JUMPDEST PUSH3 0x805 DUP3 DUP3 DUP6 PUSH3 0x72E JUMP JUMPDEST PUSH0 PUSH1 0x20 SWAP1 POP PUSH1 0x1F DUP4 GT PUSH1 0x1 DUP2 EQ PUSH3 0x83B JUMPI PUSH0 DUP5 ISZERO PUSH3 0x826 JUMPI DUP3 DUP8 ADD MLOAD SWAP1 POP JUMPDEST PUSH3 0x832 DUP6 DUP3 PUSH3 0x7A8 JUMP JUMPDEST DUP7 SSTORE POP PUSH3 0x8A1 JUMP JUMPDEST PUSH1 0x1F NOT DUP5 AND PUSH3 0x84B DUP7 PUSH3 0x602 JUMP JUMPDEST PUSH0 JUMPDEST DUP3 DUP2 LT ISZERO PUSH3 0x874 JUMPI DUP5 DUP10 ADD MLOAD DUP3 SSTORE PUSH1 0x1 DUP3 ADD SWAP2 POP PUSH1 0x20 DUP6 ADD SWAP5 POP PUSH1 0x20 DUP2 ADD SWAP1 POP PUSH3 0x84D JUMP JUMPDEST DUP7 DUP4 LT ISZERO PUSH3 0x894 JUMPI DUP5 DUP10 ADD MLOAD PUSH3 0x890 PUSH1 0x1F DUP10 AND DUP3 PUSH3 0x78A JUMP JUMPDEST DUP4 SSTORE POP JUMPDEST PUSH1 0x1 PUSH1 0x2 DUP9 MUL ADD DUP9 SSTORE POP POP POP JUMPDEST POP POP POP POP POP POP JUMP JUMPDEST PUSH0 DUP3 DUP3 MSTORE PUSH1 0x20 DUP3 ADD SWAP1 POP SWAP3 SWAP2 POP POP JUMP JUMPDEST PUSH32 0x4D79476F7620746F6B656E20737570706C79206D75737420626520657175616C PUSH0 DUP3 ADD MSTORE PUSH32 0x20746F203230206D696C6C696F6E000000000000000000000000000000000000 PUSH1 0x20 DUP3 ADD MSTORE POP JUMP JUMPDEST PUSH0 PUSH3 0x915 PUSH1 0x2E DUP4 PUSH3 0x8A9 JUMP JUMPDEST SWAP2 POP PUSH3 0x922 DUP3 PUSH3 0x8B9 JUMP JUMPDEST PUSH1 0x40 DUP3 ADD SWAP1 POP SWAP2 SWAP1 POP JUMP JUMPDEST PUSH0 PUSH1 0x20 DUP3 ADD SWAP1 POP DUP2 DUP2 SUB PUSH0 DUP4 ADD MSTORE PUSH3 0x946 DUP2 PUSH3 0x907 JUMP JUMPDEST SWAP1 POP SWAP2 SWAP1 POP JUMP JUMPDEST PUSH3 0x958 DUP2 PUSH3 0x495 JUMP JUMPDEST DUP3 MSTORE POP POP JUMP JUMPDEST PUSH0 PUSH1 0x20 DUP3 ADD SWAP1 POP PUSH3 0x973 PUSH0 DUP4 ADD DUP5 PUSH3 0x94D JUMP JUMPDEST SWAP3 SWAP2 POP POP JUMP JUMPDEST PUSH32 0x4E487B7100000000000000000000000000000000000000000000000000000000 PUSH0 MSTORE PUSH1 0x11 PUSH1 0x4 MSTORE PUSH1 0x24 PUSH0 REVERT JUMPDEST PUSH0 PUSH3 0x9B2 DUP3 PUSH3 0x43E JUMP JUMPDEST SWAP2 POP PUSH3 0x9BF DUP4 PUSH3 0x43E JUMP JUMPDEST SWAP3 POP DUP3 DUP3 ADD SWAP1 POP DUP1 DUP3 GT ISZERO PUSH3 0x9DA JUMPI PUSH3 0x9D9 PUSH3 0x979 JUMP JUMPDEST JUMPDEST SWAP3 SWAP2 POP POP JUMP JUMPDEST PUSH3 0x9EB DUP2 PUSH3 0x43E JUMP JUMPDEST DUP3 MSTORE POP POP JUMP JUMPDEST PUSH0 PUSH1 0x60 DUP3 ADD SWAP1 POP PUSH3 0xA06 PUSH0 DUP4 ADD DUP7 PUSH3 0x94D JUMP JUMPDEST PUSH3 0xA15 PUSH1 0x20 DUP4 ADD DUP6 PUSH3 0x9E0 JUMP JUMPDEST PUSH3 0xA24 PUSH1 0x40 DUP4 ADD DUP5 PUSH3 0x9E0 JUMP JUMPDEST SWAP5 SWAP4 POP POP POP POP JUMP JUMPDEST PUSH0 PUSH1 0x20 DUP3 ADD SWAP1 POP PUSH3 0xA41 PUSH0 DUP4 ADD DUP5 PUSH3 0x9E0 JUMP JUMPDEST SWAP3 SWAP2 POP POP JUMP JUMPDEST PUSH2 0x15F6 DUP1 PUSH3 0xA55 PUSH0 CODECOPY PUSH0 RETURN INVALID PUSH1 0x80 PUSH1 0x40 MSTORE CALLVALUE DUP1 ISZERO PUSH2 0xF JUMPI PUSH0 DUP1 REVERT JUMPDEST POP PUSH1 0x4 CALLDATASIZE LT PUSH2 0xFE JUMPI PUSH0 CALLDATALOAD PUSH1 0xE0 SHR DUP1 PUSH4 0x95D89B41 GT PUSH2 0x95 JUMPI DUP1 PUSH4 0xD915902E GT PUSH2 0x64 JUMPI DUP1 PUSH4 0xD915902E EQ PUSH2 0x2D4 JUMPI DUP1 PUSH4 0xDD62ED3E EQ PUSH2 0x2F0 JUMPI DUP1 PUSH4 0xDE5F72FD EQ PUSH2 0x320 JUMPI DUP1 PUSH4 0xE6664928 EQ PUSH2 0x32A JUMPI PUSH2 0xFE JUMP JUMPDEST DUP1 PUSH4 0x95D89B41 EQ PUSH2 0x226 JUMPI DUP1 PUSH4 0xA9059CBB EQ PUSH2 0x244 JUMPI DUP1 PUSH4 0xB3AFCEE4 EQ PUSH2 0x274 JUMPI DUP1 PUSH4 0xC7F48DF7 EQ PUSH2 0x2A4 JUMPI PUSH2 0xFE JUMP JUMPDEST DUP1 PUSH4 0x313CE567 GT PUSH2 0xD1 JUMPI DUP1 PUSH4 0x313CE567 EQ PUSH2 0x19E JUMPI DUP1 PUSH4 0x34DCB04E EQ PUSH2 0x1BC JUMPI DUP1 PUSH4 0x39C94D2D EQ PUSH2 0x1DA JUMPI DUP1 PUSH4 0x70A08231 EQ PUSH2 0x1F6 JUMPI PUSH2 0xFE JUMP JUMPDEST DUP1 PUSH4 0x6FDDE03 EQ PUSH2 0x102 JUMPI DUP1 PUSH4 0x95EA7B3 EQ PUSH2 0x120 JUMPI DUP1 PUSH4 0x18160DDD EQ PUSH2 0x150 JUMPI DUP1 PUSH4 0x23B872DD EQ PUSH2 0x16E JUMPI JUMPDEST PUSH0 DUP1 REVERT JUMPDEST PUSH2 0x10A PUSH2 0x334 JUMP JUMPDEST PUSH1 0x40 MLOAD PUSH2 0x117 SWAP2 SWAP1 PUSH2 0xF31 JUMP JUMPDEST PUSH1 0x40 MLOAD DUP1 SWAP2 SUB SWAP1 RETURN JUMPDEST PUSH2 0x13A PUSH1 0x4 DUP1 CALLDATASIZE SUB DUP2 ADD SWAP1 PUSH2 0x135 SWAP2 SWAP1 PUSH2 0xFE2 JUMP JUMPDEST PUSH2 0x3C4 JUMP JUMPDEST PUSH1 0x40 MLOAD PUSH2 0x147 SWAP2 SWAP1 PUSH2 0x103A JUMP JUMPDEST PUSH1 0x40 MLOAD DUP1 SWAP2 SUB SWAP1 RETURN JUMPDEST PUSH2 0x158 PUSH2 0x3E6 JUMP JUMPDEST PUSH1 0x40 MLOAD PUSH2 0x165 SWAP2 SWAP1 PUSH2 0x1062 JUMP JUMPDEST PUSH1 0x40 MLOAD DUP1 SWAP2 SUB SWAP1 RETURN JUMPDEST PUSH2 0x188 PUSH1 0x4 DUP1 CALLDATASIZE SUB DUP2 ADD SWAP1 PUSH2 0x183 SWAP2 SWAP1 PUSH2 0x107B JUMP JUMPDEST PUSH2 0x3EF JUMP JUMPDEST PUSH1 0x40 MLOAD PUSH2 0x195 SWAP2 SWAP1 PUSH2 0x103A JUMP JUMPDEST PUSH1 0x40 MLOAD DUP1 SWAP2 SUB SWAP1 RETURN JUMPDEST PUSH2 0x1A6 PUSH2 0x41D JUMP JUMPDEST PUSH1 0x40 MLOAD PUSH2 0x1B3 SWAP2 SWAP1 PUSH2 0x10E6 JUMP JUMPDEST PUSH1 0x40 MLOAD DUP1 SWAP2 SUB SWAP1 RETURN JUMPDEST PUSH2 0x1C4 PUSH2 0x425 JUMP JUMPDEST PUSH1 0x40 MLOAD PUSH2 0x1D1 SWAP2 SWAP1 PUSH2 0x115A JUMP JUMPDEST PUSH1 0x40 MLOAD DUP1 SWAP2 SUB SWAP1 RETURN JUMPDEST PUSH2 0x1F4 PUSH1 0x4 DUP1 CALLDATASIZE SUB DUP2 ADD SWAP1 PUSH2 0x1EF SWAP2 SWAP1 PUSH2 0x1173 JUMP JUMPDEST PUSH2 0x44A JUMP JUMPDEST STOP JUMPDEST PUSH2 0x210 PUSH1 0x4 DUP1 CALLDATASIZE SUB DUP2 ADD SWAP1 PUSH2 0x20B SWAP2 SWAP1 PUSH2 0x119E JUMP JUMPDEST PUSH2 0x458 JUMP JUMPDEST PUSH1 0x40 MLOAD PUSH2 0x21D SWAP2 SWAP1 PUSH2 0x1062 JUMP JUMPDEST PUSH1 0x40 MLOAD DUP1 SWAP2 SUB SWAP1 RETURN JUMPDEST PUSH2 0x22E PUSH2 0x49D JUMP JUMPDEST PUSH1 0x40 MLOAD PUSH2 0x23B SWAP2 SWAP1 PUSH2 0xF31 JUMP JUMPDEST PUSH1 0x40 MLOAD DUP1 SWAP2 SUB SWAP1 RETURN JUMPDEST PUSH2 0x25E PUSH1 0x4 DUP1 CALLDATASIZE SUB DUP2 ADD SWAP1 PUSH2 0x259 SWAP2 SWAP1 PUSH2 0xFE2 JUMP JUMPDEST PUSH2 0x52D JUMP JUMPDEST PUSH1 0x40 MLOAD PUSH2 0x26B SWAP2 SWAP1 PUSH2 0x103A JUMP JUMPDEST PUSH1 0x40 MLOAD DUP1 SWAP2 SUB SWAP1 RETURN JUMPDEST PUSH2 0x28E PUSH1 0x4 DUP1 CALLDATASIZE SUB DUP2 ADD SWAP1 PUSH2 0x289 SWAP2 SWAP1 PUSH2 0x119E JUMP JUMPDEST PUSH2 0x54F JUMP JUMPDEST PUSH1 0x40 MLOAD PUSH2 0x29B SWAP2 SWAP1 PUSH2 0x103A JUMP JUMPDEST PUSH1 0x40 MLOAD DUP1 SWAP2 SUB SWAP1 RETURN JUMPDEST PUSH2 0x2BE PUSH1 0x4 DUP1 CALLDATASIZE SUB DUP2 ADD SWAP1 PUSH2 0x2B9 SWAP2 SWAP1 PUSH2 0x119E JUMP JUMPDEST PUSH2 0x562 JUMP JUMPDEST PUSH1 0x40 MLOAD PUSH2 0x2CB SWAP2 SWAP1 PUSH2 0x1062 JUMP JUMPDEST PUSH1 0x40 MLOAD DUP1 SWAP2 SUB SWAP1 RETURN JUMPDEST PUSH2 0x2EE PUSH1 0x4 DUP1 CALLDATASIZE SUB DUP2 ADD SWAP1 PUSH2 0x2E9 SWAP2 SWAP1 PUSH2 0x1173 JUMP JUMPDEST PUSH2 0x603 JUMP JUMPDEST STOP JUMPDEST PUSH2 0x30A PUSH1 0x4 DUP1 CALLDATASIZE SUB DUP2 ADD SWAP1 PUSH2 0x305 SWAP2 SWAP1 PUSH2 0x11C9 JUMP JUMPDEST PUSH2 0x6A3 JUMP JUMPDEST PUSH1 0x40 MLOAD PUSH2 0x317 SWAP2 SWAP1 PUSH2 0x1062 JUMP JUMPDEST PUSH1 0x40 MLOAD DUP1 SWAP2 SUB SWAP1 RETURN JUMPDEST PUSH2 0x328 PUSH2 0x725 JUMP JUMPDEST STOP JUMPDEST PUSH2 0x332 PUSH2 0x8CD JUMP JUMPDEST STOP JUMPDEST PUSH1 0x60 PUSH1 0x3 DUP1 SLOAD PUSH2 0x343 SWAP1 PUSH2 0x1234 JUMP JUMPDEST DUP1 PUSH1 0x1F ADD PUSH1 0x20 DUP1 SWAP2 DIV MUL PUSH1 0x20 ADD PUSH1 0x40 MLOAD SWAP1 DUP2 ADD PUSH1 0x40 MSTORE DUP1 SWAP3 SWAP2 SWAP1 DUP2 DUP2 MSTORE PUSH1 0x20 ADD DUP3 DUP1 SLOAD PUSH2 0x36F SWAP1 PUSH2 0x1234 JUMP JUMPDEST DUP1 ISZERO PUSH2 0x3BA JUMPI DUP1 PUSH1 0x1F LT PUSH2 0x391 JUMPI PUSH2 0x100 DUP1 DUP4 SLOAD DIV MUL DUP4 MSTORE SWAP2 PUSH1 0x20 ADD SWAP2 PUSH2 0x3BA JUMP JUMPDEST DUP3 ADD SWAP2 SWAP1 PUSH0 MSTORE PUSH1 0x20 PUSH0 KECCAK256 SWAP1 JUMPDEST DUP2 SLOAD DUP2 MSTORE SWAP1 PUSH1 0x1 ADD SWAP1 PUSH1 0x20 ADD DUP1 DUP4 GT PUSH2 0x39D JUMPI DUP3 SWAP1 SUB PUSH1 0x1F AND DUP3 ADD SWAP2 JUMPDEST POP POP POP POP POP SWAP1 POP SWAP1 JUMP JUMPDEST PUSH0 DUP1 PUSH2 0x3CE PUSH2 0x924 JUMP JUMPDEST SWAP1 POP PUSH2 0x3DB DUP2 DUP6 DUP6 PUSH2 0x92B JUMP JUMPDEST PUSH1 0x1 SWAP2 POP POP SWAP3 SWAP2 POP POP JUMP JUMPDEST PUSH0 PUSH1 0x2 SLOAD SWAP1 POP SWAP1 JUMP JUMPDEST PUSH0 DUP1 PUSH2 0x3F9 PUSH2 0x924 JUMP JUMPDEST SWAP1 POP PUSH2 0x406 DUP6 DUP3 DUP6 PUSH2 0x93D JUMP JUMPDEST PUSH2 0x411 DUP6 DUP6 DUP6 PUSH2 0x9CF JUMP JUMPDEST PUSH1 0x1 SWAP2 POP POP SWAP4 SWAP3 POP POP POP JUMP JUMPDEST PUSH0 PUSH1 0x12 SWAP1 POP SWAP1 JUMP JUMPDEST PUSH1 0x6 PUSH0 SWAP1 SLOAD SWAP1 PUSH2 0x100 EXP SWAP1 DIV PUSH20 0xFFFFFFFFFFFFFFFFFFFFFFFFFFFFFFFFFFFFFFFF AND DUP2 JUMP JUMPDEST PUSH2 0x454 ADDRESS DUP3 PUSH2 0x52D JUMP JUMPDEST POP POP JUMP JUMPDEST PUSH0 DUP1 PUSH0 DUP4 PUSH20 0xFFFFFFFFFFFFFFFFFFFFFFFFFFFFFFFFFFFFFFFF AND PUSH20 0xFFFFFFFFFFFFFFFFFFFFFFFFFFFFFFFFFFFFFFFF AND DUP2 MSTORE PUSH1 0x20 ADD SWAP1 DUP2 MSTORE PUSH1 0x20 ADD PUSH0 KECCAK256 SLOAD SWAP1 POP SWAP2 SWAP1 POP JUMP JUMPDEST PUSH1 0x60 PUSH1 0x4 DUP1 SLOAD PUSH2 0x4AC SWAP1 PUSH2 0x1234 JUMP JUMPDEST DUP1 PUSH1 0x1F ADD PUSH1 0x20 DUP1 SWAP2 DIV MUL PUSH1 0x20 ADD PUSH1 0x40 MLOAD SWAP1 DUP2 ADD PUSH1 0x40 MSTORE DUP1 SWAP3 SWAP2 SWAP1 DUP2 DUP2 MSTORE PUSH1 0x20 ADD DUP3 DUP1 SLOAD PUSH2 0x4D8 SWAP1 PUSH2 0x1234 JUMP JUMPDEST DUP1 ISZERO PUSH2 0x523 JUMPI DUP1 PUSH1 0x1F LT PUSH2 0x4FA JUMPI PUSH2 0x100 DUP1 DUP4 SLOAD DIV MUL DUP4 MSTORE SWAP2 PUSH1 0x20 ADD SWAP2 PUSH2 0x523 JUMP JUMPDEST DUP3 ADD SWAP2 SWAP1 PUSH0 MSTORE PUSH1 0x20 PUSH0 KECCAK256 SWAP1 JUMPDEST DUP2 SLOAD DUP2 MSTORE SWAP1 PUSH1 0x1 ADD SWAP1 PUSH1 0x20 ADD DUP1 DUP4 GT PUSH2 0x506 JUMPI DUP3 SWAP1 SUB PUSH1 0x1F AND DUP3 ADD SWAP2 JUMPDEST POP POP POP POP POP SWAP1 POP SWAP1 JUMP JUMPDEST PUSH0 DUP1 PUSH2 0x537 PUSH2 0x924 JUMP JUMPDEST SWAP1 POP PUSH2 0x544 DUP2 DUP6 DUP6 PUSH2 0x9CF JUMP JUMPDEST PUSH1 0x1 SWAP2 POP POP SWAP3 SWAP2 POP POP JUMP JUMPDEST PUSH0 DUP1 PUSH2 0x55A DUP4 PUSH2 0x458 JUMP JUMPDEST GT SWAP1 POP SWAP2 SWAP1 POP JUMP JUMPDEST PUSH0 PUSH1 0x6 PUSH0 SWAP1 SLOAD SWAP1 PUSH2 0x100 EXP SWAP1 DIV PUSH20 0xFFFFFFFFFFFFFFFFFFFFFFFFFFFFFFFFFFFFFFFF AND PUSH20 0xFFFFFFFFFFFFFFFFFFFFFFFFFFFFFFFFFFFFFFFF AND PUSH4 0x70A08231 DUP4 PUSH1 0x40 MLOAD DUP3 PUSH4 0xFFFFFFFF AND PUSH1 0xE0 SHL DUP2 MSTORE PUSH1 0x4 ADD PUSH2 0x5BD SWAP2 SWAP1 PUSH2 0x1273 JUMP JUMPDEST PUSH1 0x20 PUSH1 0x40 MLOAD DUP1 DUP4 SUB DUP2 DUP7 GAS STATICCALL ISZERO DUP1 ISZERO PUSH2 0x5D8 JUMPI RETURNDATASIZE PUSH0 DUP1 RETURNDATACOPY RETURNDATASIZE PUSH0 REVERT JUMPDEST POP POP POP POP PUSH1 0x40 MLOAD RETURNDATASIZE PUSH1 0x1F NOT PUSH1 0x1F DUP3 ADD AND DUP3 ADD DUP1 PUSH1 0x40 MSTORE POP DUP2 ADD SWAP1 PUSH2 0x5FC SWAP2 SWAP1 PUSH2 0x12A0 JUMP JUMPDEST SWAP1 POP SWAP2 SWAP1 POP JUMP JUMPDEST PUSH1 0x6 PUSH0 SWAP1 SLOAD SWAP1 PUSH2 0x100 EXP SWAP1 DIV PUSH20 0xFFFFFFFFFFFFFFFFFFFFFFFFFFFFFFFFFFFFFFFF AND PUSH20 0xFFFFFFFFFFFFFFFFFFFFFFFFFFFFFFFFFFFFFFFF AND PUSH4 0xA9059CBB ADDRESS DUP4 PUSH1 0x40 MLOAD DUP4 PUSH4 0xFFFFFFFF AND PUSH1 0xE0 SHL DUP2 MSTORE PUSH1 0x4 ADD PUSH2 0x65F SWAP3 SWAP2 SWAP1 PUSH2 0x12CB JUMP JUMPDEST PUSH1 0x20 PUSH1 0x40 MLOAD DUP1 DUP4 SUB DUP2 PUSH0 DUP8 GAS CALL ISZERO DUP1 ISZERO PUSH2 0x67B JUMPI RETURNDATASIZE PUSH0 DUP1 RETURNDATACOPY RETURNDATASIZE PUSH0 REVERT JUMPDEST POP POP POP POP PUSH1 0x40 MLOAD RETURNDATASIZE PUSH1 0x1F NOT PUSH1 0x1F DUP3 ADD AND DUP3 ADD DUP1 PUSH1 0x40 MSTORE POP DUP2 ADD SWAP1 PUSH2 0x69F SWAP2 SWAP1 PUSH2 0x131C JUMP JUMPDEST POP POP JUMP JUMPDEST PUSH0 PUSH1 0x1 PUSH0 DUP5 PUSH20 0xFFFFFFFFFFFFFFFFFFFFFFFFFFFFFFFFFFFFFFFF AND PUSH20 0xFFFFFFFFFFFFFFFFFFFFFFFFFFFFFFFFFFFFFFFF AND DUP2 MSTORE PUSH1 0x20 ADD SWAP1 DUP2 MSTORE PUSH1 0x20 ADD PUSH0 KECCAK256 PUSH0 DUP4 PUSH20 0xFFFFFFFFFFFFFFFFFFFFFFFFFFFFFFFFFFFFFFFF AND PUSH20 0xFFFFFFFFFFFFFFFFFFFFFFFFFFFFFFFFFFFFFFFF AND DUP2 MSTORE PUSH1 0x20 ADD SWAP1 DUP2 MSTORE PUSH1 0x20 ADD PUSH0 KECCAK256 SLOAD SWAP1 POP SWAP3 SWAP2 POP POP JUMP JUMPDEST PUSH0 PUSH2 0x72F ADDRESS PUSH2 0x458 JUMP JUMPDEST GT PUSH2 0x76F JUMPI PUSH1 0x40 MLOAD PUSH32 0x8C379A000000000000000000000000000000000000000000000000000000000 DUP2 MSTORE PUSH1 0x4 ADD PUSH2 0x766 SWAP1 PUSH2 0x1391 JUMP JUMPDEST PUSH1 0x40 MLOAD DUP1 SWAP2 SUB SWAP1 REVERT JUMPDEST PUSH1 0x7 PUSH0 CALLER PUSH20 0xFFFFFFFFFFFFFFFFFFFFFFFFFFFFFFFFFFFFFFFF AND PUSH20 0xFFFFFFFFFFFFFFFFFFFFFFFFFFFFFFFFFFFFFFFF AND DUP2 MSTORE PUSH1 0x20 ADD SWAP1 DUP2 MSTORE PUSH1 0x20 ADD PUSH0 KECCAK256 PUSH0 SWAP1 SLOAD SWAP1 PUSH2 0x100 EXP SWAP1 DIV PUSH1 0xFF AND ISZERO PUSH2 0x7F9 JUMPI PUSH1 0x40 MLOAD PUSH32 0x8C379A000000000000000000000000000000000000000000000000000000000 DUP2 MSTORE PUSH1 0x4 ADD PUSH2 0x7F0 SWAP1 PUSH2 0x141F JUMP JUMPDEST PUSH1 0x40 MLOAD DUP1 SWAP2 SUB SWAP1 REVERT JUMPDEST ADDRESS PUSH20 0xFFFFFFFFFFFFFFFFFFFFFFFFFFFFFFFFFFFFFFFF AND PUSH4 0xA9059CBB CALLER PUSH1 0xA PUSH1 0x40 MLOAD DUP4 PUSH4 0xFFFFFFFF AND PUSH1 0xE0 SHL DUP2 MSTORE PUSH1 0x4 ADD PUSH2 0x835 SWAP3 SWAP2 SWAP1 PUSH2 0x1476 JUMP JUMPDEST PUSH1 0x20 PUSH1 0x40 MLOAD DUP1 DUP4 SUB DUP2 PUSH0 DUP8 GAS CALL ISZERO DUP1 ISZERO PUSH2 0x851 JUMPI RETURNDATASIZE PUSH0 DUP1 RETURNDATACOPY RETURNDATASIZE PUSH0 REVERT JUMPDEST POP POP POP POP PUSH1 0x40 MLOAD RETURNDATASIZE PUSH1 0x1F NOT PUSH1 0x1F DUP3 ADD AND DUP3 ADD DUP1 PUSH1 0x40 MSTORE POP DUP2 ADD SWAP1 PUSH2 0x875 SWAP2 SWAP1 PUSH2 0x131C JUMP JUMPDEST POP PUSH1 0x1 PUSH1 0x7 PUSH0 CALLER PUSH20 0xFFFFFFFFFFFFFFFFFFFFFFFFFFFFFFFFFFFFFFFF AND PUSH20 0xFFFFFFFFFFFFFFFFFFFFFFFFFFFFFFFFFFFFFFFF AND DUP2 MSTORE PUSH1 0x20 ADD SWAP1 DUP2 MSTORE PUSH1 0x20 ADD PUSH0 KECCAK256 PUSH0 PUSH2 0x100 EXP DUP2 SLOAD DUP2 PUSH1 0xFF MUL NOT AND SWAP1 DUP4 ISZERO ISZERO MUL OR SWAP1 SSTORE POP JUMP JUMPDEST PUSH1 0x8 PUSH0 SWAP1 SLOAD SWAP1 PUSH2 0x100 EXP SWAP1 DIV PUSH1 0xFF AND PUSH2 0x91B JUMPI PUSH1 0x40 MLOAD PUSH32 0x8C379A000000000000000000000000000000000000000000000000000000000 DUP2 MSTORE PUSH1 0x4 ADD PUSH2 0x912 SWAP1 PUSH2 0x150D JUMP JUMPDEST PUSH1 0x40 MLOAD DUP1 SWAP2 SUB SWAP1 REVERT JUMPDEST PUSH0 PUSH1 0x5 DUP2 SWAP1 SSTORE POP JUMP JUMPDEST PUSH0 CALLER SWAP1 POP SWAP1 JUMP JUMPDEST PUSH2 0x938 DUP4 DUP4 DUP4 PUSH1 0x1 PUSH2 0xABF JUMP JUMPDEST POP POP POP JUMP JUMPDEST PUSH0 PUSH2 0x948 DUP5 DUP5 PUSH2 0x6A3 JUMP JUMPDEST SWAP1 POP PUSH32 0xFFFFFFFFFFFFFFFFFFFFFFFFFFFFFFFFFFFFFFFFFFFFFFFFFFFFFFFFFFFFFFFF DUP2 EQ PUSH2 0x9C9 JUMPI DUP2 DUP2 LT ISZERO PUSH2 0x9BA JUMPI DUP3 DUP2 DUP4 PUSH1 0x40 MLOAD PUSH32 0xFB8F41B200000000000000000000000000000000000000000000000000000000 DUP2 MSTORE PUSH1 0x4 ADD PUSH2 0x9B1 SWAP4 SWAP3 SWAP2 SWAP1 PUSH2 0x152B JUMP JUMPDEST PUSH1 0x40 MLOAD DUP1 SWAP2 SUB SWAP1 REVERT JUMPDEST PUSH2 0x9C8 DUP5 DUP5 DUP5 DUP5 SUB PUSH0 PUSH2 0xABF JUMP JUMPDEST JUMPDEST POP POP POP POP JUMP JUMPDEST PUSH0 PUSH20 0xFFFFFFFFFFFFFFFFFFFFFFFFFFFFFFFFFFFFFFFF AND DUP4 PUSH20 0xFFFFFFFFFFFFFFFFFFFFFFFFFFFFFFFFFFFFFFFF AND SUB PUSH2 0xA3F JUMPI PUSH0 PUSH1 0x40 MLOAD PUSH32 0x96C6FD1E00000000000000000000000000000000000000000000000000000000 DUP2 MSTORE PUSH1 0x4 ADD PUSH2 0xA36 SWAP2 SWAP1 PUSH2 0x1273 JUMP JUMPDEST PUSH1 0x40 MLOAD DUP1 SWAP2 SUB SWAP1 REVERT JUMPDEST PUSH0 PUSH20 0xFFFFFFFFFFFFFFFFFFFFFFFFFFFFFFFFFFFFFFFF AND DUP3 PUSH20 0xFFFFFFFFFFFFFFFFFFFFFFFFFFFFFFFFFFFFFFFF AND SUB PUSH2 0xAAF JUMPI PUSH0 PUSH1 0x40 MLOAD PUSH32 0xEC442F0500000000000000000000000000000000000000000000000000000000 DUP2 MSTORE PUSH1 0x4 ADD PUSH2 0xAA6 SWAP2 SWAP1 PUSH2 0x1273 JUMP JUMPDEST PUSH1 0x40 MLOAD DUP1 SWAP2 SUB SWAP1 REVERT JUMPDEST PUSH2 0xABA DUP4 DUP4 DUP4 PUSH2 0xC8E JUMP JUMPDEST POP POP POP JUMP JUMPDEST PUSH0 PUSH20 0xFFFFFFFFFFFFFFFFFFFFFFFFFFFFFFFFFFFFFFFF AND DUP5 PUSH20 0xFFFFFFFFFFFFFFFFFFFFFFFFFFFFFFFFFFFFFFFF AND SUB PUSH2 0xB2F JUMPI PUSH0 PUSH1 0x40 MLOAD PUSH32 0xE602DF0500000000000000000000000000000000000000000000000000000000 DUP2 MSTORE PUSH1 0x4 ADD PUSH2 0xB26 SWAP2 SWAP1 PUSH2 0x1273 JUMP JUMPDEST PUSH1 0x40 MLOAD DUP1 SWAP2 SUB SWAP1 REVERT JUMPDEST PUSH0 PUSH20 0xFFFFFFFFFFFFFFFFFFFFFFFFFFFFFFFFFFFFFFFF AND DUP4 PUSH20 0xFFFFFFFFFFFFFFFFFFFFFFFFFFFFFFFFFFFFFFFF AND SUB PUSH2 0xB9F JUMPI PUSH0 PUSH1 0x40 MLOAD PUSH32 0x94280D6200000000000000000000000000000000000000000000000000000000 DUP2 MSTORE PUSH1 0x4 ADD PUSH2 0xB96 SWAP2 SWAP1 PUSH2 0x1273 JUMP JUMPDEST PUSH1 0x40 MLOAD DUP1 SWAP2 SUB SWAP1 REVERT JUMPDEST DUP2 PUSH1 0x1 PUSH0 DUP7 PUSH20 0xFFFFFFFFFFFFFFFFFFFFFFFFFFFFFFFFFFFFFFFF AND PUSH20 0xFFFFFFFFFFFFFFFFFFFFFFFFFFFFFFFFFFFFFFFF AND DUP2 MSTORE PUSH1 0x20 ADD SWAP1 DUP2 MSTORE PUSH1 0x20 ADD PUSH0 KECCAK256 PUSH0 DUP6 PUSH20 0xFFFFFFFFFFFFFFFFFFFFFFFFFFFFFFFFFFFFFFFF AND PUSH20 0xFFFFFFFFFFFFFFFFFFFFFFFFFFFFFFFFFFFFFFFF AND DUP2 MSTORE PUSH1 0x20 ADD SWAP1 DUP2 MSTORE PUSH1 0x20 ADD PUSH0 KECCAK256 DUP2 SWAP1 SSTORE POP DUP1 ISZERO PUSH2 0xC88 JUMPI DUP3 PUSH20 0xFFFFFFFFFFFFFFFFFFFFFFFFFFFFFFFFFFFFFFFF AND DUP5 PUSH20 0xFFFFFFFFFFFFFFFFFFFFFFFFFFFFFFFFFFFFFFFF AND PUSH32 0x8C5BE1E5EBEC7D5BD14F71427D1E84F3DD0314C0F7B2291E5B200AC8C7C3B925 DUP5 PUSH1 0x40 MLOAD PUSH2 0xC7F SWAP2 SWAP1 PUSH2 0x1062 JUMP JUMPDEST PUSH1 0x40 MLOAD DUP1 SWAP2 SUB SWAP1 LOG3 JUMPDEST POP POP POP POP JUMP JUMPDEST PUSH0 PUSH20 0xFFFFFFFFFFFFFFFFFFFFFFFFFFFFFFFFFFFFFFFF AND DUP4 PUSH20 0xFFFFFFFFFFFFFFFFFFFFFFFFFFFFFFFFFFFFFFFF AND SUB PUSH2 0xCDE JUMPI DUP1 PUSH1 0x2 PUSH0 DUP3 DUP3 SLOAD PUSH2 0xCD2 SWAP2 SWAP1 PUSH2 0x158D JUMP JUMPDEST SWAP3 POP POP DUP2 SWAP1 SSTORE POP PUSH2 0xDAC JUMP JUMPDEST PUSH0 DUP1 PUSH0 DUP6 PUSH20 0xFFFFFFFFFFFFFFFFFFFFFFFFFFFFFFFFFFFFFFFF AND PUSH20 0xFFFFFFFFFFFFFFFFFFFFFFFFFFFFFFFFFFFFFFFF AND DUP2 MSTORE PUSH1 0x20 ADD SWAP1 DUP2 MSTORE PUSH1 0x20 ADD PUSH0 KECCAK256 SLOAD SWAP1 POP DUP2 DUP2 LT ISZERO PUSH2 0xD67 JUMPI DUP4 DUP2 DUP4 PUSH1 0x40 MLOAD PUSH32 0xE450D38C00000000000000000000000000000000000000000000000000000000 DUP2 MSTORE PUSH1 0x4 ADD PUSH2 0xD5E SWAP4 SWAP3 SWAP2 SWAP1 PUSH2 0x152B JUMP JUMPDEST PUSH1 0x40 MLOAD DUP1 SWAP2 SUB SWAP1 REVERT JUMPDEST DUP2 DUP2 SUB PUSH0 DUP1 DUP7 PUSH20 0xFFFFFFFFFFFFFFFFFFFFFFFFFFFFFFFFFFFFFFFF AND PUSH20 0xFFFFFFFFFFFFFFFFFFFFFFFFFFFFFFFFFFFFFFFF AND DUP2 MSTORE PUSH1 0x20 ADD SWAP1 DUP2 MSTORE PUSH1 0x20 ADD PUSH0 KECCAK256 DUP2 SWAP1 SSTORE POP POP JUMPDEST PUSH0 PUSH20 0xFFFFFFFFFFFFFFFFFFFFFFFFFFFFFFFFFFFFFFFF AND DUP3 PUSH20 0xFFFFFFFFFFFFFFFFFFFFFFFFFFFFFFFFFFFFFFFF AND SUB PUSH2 0xDF3 JUMPI DUP1 PUSH1 0x2 PUSH0 DUP3 DUP3 SLOAD SUB SWAP3 POP POP DUP2 SWAP1 SSTORE POP PUSH2 0xE3D JUMP JUMPDEST DUP1 PUSH0 DUP1 DUP5 PUSH20 0xFFFFFFFFFFFFFFFFFFFFFFFFFFFFFFFFFFFFFFFF AND PUSH20 0xFFFFFFFFFFFFFFFFFFFFFFFFFFFFFFFFFFFFFFFF AND DUP2 MSTORE PUSH1 0x20 ADD SWAP1 DUP2 MSTORE PUSH1 0x20 ADD PUSH0 KECCAK256 PUSH0 DUP3 DUP3 SLOAD ADD SWAP3 POP POP DUP2 SWAP1 SSTORE POP JUMPDEST DUP2 PUSH20 0xFFFFFFFFFFFFFFFFFFFFFFFFFFFFFFFFFFFFFFFF AND DUP4 PUSH20 0xFFFFFFFFFFFFFFFFFFFFFFFFFFFFFFFFFFFFFFFF AND PUSH32 0xDDF252AD1BE2C89B69C2B068FC378DAA952BA7F163C4A11628F55A4DF523B3EF DUP4 PUSH1 0x40 MLOAD PUSH2 0xE9A SWAP2 SWAP1 PUSH2 0x1062 JUMP JUMPDEST PUSH1 0x40 MLOAD DUP1 SWAP2 SUB SWAP1 LOG3 POP POP POP JUMP JUMPDEST PUSH0 DUP2 MLOAD SWAP1 POP SWAP2 SWAP1 POP JUMP JUMPDEST PUSH0 DUP3 DUP3 MSTORE PUSH1 0x20 DUP3 ADD SWAP1 POP SWAP3 SWAP2 POP POP JUMP JUMPDEST PUSH0 JUMPDEST DUP4 DUP2 LT ISZERO PUSH2 0xEDE JUMPI DUP1 DUP3 ADD MLOAD DUP2 DUP5 ADD MSTORE PUSH1 0x20 DUP2 ADD SWAP1 POP PUSH2 0xEC3 JUMP JUMPDEST PUSH0 DUP5 DUP5 ADD MSTORE POP POP POP POP JUMP JUMPDEST PUSH0 PUSH1 0x1F NOT PUSH1 0x1F DUP4 ADD AND SWAP1 POP SWAP2 SWAP1 POP JUMP JUMPDEST PUSH0 PUSH2 0xF03 DUP3 PUSH2 0xEA7 JUMP JUMPDEST PUSH2 0xF0D DUP2 DUP6 PUSH2 0xEB1 JUMP JUMPDEST SWAP4 POP PUSH2 0xF1D DUP2 DUP6 PUSH1 0x20 DUP7 ADD PUSH2 0xEC1 JUMP JUMPDEST PUSH2 0xF26 DUP2 PUSH2 0xEE9 JUMP JUMPDEST DUP5 ADD SWAP2 POP POP SWAP3 SWAP2 POP POP JUMP JUMPDEST PUSH0 PUSH1 0x20 DUP3 ADD SWAP1 POP DUP2 DUP2 SUB PUSH0 DUP4 ADD MSTORE PUSH2 0xF49 DUP2 DUP5 PUSH2 0xEF9 JUMP JUMPDEST SWAP1 POP SWAP3 SWAP2 POP POP JUMP JUMPDEST PUSH0 DUP1 REVERT JUMPDEST PUSH0 PUSH20 0xFFFFFFFFFFFFFFFFFFFFFFFFFFFFFFFFFFFFFFFF DUP3 AND SWAP1 POP SWAP2 SWAP1 POP JUMP JUMPDEST PUSH0 PUSH2 0xF7E DUP3 PUSH2 0xF55 JUMP JUMPDEST SWAP1 POP SWAP2 SWAP1 POP JUMP JUMPDEST PUSH2 0xF8E DUP2 PUSH2 0xF74 JUMP JUMPDEST DUP2 EQ PUSH2 0xF98 JUMPI PUSH0 DUP1 REVERT JUMPDEST POP JUMP JUMPDEST PUSH0 DUP2 CALLDATALOAD SWAP1 POP PUSH2 0xFA9 DUP2 PUSH2 0xF85 JUMP JUMPDEST SWAP3 SWAP2 POP POP JUMP JUMPDEST PUSH0 DUP2 SWAP1 POP SWAP2 SWAP1 POP JUMP JUMPDEST PUSH2 0xFC1 DUP2 PUSH2 0xFAF JUMP JUMPDEST DUP2 EQ PUSH2 0xFCB JUMPI PUSH0 DUP1 REVERT JUMPDEST POP JUMP JUMPDEST PUSH0 DUP2 CALLDATALOAD SWAP1 POP PUSH2 0xFDC DUP2 PUSH2 0xFB8 JUMP JUMPDEST SWAP3 SWAP2 POP POP JUMP JUMPDEST PUSH0 DUP1 PUSH1 0x40 DUP4 DUP6 SUB SLT ISZERO PUSH2 0xFF8 JUMPI PUSH2 0xFF7 PUSH2 0xF51 JUMP JUMPDEST JUMPDEST PUSH0 PUSH2 0x1005 DUP6 DUP3 DUP7 ADD PUSH2 0xF9B JUMP JUMPDEST SWAP3 POP POP PUSH1 0x20 PUSH2 0x1016 DUP6 DUP3 DUP7 ADD PUSH2 0xFCE JUMP JUMPDEST SWAP2 POP POP SWAP3 POP SWAP3 SWAP1 POP JUMP JUMPDEST PUSH0 DUP2 ISZERO ISZERO SWAP1 POP SWAP2 SWAP1 POP JUMP JUMPDEST PUSH2 0x1034 DUP2 PUSH2 0x1020 JUMP JUMPDEST DUP3 MSTORE POP POP JUMP JUMPDEST PUSH0 PUSH1 0x20 DUP3 ADD SWAP1 POP PUSH2 0x104D PUSH0 DUP4 ADD DUP5 PUSH2 0x102B JUMP JUMPDEST SWAP3 SWAP2 POP POP JUMP JUMPDEST PUSH2 0x105C DUP2 PUSH2 0xFAF JUMP JUMPDEST DUP3 MSTORE POP POP JUMP JUMPDEST PUSH0 PUSH1 0x20 DUP3 ADD SWAP1 POP PUSH2 0x1075 PUSH0 DUP4 ADD DUP5 PUSH2 0x1053 JUMP JUMPDEST SWAP3 SWAP2 POP POP JUMP JUMPDEST PUSH0 DUP1 PUSH0 PUSH1 0x60 DUP5 DUP7 SUB SLT ISZERO PUSH2 0x1092 JUMPI PUSH2 0x1091 PUSH2 0xF51 JUMP JUMPDEST JUMPDEST PUSH0 PUSH2 0x109F DUP7 DUP3 DUP8 ADD PUSH2 0xF9B JUMP JUMPDEST SWAP4 POP POP PUSH1 0x20 PUSH2 0x10B0 DUP7 DUP3 DUP8 ADD PUSH2 0xF9B JUMP JUMPDEST SWAP3 POP POP PUSH1 0x40 PUSH2 0x10C1 DUP7 DUP3 DUP8 ADD PUSH2 0xFCE JUMP JUMPDEST SWAP2 POP POP SWAP3 POP SWAP3 POP SWAP3 JUMP JUMPDEST PUSH0 PUSH1 0xFF DUP3 AND SWAP1 POP SWAP2 SWAP1 POP JUMP JUMPDEST PUSH2 0x10E0 DUP2 PUSH2 0x10CB JUMP JUMPDEST DUP3 MSTORE POP POP JUMP JUMPDEST PUSH0 PUSH1 0x20 DUP3 ADD SWAP1 POP PUSH2 0x10F9 PUSH0 DUP4 ADD DUP5 PUSH2 0x10D7 JUMP JUMPDEST SWAP3 SWAP2 POP POP JUMP JUMPDEST PUSH0 DUP2 SWAP1 POP SWAP2 SWAP1 POP JUMP JUMPDEST PUSH0 PUSH2 0x1122 PUSH2 0x111D PUSH2 0x1118 DUP5 PUSH2 0xF55 JUMP JUMPDEST PUSH2 0x10FF JUMP JUMPDEST PUSH2 0xF55 JUMP JUMPDEST SWAP1 POP SWAP2 SWAP1 POP JUMP JUMPDEST PUSH0 PUSH2 0x1133 DUP3 PUSH2 0x1108 JUMP JUMPDEST SWAP1 POP SWAP2 SWAP1 POP JUMP JUMPDEST PUSH0 PUSH2 0x1144 DUP3 PUSH2 0x1129 JUMP JUMPDEST SWAP1 POP SWAP2 SWAP1 POP JUMP JUMPDEST PUSH2 0x1154 DUP2 PUSH2 0x113A JUMP JUMPDEST DUP3 MSTORE POP POP JUMP JUMPDEST PUSH0 PUSH1 0x20 DUP3 ADD SWAP1 POP PUSH2 0x116D PUSH0 DUP4 ADD DUP5 PUSH2 0x114B JUMP JUMPDEST SWAP3 SWAP2 POP POP JUMP JUMPDEST PUSH0 PUSH1 0x20 DUP3 DUP5 SUB SLT ISZERO PUSH2 0x1188 JUMPI PUSH2 0x1187 PUSH2 0xF51 JUMP JUMPDEST JUMPDEST PUSH0 PUSH2 0x1195 DUP5 DUP3 DUP6 ADD PUSH2 0xFCE JUMP JUMPDEST SWAP2 POP POP SWAP3 SWAP2 POP POP JUMP JUMPDEST PUSH0 PUSH1 0x20 DUP3 DUP5 SUB SLT ISZERO PUSH2 0x11B3 JUMPI PUSH2 0x11B2 PUSH2 0xF51 JUMP JUMPDEST JUMPDEST PUSH0 PUSH2 0x11C0 DUP5 DUP3 DUP6 ADD PUSH2 0xF9B JUMP JUMPDEST SWAP2 POP POP SWAP3 SWAP2 POP POP JUMP JUMPDEST PUSH0 DUP1 PUSH1 0x40 DUP4 DUP6 SUB SLT ISZERO PUSH2 0x11DF JUMPI PUSH2 0x11DE PUSH2 0xF51 JUMP JUMPDEST JUMPDEST PUSH0 PUSH2 0x11EC DUP6 DUP3 DUP7 ADD PUSH2 0xF9B JUMP JUMPDEST SWAP3 POP POP PUSH1 0x20 PUSH2 0x11FD DUP6 DUP3 DUP7 ADD PUSH2 0xF9B JUMP JUMPDEST SWAP2 POP POP SWAP3 POP SWAP3 SWAP1 POP JUMP JUMPDEST PUSH32 0x4E487B7100000000000000000000000000000000000000000000000000000000 PUSH0 MSTORE PUSH1 0x22 PUSH1 0x4 MSTORE PUSH1 0x24 PUSH0 REVERT JUMPDEST PUSH0 PUSH1 0x2 DUP3 DIV SWAP1 POP PUSH1 0x1 DUP3 AND DUP1 PUSH2 0x124B JUMPI PUSH1 0x7F DUP3 AND SWAP2 POP JUMPDEST PUSH1 0x20 DUP3 LT DUP2 SUB PUSH2 0x125E JUMPI PUSH2 0x125D PUSH2 0x1207 JUMP JUMPDEST JUMPDEST POP SWAP2 SWAP1 POP JUMP JUMPDEST PUSH2 0x126D DUP2 PUSH2 0xF74 JUMP JUMPDEST DUP3 MSTORE POP POP JUMP JUMPDEST PUSH0 PUSH1 0x20 DUP3 ADD SWAP1 POP PUSH2 0x1286 PUSH0 DUP4 ADD DUP5 PUSH2 0x1264 JUMP JUMPDEST SWAP3 SWAP2 POP POP JUMP JUMPDEST PUSH0 DUP2 MLOAD SWAP1 POP PUSH2 0x129A DUP2 PUSH2 0xFB8 JUMP JUMPDEST SWAP3 SWAP2 POP POP JUMP JUMPDEST PUSH0 PUSH1 0x20 DUP3 DUP5 SUB SLT ISZERO PUSH2 0x12B5 JUMPI PUSH2 0x12B4 PUSH2 0xF51 JUMP JUMPDEST JUMPDEST PUSH0 PUSH2 0x12C2 DUP5 DUP3 DUP6 ADD PUSH2 0x128C JUMP JUMPDEST SWAP2 POP POP SWAP3 SWAP2 POP POP JUMP JUMPDEST PUSH0 PUSH1 0x40 DUP3 ADD SWAP1 POP PUSH2 0x12DE PUSH0 DUP4 ADD DUP6 PUSH2 0x1264 JUMP JUMPDEST PUSH2 0x12EB PUSH1 0x20 DUP4 ADD DUP5 PUSH2 0x1053 JUMP JUMPDEST SWAP4 SWAP3 POP POP POP JUMP JUMPDEST PUSH2 0x12FB DUP2 PUSH2 0x1020 JUMP JUMPDEST DUP2 EQ PUSH2 0x1305 JUMPI PUSH0 DUP1 REVERT JUMPDEST POP JUMP JUMPDEST PUSH0 DUP2 MLOAD SWAP1 POP PUSH2 0x1316 DUP2 PUSH2 0x12F2 JUMP JUMPDEST SWAP3 SWAP2 POP POP JUMP JUMPDEST PUSH0 PUSH1 0x20 DUP3 DUP5 SUB SLT ISZERO PUSH2 0x1331 JUMPI PUSH2 0x1330 PUSH2 0xF51 JUMP JUMPDEST JUMPDEST PUSH0 PUSH2 0x133E DUP5 DUP3 DUP6 ADD PUSH2 0x1308 JUMP JUMPDEST SWAP2 POP POP SWAP3 SWAP2 POP POP JUMP JUMPDEST PUSH32 0x4E6F20746F6B656E73206C656674206F6E20636F6E7472616374000000000000 PUSH0 DUP3 ADD MSTORE POP JUMP JUMPDEST PUSH0 PUSH2 0x137B PUSH1 0x1A DUP4 PUSH2 0xEB1 JUMP JUMPDEST SWAP2 POP PUSH2 0x1386 DUP3 PUSH2 0x1347 JUMP JUMPDEST PUSH1 0x20 DUP3 ADD SWAP1 POP SWAP2 SWAP1 POP JUMP JUMPDEST PUSH0 PUSH1 0x20 DUP3 ADD SWAP1 POP DUP2 DUP2 SUB PUSH0 DUP4 ADD MSTORE PUSH2 0x13A8 DUP2 PUSH2 0x136F JUMP JUMPDEST SWAP1 POP SWAP2 SWAP1 POP JUMP JUMPDEST PUSH32 0x596F7520616C726561647920726563656976656420746F6B656E2066726F6D20 PUSH0 DUP3 ADD MSTORE PUSH32 0x636F6E7472616374000000000000000000000000000000000000000000000000 PUSH1 0x20 DUP3 ADD MSTORE POP JUMP JUMPDEST PUSH0 PUSH2 0x1409 PUSH1 0x28 DUP4 PUSH2 0xEB1 JUMP JUMPDEST SWAP2 POP PUSH2 0x1414 DUP3 PUSH2 0x13AF JUMP JUMPDEST PUSH1 0x40 DUP3 ADD SWAP1 POP SWAP2 SWAP1 POP JUMP JUMPDEST PUSH0 PUSH1 0x20 DUP3 ADD SWAP1 POP DUP2 DUP2 SUB PUSH0 DUP4 ADD MSTORE PUSH2 0x1436 DUP2 PUSH2 0x13FD JUMP JUMPDEST SWAP1 POP SWAP2 SWAP1 POP JUMP JUMPDEST PUSH0 DUP2 SWAP1 POP SWAP2 SWAP1 POP JUMP JUMPDEST PUSH0 PUSH2 0x1460 PUSH2 0x145B PUSH2 0x1456 DUP5 PUSH2 0x143D JUMP JUMPDEST PUSH2 0x10FF JUMP JUMPDEST PUSH2 0xFAF JUMP JUMPDEST SWAP1 POP SWAP2 SWAP1 POP JUMP JUMPDEST PUSH2 0x1470 DUP2 PUSH2 0x1446 JUMP JUMPDEST DUP3 MSTORE POP POP JUMP JUMPDEST PUSH0 PUSH1 0x40 DUP3 ADD SWAP1 POP PUSH2 0x1489 PUSH0 DUP4 ADD DUP6 PUSH2 0x1264 JUMP JUMPDEST PUSH2 0x1496 PUSH1 0x20 DUP4 ADD DUP5 PUSH2 0x1467 JUMP JUMPDEST SWAP4 SWAP3 POP POP POP JUMP JUMPDEST PUSH32 0x46756E6374696F6E2063616E206F6E6C792062652063616C6C656420696E2074 PUSH0 DUP3 ADD MSTORE PUSH32 0x657374206D6F6465000000000000000000000000000000000000000000000000 PUSH1 0x20 DUP3 ADD MSTORE POP JUMP JUMPDEST PUSH0 PUSH2 0x14F7 PUSH1 0x28 DUP4 PUSH2 0xEB1 JUMP JUMPDEST SWAP2 POP PUSH2 0x1502 DUP3 PUSH2 0x149D JUMP JUMPDEST PUSH1 0x40 DUP3 ADD SWAP1 POP SWAP2 SWAP1 POP JUMP JUMPDEST PUSH0 PUSH1 0x20 DUP3 ADD SWAP1 POP DUP2 DUP2 SUB PUSH0 DUP4 ADD MSTORE PUSH2 0x1524 DUP2 PUSH2 0x14EB JUMP JUMPDEST SWAP1 POP SWAP2 SWAP1 POP JUMP JUMPDEST PUSH0 PUSH1 0x60 DUP3 ADD SWAP1 POP PUSH2 0x153E PUSH0 DUP4 ADD DUP7 PUSH2 0x1264 JUMP JUMPDEST PUSH2 0x154B PUSH1 0x20 DUP4 ADD DUP6 PUSH2 0x1053 JUMP JUMPDEST PUSH2 0x1558 PUSH1 0x40 DUP4 ADD DUP5 PUSH2 0x1053 JUMP JUMPDEST SWAP5 SWAP4 POP POP POP POP JUMP JUMPDEST PUSH32 0x4E487B7100000000000000000000000000000000000000000000000000000000 PUSH0 MSTORE PUSH1 0x11 PUSH1 0x4 MSTORE PUSH1 0x24 PUSH0 REVERT JUMPDEST PUSH0 PUSH2 0x1597 DUP3 PUSH2 0xFAF JUMP JUMPDEST SWAP2 POP PUSH2 0x15A2 DUP4 PUSH2 0xFAF JUMP JUMPDEST SWAP3 POP DUP3 DUP3 ADD SWAP1 POP DUP1 DUP3 GT ISZERO PUSH2 0x15BA JUMPI PUSH2 0x15B9 PUSH2 0x1560 JUMP JUMPDEST JUMPDEST SWAP3 SWAP2 POP POP JUMP INVALID LOG2 PUSH5 0x6970667358 0x22 SLT KECCAK256 PUSH14 0xA1B7C8E5EA8864F12351C36E7B45 LOG1 PUSH32 0x37B17F16865EAED0DD21EC1961520C64736F6C63430008160033000000000000 "
				},
				"gasEstimates": {
					"creation": {
						"codeDepositCost": "1124400",
						"executionCost": "infinite",
						"totalCost": "infinite"
					},
					"external": {
						"USD_BaseCoinContract()": "infinite",
						"allowance(address,address)": "infinite",
						"approve(address,uint256)": "infinite",
						"balanceOf(address)": "2918",
						"decimals()": "361",
						"donateMyGovToken(uint256)": "infinite",
						"donateUSD(uint256)": "infinite",
						"emptyTokenSupply()": "7396",
						"faucet()": "infinite",
						"getUSDBalanceOfAccount(address)": "infinite",
						"isMyGovMember(address)": "2950",
						"name()": "infinite",
						"symbol()": "infinite",
						"totalSupply()": "2500",
						"transfer(address,uint256)": "infinite",
						"transferFrom(address,address,uint256)": "infinite"
					}
				},
				"methodIdentifiers": {
					"USD_BaseCoinContract()": "34dcb04e",
					"allowance(address,address)": "dd62ed3e",
					"approve(address,uint256)": "095ea7b3",
					"balanceOf(address)": "70a08231",
					"decimals()": "313ce567",
					"donateMyGovToken(uint256)": "39c94d2d",
					"donateUSD(uint256)": "d915902e",
					"emptyTokenSupply()": "e6664928",
					"faucet()": "de5f72fd",
					"getUSDBalanceOfAccount(address)": "c7f48df7",
					"isMyGovMember(address)": "b3afcee4",
					"name()": "06fdde03",
					"symbol()": "95d89b41",
					"totalSupply()": "18160ddd",
					"transfer(address,uint256)": "a9059cbb",
					"transferFrom(address,address,uint256)": "23b872dd"
				}
			},
			"storageLayout": {
				"storage": [
					{
						"astId": 159,
						"contract": "Users/lynn/Documents/Uni/Bogazici/Blockchain/Cmpe483/contracts/MyGov.sol:MyGov",
						"label": "_balances",
						"offset": 0,
						"slot": "0",
						"type": "t_mapping(t_address,t_uint256)"
					},
					{
						"astId": 165,
						"contract": "Users/lynn/Documents/Uni/Bogazici/Blockchain/Cmpe483/contracts/MyGov.sol:MyGov",
						"label": "_allowances",
						"offset": 0,
						"slot": "1",
						"type": "t_mapping(t_address,t_mapping(t_address,t_uint256))"
					},
					{
						"astId": 167,
						"contract": "Users/lynn/Documents/Uni/Bogazici/Blockchain/Cmpe483/contracts/MyGov.sol:MyGov",
						"label": "_totalSupply",
						"offset": 0,
						"slot": "2",
						"type": "t_uint256"
					},
					{
						"astId": 169,
						"contract": "Users/lynn/Documents/Uni/Bogazici/Blockchain/Cmpe483/contracts/MyGov.sol:MyGov",
						"label": "_name",
						"offset": 0,
						"slot": "3",
						"type": "t_string_storage"
					},
					{
						"astId": 171,
						"contract": "Users/lynn/Documents/Uni/Bogazici/Blockchain/Cmpe483/contracts/MyGov.sol:MyGov",
						"label": "_symbol",
						"offset": 0,
						"slot": "4",
						"type": "t_string_storage"
					},
					{
						"astId": 784,
						"contract": "Users/lynn/Documents/Uni/Bogazici/Blockchain/Cmpe483/contracts/MyGov.sol:MyGov",
						"label": "token_supply",
						"offset": 0,
						"slot": "5",
						"type": "t_uint256"
					},
					{
						"astId": 787,
						"contract": "Users/lynn/Documents/Uni/Bogazici/Blockchain/Cmpe483/contracts/MyGov.sol:MyGov",
						"label": "USD_BaseCoinContract",
						"offset": 0,
						"slot": "6",
						"type": "t_contract(ERC20)651"
					},
					{
						"astId": 791,
						"contract": "Users/lynn/Documents/Uni/Bogazici/Blockchain/Cmpe483/contracts/MyGov.sol:MyGov",
						"label": "usedFaucet",
						"offset": 0,
						"slot": "7",
						"type": "t_mapping(t_address,t_bool)"
					},
					{
						"astId": 793,
						"contract": "Users/lynn/Documents/Uni/Bogazici/Blockchain/Cmpe483/contracts/MyGov.sol:MyGov",
						"label": "isTesting",
						"offset": 0,
						"slot": "8",
						"type": "t_bool"
					}
				],
				"types": {
					"t_address": {
						"encoding": "inplace",
						"label": "address",
						"numberOfBytes": "20"
					},
					"t_bool": {
						"encoding": "inplace",
						"label": "bool",
						"numberOfBytes": "1"
					},
					"t_contract(ERC20)651": {
						"encoding": "inplace",
						"label": "contract ERC20",
						"numberOfBytes": "20"
					},
					"t_mapping(t_address,t_bool)": {
						"encoding": "mapping",
						"key": "t_address",
						"label": "mapping(address => bool)",
						"numberOfBytes": "32",
						"value": "t_bool"
					},
					"t_mapping(t_address,t_mapping(t_address,t_uint256))": {
						"encoding": "mapping",
						"key": "t_address",
						"label": "mapping(address => mapping(address => uint256))",
						"numberOfBytes": "32",
						"value": "t_mapping(t_address,t_uint256)"
					},
					"t_mapping(t_address,t_uint256)": {
						"encoding": "mapping",
						"key": "t_address",
						"label": "mapping(address => uint256)",
						"numberOfBytes": "32",
						"value": "t_uint256"
					},
					"t_string_storage": {
						"encoding": "bytes",
						"label": "string",
						"numberOfBytes": "32"
					},
					"t_uint256": {
						"encoding": "inplace",
						"label": "uint256",
						"numberOfBytes": "32"
					}
				}
			},
			"userdoc": {
				"kind": "user",
				"methods": {},
				"version": 1
			}
		}
	}
}